:1000000000000420E1020000090300000B030000CF
:100010000D0300000F0300001103000000000000AA
:1000200000000000000000000000000013030000BA
:100030001503000000000000170300001903000072
:10004000F9A7000075E2030009A800001B030000E7
:100050001B0300001B030000C5A400001B030000DD
:100060001B0300001B0300001B0300001B03000018
:100070001B0300008DA900001B0300001B030000F0
:100080001B030000F91F00001B0300001B030000FE
:10009000952000001B0300001B0300001B03000051
:1000A0001B0300001B030000C9AC00001B03000081
:1000B0001B0300001B030000000000000000000004
:1000C0001B0300001B0300001B0300001B030000B8
:1000D000B10904001B0300001B030000559D000034
:1000E0001B0300001B0300004D0F04000000000074
:1000F000000000001B030000000000001B030000C4
:1001000000000000000000000000000000000000EF
:1001100000000000000000000000000000000000DF
:1001200000000000000000000000000000000000CF
:1001300000000000000000000000000000000000BF
:1001400000000000000000000000000000000000AF
:10015000000000000000000000000000000000009F
:10016000000000000000000000000000000000008F
:10017000000000000000000000000000000000007F
:10018000000000000000000000000000000000006F
:10019000000000000000000000000000000000005F
:1001A000000000000000000000000000000000004F
:1001B000000000000000000000000000000000003F
:1001C000000000000000000000000000000000002F
:1001D000000000000000000000000000000000001F
:1001E000000000000000000000000000000000000F
:1001F00000000000000000000000000000000000FF
:1002000010B5054C237833B9044B13B10448AFF350
:1002100000800123237010BD88060020000000002C
:10022000C49C04000C4B43B10C480D4910B5AFF30E
:1002300000800C48036823B910BD0A48036833B92D
:100240007047094B002BF7D0BDE810401847064B0C
:10025000002BF5D0184700BF00000000C49C04002C
:100260008C0600201805002000000000154B002B14
:1002700008BF134B9D46A3F5803A00218B460F46DD
:100280001348144A121A40F033FF0F4B002B00D0D2
:1002900098470E4B002B00D0984700200021040007
:1002A0000D000D48002802D00C48AFF3008040F04C
:1002B000A3FE200029000BF005FD40F077FE00BFF3
:1002C0000000080000000420000000000000000002
:1002D00088060020DC7700200000000000000000FD
:1002E0000649074A074B9B1A03DD043BC858D05008
:1002F000FBDC01F06FF9FFF7B9FF00004C9F040031
:100300000000002088060020FEE7FEE7FEE7FEE78B
:10031000FEE7FEE7FEE7FEE7FEE7FEE770470000C8
:1003200007B5044B0093044A802300F032F803B071
:100330005DF804FB3D030000A50600202DE9F8430D
:1003400089461446E2B10F4B0F4E0325002743F0B8
:100350000108224609EB070100200BF003FE0744C9
:10036000241A48B933785BB14FF47A40C047013D55
:1003700002D13570BDE8F88301233370002CE8D139
:10038000BDE8F883C0350400A406002070470BF0D8
:100390001DBEF0B595B008460D4616461C4607F042
:1003A000F0FC1A9A0D920023082205A928460A9308
:1003B0008DF82C300C930896099407F00BFD079BE1
:1003C0000293BDF81830ADF80C30BDF81A30ADF816
:1003D0000E3001238DF811309DF8143003F0030224
:1003E000012A1DD1BDF81440059EC3F3C203C4F316
:1003F00083148DF81030A20008230EA9284607F0B8
:10040000E9FCC6F3952608AB0093224602AB0EA981
:10041000304600F083FF284607F0B7FC15B0F0BD6A
:10042000022AF8D1BDF81640C3F3C203C4F38914FD
:100430008DF810300827082C264628BF08263B4692
:1004400032460EA9284607F0C5FCA41B08AB02AA39
:1004500031460EA8374400F0C5FF002CEBD1DAE797
:1004600008B5FFF794FF0421064800F09FFE00281E
:1004700003DA05491B2004F042F9044B01225A71AA
:1004800008BD00BF149F0400D43504000000002004
:1004900000230428CB604B6098BF044B044A98BFEC
:1004A00053F820308A600B60704700BF503804005A
:1004B0002C380400CB6800225A717047C368DB688F
:1004C00000225A717047CB6801225A717047C36885
:1004D000DB6801225A7170470D4A8A6070B50D4A77
:1004E0000D4C0023A41ACB604B600B6024091D4601
:1004F000A34200D170BDD6683679FF2E05D0854263
:1005000002D193680B6070BD013501331032EFE703
:1005100064380400149F0400449F04002DE9F74F41
:10052000154C164D52F804AC01932D1B0646884617
:1005300091462D090027BD4208D1114A5346022198
:10054000304603B0BDE8F04F04F0AABFA1685046A2
:1005500041F02FFBA346103408B10137EBE7DDED86
:10056000017A17EE90CA4B4642465946304603B0D0
:10057000BDE8F04F604700BF149F0400449F040093
:100580009C390400014BFFF7C9BF00BFAD0B000051
:10059000014BFFF7C3BF00BFB5040000014BFFF7DD
:1005A000BDBF00BFC7040000014BFFF7B7BF00BFCE
:1005B000E1090000037813F0040216D003F00303EE
:1005C000012B03D0022B09D0012070470A68008854
:1005D0000232C0F3831002440A60F5E70B684288D8
:1005E000023303EB92130B60EEE7104670470000F6
:1005F0002DE9F04F4A4C87B00D460746861C002077
:10060000009203F0FFFE23682B606268A368134426
:10061000226801339B1A04F21C4804F5836B04F230
:100620001449B34219D3009A0023002A6FD0012243
:1006300062F3010343F0040367F389132168A2689E
:100640000A4003320E44002044F82230266003F0B2
:10065000E9FE012007B0BDE8F08F0121404604F01B
:100660009BF8584604F0B5F80DF1180A484604F016
:10067000B0F860684AF8100DA36801931840033081
:1006800004EB80005146FFF795FF0546019B029859
:10069000002DF2D103EA000204EB8202D16803913B
:1006A000821C0130184004EB80000292C36804935E
:1006B00001F00303012B22D0022B05D019494FF47E
:1006C000AC7004F01CF809E0BDF80E30BDF8125013
:1006D000C3F38913033302EB93030293484604F0F8
:1006E0007BF808B1029B63602946404604F054F849
:1006F0006268A3681344226801339B1A91E7BDF82E
:100700000C30BDF81250C3F383131344E5E7022203
:1007100062F3010343F0040367F39F538EE700BFC6
:10072000C008002034360400012907B5034604D070
:100730008168D1F84813890707D500221146184669
:1007400003B05DF804EB06F07BB853680193054BEA
:1007500000931368044A022104F0A2FE03B05DF87E
:1007600004FB00BF863604007C3604002DE9F34705
:100770008368D3F84843C4F34004074634B10022E9
:10078000114602B0BDE8F04706F05AB8144D154EB8
:10079000DFF85880DFF85890DFF858A0761B36094C
:1007A000B44202D102B0BDE8F087EB681A79FF2AA3
:1007B00008D1AB680C4A0821384604F071FE0134B8
:1007C0001035EDE75B790192002B14BF43464B4691
:1007D00000935246AB680821384604F061FEEEE70C
:1007E000149F0400449F0400AC3604009B360400B0
:1007F000A3360400CB36040030B50A4B0A4A0B4935
:10080000D21AD20800239A4201D1052030BD31F816
:1008100023500468A54202D10360002030BD01339B
:10082000F1E700BF509D0400609E04001C050020FD
:100830008368D3F848339B0703D50022114605F09F
:10084000FFBF024A022104F02BBE00BFEC360400B9
:100850008368D3F848339B0703D50022114605F07F
:10086000EFBF024A022104F01BBE00BFEC360400B9
:100870002DE9F84F224B2348FF229A600022C3F84B
:1008800018241A605A60C3F8142483F8202407F04F
:100890002FFA804688B91C481C4E1D4DDFF874B0F5
:1008A00007F05EFDAD1BED084446AC4208D10023C5
:1008B000184919481A469C421BD14046BDE8F88F9A
:1008C0004FF000094F4606EBC40ABC420AD014227E
:1008D00056F83710DAF8000041F085F90028C8BF53
:1008E00009F101090137BD42EFD12BF82490013401
:1008F000DBE701EB830540F823206A800133DAE768
:10090000C0080020C09E040020380400509D040050
:10091000609E04001C050020A405002007B501907E
:1009200031B9074B019A53F8320003B05DF804FB6C
:1009300001A8FFF761FF0028F3D00020F5E700BF12
:10094000509D0400002310B5CB604B60034B8B60BF
:100950000C460121FFF7E2FF206010BD2C38040097
:10096000094B013903EBC000032909D8DFE801F086
:100970000A020406042070470079704740797047E6
:100980000020704702207047509D040030B5124C83
:1009900000EB400054F821508240072303FA00F096
:1009A0006A4002406A40C2F3C20302F00700834279
:1009B00038BF0346C2F38210834238BF034607485C
:1009C00044F82120C2F3422200EB81019A4238BF51
:1009D0001A464A8030BD00BFA40500201C05002037
:1009E0002DE9F74F06461D469046002A5AD0CB689F
:1009F00028684C4993F80490072241F0F4F8D0B9E4
:100A0000B8F1010F07D1484A0221304603B0BDE8D2
:100A1000F04F04F045BD454F04460A2257F8241014
:100A2000686841F0E0F8002865D00134052CF4D165
:100A30006B683F4A25E008223E49286841F0D3F818
:100A4000E8B9B8F1010F044622D001273A4A3B4BDE
:100A500001929B1A4FEAD30B05EB8705474521D23C
:100A600055F8043B00934FF0000AD34529D155F8BF
:100A7000043C334A0221304604F012FD39E02B6871
:100A8000304A0221304603B0BDE8F04F04F008BD03
:100A9000294B2A4FDFF8B0A0FF1AFF08002598461F
:100AA000BD4202D103B0BDE8F08F08EBC5039B79CE
:100AB000A34226D3224629464846FFF767FF013561
:100AC000EEE700215046FFF729FF0099202241F070
:100AD0008AF8014610B10AF1010AC6E7019B03EB4F
:100AE000CA029279A24217D3224651464846FFF7DE
:100AF0004DFF0137B2E7B8F1020FE4B2C8D00227C8
:100B0000A4E700212846FFF709FF524603460221C9
:100B1000304604F0C5FCD2E75046FFF7FFFE0A4A14
:100B20000346A7E7FD360400043704003C38040000
:100B300044370400A56B0400509D0400609E04002F
:100B4000303704001B3704006137040013460A469F
:100B5000C168FFF745BF000013B504460191A3B17A
:100B600062B9104B019A04EB4404072053F8223079
:100B7000A0401840E040C0B202B010BD01A8FFF78D
:100B80003BFE0028EDD00020F6E72AB9064B019A7B
:100B900003EBC2039879EFE701A8FFF72DFE0028C9
:100BA000F1D1F3E7A4050020509D04002DE9F04F9A
:100BB000274A284B9B1A4FEAD309CB685B7985B04B
:100BC00005460E461BB9244A022104F069FC234B5A
:100BD000234A244F0821284604F062FC224A0821B7
:100BE000284604F05DFC00244C4502D105B0BDE868
:100BF000F08FF36893F8048001231A46214640469B
:100C0000FFF7AAFF01222146834600234046FFF753
:100C1000A3FF0328034628BF03235FFA83FA804615
:100C200001212046FFF77AFE57F82A3001930F4A38
:100C30000F4B57F82B100091D04598BF13460293E5
:100C40000C4A03460821284604F02AFC0134CBE76D
:100C5000509D0400609E040086370400993704000C
:100C6000A53704003C380400C33704002B4E0400B1
:100C7000843704000038040013460A46C168FFF7B1
:100C800095BF000037B51B4B93F8203404460BB9D1
:100C900010B9002003B030BD40F09DFF02AA013022
:100CA00042F8080D012301A9134807F067FB054628
:100CB0000028EED1009A0198214640F0F4F99DE811
:100CC0000C0013440C4803F8015C009907F098FBF2
:100CD00020B10A494FF4F27003F011FD0099064863
:100CE00007F090FC20B105494FF4F47003F007FDC4
:100CF0000198CFE7C00800202038040034360400F3
:100D0000034B58681B68C31A58425841704700BFCC
:100D1000C00800202DE9FF47FFF7F2FF0646002834
:100D200040F00B818D4DC5F81804BFF34F8F6868F4
:100D3000AC6804AF47F8100D2040033005EB80008D
:100D40003946FFF737FC009B18B1D5F81824002A64
:100D500062D004EA030205EB8202D66801969A1C6F
:100D60000133234005EB8303F6B2DB68029306F000
:100D70000303022B009261D1BDF806307848C3F31B
:100D800089194F46A02FA8BFA02767F38F1307F13B
:100D90000801ADF8063006F0C3FFC6F3C206804670
:100DA000002800F0D28006F0ECFF082201A9002301
:100DB000404606F0F9FF009924EA01020132920050
:100DC000974234D9002A00F0BA8021405FFA82FAB3
:100DD0000331A7EB0A07634C05EB8101FFB208233F
:100DE0005246404606F0E0FF34B10AF108033A46A5
:100DF0002146404606F0D8FF009B09F1030903EBAA
:100E000099030093D5F81834002B4ED1D5F810442F
:100E1000554F4FF0070968E02A689A4204D86A6083
:100E2000304604B0BDE8F08704EA030085E70C40D3
:100E3000E11C08233A4605EB8101DAE7012B40F07B
:100E40008480BDF804604648C6F38311062928BF94
:100E5000062161F3891602318900ADF8046006F0BD
:100E60005FFFC6F3C206804600286ED006F089FFF9
:100E70000023082201A9404606F096FF0027BDF88E
:100E80000420C2F38312BB1C97424FEA8303B9D2FA
:100E900000994A1C21400331009205EB8101042294
:100EA000404606F081FF0137E9E7404606F06DFF56
:100EB000FFF726FF80F00100C6B2B1E7E3685A7978
:100EC0008AB11B79BDF8081003EB430257F82110D3
:100ED00009FA02F3052E03EA010323FA02F308BF1D
:100EE0000326B34234D2E3681C68002CE6D14046A6
:100EF00006F04BFF204603F085FAD5F818340BB9FD
:100F0000009B6B60002003F08DFAD1E72368204638
:100F10009B689847E3681C68002CF7D1134B5B88EB
:100F2000012BC5D9124B13481349C01AC00800043D
:100F300040F0020000F08EF8BAE7002670E75FFA92
:100F400087FA14460749174649E7D5F81044E3E7FE
:100F5000236841461B6820469847C4E7C008002024
:100F6000C09E0400CC080020A40500203C05002001
:100F7000509D0400909D0400C43904002DE9F74FF2
:100F80002F4C80460F46914601A9012218469B46E8
:100F9000A568FFF72DFB00283DD0DDF804A0002652
:100FA0000AF102025E4540D10021264803F0B4FB5D
:100FB00080F3100B244A254B4FEA18499B1AB9EBD2
:100FC000D30F04D3224940F27D1003F098FB0AF1BD
:100FD00001022A4004EB820249EA0B43D36005EA8E
:100FE0000A030333012114F8232068F3C50204F82F
:100FF000232034F8232066F3891224F8232054F8A0
:10100000232067F39F2244F8232061F301026FF34A
:10101000820204F8232094F820341BB1FFF77AFEF3
:101020000028FBD103B0BDE8F08F02EA050104EB14
:10103000810159F82630CB6001360132B2E700BF9A
:10104000C0080020DC0C0020509D0400609E0400BD
:101050003436040000231A46FFF790BF13B502ACE4
:10106000012344F8042D2246FFF788FF02B010BD8B
:1010700007B58DE80C0002236A46FFF77FFF03B037
:101080005DF804FB1FB50293069B0192039301AA2E
:101090000323FFF773FF05B05DF804FB1FB58DE870
:1010A0000C00069B0293079B03936A460423FFF7F9
:1010B00065FF05B05DF804FB7FB50293089B0393C1
:1010C000099B04930A9B0192059301AA0523FFF74C
:1010D00055FF07B05DF804FB2DE9F3478046314C1E
:1010E000D01C8A46174601A900228008A568FFF790
:1010F0007FFA002840D0DDF80490A66809F10200CC
:10110000019001362840361AB600B74200F10300BC
:101110003CD83A46514604EB80003FF0C4FF002122
:10112000214803F0F9FA80F3100009F101032B4084
:1011300004EB8303000440EA1840D86005EA090381
:10114000033304EB830214F8231068F3C50104F899
:10115000231034F823106FF38F1124F823105188D3
:1011600067F38F11518014F82320022161F30102EB
:101170006FF3820204F8232094F820341BB1FFF7A8
:10118000C9FD0028FBD102B0BDE8F08732465146C8
:1011900004EB80003FF087FFBA1B0AEB060104F165
:1011A0000C00BAE7C0080020DC0C00202DE9F84351
:1011B0001F4B8846D3F81014054600240A469AB9F6
:1011C000E9680C71D3F81014A1B9C3F81054EB6896
:1011D0001A60184F184EF61BF6084FF00009B1457B
:1011E00011D12046BDE8F883D2681079A04218D00A
:1011F0001268E4E7C968EA6809681160D3F8103436
:10120000DB681D60E5E707EBC9034946DA79EB685F
:10121000424528BF42461879FFF7B8FB09F101099A
:10122000DDE701340A2CC9D14FF0FF34D9E700BF04
:10123000C0080020509D0400609E040038B5094A93
:101240000123D2F8104482F820341D4604B938BD79
:10125000E3685D71236820465B689847E3681C6813
:10126000F4E700BFC008002073B5C38804460D46EC
:1012700033B1144A00921449144A284606F0F0F893
:10128000217A05291CD0637A4BB1A088FFF768FB4F
:101290000F4B104953F82020284606F0E1F8227A37
:1012A0000D4BA08853F822600021FFF737FB0B4954
:1012B00003463246284602B0BDE8704006F0D0B87A
:1012C00002B070BD6F3C0400573C04004F3C04006A
:1012D0001C3C0400134E0400803C0400743C0400D9
:1012E00010B5037A052B0C460FD0437A23B1084A78
:1012F0000849204606F0B4F80749204606F0B0F841
:101300002046BDE8104006F099B8002AF8D0F3E76F
:101310006F3C0400134E0400A74904002DE9F0437C
:1013200085B01F460C9D002306460C46904695F856
:101330000C902B7329463846FFF796FFB8F1060F3D
:1013400009D8DFE808F00412181F2833400031469E
:10135000284606F085F8002229463846FFF7C0FFE8
:1013600085F80C9005B0BDE8F08322683146284628
:1013700006F076F8EFE794E80C003146284606F0D0
:101380006FF8E8E7A3680093314694E80C0028461C
:1013900006F066F8DFE7E3680193A368009331463F
:1013A00094E80C00284606F05BF8D4E72369029322
:1013B000E3680193A3680093314694E80C00284643
:1013C00006F04EF8C7E76369039323690293E36865
:1013D0000193A3680093314694E80C00284606F078
:1013E0003FF8B8E708292DE9F84F80460E46174622
:1013F0001C4635D8002593F80C901D7319461046ED
:10140000FFF732FFDFF88CA0DFF88CB0AE4229D9AD
:1014100018F805205946204606F022F80135082D17
:10142000F4D11A49DFF874B0204606F019F84FF0ED
:10143000000A564524D918F80A507E2D17D92E22B5
:101440005946204606F00CF80AF1010ABAF1080FD5
:10145000EFD1012221463846FFF742FF84F80C9075
:10146000BDE8F88F5146204605F0FAFFD6E73FF079
:10147000EBFD2844427812F0970FE0D02A46DFE7D0
:101480000349204605F0ECFFDEE700BF4A3C0400BC
:10149000483C0400463C0400403C04004C3C040032
:1014A00010B503682F2B044604D907494FF4D570B3
:1014B00003F025F923681F2B83BF03F01F0323606C
:1014C00002484FF0A04010BD073D0400000300504B
:1014D000032813B5044603D908491B2003F00FF96C
:1014E000074B02A81B5D40F8043DFFF7D9FF019AA6
:1014F00001239340C0F80C3502B010BDCC3C040071
:10150000033D0400032813B5044603D908492120EC
:1015100003F0F5F8074B02A81B5D40F8043DFFF708
:10152000BFFF019A01239340C0F8083502B010BDF7
:10153000CC3C0400033D040008B50020FFF7E2FFA7
:101540000120FFF7DFFF0220FFF7DCFF0320BDE8EB
:101550000840FFF7D7BF0000F7B5C207054611D511
:10156000124F00240326E35D00936846FFF798FFBF
:10157000009B013403F5E073042C40F82360F2D1A2
:10158000FFF7DAFFAB070FD5094E00240C25A35D4A
:10159000019301A8FFF784FF019B013403F5E07379
:1015A000042C40F82350F2D103B0F0BD033D0400F9
:1015B000FF3C0400054B1B68082B01BF044B186857
:1015C000B0FA80F0400918BF0020704730010010C9
:1015D0003401001008B54FF080430022C3F80C21FD
:1015E000C3F81021C3F838254FF0805203F540436B
:1015F000D2F80414C3F82015D2F80814C3F824153F
:10160000D2F80C14C3F82815D2F81014C3F82C150E
:10161000D2F81414C3F83015D2F81814C3F83415DE
:10162000D2F81C14C3F84015D2F82014C3F844159E
:10163000D2F82414C3F84815D2F82814C3F84C156E
:10164000D2F82C14C3F85015D2F83014C3F854153E
:10165000D2F83414C3F86015D2F83814C3F86415FE
:10166000D2F83C14C3F86815D2F84014C3F86C15CE
:10167000D2F84424C3F87025FFF79CFF10B1384B13
:10168000384A1A60FFF796FF18B1374BFB22C3F8B0
:101690001825FFF78FFF48B13449354B0A681B689E
:1016A00022F00F0203F00F0313430B60FFF782FFDA
:1016B00018B1304B4FF400721A604FF08043D3F8EA
:1016C0000024D20744BF6FF00102C3F800242A4A65
:1016D000D2F8883043F47003C2F88830BFF34F8FDC
:1016E000BFF36F8F4FF01023D3F80022002A03DBE3
:1016F000D3F80432002B2FDA204B0122C3F8042543
:10170000D3F80024002AFBD04FF010221221C2F897
:101710000012D3F80024002AFBD04FF0102312222D
:10172000C3F80422154B1A46D3F800140029FBD045
:101730000021C3F80415D2F80034002BFBD0BFF30E
:101740004F8F0D490E4BCA6802F4E0621343CB6021
:10175000BFF34F8F00BFFDE70A4B0B4A1A6008BD6D
:101760008C5600404881030000F00040E40E004029
:10177000580200104096024000ED00E000E00140F9
:101780000400FA05080000200090D0030D4930B590
:10179000A1F50E720225914201D8002030BD8B1AAE
:1017A000DB1093FBF5F302EBC30452F833308342B2
:1017B00005DC02DA04F10802EDE7606830BD21467D
:1017C000E9E700BFC844040008B5FFF7DFFF024B9C
:1017D000002808BF184608BD2F3D040008B500F0DA
:1017E000DDFA00F0AFF8002007F032F818B1074931
:1017F000F92002F084FF08F0D1FC30B903494FF41E
:101800008B70BDE8084002F07ABF08BDC8440400F0
:1018100008B500F0EDF8FCE762B6704772B67047A5
:1018200013B502AC002304F8053D01939DF8033085
:10183000032B08D904210DEB010007F03FF830B964
:10184000019802B010BD204607F022F8EEE7002014
:10185000F7E708B51BF07EFD4FF47053584308BD01
:10186000034A431A934288BF0B1A1846704700BFB9
:10187000FEFFFF7F10B50446FFF7EBFF0444FFF7C0
:10188000E8FF844204D2FFF7E4FF8442FBD310BD9B
:10189000FFF7DFFF8442FBD810BD000070B50E4695
:1018A0001446054628B940F21F1143F65E3017F082
:1018B0000DFA76B94FF4907143F65E3017F006FAE0
:1018C000CCB940F2211143F65E30BDE8704017F00C
:1018D000FDB9002CF5D075B1284608F0A3FC3146BF
:1018E000204608F075FC30B9034940F22910BDE8E4
:1018F000704002F004BF70BDC8440400EFF30580DF
:10190000003018BF0120704737B54FF08053094DA4
:101910001C6E596E00220A4304F0FF030024224388
:101920002B4302A961E9022308223FF0BCFB03B06C
:1019300030BD00BF000E010B004870477C0D002039
:1019400006F05EBA08B517F085FC48B9054B1B7860
:1019500013B9054B1B781BB1BDE8084017F080BCDC
:1019600008BD00BFE5010020E80100202DE9F84393
:1019700007460E4617F06EFC58B1184B184CDFF8AE
:101980006890DFF86880E41AE408240444F0030453
:101990000EB9BDE8F883D9F80000C0F10805B542DA
:1019A000A8BF35462A46394640443FF07CFBD9F86B
:1019B00000202A44082AC9F800202F44A6EB050677
:1019C000E6D1084B5B88022B03D941462046FFF73E
:1019D00083FB0023C9F80030DAE700BF509D040004
:1019E000409E040094050020C80D0020C00D00207A
:1019F00010B50C4C226882B10B4B5B88022B0AD9C4
:101A00000A4B0B480B49C01AC008000492B240F0C0
:101A10000300FFF761FB00232360BDE81040FFF7E0
:101A200079B900BFC80D002094050020509D040026
:101A3000409E0400C00D00204FF0102358694FF065
:101A40008053411C1A695B6908BF03FB02F07047B1
:101A500010B54368044623B161214CF6C90017F064
:101A600035F92378022B03D8BDE8104017F006BCE7
:101A70006B214CF6C900BDE8104017F027B90000F3
:101A800010B5FFF7D9FF0B4C2061FFF7D5FF0A4BCC
:101A90000A49A0F54040E06000222046C3F8082132
:101AA00005F0D0FE28B10649A820BDE8104002F09C
:101AB00026BE10BD5C060020CC0D00201054040092
:101AC000134504004FF4804070470220704708B56A
:101AD00013460A4631B143B1014618463FF0E3FAD6
:101AE000002008BD6FF00A0008BD6FF00B0008BDB4
:101AF0000128F8B507460C4616461D4612D80B4479
:101B0000B3F5804F11D29AB1ADB1FFF795FFA4F5AF
:101B1000404101EB873101442A4630463FF0C3FA89
:101B20000020F8BD6FF03800F8BD6FF01600F8BD6A
:101B30006FF00B00F8BD6FF00C00F8BD0128F7B591
:101B400007460C4616461D4636D80B44B3F5804F63
:101B500035D2002A36D0AB0837D0FFF76DFFA4F599
:101B6000404404EB8734AB07044405D040F23D11F8
:101B70004CF6C90017F0AAF817F088FB07460028B2
:101B8000FAD117F073FB214600972B4632461048D6
:101B900005F094FE044628B14FF4A6714CF6C90036
:101BA00017F094F817F072FB0028FBD1201C18BF27
:101BB0000120404203B0F0BD6FF03800FAE76FF04B
:101BC0001600F7E76FF00B00F4E76FF00C00F1E799
:101BD0005C06002001282DE9F041064630D8FFF7C9
:101BE0002BFF00EB8630A0F54044DFF85C8004F565
:101BF000804717F04BFB05460028FAD117F036FB5B
:101C00002B4601222146404605F01EFF48B140F216
:101C10008D114CF6C90017F059F84FF0FF30BDE8B0
:101C2000F08117F033FB05460028FAD104F5805403
:101C3000A742DED1304617F031FB2846BDE8F081DF
:101C40006FF03800BDE8F0815C06002010B5084C4C
:101C5000D4F8083153B19BB22246D4F8041194F859
:101C60000001FFF76BFF0023C4F8083110BD00BF6F
:101C7000CC0D00202DE9F8431C4C1E46D4F8083149
:101C800081460F46904693B194F80021824207D1D5
:101C9000D4F804211A44914202D1B3F5807F06D1D1
:101CA000FFF7D4FF03E0FFF7D1FF2F44A844D4F897
:101CB000080118B984F80091C4F80471C0F5807562
:101CC000B54234BFADB235464DB12A4641462044F7
:101CD0003FF0E9F9D4F808312B44C4F80831761BF9
:101CE000B6B2002EDFD13046BDE8F883CC0D00201F
:101CF00007B50C4B18680090FFF79EFE0422A0F574
:101D000080410DEB02003FF0CEF9042269460DEB55
:101D100002003FF0B9F9B0FA80F0400903B05DF875
:101D200004FB00BF0F45040070B506460D4614467F
:101D3000FFF782FEA4F57F543C3C324629462044FE
:101D4000BDE87040FFF7C3BE00487047544504002B
:101D50000422032102708170002206214270C170AA
:101D600042607047B0F5A27F01D117F099BA704771
:101D700008B5FFF7E9FF08F0F1FEFFF7E5FF08F00F
:101D800007FF024B00221A7008BD00BFD80E0020CA
:101D9000014B1878704700BFD80E00201FB502A86D
:101DA000FFF7D6FFFFF7D0FF114A02A908F006FEA1
:101DB00018B11049672002F0A2FCFFF7C5FF0368C5
:101DC000D3F81045FFF7C0FFE2B24FF470310124A1
:101DD00021FA02F202232146009408F05CFFFFF78B
:101DE000B3FF08F09FFE044B1C7004B010BD00BF91
:101DF000651D00005C450400D80E002008B5084BA6
:101E00001B780BB9FFF7CAFFFFF79EFF08F0E8FE4B
:101E100028B9FFF799FFBDE8084008F083BE08BD68
:101E2000D80E0020024B0020C3F80005704700BF09
:101E300000A0025038B50A4B00251D60BFF35F8F2C
:101E4000084C0123C4F800353FF066F8C4F800558B
:101E500020B1052848F2035018BF032038BD00BF49
:101E6000A856002000A0025000B583B00290009157
:101E7000019244F2010071466A4637F077F903B0E7
:101E800000BD000012F0030310B511D1094C22600F
:101E90004C1CE400A4B22244074C2260074A137091
:101EA000074A1370074A1080074A1180184610BD70
:101EB000072010BDE00E0020DC0E0020D90E00200F
:101EC000E80E0020E40E0020E60E0020F8B5124CCB
:101ED000124D264622782B789A4200D1F8BD2378FD
:101EE0000F48104A078812680F48DBB219B202EB9C
:101EF000C10E006852F83120BEF8041003FB070041
:101F000090470A4A23781288DBB29A4286BF01338F
:101F1000DBB200233370DDE7E80E0020D90E00208D
:101F2000E40E0020E00E0020DC0E0020E60E002073
:101F3000094A537891780133DBB2994208BF0023F4
:101F4000117899421FBF03705078182303FB0020BB
:101F500014BF043000207047EC0E002037B5044653
:101F600000200D4602F04EFA0DF10700FFF7E0FFEA
:101F700090B10570094B9DF8072044605A70002409
:101F8000002002F04FFA24B9054B4FF48012C3F839
:101F90000021204603B030BD0424F1E7EC0E002000
:101FA00000E100E0024B4FF43C6043F001031847AE
:101FB000A045040038B50C4B0C4C4FF40032C3F86C
:101FC000802001254FF48033C4F84833C4F8083327
:101FD0006560FFF7E7FF064BA56000241C60FFF774
:101FE000E1FF044B1C7038BD00E100E0001001402F
:101FF00008100020F90F0020F8B51F491F4B0025DD
:10200000C1F84051C1F84451C1F84851C1F84C5190
:10201000C1F80051C1F804511B684BB3D1F8044515
:1020200017490968641A24F07F442F461A68A242AF
:1020300009D8A41A15441A7CDE691AB11F745A69AA
:1020400098699047AEB90F4B0F4A197813788B42B5
:1020500005D10133DBB2022B08BF002313701278C5
:102060000A4B43F822500A4B4FF48012C3F8002168
:10207000F8BD3346DAE700BF001001400C10002025
:10208000081000200410002005100020FC0F002084
:1020900000E100E02DE9F74F9C4A9D49137809784B
:1020A0009C4E994257D00133DBB2022B08BF00236C
:1020B000137099491278994B0F6853F822003B1816
:1020C00023F07F4300220B60336815461446964682
:1020D00013B942B1336006E01968814229D902B1CF
:1020E0003360091A19604FF0010833688C4FDFF82C
:1020F0003CB200934FF00009002D61D02C46ED69F1
:10210000854B60681A68831A23F07F41854B99429A
:10211000A36800F2B7800B44236000236360A360D0
:10212000E361336801222274002B40F0B3803460F5
:10213000E2E7401A0C44D968C3F800E0D3F81CC0A9
:1021400031B13A1922F07F42DD615A6099601D4633
:1021500063460122BCE70025A846C6E7531CB978B0
:10216000DBB299423B704FF0180303FB027208BFC9
:102170003D7013799468022B1BD0032B11D0012BD7
:102180001ED1217CE1B9D36863601369A3605369F0
:10219000E3609369A361644B1B78002BB0D061604E
:1021A000AEE7002335681A46002D67D143B135608C
:1021B00006E0326813469246002B5AD1002323745E
:1021C0003A787B789342C9D1B9F1000F06D13368D0
:1021D000009A9A4202D1B8F1000F44D03368002B24
:1021E00073D0D3F800A0514D4B4BD5F804751C6843
:1021F000DFF840813E1B98F8003026F07F4603361A
:102200009BB94FF48033C5F84433C5F80433484BC9
:102210004FF400324FF00109C3F880211A60C5F86D
:102220000090FFF7BFFE88F80090B2452CBF5444E1
:10223000A41924F07F44C5F84045D5F80435DB1BCC
:1022400023F07F43E41B033324F07F44A3420AD9E5
:10225000D5F80435C5F84035FFF7A4FE344B4FF4EC
:102260000032C3F80021304B00221A7003B0BDE8E1
:10227000F08F9C422CD09A46DB699DE72A7401239B
:10228000ED6991E7121A22F07F429A4234BF9B1AFD
:10229000002341E7226819688A420BD88A1A1A601B
:1022A000E36144E7521AD969184661B92260E161D5
:1022B000DC6121E7184619689142F3D3891A196045
:1022C00019460346F2E70B46F5E7FFF773FECAE748
:1022D00054450DD1D369336053B90F4801920121A0
:1022E000CBF808100360104B1970FFF75BFE019AE2
:1022F000E1692368CAF81C1011B1086803440B6037
:1023000033689A4218BF4FF0010957E704100020C4
:10231000051000200C10002008100020FC0F0020E9
:10232000EC0E0020FEFF7F00F80F0020001001409F
:1023300000E100E0F90F002008B5FFF73BFE114B6C
:1023400000200B2218709A7058700F4B18600F4BBA
:1023500018700F4B18700F4B4FF48012C021C3F848
:10236000802183F814131A6002F18042A2F56F22D3
:10237000C2F8080583F81113074BD2F804251A6038
:1023800008BD00BFEC0E00200C100020041000203F
:102390000510002000E100E008100020074B9B78AA
:1023A0004BB132B128B10368187C20B959745A6115
:1023B0007047072070470820704700BFEC0E0020D0
:1023C0002DE9F3411D4EB37804460D46174693B3ED
:1023D00088B304292DD943696BB3437C0020012BBA
:1023E0000CBF88464FF0000802F00CF80DF1070012
:1023F000FFF79EFDD8B101230370114B4460D3F861
:10240000043583609DF80730C560C0F810804761CF
:1024100073700024002002F005F824B9094B4FF432
:102420008012C3F80021204602B0BDE8F0810424E8
:10243000F0E70724F7E70824F5E700BFEC0E0020DB
:102440000010014000E100E0064A92783AB130B154
:10245000426922B1002202740221FFF77FBD0820E9
:10246000704700BFEC0E0020024B5B6803B11847B9
:10247000704700BF10100020024B01465A681868D0
:10248000104700BF641000200378052B0CD1084AC8
:10249000D2F88434D2F8802412F0FF0F04D1054A18
:1024A000DBB2052B08BF1046034B1B68184700BF63
:1024B000007002406846040010100020FFF7E4BFDF
:1024C00038B50D46044620B9064940F21D1002F009
:1024D00016F96378AB4283BFA07840190019002039
:1024E00038BD00BFAD45040038B50D46044618B9E7
:1024F0000649EA2002F003F9237AAB4283BF09348C
:1025000005EB45056019002038BD00BFAD4504004E
:1025100070B50D46044618B90B49E92002F0EFF8F2
:1025200063681BB90849EA2002F0E9F863681B6890
:102530001BB90549EB2002F0E2F863682946204602
:102540001B68BDE8704018471A46040008B520B162
:10255000044940F2552002F0D2F80348BDE8084093
:10256000FFF792BF1A4604006C46040010B50446FB
:1025700020B9044940F21D2002F0C1F82368186810
:1025800010BD00BFE945040010B510F0800F00F049
:102590000F04E4B20AD0082C04D909494FF4B970E9
:1025A00002F0ADF8074800EBC40010BD082C04D9B8
:1025B00003494FF4BC7002F0A2F80348F3E700BFF0
:1025C0001A4604001C1000206410002070B50D464F
:1025D0000646FFF7D9FF044605604DB9730604D1DE
:1025E00005494FF4CE7002F08AF80023636070BD95
:1025F0006B681B68FAE700BF1A46040001280AD07E
:1026000006D3022809D006494FF40F7002F077B8BC
:102610000448FFF739BF0448FBE70448F9E700BF67
:102620001A4604005C460400604604006446040048
:1026300038B5831EDBB2062B98BF194A194C98BFD8
:10264000D25C2378A3F10203DBB288BF0022062B01
:102650009ABF1349CB5C00239342054603D0A2B135
:10266000114806F05DF8022D12D0082D10D000237D
:102670002278022A01D0082A0CD101229A4202D0E3
:1026800053B106F035FE257038BD06F085F8EAE74F
:102690000123EDE70022F1E706F020FEF3E700BF9B
:1026A000A6450400B51000200C0000202DE9F04FD5
:1026B00087B006AC002644F8106D05468946924660
:1026C00098466B6800225F68294601232046B84778
:1026D00040B98DF80600049004460746BE4203D870
:1026E00005202AE00136ECE76B680DF10602D3F80D
:1026F00004B02946012304A8D8476B680DF10702EE
:10270000D3F804B02946012304A8D8479DF8073020
:102710004B459DF8063015D1544511D1109A1360E0
:1027200088F8003088F801906A68023B54682946AE
:1027300008F1020204A8A047002007B0BDE8F08F0E
:102740000134E4B26A68023BD2F804B029460022A0
:1027500004A8D8479DF806301F44BFE72DE9F34190
:10276000054605F085FF20B92E4940F20B3001F0F7
:10277000C6FF2D4806F0F8FD044600284ED12B4B2D
:1027800018702B4B18602B4B0146186048222A48C2
:102790003EF0AEFC4822214628483EF0A9FC284BDA
:1027A000B5B9284A1D7283E824001A680AB9254A77
:1027B0001A60002006F014F830B1852804D0194AB8
:1027C00040F23931FFF750FB0024DFF87C800FE046
:1027D00095E8070083E80700E7E741460078FFF740
:1027E000F5FEF1B23846FFF76BFE01360028F4D152
:1027F00021464046FFF778FE651CEDB2074610B152
:1028000000262C46EDE702A90B2301F8043D0E48F3
:10281000FFF77EFE044608B106F034FC204602B005
:10282000BDE8F0811A460400BD240000B510002068
:10283000AC100020B01000201C10002064100020FC
:1028400010100020592C0000EC46040010B506F0D2
:10285000F7FC08B9082010BD06F0FAFC0446002871
:10286000F8D1064805F0D7FF30B1054A4FF467713B
:10287000FFF7FAFA204610BD10BD00BF584604000D
:102880001A46040006F00EBC08B506F0EBFC20B1B9
:10289000044940F2AB3001F032FFBDE8084007F0D8
:1028A00063BB00BF1A46040008B506F0D1FC20B98E
:1028B0000A4940F2B23001F022FF4FF08043D3F8D2
:1028C0003824920704D50648BDE80840FFF7DCBD70
:1028D000D3F83824D107F2D408BD00BF1A4604004B
:1028E0006D46040007B502A8822300F8043DFFF7F7
:1028F000CBFD03B05DF804FB2DE9F341044620B99C
:102900003B4940F2445001F0FAFE636823B938496C
:1029100040F2455001F0F3FE63681B6823B9344967
:1029200040F2465001F0EBFE23681B6823B13049AA
:1029300040F2475001F0E3FE06F08AFC30B12C492A
:1029400040F24B5001F0DBFE002617E006F078FC69
:102950000028F9D1F3E70078FFF716FE036808F1C5
:10296000010823B1112035E04FF000083E465FFA20
:1029700088F12846FFF7A4FD0028ECD13146204617
:10298000FFF7B2FD771CFFB205460028ECD12946BF
:102990002046FFF7A9FD6E1CF6B2804670B10027F5
:1029A000354603E021460078FFF710FEF9B24046B5
:1029B000FFF786FD01370028F4D1E8E70D4D0C4EF6
:1029C0002B6853B902A90B232C60204601F8043D63
:1029D000FFF79EFD02B0BDE8F0819C4204D1314674
:1029E00040F2715001F08BFE2B681D68E8E700BFD4
:1029F0001A460400AC100020024B1878003018BFB3
:102A000001207047B410002000F00F03072B10B511
:102A1000044604D806F0E0FF204607F09BFB204662
:102A2000BDE8104007F046BB07F010BB014B18682B
:102A3000704700BFAC1000202DE9F8430E4B1C6816
:102A400080460F46ACB194F808900026F5B24D458B
:102A500004D32046FFF78AFD0446F3E729462046C3
:102A6000FFF742FD0378434506F10106EED107B1B9
:102A70003D702046BDE8F883AC1000201146FFF7FA
:102A800047BD00F00F03082B10B50C4608D8FFF720
:102A90007BFD006820B12146BDE81040FFF738BD3E
:102AA000102010BD38B5074B1C68054604B938BD69
:102AB00029462046FFF72CFD2046FFF757FD044628
:102AC000F4E700BFAC10002038B5084B1C68054681
:102AD0000CB9062038BD29462046FFF719FD062807
:102AE000F8D12046FFF742FD0446F1E7AC10002084
:102AF00038B504460D4606F096FC48B1054B1B78E8
:102B0000022B05D129462046BDE8384006F098BC86
:102B1000082038BDB510002038B504460D4606F033
:102B200082FC48B1054B1B78022B05D12946204673
:102B3000BDE8384006F00ABD082038BDB5100020B9
:102B400070B543689B6805460E4614469BB92B7AC0
:102B5000B34204D20F4940F2D32001F0D0FDB4B902
:102B600031462846FFF7C0FC46780546E1B28E4262
:102B700005D8002070BD98470628E8D070BD2846CB
:102B8000FFF79EFC0078FFF73FFF0134EEE70720D8
:102B9000F4E700BF1A46040070B54368DB680446DA
:102BA0000D4603B19847237AAB4204D20B4940F259
:102BB000F22001F0A4FD29462046FFF795FC467857
:102BC00005460024E1B28E4200D870BD2846FFF7CA
:102BD00077FC007807F03AFA0134F3E71A4604006C
:102BE00043681B6903B1184718467047F8B50D4B89
:102BF0000D4E1C6804B9F8BD277A0025E9B2B94228
:102C000004D32046FFF7B2FC0446F3E70022204637
:102C1000FFF796FF20B1314640F2447001F06FFD9E
:102C20000135EBE7AC1000201A46040070B5094BE3
:102C30001C6804B970BD267A0025E9B2B14220466D
:102C400003D3FFF793FC0446F3E7FFF7A5FF013535
:102C5000F3E700BFAC10002038B58E4B1B6805466B
:102C600023B98D4940F2FF3001F049FD01F0EAFB44
:102C7000052804D8884940F2064001F040FD2C7830
:102C8000092C20D023D8032C00F0C38012D8012CAB
:102C900000F0AD8040F294800320FFF7C9FC0220D1
:102CA000FFF7E2FB2846FFF7FDFE2846BDE8384067
:102CB000FFF7E2BB052CF8D0C0F0BA80062C00F07C
:102CC000C680082C13D12046FFF7CEFB9CE0812C58
:102CD00014D005D80F2CF6D0802C4AD00A2CF1E75E
:102CE000832C53D025D3842C5AD0852CDDD06A492F
:102CF0004FF4A060BDE8384001F001BD6748FFF720
:102D0000BBFB6648FFF7CEFE0D20FFF7ADFBFFF7DC
:102D10008DFF01F016F8624B1B6843B9614B187ABE
:102D200006F054FA0120BDE83840FFF781BC0120CD
:102D3000F6E7FFF77BFF07F0EFF80020FFF778FCDE
:102D40005948FFF7AFFE5848FFF796FB0E20FFF7F4
:102D50008BFB564B1B78023BDBB2062B00F29880B4
:102D6000534AD35C002B00F09380BDE8384005F057
:102D700013BD4E4B1B78062B06D0072B02D0052B1C
:102D800040F086800220CEE70820CCE7474B1B7836
:102D9000032B7DD107F024F9002879D00420C2E765
:102DA000424B1B78032B05D107F01AF910B1042010
:102DB000FFF73EFC06F066FA002869D00620B2E76D
:102DC0003A4B1B78032B01D0082B02D13948FFF76F
:102DD00043FF0020FFF748FB314B1C6804B938BDA6
:102DE00020462946FFF794FB23685C68F6E7FFF767
:102DF0001DFF00F09DFF0220FFF71AFC2046FFF7A1
:102E000033FB2846FFF738FB2846BDE83840FFF77C
:102E100049BE264B1B78082B06D10220FFF708FC81
:102E200006F070FA0320EAE70520FFF701FCF9E756
:102E30000320FFF719FB2048FFF71EFB1E48FFF792
:102E400031FE1A4B1B78062B9CD107206BE7A87824
:102E5000FFF79AFB0368044623B90F4940F2DC40B0
:102E600001F04DFC636823B90B4940F2DD4001F0ED
:102E700046FC636820682946984748B1A87800F066
:102E80000F03013B062B03D8BDE8384006F066BDB2
:102E900038BD00BFAC1000201A4604006E46040086
:102EA000B0100020101000206F460400B510002064
:102EB000A645040070460400714604004360CA69D8
:102EC000934299BF8A69026001F1280202609ABFA9
:102ED0000B67CB618B6700207047000038B50D464B
:102EE000044618B90649EA2001F009FC237AAB42EE
:102EF00083BF093405EB45056019002038BD00BFCC
:102F0000AD45040038B50D46044620B9064940F2E7
:102F10001D1001F0F4FB6378AB4283BFA078401929
:102F20000019002038BD00BFAD45040008B50121DF
:102F3000FFF7D4FF0121FFF7E5FF007808BD00008F
:102F400010B5044618B90649392001F0D8FB2368AA
:102F50001BB903493A2001F0D2FB20680C3010BDA8
:102F6000904604004360CA6993420ED88A690260A1
:102F70008A69C8691A448A610A6FC01A1A44C8610A
:102F800000300A6718BF0120704701F12802026073
:102F90008B6700207047000001492C2001F0AFBB77
:102FA0009046040070B50D46044608B9FFF7F4FFDB
:102FB000E36923B129462046BDE87040184770BD3B
:102FC0002DE9F8431746BE4A99460B7A13700E4610
:102FD0000546904620B9BB4940F2E92001F08FFB3D
:102FE0002B6840F21E32934200F0C78200F2D38079
:102FF000B3F5407F00F0378266D8B3F53C7F00F030
:10300000F48126D840F2ED22934200F0D3810AD811
:10301000002B00F0B981B3F53B7F00F0C0810020A8
:103020002860BDE8F88340F2EE22934200F0D081A0
:1030300040F2EF229342F2D100240FB12B793B559D
:1030400001340223A1452B7100F2D0814FF43C736F
:10305000A1E140F2F322934200F0E081B3F53D7F1D
:1030600015D240F2F122934200F0CB8140F2F222DD
:103070009342D4D100240FB12B793B550134002366
:10308000A1452B7100F2CB8140F2F32383E140F2A2
:10309000FA22934200F0DA8140F2FB229342BED141
:1030A00000240FB12B793B55874B30461978FFF739
:1030B00015FF864B01341860A14503782B7100F28F
:1030C000D3814FF4407366E140F20D32934200F039
:1030D000088239D840F20632934200F0DF811DD8D1
:1030E00040F20132934200F0CA8140F20232934230
:1030F00095D100240FB12B793B55744B327D1B6861
:103100001B789A4204F1010440F0E1810223A145B9
:103110002B7100F2C48140F206333CE140F20732E9
:10312000934200F0C781B3F5427F7FF478AF00246B
:103130000FB12B793B5501340023A1452B7100F2CF
:10314000F08140F2163326E140F21632934200F04D
:10315000E78108D840F20E32934200F0CE8140F26F
:103160000F329342E1E7B3F5477F00F0EE8100F2C2
:10317000F88140F21B3293427FF451AF00240FB12B
:103180002B793B5501342423A1452B7100F2DE81BC
:103190004FF44773FFE0B3F54C7F00F05C826BD8CF
:1031A00040F22632934200F0248232D840F2233299
:1031B000934200F00582B3F5497F16D240F21F32E8
:1031C000934200F0E88140F2223293427FF427AF2D
:1031D00000240FB12B793B5501342423A1452B71D9
:1031E00000F2EF8140F22333D5E000F0F58140F2A8
:1031F000253293427FF413AF00240FB12B793B5556
:103200000134B37D2B71A14500F2F48140F22633E5
:10321000C1E040F22B32934200F00482B3F54B7FC1
:1032200016D240F22932934200F0EF8140F22A3266
:1032300093427FF4F4AE00240FB12B793B55013457
:103240000223A1452B7100F2EE8140F22B33A2E064
:1032500000F0F48140F22F3293427FF4E0AE00247C
:103260000FB12B793B5501342423A1452B7100F27A
:10327000F3814FF44C738EE0B3F5537F00F0398245
:1032800042D840F23332934200F0FE81B3F54D7FD5
:103290001ED240F23132934200F0E98140F23232E4
:1032A00093427FF4BCAE00240FB12B793B5501341F
:1032B000B37D2B71A14500F2E88140F233336AE01F
:1032C000B810002090460400B7100020BC10002069
:1032D00040F24732934200F0FF81B3F5527F7FF412
:1032E0009EAE00240FB12B793B55B14B1978B14BF1
:1032F0001868FFF707FE013403782B71A14500F22F
:10330000F9814FF4537346E040F25D32934200F08E
:10331000158215D840F25132934204D040F2563211
:1033200093427FF47CAE00240FB12B793B550134DE
:103330004023A1452B7100F2028240F25D332AE066
:1033400040F26332934200F01082B3F55A7F00F0EE
:103350000C8240F25E3293427FF461AE00240FB1E2
:103360002B793B55934B327D1B681B789A4204F1B5
:10337000010440F0F081336AA1451B782B7100F203
:10338000F58140F2633306E008232B71B9F1000F99
:1033900005D14FF43B732B600120BDE8F8830FB1DA
:1033A0002B793B700B23B9F1010F2B710ED840F232
:1033B000ED23F0E700240FB12B793B550134337D29
:1033C0002B71A14505D840F2EE23E4E70124F2E792
:1033D00000240FB12B793B5501340223A1452B71F9
:1033E0003FF62BAE40F2EF23D5E700240FB12B7947
:1033F0003B5501340223A1452B7103D840F2F12340
:10340000C9E700240FB12B793B550134737E2B7132
:10341000A1453FF630AE40F2F223BCE700240FB1E5
:103420002B793B55644B002201341A70624B1A7899
:1034300098F800309A4202D340F27333ABE7092385
:10344000A1452B7103D840F2FA23A4E700240FB161
:103450002B793B5501340423A1452B713FF621AE56
:1034600040F2FB2397E700240FB12B793B55013441
:103470000023A1452B7103D840F201338BE70024D0
:103480000FB12B793B554B4B1B6801345B782B718B
:10349000A1453FF62FAE40F202337CE700240FB186
:1034A0002B793B5501340223A1452B7103D840F2FF
:1034B000073370E700240FB12B793B550134737E3D
:1034C0002B71A1453FF634AE4FF4427363E7B27DF2
:1034D0009A421FD10A23A1452B7103D840F20D3324
:1034E00059E700240FB12B793B5501340023A14546
:1034F0002B7103D840F20E334DE700240FB12B7926
:103500003B5501340023A1452B713FF611AE40F22B
:103510000F3340E7294940F2133001F0F0F80BE691
:1035200000240FB12B793B55224B327D1B681B7851
:103530009A4204F1010440F0BF800523A1452B719C
:103540003FF61DAE40F21B3325E700240FB12B7967
:103550003B5501340023A1452B7103D840F21D33A4
:1035600019E700240FB12B793B5501341023A145F5
:103570002B7103D840F21E330DE700240FB12B79D5
:103580003B5501340120A145287105D840F21F3375
:103590002B60BDE8F88300240FB12B793B55013433
:1035A0000523A1452B713FF614AE40F22233F2E61B
:1035B000B9100020BC100020B71000209046040075
:1035C00000240FB12B793B5501340120A14528710E
:1035D00003D84FF44973DBE700240FB12B793B5537
:1035E00001340323A1452B713FF607AE40F225338A
:1035F000D1E600240FB12B793B5501340423A145BA
:103600002B7103D840F22933C5E600240FB12B7982
:103610003B5501342423A1452B713FF60DAE40F2FA
:103620002A33B8E600240FB12B793B55013402232D
:10363000A1452B7103D84FF44B73ACE600240FB1B6
:103640002B793B5501340523A1452B713FF608AE7C
:1036500040F22F339FE600240FB12B793B55013404
:103660000623A1452B7103D840F2313393E60024A1
:103670000FB12B793B550134337D2B71A1453FF6BA
:1036800013AE40F2323386E600240FB12B793B555E
:1036900001343E4B1B685A783D4B1A703D4B00225B
:1036A0001A703C4B1A783A4B1B789A420DD33A4A1F
:1036B000137801331370B9E6B27D9A42E9D03749E5
:1036C0004FF44F7001F01BF8E3E70723A1452B717E
:1036D00003D840F247335EE600240FB12B793B5507
:1036E00001340523A1452B713FF6FCAD4FF4527315
:1036F00051E600240FB12B793B55244B327D1B68DA
:103700001B789A4204F1010407D10323A1452B71D0
:103710003FF60AAE40F251333DE6B27D9A4207D100
:103720000223A1452B713FF6FFAD40F2563332E63E
:103730001A4940F25A3000F0E2FFF9E500240FB1D7
:103740002B793B5501340023A1452B713FF607AE81
:1037500040F25E331FE6B27D9A4210D10023A145AC
:103760002B7103D84FF45A7315E600240FB12B794F
:103770003B550134074A13780133137091E7074929
:103780004FF45B7000F0BBFFF4E700BFBC100020FB
:10379000B6100020B9100020B71000209046040099
:1037A00010B5044608B9FFF7F7FB2046FFF7C8FB42
:1037B0000023838283610362C36603674367836771
:1037C00000F12803836610BD2DE9F0430D4689B052
:1037D000064620B9A14940F2B72000F090FF25B974
:1037E0009E494FF42E7000F08AFF2B780E2B20D8C4
:1037F000DFE813F075006301750075001F000F000E
:10380000C2001F001F0063011F00750075007500D6
:10381000750026B991494FF4D17000F070FF6A78B5
:10382000D3094FEA52133DD013F0030303D0012B09
:1038300028D0062422E002F01F02012AF9D1AC7838
:10384000062CF6D105A8039300F052FD03ABEA78ED
:1038500029790093074603463046FEF727FF0528DF
:103860000CD0039B3F2B03D97C49A32000F047FFDA
:10387000039A3946681C00F07FFA0446204609B0D6
:10388000BDE8F0830EB9FFF787FB3046FFF758FB22
:10389000AB78212BCDD1B5F80720072AC9D100F18B
:1038A0000C01E7E7012BC4D10EB9FFF775FB3046D9
:1038B000FFF746FBAB78202B074612D0222BB8D15E
:1038C000B5F80730002BB4D1027DB5F80330838200
:1038D00002F0010203F001039A429CB22AD10024B3
:1038E000CCE7B5F80730072BA3D10EB9FFF754FB8F
:1038F0003046FFF725FBAB780370B5F8073043700F
:10390000831C00240593437806932046079400F017
:1039100079FD204605A9FFF7EBF8044630B9504B76
:10392000039303A9049600F015FA0446002000F062
:1039300079FDA3E7002C14BF022103213046FFF7D5
:1039400031FB002CCBD101213046FFF7C7FA2146CD
:10395000FFF7D8FA007806F0C1F93046FFF7E6FA2B
:1039600006F0BCF907F12803BC613C62FC663C67C9
:103970007C67BC67BB6681E700213046FFF7AEFA83
:103980000021FFF7BFFAAB7802789A42A7D013F074
:10399000800FEC780AD024B1032C0CBF0024032440
:1039A0006CE701213046FFF7FDFA67E7012C96D05E
:1039B00003D3032C93D0032460E70EB9FFF7ECFA8E
:1039C0003046FFF7BDFA05463046FFF7AFFA254B04
:1039D00005930695EF698046B7B92C6A2B6F6B6724
:1039E0002F67EF666CB105F1200103C905F11803DB
:1039F00083E803002F6205A94046FFF78DF80446CF
:103A000000E0AC610021CDE7D5F87890A8694F457A
:103A100028BF4F4605F128043A4621463DF043FBB6
:103A20002B6F3B446B67A9EB0703EB662B6A002205
:103A30003C442A67AC66002B3DD005F1200999E88B
:103A4000030005F1180787E8030014462A62EB6EAD
:103A500053B9AC69002CCED1D4E700BF9046040026
:103A6000C53A0000652F0000EA699A4217D8A96E8E
:103A7000A8693DF018FBEB69EA6E6B67D21AEA663B
:103A8000AA6E1A44AA6600213046FFF78BFA2B6A09
:103A90008BB199E8030087E803002C62D7E71A4648
:103AA000A96EA8693DF0FFFAEA6EEB692A679B1AD6
:103AB000EB61AB691344AB61CBE73046FFF770FEB7
:103AC0000DE700BF10B5044660B90846FFF738FAA5
:103AD0000378202B08D1811C07220C303DF0E3FA3B
:103AE000204610BD032010BD062010BD7FB5144632
:103AF00006460D46FFF724FA838ADA0713D501211B
:103B00003046FFF7EBF90021FFF7FCF9A306007838
:103B100001950CBF0123002301A902940393FEF732
:103B2000E7FF04B070BD0820FBE708B5FFF708FA0F
:103B3000406F08BD2DE9F341074690460E4621B976
:103B40001F4940F2F93000F0DAFD3846FFF7F8F986
:103B5000838ADB07044630D5002000F053FCE56E75
:103B6000B5B1454528BF4546A16E2A4630463DF0D1
:103B70009AFAE36E65675B1BE366A36E2B44A3664C
:103B80000024002000F04EFC204602B0BDE8F08189
:103B9000A36983B9A661C4F81C803846FFF7C6F94B
:103BA000084B69468DE81800FEF7B6FF002814BFE1
:103BB00004469224E5E71124E3E70824E4E700BF84
:103BC00090460400BD2E00000020704710B504464A
:103BD00020B9044940F21D2000F091FD23681868C7
:103BE00010BD00BFE94504002DE9F04F4B6887B0D8
:103BF00080460C4693466BB90868FFF7E7FF48B963
:103C0000A5683DB9C8F80050C8F80450284607B068
:103C1000BDE8F08FBBF1400F04D938494FF4B870BC
:103C200000F06DFD05F0DCFCE76802905F453B4667
:103C300028BF5B4601934FF0000904F110034E4684
:103C400001250393019B002B31D0A368DDF804A06C
:103C500061689A4528BF9A4600292CD0029B52469B
:103C600098193DF020FA00236360E268A368A2EB94
:103C70000A02E260019AA3EB0A03A2EB0A02A36024
:103C80000192564433B9B9F1000F03D02068FFF711
:103C90009DFF2060E368002B2ED0A368002BD1D1BC
:103CA0002268B2B9626016B1B34588BF0025029B95
:103CB00088E84800AAE7002BD7D02168029A4B6811
:103CC0000398D3F8049032445346C8474FF0010993
:103CD000CBE70DF1180A4AF8083D21684B685B688C
:103CE00000221F4650460123B84708B92061A9E7C2
:103CF000A3680133A360F0E71D46A3E7464704002D
:103D0000084B1A7882420CD0052818BF064A187052
:103D100018BF137805481CBF23F002031370FEF789
:103D20009BBF7047CC100020E8100020FC46040028
:103D300008B50020FEF768FE8020BDE80840FEF7C9
:103D400063BE08B50020FEF76FFE8020BDE8084086
:103D5000FEF76ABE38B505460C4605F0CFFEA84210
:103D600001BF94E80300034B83E80300002018BF61
:103D7000102038BDEC1000207FB5C38893421D464B
:103D800028BF154693420E46144620D9802005F0E0
:103D900045FBB4FBF0F303FB1040B0FA80F04009A0
:103DA000039000200196029500F02CFB01A98020D1
:103DB000FEF79EFE044620B906498020FFF7CAFFA1
:103DC0000446002000F02EFB204604B070BD002009
:103DD000E6E700BF304704002DE9F04F0C78062CD1
:103DE00089B006460D4600F0458221D8022C52D0FB
:103DF00003D8012C3DD0062454E0032C3DD0052CE3
:103E0000F9D10DF115008DF8144005F00BFEA94A0B
:103E1000002313609DF8153003F01F039346032B16
:103E200000F2D381DFE813F042007401BD011801F4
:103E30000D2C00F00C8211D80B2C00F0FD810C2C05
:103E4000D9D19D4B1B78012B04D09C4940F22B40CB
:103E500000F055FC0020FFF753FF1CE00E2C00F093
:103E6000FE81852CC7D1944B1B78032BC3D1042032
:103E700000E00320FFF744FFBDE7914800F0ACFCF1
:103E800030B1904B01221A60BFF36F8FBFF34F8F99
:103E9000894B1C780CB1002404E0884940F21140A1
:103EA00000F02DFC204609B0BDE8F08F26B983490B
:103EB00040F2373000F023FC9DF81530C3F3411574
:103EC000002D40F0C980DB099DF8161000F0B58088
:103ED000062918D0082900F0A380002940F0BC80F2
:103EE000794C022220463DF003F9237843F0010289
:103EF0002270764A1278950744BF43F0030323707B
:103F0000022271490FE09DF81830022B11D0032BCB
:103F100078D0012B40F0A080BDF81B30002B00F0C2
:103F2000AD806B4912220DF11500FFF725FF044605
:103F300038E0BDF81B70002F00F0A080092F28BFCB
:103F40000927FEF773FDDFF874A104464FF0090856
:103F50006CBB5D4C5F493A4620463DF0A4F82571A4
:103F6000A4F80280FEF748FD18B1E37943F020037E
:103F7000E371FEF75BFD584B83E891000020BDF82C
:103F80001B20DA6000F03EFA54498020FEF7C4FDA1
:103F9000044620B952498020FFF7DCFE0446002089
:103FA00000F040FA062C57D0002C67D0D1E06368AF
:103FB00023B951464FF4287000F0A1FB63685B6899
:103FC00023B9514640F2A12000F099FB0DF12009E0
:103FD000002649F8146D019663685B6800221E464E
:103FE000214601234846B047019B40B99844237AB3
:103FF00020461D44FFF7EAFDEDB20446A8E7013371
:104000000193E9E7BDF81B30002B37D0BDF819103C
:104010009DF8170000F0C2F90146E8B1027882E786
:10402000254A1278052A03D1274A1370012268E72E
:10403000042A11D1244B1D70F8E7013908290BD847
:10404000DFE801F02A0A0E0A050A0A0A50001B4995
:1040500040F25B3000F053FB05A8FEF735FD9CE015
:10406000BDF81730012BF7D1FEF7C6FC002800F091
:104070002E81164A137843F002031370DBF80040D8
:10408000002C00F01F8105F039FD044600287FF464
:1040900002AF05F0EDFC05E7BDF81730012BDBD1D1
:1040A000FEF7AAFC002800F01281084A137823F0DA
:1040B0000203E2E7EC100020CC1000204647040089
:1040C000F41000205C700240F8100020E81000207E
:1040D0001C470400FD460400D0100020884704005F
:1040E000304704007C4B1B78043B012B00F2A2807C
:1040F0009DF817302BB9FEF799FD0420FFF700FE5D
:10410000BCE7012B40F0E580FEF770FD0520F5E7E8
:1041100003A99DF81900FEF78FFC064600283ED043
:1041200005AA9DF80C10FEF7A9FC062804467FF4AA
:104130003BAF9DF8152012F0600F0AD1664B9DF839
:104140000C1018789DF81630D50918D023B10A2B19
:1041500008D005F0D0FCA5E605286BD15F490B809F
:10416000022207E0052865D13046FEF739FD5B499C
:104170002A4608700DF11500FFF7FEFD0DE00B2B30
:10418000E7D1052856D1BDF81730FF2B00F2A180EA
:104190009DF817203046FEF7D3FC044604E71024B0
:1041A000D7E79DF81900040711D19DF8153013F0D9
:1041B000600F0AD19DF81620474B9DF819401B78D7
:1041C000012A25D00BD3032A13D00624C1E705A961
:1041D000FEF757FC062804467FF4E6AEE5E7052B1C
:1041E00001D0210726D1204605F0D6FB3B490880A7
:1041F000B6E704F00F02072AE7D8BDF81710002928
:10420000E3D1052B00D0AAB9204605F0A7FB35E77E
:1042100004F00F02072AD8D8BDF817100029D4D10E
:10422000052B00D032B9204605F0D6FB204605F01C
:1042300091FF23E708248CE7274B1B78002B3FF4E2
:104240002AAE274940F2254000F059FA23E64FF004
:104250008043D3F83834DA070AD50220FBE51E4B39
:104260001B78012B04D81E4940F23F4000F047FA6A
:104270000120F0E5CB78032B3FF414AE8B785B067E
:1042800004D0174940F24E4000F039FA154E336819
:10429000DBB10022E8783260716898470446002854
:1042A0007FF457AF336823B1AB78002B7FF4F3ADC5
:1042B000EFE60D4B1B68082B04D10C4B1B68002B41
:1042C0003FF4E9AD05F014FCECE50E2441E70F24C2
:1042D0003FE707243DE700BFCC100020F810002086
:1042E00046470400EC10002030010010340100109B
:1042F00008B1402303600148704700BFF810002058
:1043000070B54FF0805286B0D2F8A830D2F8A42011
:1043100000926FEA83436FEA934302AD9BB2094A6E
:10432000094E0D2128463DF093FB002428463DF020
:1043300052FC844201D306B070BD2B5DA3550134FD
:10434000F4E700BF90470400AC560020F8B5114BCD
:1043500053F820502B7813B9AE1C3046F8BD00201E
:10436000FFF7C6FF0C4F064600232A785C1C2AB9CB
:104370006400E4B244F440743480EEE71E2B03D9A9
:104380003946C02000F0BBF9E3B215F8012B26F83E
:104390001320EAE730480400E647040008B9FFF7B5
:1043A000D5BF052807D8054A105C20B1044B53F847
:1043B0002030002BF3D10020704700BF4848040094
:1043C0003048040072B6024A136801331360704724
:1043D00038110020034A1368013B136003B962B629
:1043E000704700BF38110020EFF30583C3F30803C3
:1043F0002BB9EFF31480C04300F001007047012097
:10440000FAE7000008B5FFF7EFFF012803D00449E1
:104410001D2000F074F9BDE80840FFF7D3BF00BFCE
:104420004E48040008B5FFF7DFFF012803D0044918
:104430002B2000F064F9BDE80840FFF7CBBF00BFB8
:104440004E480400EFF30583C3F308038BB1103B20
:104450005AB2002AADBF02F1604303F00F03064ACF
:1044600003F56143B4BFD05C93F800034009C0B2C8
:1044700070470F20704700BF14ED00E038B50B0700
:1044800004460FD53CF0E0FD651C435D03F00303DB
:10449000012B07D13CF0D8FD435D03F00303012B52
:1044A00008BF2034204638BD2DE9F04F87B08A463A
:1044B00014460293064618B9012007B0BDE8F08FF4
:1044C0000029F9D0029B002B00F0118102F00403B7
:1044D0000D46049321463078FFF7D0FFC7B23F2F37
:1044E00006F1010824D00BDCD7B12A2F39D02146A0
:1044F0002878FFF7C3FF874205F1010620D0DBE7EC
:104500005B2F7ED05C2FF2D1E307F0D42146707888
:10451000FFF7B4FFC7B2002FE9D006F10208E6E7C3
:1045200014F0100F287839D02F2837D10020C4E795
:104530002B78002BC0D02F2B05D1A207BCD46E1C2A
:1045400035464646C6E72E2BF9D1049B002BF6D004
:104550005545B1D0A307F2D515F8013C2F2BEED16C
:10456000AAE770782146FFF789FFC1B22A2919D03E
:104570002B782E2B09D1049B3BB155459CD0A70726
:1045800003D515F8013C2F2B96D079B9A607CDD5C8
:10459000E406CBD42F2128463DF0FDFA003018BFA9
:1045A00001208AE7214618F8010FDCE72F291FD0E8
:1045B000029B24F004095F1E04F0020AAB46214668
:1045C0009BF80000FFF75AFFC6B20135002E3FF4FA
:1045D00073AF3B464A4659464046FFF765FF012800
:1045E0007FF46BAF2F2EE9D1BAF1000FE6D063E76D
:1045F000A007DDD528463DF0CEFA064600289FD11B
:104600005AE7287800283FF457AF2F2802D1A10796
:104610003FF552AF2146FFF731FF8346B8F1000F57
:104620003FF44AAF7378212B63D05E2B61D04646AE
:1046300000230122019304EA02034FF000090393CF
:10464000214630780592FFF719FFC3B25D2B06F1C2
:104650000107059A11D1FAB9019B99453FF42CAF96
:10466000002F3FF429AF7A1C04D12B785B2B7FF409
:1046700023AF47466E1CB84662E72F2BF5D05C2B64
:1046800007D1039A42B921467078FFF7F7FEB71CAD
:10469000C3B2002B3FF410AF3A782D2A21D1214626
:1046A00078780593FFF7EAFEC0B2059BC8B15D2894
:1046B00017D05C2807F102060BD1039A4AB92146AC
:1046C000B878FFF7DBFEC0B200283FF4F5AE059BDB
:1046D000FE1C9B4503DB8345D8BF4FF00109002238
:1046E000AEE73E469B4508BF4FF00109F7E70320C0
:1046F000E3E6023601239CE74023FFF7D5BE07B56A
:10470000ADF8000001916A46002144F2020034F045
:104710002DFD03B05DF804FB00B550E8002F0B46FB
:1047200040E8003E9EF0000FF7D110465DF804FB14
:1047300000B550E8002F42EA010340E8003E9EF039
:10474000000FF6D110465DF804FB00B550E8003FBD
:1047500043EA010240E8002E9EF0000FF6D1104619
:104760005DF804FB00B550E8002F02EA010340E8C1
:10477000003E9EF0000FF6D110465DF804FB00B538
:1047800050E8003F03EA010240E8002E9EF0000FCF
:10479000F6D110465DF804FB00B550E8003F03EB8E
:1047A000010240E8002E9EF0000FF6D110465DF8A1
:1047B00004FB00B550E8003FA3EB010240E8002EE7
:1047C0009EF0000FF6D110465DF804FB0121FFF7C3
:1047D000AFBF0121FFF7B9BF0021FFF7C3BF002121
:1047E000FFF7CDBF2DE9F0438368D3F84863C6F3E4
:1047F000400689B0074636B10022114609B0BDE82F
:10480000F04302F01DB8012906D91F4A022109B060
:10481000BDE8F04300F044BE1C4C1D4BDFF8749023
:104820001C251B1BB3FBF5F303FB055525444FF07B
:1048300064081C34AC4202D109B0BDE8F08354F8DE
:104840001C0C54F8143C017954F8182C006806919B
:104850009A1A1B1ADBB2039308FB03F3B3FBF2F3C0
:10486000029334F8043C079211FB08F10492B1FB67
:10487000F2F100930591019654F8083C4A4608214C
:10488000384600F00DFED4E709490400C09E04003C
:10489000149F04001C49040010B50446002830D0C1
:1048A00003681BB91849D920FFF729FF63681BB9B2
:1048B0001549DA20FFF723FFA3681BB91249DB2053
:1048C000FFF71DFFE3681BB90F49DC20FFF717FF57
:1048D000238B1BB90C49DD20FFF711FF6268A36829
:1048E00021689B1ADBB20A60013BDBB2FF2B226816
:1048F00002D10020107110BD1168481C10600B70AF
:10490000F2E70E2010BD00BFC848040038B50446C9
:1049100018B91249FE20FFF7F2FE0020FFF772FDE2
:104920002268616813688B4215D9591E116013F80B
:10493000015C228BE36802FB05352268A3681168DD
:104940005B1A1179DBB2994200D213710020FFF794
:1049500069FD284638BD0025F8E700BFC8480400B7
:1049600038B50C46054620B90E4940F22110FFF734
:10497000C6FE24B90B494FF49170FFF7C0FE00202A
:10498000FFF740FD2A681368591C1160EA68A41AF1
:104990002A8BB4FBF2F41C700020BDE83840FFF70E
:1049A00041BD00BFC848040010B543689C686068FA
:1049B000036801219B689847A36810B903221A7005
:1049C00010BD0422FBE7000038B505460C4621B9AE
:1049D000064940F6F410FFF792FE35B1A26892F84E
:1049E000483343F0200382F8483338BD334A04008B
:1049F00038B50D46044620B9084940F6E810FFF7DF
:104A00007EFE25B9054940F6E910FFF778FE2968D2
:104A10002068BDE838403DF0CCB800BF334A040000
:104A20002DE9F843089E0546884614461F4623B9DB
:104A300020494FF48470FFF762FE26B91D4940F209
:104A40000910FFF75CFEB8F1000F1CD11A4D1B4E88
:104A5000761BF608A64204D9194A02EB8404B04535
:104A600001D1002309E06B68206819683DF0A1F8C6
:104A7000A946083520B9D9F804303B60BDE8F88371
:104A800008F10108EBE7002DEBD02B784BB16B68F8
:104A90003146204698473368002BE2D03E60BDE89F
:104AA000F88324016B681A191B59002BD9D03A607E
:104AB000BDE8F883334A0400609E0400C09E0400F1
:104AC0002C06002010B5044620B909494FF4D570D2
:104AD000FFF715FE236923B905494FF4D570FFF799
:104AE0000EFE2069034A0449BDE8104002F0B8BC3C
:104AF000334A0400724A0400134E040010B5044601
:104B000020B909494FF4D270FFF7F9FD236923B9A1
:104B100005494FF4D270FFF7F2FD2069034A0449BA
:104B2000BDE8104002F09CBC334A04006E4A040009
:104B3000134E040010B5044620B909494FF4D8704B
:104B4000FFF7DDFD236923B905494FF4D870FFF75E
:104B5000D6FD2069034A0449BDE8104002F080BC3C
:104B6000334A0400754A0400134E040008B13DF0B6
:104B700032B8704710B50446FFF7F8FF23462044CB
:104B8000834201D1002010BD13F8012B3F2A01D030
:104B90002A2AF5D1012010BD38B505468368006882
:104BA0009C8BFFF7E3FFAB685A8A2044B0FBF2F31B
:104BB00002FB1300B0FA80F0400938BD10B58468DC
:104BC0000068FFF7D3FFA38B628A2075C0B203444D
:104BD00093FBF2F102FB113301332381638B01312B
:104BE0001844A18190FBF2F3591C02FB130301331B
:104BF000E181638104F1080010BD38B50546836882
:104C000000685C8BFFF7B2FFAB685A8A2044B0FBA8
:104C1000F2F302FB1300B0FA80F0400938BD30B562
:104C20000368D3F8405385B00446EDB100230A224F
:104C300001A9284603F0CEF82368029AC3F840235E
:104C400000210A2201A83CF053FA00230A2201A9FC
:104C5000284603F0A9F8284603F04CF82368D3F857
:104C6000400318B9C3F83C0305B030BD01A90023C7
:104C70000A2203F0AFF8206800230A2201A9D0F825
:104C80004003019303F090F8EEE7000007B5836856
:104C900021B39A7D8A421ED01B228DF800205B2210
:104CA0008DF8012031228DF802203B228DF803205F
:104CB00033228DF8042001F12F028DF805206D229A
:104CC0008DF8062000228DF8072099756A4605495F
:104CD000006902F0C5FB03B05DF804FB9975024A58
:104CE000F5E700BF134E0400784A040007B5836857
:104CF000DA7D8A4218D01B228DF800205B228DF8C5
:104D0000012034228DF8022001F12F028DF80320BA
:104D10006D22D9758DF8042000228DF805200449F4
:104D200000696A4602F09CFB03B05DF804FB00BF1B
:104D3000134E0400014902F093BB00BFA7490400D1
:104D40000A460068014902F08BBB00BFA84A040074
:104D500009B1FFF7F5BF70472DE9F74F002507466A
:104D6000884614460560A946267866B13CF06CF981
:104D70003044437813F0080315D084F800900134D0
:104D80003B680B2BF0D93B680C2B04D95F4940F2F0
:104D9000FA40FFF7B4FC3B680022284648F823207D
:104DA00003B0BDE8F08F3A68511C396048F82240E2
:104DB0001D4694F800A0BAF1000FE1D0F5B9BAF1A0
:104DC000270F06D0BAF15C0F0DD0BAF1220F40F0D8
:104DD00096802046FFF7CAFE611C024620463CF042
:104DE0006DF95546E5E7661C2046FFF7BFFE3146E4
:104DF000024620463CF062F93446DAE7AA4504F15F
:104E0000010609D12046FFF7B1FE31460246204691
:104E10003CF054F90025CCE7BAF15C0F01D0013425
:104E2000C7E762789542DFD0302A2AD131464FF069
:104E3000000B4FF0020A11F8012FA2F13003DBB290
:104E4000072B1BD80AF1010A5FFA8AFA43EACB035F
:104E5000BAF1050F5FFA83FBEDD10AF1FF3121446E
:104E600020460191FFF782FE821CA2EB0A02019903
:104E700020463CF023F984F800B0BDE7BAF1020FF8
:104E8000EBD1782ACBD131464FF0000A4FF0020B1C
:104E900011F8013FA3F13002D2B2092A1BD842EA2D
:104EA0000A130BF1010B5FFA8BFBBBF1040F5FFAE6
:104EB00083FAEDD10BF1FF31214420460191FFF738
:104EC00055FE821CA2EB0B02019920463CF0F6F83D
:104ED00084F800A090E7A3F16102052A03D8573BAC
:104EE00043EA0A13DDE7A3F14102052A01D8373B63
:104EF000F6E7BBF1020F92D04FF0030BDAE73CF07C
:104F0000A3F8504443781B0789D539E7334A040096
:104F100070B50D461646044600B119B90949F3208B
:104F2000FFF7EDFB63681BB90649F420FFF7E7FBC9
:104F3000606803681C6929463346A4460122BDE81F
:104F400070406047334A0400F7B505468068444F17
:104F500000244FF4C072214600F5D0708DF8034054
:104F60003CF0C6F83F49286902F07AFA286902F055
:104F700065FA4FF47A7647F0010701AA0DF10301B3
:104F80002846FFF7C5FF019B5BB94FF6C010B84735
:104F9000019B002BF1D1013EB6B2002EEDD10D20C8
:104FA00038E09DF80320AB681B2A4CD093F8A01181
:104FB0001B29EDD1522A46D11C44002284F8A0219D
:104FC000A96891F8A1315B2B21D101F5D1700223A1
:104FD000144610F8012B01333B2A9BB21CD1B3F5C8
:104FE000C07F22D00022C81890F8A001F8B9FA2A90
:104FF00086BFFA230B810A81AB68FA2C86BFFA229E
:105000009A819C81AB68002083F8A00102E081F8BE
:10501000A0210B2003B0F0BD04EB840402EB44029A
:10502000303AB3F5C07F94B2D3D10C20F2E701330C
:1050300002EB82029BB200EB4202303AB3F5C07F32
:1050400092B2D0D3F1E723440134A4B2092C83F8FF
:10505000A0219DD9AB68002283F8A0210420D9E7C4
:10506000C04A0400934A04002DE9F7430F46144652
:10507000054600B119B91D49C420FFF740FB6B6814
:105080001B681BB91949C520FFF739FBDFF85C80A5
:10509000002614B903B0BDE8F083686803682246AF
:1050A000D3F80C90B91901ABC84718B14146CF20CD
:1050B000FFF725FB019B9C4203D24146D020FFF71E
:1050C0001EFB019B1E44E41A002BE2D1AB681A7848
:1050D000032ADED0D3F848239206FBD593F8482361
:1050E0006FF3451283F84823D3E700BF334A040027
:1050F0002DE9F74F054617460E46002975D00C4698
:105100003BF0A2FFA4EB060A14F8013B18444378D5
:105110001A07F5D41FFA87F905F110083046FFF792
:1051200025FDAB685B8AA0EB0A00DB1B98424FF0C1
:10513000000406EB0A0B15D901933BF085FF1BF821
:105140000420019B1044417811F0080F02D00A2A74
:105150002FD02346A968498A3A198A4228D20134B5
:10516000EAE70134A04218D01BF804300A2B0AEBFE
:105170000408F6D1286902F061F922462C46594606
:105180002846FFF771FF54F8100FFFF7D3FDB9B2AF
:10519000204608F1010AFFF7DBFD286906EB0A014A
:1051A00002F05EF9286903B0BDE8F04FFFF7C2BD19
:1051B0001C46286902F042F9224659462846FFF764
:1051C00053FF544434443BF03FFFA4EB060A14F869
:1051D000013B184443781B07F5D42869FFF7AAFD63
:1051E00049464046FFF7B4FD98E703B0BDE8F08FAD
:1051F0000A4619B10249006802F032B9704700BF8F
:10520000A24A04000A4619B10249006802F028B90E
:10521000704700BFAE4A040070B50546FFF7CEFCEC
:10522000037B0288818801339A42044601D1012917
:1052300015D0012905F1100604D9013989B230468B
:10524000FFF7E0FF2388217B8B4209D9013B591AE4
:1052500089B23046FFF7CCFFAB6800229A8370BD5D
:10526000C91A013189B23046FFF772FDF4E7F8B58B
:105270000546FFF7A3FC04468788C6882846FFF743
:105280008BFC78B12869FFF755FDB74205F1100591
:105290000ED161882388C91A284689B2BDE8F84032
:1052A000FFF7A6BF2846FFF7A8FC0028EAD1ECE7E5
:1052B000A388E188C91A89B22846FFF7A3FF23888B
:1052C00061888B42E7D9591A284689B2BDE8F8406F
:1052D000FFF73EBD38B50546FFF770FC02884388EE
:1052E0009A4204468388C28801D1934215D09A42DB
:1052F00006D9D21A92B21AB10B49286902F0B0F855
:10530000238861888B4205F1100007D9591A89B2A8
:10531000FFF76EFFAB685A8B9A8338BDC91A89B202
:10532000FFF716FDF6E700BF9C4A04002DE9F74F92
:105330000F4616460193044648B9524940F6682084
:10534000FFF7DDF94F4940F60A20FFF7D8F9A368C7
:105350001BB163680BB1236823B94A4940F60B209F
:10536000FFF7CDF9237E0A2B06D00D2B04D045493B
:1053700040F60C20FFF7C3F9E368434A5B689C6082
:105380006068036839461D682346A847054600281B
:105390005AD1636923B93B4940F61B20FFF7AFF9A7
:1053A000606902F0A5FC054600284DD1A368374F7F
:1053B000C3F83C03A368DFF8CC80C3F840034FF484
:1053C00053720146A068DFF8D0B03BF091FEA268AE
:1053D00092F8483343F0200382F84833A26892F8E9
:1053E000483366F3820382F84833A26892F8483360
:1053F00043F0080382F84833A36801221A70A368B7
:1054000050225A82A36818221A82214BFF1A4FEAAF
:10541000D70A99462E4656451AD1072F05D91D4B56
:105420001D48042231463CF07AF9019B63B19DF896
:105430003010E068FBF7BAFE0028A1BFE368DB6824
:1054400001225A71B8BF0425284603B0BDE8F08F89
:10545000B9F1000F04D1414640F63720FFF74FF96C
:10546000D9F80420126822B9414640F63820FFF7E7
:1054700046F9D9F8042012684BF8262009F10809EA
:105480000136C8E7334A0400C9490000C09E040041
:10549000609E0400F14900002C060020FFF7E4BDE7
:1054A0000CB4F7B5089E04460F4626B9224940F6CB
:1054B0002530FFF724F924B91F4940F62630FFF7BD
:1054C0001EF9A3681BB163680BB1236823B91A499D
:1054D00040F62730FFF713F902AD09AB45F8043D5C
:1054E000A168D1F848335B0720D58B7DBB421DD026
:1054F0000222163168463BF0D6FD39462046FFF7BA
:10550000C5FB2A463146206902F03EF89DF800109E
:105510002046FFF7BBFB9DF8011011B12046FFF7B5
:10552000E5FB03B0BDE8F04002B070472A463146C3
:10553000206902F029F8F4E7334A04008268022166
:1055400011708168002281F8202081688A83816837
:105550004A830368014A0321FFF7A2BF134E0400E8
:1055600070B5044620B9174940F6BE20FFF7C7F8CA
:10557000A3681BB163680BB1236823B9114940F6D6
:10558000BF20FFF7BCF8A3681E78012E17D1606812
:10559000036800219B689847054670B9082120469A
:1055A000FFF774FB31462046FFF7A0FB2069064950
:1055B00001F056FF2046FFF7C1FF284670BD0825C1
:1055C000FBE700BF334A0400284E0400F8B5044648
:1055D00016460F4621B9244940F22360FFF78FF8A1
:1055E000A068458BAB19B3F5C07F3BDA002E39D0EC
:1055F000838BED1A03F1200133442033ADB2014413
:105600006A1C18443BF05AFDA068838B2033324655
:10561000394618443BF052FDA76807F12000FFF718
:10562000A5FA7883A268938B2033134420460F4A4F
:105630000821FFF735FFA3689A8B16449E83204606
:10564000FFF7AAFA40B12069FFF774FB55B1204675
:10565000BDE8F840FFF70BBE2046FFF7CEFA002862
:10566000F1D1F3E7F8BD00BF334A0400134E040044
:105670002DE9F04104468068D0F84833428BC3F3EB
:105680000008838B5FFA88F7D51A0E46ADB2002F5B
:1056900040D1B2F5BF7F42D83DB103F120012133A3
:1056A00001442A4618443BF009FDA3689A8B134431
:1056B00083F82060002F6FD1A268538B01339BB217
:1056C0005383134483F82080002D6FD02046FFF7CA
:1056D00075FA8288C3889A4204F1100621D1A26823
:1056E000938B2033134408212046334AFFF7D8FE1A
:1056F000E91B89B23046FFF77BFDA268938B01332B
:1057000093832046FFF748FAF8B12069BDE8F041DD
:10571000FFF710BBB2F5BF7FC7D9002DC5D1BDE8DB
:10572000F0812046FFF7CEF9A268938B2033134413
:105730000821214A2046FFF7B3FE2046FFF7FAF979
:1057400001213046FFF7FCFAD7E72046FFF755FA6C
:105750000028E4D02046FFF731FAC2888388013A56
:10576000D21A92B2054604F110061AB11349206903
:1057700001F076FE2069FFF7DDFAE988AB88C91AE7
:10578000304689B2FFF73EFD29880139304689B29B
:10579000BDE8F041FFF7DCBA002D97D1A268538B2A
:1057A00001339BB25383134483F82050324604499B
:1057B000206901F055FEA0E7134E04009C4A040046
:1057C0004C3C04007FB50025044601950295ADF8D8
:1057D0000C500E468268002948D1D2F84433002B81
:1057E0003FD0FFF719FDA06833460A22D0F84403E2
:1057F00001A902F0EFFAA368029AC3F84423A06853
:10580000D0F84433458B002B52D100F5D070FFF710
:10581000ADF9A36838B303F5D07103F120003CF073
:10582000D2F9A0682030FFF7A1F9ADF80C00A2680A
:10583000BDF80C309383A268AB42538302D220465A
:10584000FFF75CF9A3682F4A204620330821FFF7B1
:1058500027FE2046FFF7A0F900284CD02069FFF76B
:1058600069FA04B070BD83F82000DAE7D2F8441377
:10587000D2F840339942F4D0D2F83C33002BF0D028
:10588000FFF7CAFCA368D3F8440340BB03F1200030
:10589000FFF76CF9A368D3F83C23C3F8442385B21F
:1058A000A068CDB100F1200100F5D0703CF08BF97B
:1058B000A06801A900230A22D0F8440302F08AFA62
:1058C000A068BDF80C2000F120010A230132D0F8B5
:1058D000440302F07FFAAAE780F8A051E8E72B46DC
:1058E0000A2201A902F076FAA368019ABDF80C50C9
:1058F000C3F84423DCE72046FFF77FF90028ADD149
:10590000AFE700BF134E040038B504468068838BB0
:10591000458BED1AADB2002D43D003F121012033A8
:1059200001442A4618443BF0C9FBA268538B013B53
:1059300053832046FFF742F98288C3889A421CD1DC
:10594000A268938B203313440821164A2046FFF7A0
:10595000A7FD236923B9144940F25F40FEF7CFFE4B
:1059600054F8100F0F49114A01F07AFD691E2046C4
:1059700089B2BDE83840FFF73BBC2046FFF7A2F8EC
:105980002046FFF7BBF8A268938B203313442046D0
:10599000044A0821FFF784FD2046BDE83840FFF7A0
:1059A000C9B838BD134E0400334A04007C4A0400D1
:1059B000F0B5C3685B6891B004460D46002203A9A8
:1059C000186802F079FB002840F094809DB103989C
:1059D00002F0DBF9A268D2F838330133C2F8383369
:1059E000A368D3F8383303F00703012B03D0012554
:1059F000284611B0F0BD2046FFF7E0F88188012964
:105A0000064605D9013989B204F11000FFF7FAFB07
:105A10003188012905D9013989B204F11000FFF755
:105A2000E7FB2046FFF76AF82DB1334A02212046F2
:105A3000FFF736FDDCE70023082204A9039802F0F3
:105A4000C9F9069B0793BDF81430ADF82030BDF8B6
:105A50001630ADF8223001238DF825309DF8103036
:105A600003F00302012A25D1BDF81050049E0398CB
:105A7000C3F3C203C5F383158DF82430AA000823AD
:105A80000AA902F0A7F9C6F39526236900932A46CE
:105A900007AB0AA93046FBF741FC039802F075F901
:105AA000E3685B68002203A9186802F005FB002880
:105AB000C1D09CE7022AF0D1BDF81250C3F3C20353
:105AC000C5F389158DF824300827082D2E4628BFE8
:105AD00008263B4632460AA9039802F07BF9AD1B23