:1000000000000420B5020000DD020000DF02000055
:10001000E1020000E3020000E50200000000000031
:10002000000000000000000000000000E7020000E7
:10003000E902000000000000EB020000ED020000F9
:10004000D9FE00003D320400E9FE0000EF0200008E
:10005000EF020000EF020000E1F60000EF020000F6
:10006000EF020000EF020000EF020000EF020000CC
:10007000EF02000099000100EF020000EF02000013
:10008000EF020000552A0000EF020000EF0200001E
:10009000F52A0000EF020000EF020000EF0200006E
:1000A000EF020000EF0200004D040100EF0200002B
:1000B000EF020000EF02000000000000000000005E
:1000C000EF020000EF020000EF020000EF0200006C
:1000D000A14F0400EF020000EF02000091E10000D8
:1000E000EF020000EF020000EF020000000000003D
:1000F00000000000EF02000000000000EF0200001E
:1001000000000000000000000000000000000000EF
:1001100000000000000000000000000000000000DF
:1001200000000000000000000000000000000000CF
:1001300000000000000000000000000000000000BF
:1001400000000000000000000000000000000000AF
:10015000000000000000000000000000000000009F
:10016000000000000000000000000000000000008F
:10017000000000000000000000000000000000007F
:10018000000000000000000000000000000000006F
:10019000000000000000000000000000000000005F
:1001A000000000000000000000000000000000004F
:1001B000000000000000000000000000000000003F
:1001C000000000000000000000000000000000002F
:1001D000000000000000000000000000000000001F
:1001E000000000000000000000000000000000000F
:1001F00000000000000000000000000000000000FF
:1002000010B5054C237833B9044B13B10448AFF350
:1002100000800123237010BD800600200000000034
:10022000F0D7040008B5034B1BB103490348AFF3F3
:10023000008008BD0000000084060020F0D7040004
:10024000154B002B08BF134B9D46A3F5803A0021A8
:100250008B460F461348144A121A45F0F8F90F4B13
:10026000002B00D098470E4B002B00D09847002061
:10027000002104000D000D48002802D00C48AFF307
:10028000008045F069F92000290011F085FA45F059
:100290003DF900BF0000080000000420000000003D
:1002A00000000000800600206872002000000000AE
:1002B000000000000649074A074B9B1A03DD043B78
:1002C000C858D050FBDC01F073FEFFF7B9FF000007
:1002D00064DA04000000002080060020FEE7FEE74C
:1002E000FEE7FEE7FEE7FEE7FEE7FEE7FEE7FEE7E6
:1002F000704700BF00B583B0044B0093044A8023CD
:1003000000F036F803B05DF804FB00BF15030000F1
:10031000A006002002B32DE9F843114B114E884688
:10032000144643F0010903270025224608EB050186
:10033000002014F0B1FE03461D444FF47A40E41A45
:1003400023B9337833B1C847013F06D00123337056
:10035000002CEAD1BDE8F88370473770BDE8F88318
:10036000907A04009C060020704700BF14F048BF3C
:10037000F0B595B0084600240F4615461E460BF012
:100380009FFA1A990D9138462346082205A9089527
:1003900009960A948DF82C400C940BF00BFBDDE9C8
:1003A00006029DF814300292012103F003028A42F2
:1003B00003908DF8111027D0022A04D038460BF094
:1003C00083FA15B0F0BDBDF81650C3F3C2038DF823
:1003D0001030AD090826082D2C4628BF08243346C6
:1003E00022460EA938460BF0E5FA2D1B214608AB34
:1003F00002AA0EA8264401F0A7FC002DEBD1384636
:100400000BF062FA15B0F0BDBDF81460059DC6F39F
:100410008316C3F3C204B2000EA9384608238DF830
:100420001040C5F395250BF0C5FA08AB32462846B7
:100430000EA9009302AB01F0E1FB38460BF044FA41
:1004400015B0F0BD08B5FFF791FF0421084801F091
:1004500049FB002803DB074B01225A7108BD0649FE
:100460001B2006F06FFC034B01225A7108BD00BF30
:100470002CDA040000000020A47A0400064B8B60F4
:1004800004284FF00003CB604B609CBF034B53F834
:1004900020300B60704700BF387D04005C7D040095
:1004A000C368DB6800225A71704700BFC368DB680D
:1004B00001225A71704700BF30B40E4B0E4D0F4CE5
:1004C000ED1A00222D09C1E90242C1E900220BD038
:1004D00003EB0515DC682479FF2C02D0904205D08F
:1004E00001321033AB42F5D130BC70479B680B60D2
:1004F00030BC70472CDA04005CDA0400707D040024
:100500000129034604D08168D1F84813890704D52E
:1005100000221846114609F0EDBE00B5D2E90031BF
:10052000054A83B0CDE90021044A022108F09AF877
:1005300003B05DF804FB00BFC07B0400B47B040083
:100540008368D3F848339B0733D42DE9F0471B4C1D
:100550001B4E361B360982B028D00746DFF868A04C
:10056000DFF86890DFF8688004EB06160CE06D7920
:10057000CDF804C0002D0CBF55464D4600951034F3
:1005800008F070F8A64211D0D4E902E595F804C04D
:10059000BCF1FF0F734642464FF008013846E6D1E2
:1005A000084A103408F05EF8A642EDD102B0BDE86A
:1005B000F0870022114609F09DBE00BF2CDA04002E
:1005C0005CDA0400E07B040050B30400D87B040034
:1005D000007C04008368D3F848339B0703D4044AA3
:1005E000022108F03FB80022114609F083BE00BF87
:1005F000247C04008368D3F848339B0703D4044A5F
:10060000022108F02FB80022114609F073BE00BF86
:10061000247C0400F0B5344C85B004F5836006F00A
:10062000E5FB04F2144006F0E1FBD4E9013703EAEC
:100630000702D01C04EB800114F8200010F0040025
:1006400042D003F1020C0E7806F00306012E654637
:1006500035D0022E02F1030621D004EB86010028DA
:10066000F1D104EB82020133D26801923B4004EBEA
:10067000830302F00302012ADE682ED0022A25D16C
:10068000BDF806309B090333360C05EB930517487C
:1006900006F0B8FB00B16560304605B0F0BD4B8890
:1006A0000CEB931307EA0302D11C03F1020C14F8BC
:1006B0002100654604EB810100F00400CFE70B88C0
:1006C000C3F383136344EDE79D1CCAE708494FF465
:1006D000AC7006F037FB0026D9E7BDF80430C3F351
:1006E0008313360C1D44D2E7B8080020CC0C002040
:1006F000387C04002DE9F0410F4C104D52F8046C89
:100700002D1B2D0907460FD004EB051502E0103410
:10071000AC4209D0A168304645F0CEFC0028F6D1A5
:10072000E3685871BDE8F08133463846044A022137
:10073000BDE8F04107F096BF2CDA04005CDA040053
:100740009C7B04002DE9F041104C114D52F8046CD3
:100750002D1B2D09074610D004EB051502E01034BF
:10076000AC420AD0A168304645F0A6FC0028F6D17C
:10077000E36801225A71BDE8F08133463846054AE4
:100780000221BDE8F04107F06DBF00BF2CDA040084
:100790005CDA04009C7B040070B4104A104E114CCB
:1007A000921B0023D208C1E902434B600CD00E4DCE
:1007B0002C88A04204D10CE035F82340A04206D09A
:1007C00001339A42F8D100220A6070BC704706EBF0
:1007D000C30632680A6070BC704700BF80D904004D
:1007E00070D80400387D0400180500202DE9F04F72
:1007F000CB683E4EDFF820915B79A6EB090685B009
:100800008B46F6088046002B6BD0394A394B0821BD
:10081000404607F027FF384A0821404607F022FFEC
:1008200076B3364DDFF8F4A0B70000240023EA5A6F
:10083000A2423AD004339F42F9D15146002335F801
:100840002320A24241D001339E42F8D100208446A9
:10085000D646002335F82320A24223D001339E42FE
:10086000F8D1002384450ED8254A0292CDE9001E16
:100870000134244A0821404607F0F4FEA642D5D1AF
:1008800005B0BDE8F08F204A0292CDE9001E013488
:100890001C4A0821404607F0E5FEB442C6D105B027
:1008A000BDE8F08F59F83330DCE7DBF80C2017494E
:1008B0001279595802EB4202072393400B40D34070
:1008C000DBB2134A52F82310B8E709EBC30393F8DD
:1008D00006C00F4B6046042828BF042053F820E0D0
:1008E000B7E70C4A022107F0BDFE8EE780D904006D
:1008F000A87C04009C7C0400C87C0400180500202F
:10090000207C0400087D0400207D0400A005002058
:10091000487D0400887C040070D80400807C0400BA
:1009200013460A46C168FFF761BF00BF2DE9F047D3
:10093000124C134D52F8046C2D1B2D09804615D016
:100940001746894604EB051502E01034A5420DD088
:10095000A168304645F0B0FB0028F6D13B464A4638
:1009600021464046BDE8F047FFF740BF33464046CA
:10097000044A0221BDE8F04707F074BE2CDA0400F7
:100980005CDA04009C7B04002DE9F04F8E4B8F4C09
:1009900052F8049CA3EB04085FEA181885B00646D9
:1009A00011D017460D4604EB081802E01034A0459C
:1009B00009D0A168484645F07FFB0028F6D15DB913
:1009C00005B0BDE8F08F824A4B463046022105B0A3
:1009D000BDE8F04F07F046BEE3687E49386893F8FB
:1009E0000490072245F082FB002866D1012D00F01B
:1009F000DE80DFF80C8204460A2258F8041B78686F
:100A000045F074FB58B10134052CF5D17B68724A6E
:100A10003046022105B0BDE8F04F07F023BEE3B237
:100A2000022D019340F0BF806C4C6D4BA3EB04088A
:100A30005FEAD8082746C3D009EB490307229A404A
:100A40000292019ADFF8A4A10194DFF8A4914FEA81
:100A5000880802FA03FB0025144609E0019B53F8BD
:100A6000153007F0FFFD0435A84507F10807A7D0AA
:100A7000BB79A3424A464FF002013046EED355F807
:100A80000A20029982EA0B030B405340C3F3C202CF
:100A9000C3F382118A4238BF0A4603F007018A4233
:100AA00038BF0A464F4945F80A30C3F34220691857
:100AB000824238BF02464A80D5E708224A49386850
:100AC00045F014FB00287AD1012D0190ACD0012310
:100AD00003F18043013B09EB4909A7F1040A07EB45
:100AE000830707233D4C3E4A03FA09F30293019B17
:100AF000A2EB04084FEAD80803FA09F3B3460AEB5D
:100B0000850A46460393A04657F8044F002E43D06B
:100B1000C146002504E00135AE4209F108093AD08A
:100B20002022214658F8350045F0E0FA0028F2D19D
:100B3000AE4230D099F80620019B9A4223D32B4C29
:100B4000039B54F825200298264953400340534004
:100B5000C3F3C202C3F38210824238BF024603F0DD
:100B60000700824238BF0246C3F3422001EB8501F1
:100B7000824238BF024644F825304A80BA45C3D184
:100B800005B0BDE8F08FD9F80030194A0221584667
:100B900007F068FDF2E73C68164A234602215846F2
:100BA00007F060FDEAE77FF60BAF022390E7124AF9
:100BB0003046022105B0BDE8F04F07F053BD3B6859
:100BC0000E4A304625E700BF5CDA04002CDA040048
:100BD0009C7B0400047B04007C7B040070D8040030
:100BE00080D9040018050020247B0400A005002003
:100BF000447B0400687B04000C7B04002C7B040015
:100C0000487D040001B970472DE9F04FC368DB68E7
:100C100085B08946174683467A4910681D790722B0
:100C200045F064FA00286ED1B9F1010F00F0DE80C2
:100C3000754E04460A2256F8041B786845F056FAA9
:100C400058B10134052CF5D17B68704A5846022111
:100C500005B0BDE8F04F07F005BDE3B2B9F1020FF2
:100C6000019340F0C0806A4C6A4F3F1BFF08264644
:100C700046D0019B029405EB45051A46AA404FF069
:100C8000070A0AFA05FADFF89891DFF898810192CD
:100C9000BF0000251C4609E0029B53F815300435BF
:100CA00007F0E0FCAF4206F1080629D0B379A34271
:100CB00042464FF002015846EED355F80920019BF9
:100CC000534003EA0A035340C3F3C202C3F3821141
:100CD0008A4238BF0A4603F007018A4238BF0A46F3
:100CE0004D4945F80930C3F342206918824205F1A5
:100CF000040538BF0246AF424A8006F10806D5D146
:100D000005B0BDE8F08F08224449386845F0EEF997
:100D1000002873D1B9F1010F0190A4D0012303F190
:100D20008043013B05EB45053A1F07EB830707238B
:100D3000AB40374C374E0293019B361BAB4002EB66
:100D40008909F6080393A04657F8044F002E43D0B4
:100D5000C246002504E00135AE420AF1080A3AD045
:100D60002022214658F8350045F0C0F90028F2D17C
:100D7000AE4230D09AF80620019B9A4223D3284CE9
:100D8000039B54F8252002982349534003405340C5
:100D9000C3F3C202C3F38210824238BF024603F09B
:100DA0000700824238BF0246C3F3422001EB8501AF
:100DB000824238BF024644F825304A80B945C3D143
:100DC00005B0BDE8F08FDAF80030164A0221584627
:100DD00007F048FCF2E73C68134A234602215846D4
:100DE00007F040FCEAE78BD9022398E70F4A584600
:100DF000022105B0BDE8F04F07F034BC3B680C4A57
:100E000024E700BF047B0400487D04007C7B0400D1
:100E100070D8040080D9040018050020247B040049
:100E2000A0050020447B0400687B04000C7B0400C8
:100E30002C7B04002DE9F84F234B24480022FF218E
:100E4000C3F818249960C3E90022C3F8142483F876
:100E500020240AF0D7FC814610B14846BDE8F88F3F
:100E6000DFF87C801A4F1B48A7EB08070BF05EF9F0
:100E7000FF08F2D0DFF860B04D460026344608EB9C
:100E8000C50AA5424FF0140208D058F83410DAF819
:100E9000000045F02BF90028C8BF01360134A742F5
:100EA000EFD12BF825600135BD42E6D10A4B0B4945
:100EB0000BEB850500225A8004339D4241F8042B38
:100EC000F9D14846BDE8F88FB8080020D8D9040009
:100ED00080D904002C7D040018050020A005002006
:100EE00070D8040021B9124B03EBC00000687047B2
:100EF000104A0F49521AD20815D030B40E4D2B8823
:100F0000834212D0002303E035F82340844205D009
:100F100001339A42F8D1002030BC704701EBC30086
:100F2000006830BC7047104670470846F8E700BFBD
:100F300070D8040080D9040018050020094B01393D
:100F400003EBC00003290BD8DFE801F00208060418
:100F5000022070474079704700797047042070473D
:100F60000020704770D8040030B51D4B93F8203432
:100F700083B0044613BB18B345F0B0F802AA0130A1
:100F800042F8080D012301A916480BF0DDF80546CB
:100F9000B0B92146DDE9002044F035FBDDE900234E
:100FA0001344104803F8015C00990BF01FF980B955
:100FB00000990C480BF028FA28B9019803B030BD0D
:100FC000002003B030BD08494FF4F47005F0BAFEBC
:100FD000F3E705494FF4F27005F0B4FEE8E700BF0F
:100FE000B80800202C7D0400387C04002DE9F0476F
:100FF000DFF8FC90074600208846D9F8084005F045
:1010000075F8D9E90132D9F80060134401339B1B0C
:10101000012B62D809F21C450121284605F0C2FEC9
:10102000FFF7F8FA0146284605F0BCFED9E901327F
:10103000D9F80010134401335B1A012BECD90A4094
:10104000033205230231002049F82230C9F800108C
:1010500005F066F80021224805F082FE80F3100AB0
:10106000204B214A3D0C9B1AB5EBD30F2FD2731C9A
:10107000234009EB83033440033445EA0A45DD602D
:1010800019F8243067F3C50309F8243039F82430FF
:101090006FF3891329F8243059F8242068F39F222C
:1010A0001346012161F301036FF3820349F8242001
:1010B00009F8243099F820341BB906E000F01AF83A
:1010C00018B1D9E900329A42F8D1BDE8F087074952
:1010D00040F27D1005F036FEC9E73146AFE700BFAC
:1010E000D40C002080D9040070D80400387C04009F
:1010F000B80800202DE9F04F9E4C002385B0C4F8BD
:101100001834BFF34F8FD4E9015605EA0602D31C09
:1011100004EB830114F82330580719D527680B789E
:1011200003F00303012B3DD0022B03D14B88023582
:1011300005EB931506EA0502D4F81804D31C04EB5A
:10114000830128B9AF423ED914F823305B07E6D4B7
:1011500004EB82026B1CD2680192334004EB8303E0
:1011600002F00302DB680293022A05F1020800F094
:10117000A380012A2BD0D4F810543DB12B68284607
:101180009B689847EB681D68002DF7D17A4B5B8808
:10119000012B0DD8D4E90030C01A18BF012005B0CA
:1011A000BDE8F08F0B880235C3F383131D44C1E7FC
:1011B000724B73487349C01AC008000440F0020023
:1011C000FFF714FFE6E7676005B0BDE8F08FBDF8F4
:1011D00004706D48C7F38313062B28BF0623991CA0
:1011E00063F389178900ADF804700AF00DFBC7F3AB
:1011F000C20781460028BED00AF062FB0023082205
:1012000001A948460AF082FBBDF8043013F4707F50
:1012100000F0AE806FF0010BABEB050B082506EA82
:10122000080103312B46042204EB810148460AF0F1
:101230006DFBBDF8043008F1010A0BEB0A02C3F3A1
:1012400083139342D04605F10405E8D8D4F8183446
:10125000002B77D1D4F81054FDB1DFF83481072684
:10126000EB685A79B2B11A79BDF8080002EB420175
:1012700058F8200006FA01F2052F02EA000208BF22
:101280000327CA40BA4205D32B6849461B68284643
:101290009847EB681D68002DE2D148460AF014FB20
:1012A000002004F023FFD4F818340BB9C4F804A0CC
:1012B000002004F035FF6DE7BDF8063032489DF898
:1012C00004704FEA931A5546A02D28BFA02565F358
:1012D0008F1305F10801ADF806300AF095FAC7F34F
:1012E000C207814600283FF446AF26EA080B0BF1FF
:1012F000010B0AF0E5FA4FEA8B0B0023082201A943
:1013000048460AF003FB5D4527D9EBB2BBF1000F5D
:101310001CD006EA0801A3EB0B03033104EB8101A7
:10132000DDB25A46082348460AF0F0FA2A460BF185
:101330000803164948460AF0E9FA0AF1030A08EBDD
:101340009A0A83E748460AF0BFFA23E72A460823A9
:101350000E4948460AF0DAFAEFE706EA08010331D7
:1013600004EB81012A46082348460AF0CFFAE4E755
:10137000C2466BE7B80800203805002070D804008A
:10138000B0D80400B87E0400D8D90400C4080020F6
:10139000A00500202DE9F047DFF808A1074600204E
:1013A00091468846DAF8084004F0A0FEDAE90132F6
:1013B000DAF80060134401339B1B022B68D80AF251
:1013C0001C450121284605F0EDFCFFF723F90146F5
:1013D000284605F0E7FCDAE90132DAF80010134498
:1013E00001335B1A022BECD90A4003320331452347
:1013F00000204AF82230CAF8001004F091FEB31C15
:1014000023400AEB830300212248C3F80C9005F027
:10141000A7FC80F31009204B204A3D0C9B1AB5EB2A
:10142000D30F2FD2731C23400AEB830334400334C1
:1014300045EA0945DD601AF8243067F3C5030AF868
:1014400024303AF82430012161F389132AF824303A
:101450005AF8242068F39F22134661F301036FF3C7
:1014600082034AF824200AF824309AF820341BB961
:1014700006E0FFF73FFE18B1DAE900329A42F8D1F0
:10148000BDE8F087064940F27D1005F05BFCC9E736
:101490003146A9E7D40C002080D9040070D804009C
:1014A000387C0400B80800202DE9F84F404C8046F5
:1014B000002093469A468946A56804F017FED4E9B1
:1014C0000132276813440133DB1B032B6ED804F26F
:1014D0001C460121304605F065FCFFF79BF80146EC
:1014E000304605F05FFCD4E9013221681344013332
:1014F0005B1A032BEDD90A40033204318523002007
:1015000044F82230216004F00BFEBA1CFB1C2A4078
:101510002B4004EB820204EB830300212548C2F830
:101520000CB0C3F80CA005F01BFC80F3100A224B92
:10153000224A4FEA18469B1AB6EBD30F30D27B1CD7
:101540002B4004EB83033D40033546EA0A46DE6048
:1015500014F8253068F3C50304F8253034F8253035
:10156000022262F3891324F8253054F8252069F308
:101570009F221346012161F301036FF3820344F8B4
:10158000252004F8253094F820341BB906E0FFF735
:10159000B1FD18B1D4E900329A42F8D1BDE8F88F14
:1015A000074940F27D1005F0CDFBC8E73946A2E7B8
:1015B000B8080020D40C002080D9040070D80400A2
:1015C000387C04002DE9F84F434C804600209346B8
:1015D0009A46A568894604F089FDD4E90132276856
:1015E00013440133DB1B042B74D804F21C46012185
:1015F000304605F0D7FBFFF70DF80146304605F001
:10160000D1FBD4E901322168134401335B1A042B66
:10161000EDD90A4003320531C523002044F82230B9
:10162000216004F07DFDB91CFA1C29403B1D2A40B5
:1016300004EB810004EB82022B4004EB8303C0F82F
:101640000CB00021C2F80CA024480A9ADA6005F018
:1016500087FB80F3100A224B224A4FEA18469B1A56
:10166000B6EBD30F30D27B1C2B4004EB83033D4001
:10167000033546EA0A46DE6014F8253068F3C503F0
:1016800004F8253034F82530032262F3891324F856
:10169000253054F8252069F39F221346012161F378
:1016A00001036FF3820344F8252004F8253094F8F1
:1016B00020341BB906E0FFF71DFD18B1D4E9003254
:1016C0009A42F8D1BDE8F88F074940F27D1005F045
:1016D00039FBC8E739469CE7B8080020D40C002045
:1016E00080D9040070D80400387C04002DE9F04F44
:1016F00085B04B4C0E9EA5680296CDE9002380462E
:10170000994600200F9B039392468B4604F0EEFC13
:10171000D4E90132276813440133DB1B052B7CD845
:1017200004F21C460121304605F03CFBFEF772FF37
:101730000146304605F036FBD4E9013221681344F6
:1017400001335B1A052BEDD90A400332063140F212
:101750000513002044F82230FE1C216004F0E0FC58
:10176000B91C3A1D29402E4004EB810104EB86068A
:101770007B1D2A4004EB82022B40C1F80CA004EB35
:101780008303C6F80C900E9ED66000210F9A254860
:10179000DA6005F0E5FA80F31009234B234A4FEA9B
:1017A00018469B1AB6EBD30F31D27B1C2B4004EBAF
:1017B00083033D40033546EA0946DE6014F82530D0
:1017C00068F3C50304F8253034F82530042262F3A9
:1017D000891324F8253054F825206BF39F221346F3
:1017E000012161F301036FF3820344F8252004F81B
:1017F000253094F820341BB906E0FFF77BFC18B1C4
:10180000D4E900329A42F8D105B0BDE8F08F08491A
:1018100040F27D1005F096FAC7E7394694E700BF1D
:10182000B8080020D40C002080D9040070D804002F
:10183000387C04002DE9F04F87B0504C109EA5680D
:101840000396CDE901239946119B04938046129B90
:101850000593002092468B4604F048FCD4E90132FF
:10186000276813440133DB1B062B00F2848004F24B
:101870001C460121304605F095FAFEF7CBFE0146E5
:10188000304605F08FFAD4E9013221681344013360
:101890005B1A062BEDD90A400332073140F245139B
:1018A000002044F82230216004F03AFCB91CF81CF6
:1018B0003A1D7B1D294028402A4004EB82022B4020
:1018C00004EB810104EB8000BE1D04EB830C2E4071
:1018D000109BC1F80CA004EB8606C0F80C90D360F6
:1018E000119BCCF80C300021129B2548F36005F0C9
:1018F00037FA80F31009234B234A4FEA18469B1A04
:10190000B6EBD30F31D27B1C2B4004EB83033D405D
:10191000033546EA0946DE6014F8253068F3C5034E
:1019200004F8253034F82530052262F3891324F8B1
:10193000253054F825206BF39F221346012161F3D3
:1019400001036FF3820344F8252004F8253094F84E
:1019500020341BB906E0FFF7CDFB18B1D4E9003203
:101960009A42F8D107B0BDE8F08F084940F27D10E7
:1019700005F0E8F9C7E739468DE700BFB808002051
:10198000D40C002080D9040070D80400387C0400F6
:101990002DE9F04FDFF830B183B08246002002F12C
:1019A000030891460191DBF8084004F09FFBDBE956
:1019B0000121DBF800700A444FEA98080132D21B7B
:1019C00008F10206964279D90BF21C4501212846FE
:1019D00005F0E8F9FEF71EFE0146284605F0E2F99B
:1019E000DBE90121DBF800000A440132121A9642B9
:1019F000ECD8014003310622064468F39F520020D0
:101A00004BF82120CBF8006004F08AFBDBF808508B
:101A1000B81C204001352D1AAD000330A9450BEB51
:101A200080003DD801994A4643F0EDFD002124484D
:101A300005F096F980F310007A1C22404FEA1A4113
:101A40000BEB82023C40033441EA0040D0601BF8BB
:101A500024206AF3C5020BF824203BF824206FF3FE
:101A60008F122BF824200BEB84020220518869F39B
:101A70008F1151801BF8242060F301026FF3820262
:101A80000BF824209BF820241AB906E0FFF732FB5C
:101A900018B1DBE900219142F8D103B0BDE8F08F25
:101AA000019E2A46314643F0AEFD33462B4419468B
:101AB000A9EB0502034843F0A6FDB7E7384698E7CF
:101AC000D40C0020C4080020B8080020044BD3E93F
:101AD00000239A4201D0FFF70DBB0020704700BFE2
:101AE000B80800202DE9F043344DD5F810440646DF
:101AF00000205CB1E3681A79824204D151E0DB68CE
:101B00001A7982424DD01B68002BF8D1F368187106
:101B1000D5F81034002B4BD0DA68F36812681A60DD
:101B2000D5F81034DB681E60254A264FBF1AFF081F
:101B300035D0254D254C02EBC7094FF0070CF7684F
:101B4000D37997F80480D5F800E08B4208EB480879
:101B500028BF0B4603FA08F383EA0E030CFA08F8D1
:101B600003EA080383EA0E03C3F3C20EC3F3821829
:101B7000C64538BFC64603F00708C64538BFC64647
:101B8000C3F34228C64502F1080238BFC646914554
:101B9000A4F802E045F8043B04F10404CFD1BDE809
:101BA000F08301300A28A4D14FF0FF30BDE8F08364
:101BB000C5F81064F2681360B6E700BFB8080020EB
:101BC00070D8040080D90400A0050020180500206A
:101BD00038B5094BD3F81044012583F820544CB193
:101BE000E3685D71236820465B689847E3681C687A
:101BF000002CF5D138BD00BFB80800202DE9F04712
:101C000084B01D460C9C002394F80C802373EB8851
:101C100081460E461746002B40D1297A05290ED061
:101C20006B7AA88873BB404B53F821A00021FFF7C3
:101C300059F9524603463D49204608F0FFFF062F5A
:101C400009D8DFE807F0046A4249525D330049468B
:101C5000204608F0F3FF2B7A052B05D06B7A5BB991
:101C60003349204608F0EAFF204608F0D3FF84F805
:101C70000C8004B0BDE8F0872E4A2F49204608F0BA
:101C8000DDFFEDE7FFF75AF92C4B2B4953F82020E5
:101C9000204608F0D3FF297AA888C4E7254A009295
:101CA0002749284A204608F0C9FFB6E7D6E90410BC
:101CB000D6E900230390D6E902070291CDE9000797
:101CC0004946204608F0BAFFC5E74946D6E9002351
:101CD000204608F0B3FFBEE7B168D6E900232046EE
:101CE0000091494608F0AAFFB5E7D6E90201D6E916
:101CF0000023019100904946204608F09FFFAAE783
:101D0000D6E90371B068D6E900230291CDE9000756
:101D10004946204608F092FF9DE732684946204632
:101D200008F08CFF97E700BFB4810400A88104008D
:101D3000FC7B0400A081040040940400488104005E
:101D40008881040080810400082900D970472DE9AA
:101D5000F04F1D46904600232A7B2B7385B0B8F8C0
:101D60000630039207460E46002B78D198F80810EB
:101D7000052911D098F80930B8F80400002B60D17B
:101D80003B4B53F821400021FFF7ACF822460346B5
:101D90003849284608F052FFDFF8F8B0DFF8F8902D
:101DA000002405E03A5D013408F048FF082C09D012
:101DB000A64249462846F5D85946013408F03EFF68
:101DC000082CF5D12C49DFF8D490DFF8D4B02846A0
:101DD00008F034FF002411E017F804A043F0E4FBFE
:101DE00050445946437813F0970F14BF52462E22A1
:101DF0002846013408F022FF082C08D0A6424946A4
:101E00002846E9D8013408F019FF082CF6D198F8D3
:101E10000830052B02D098F8093063B917492846D5
:101E200008F00CFF284608F0F5FE9DF80C302B73E7
:101E300005B0BDE8F08F124A1249284608F0FEFEB0
:101E4000ECE7FFF77BF8104B0E4953F820202846AB
:101E500008F0F4FE98F80810B8F8040090E7084A73
:101E600000920A490A4A284608F0E8FE7EE700BFC9
:101E7000B4810400A881040078810400FC7B040084
:101E8000A08104004094040048810400888104007B
:101E900080810400748104006C810400B08104001E
:101EA0007C810400032810B5044603D90F491B2088
:101EB00004F048FF0E4B1C5D2F2C224608D81F2C27
:101EC0000BD84FF0A04101239340C1F80C3510BD51
:101ED000084940F2B31004F035FF04F01F02064930
:101EE00001239340C1F80C3510BD00BF00820400EF
:101EF000688204003482040000030050032810B5F7
:101F0000044603D90F49212004F01CFF0E4B1C5D31
:101F10002F2C224608D81F2C0BD84FF0A0410123AC
:101F20009340C1F8083510BD084940F2B31004F0E1
:101F300009FF04F01F02064901239340C1F8083548
:101F400010BD00BF008204006882040034820400D7
:101F500000030050C20730B40ED483070AD54FF0F7
:101F6000A0430C22C3F82C27C3F83027C3F86027FE
:101F7000C3F8642730BC70474FF0A0430322C3F876
:101F800034274FF40055C3F838274FF48044C3F882
:101F90003C274FF40041C3F840274FF48032C3F888
:101FA0000855C3F80845C3F80815C3F80825D4E751
:101FB00010B44FF080414FF080520020C1F80C0166
:101FC0005E4BC1F81001C1F83805D2F80414C3F80B
:101FD0002015D2F80814C3F82415D2F80C14C3F84D
:101FE0002815D2F81014C3F82C15D2F81414C3F81D
:101FF0003015D2F81814C3F83415D2F81C14C3F8ED
:102000004015D2F82014C3F84415D2F82414C3F8AC
:102010004815D2F82814C3F84C15D2F82C14C3F87C
:102020005015D2F83014C3F85415D2F83414C3F84C
:102030006015D2F83814C3F86415D2F83C04C3F81C
:102040006805D2F840043E49C3F86C050968D2F827
:102050004424C3F87025082924D04FF08043D3F8D6
:102060000024D20744BF6FF00102C3F80024354AB0
:10207000D2F8883043F47003C2F88830BFF34F8F32
:10208000BFF36F8F4FF01023D3F80022002A23DB19
:10209000D3F80432002B1FDB2B4B2C4A1A605DF85F
:1020A000044B70472A4B1B68002BD6D129482A4A7B
:1020B0002A4C04602A492B4BFB20C2F818050A68F9
:1020C0001B68294822F00F0203F00F0313434FF45B
:1020D00000720B600260C0E7244B0122C3F80425A4
:1020E000D3F80024002AFBD04FF0102312221F49FE
:1020F000C3F80022D1F80034002BFBD04FF010229F
:1021000012211A4BC2F80412D3F80024002AFBD083
:1021100000221649C3F80425D1F80034002BFBD067
:10212000BFF34F8F0749124BCA6802F4E0621343B2
:10213000CB60BFF34F8F00BFFDE700BF00C0004082
:102140003001001000ED00E0080000200090D003F6
:10215000340100108C56004000F00040488103001C
:10216000E40E0040580200104096024000E001409A
:102170000400FA0530B4184DA5F50E72AB1ADB1049
:1021800003EBD3735B1002EBC30152F83330984278
:10219000A8BF0C4605DB11E052F8333098420CDA48
:1021A00021468B1ADB1003EBD3735B108A4202EBE0
:1021B000C304F1D3094830BC70470D46984204DD92
:1021C00004F10802AA42D9D3F4E76068034B00285F
:1021D00008BF1846EFE700BF648A04006C82040061
:1021E00008B500F08BFB00F0CFF800200AF03EFAB3
:1021F00018B10749E72004F0A5FD0DF015F900B16D
:1022000008BD03494FF48270BDE8084004F09ABD50
:10221000648A040008B500F017F9FCE762B670475D
:1022200072B6704710B582B002AC002304F8053DC9
:10223000019320460AF040FA9DF80330032BF8D9A9
:1022400004210DEB01000AF04DFA10B9019802B01B
:1022500010BD002002B010BD08B520F0E7F8C0EBBB
:102260000010800208BD00BF034A431A934288BF92
:102270000B1A1846704700BFFEFFFF7F10B50446DB
:1022800020F0D4F8C0EB001004EB802420F0CEF84E
:10229000C0EB0010B4EB802F07D220F0C7F8C0EBE2
:1022A0000010B4EB802FF8D310BD20F0BFF8C0EBC6
:1022B0000010B4EB802FF7D920F0B8F8C0EB001075
:1022C000B4EB802FF1D8EFE770B50D461646044603
:1022D000D8B155B18EB13CB120460DF0F1F8294688
:1022E00030460DF0BDF8B8B170BD4FF4877143F6BC
:1022F0005E301BF039FE002EF6D140F20F1143F68E
:102300005E30BDE870401BF02FBE40F20D1143F669
:102310005E301BF029FEDCE7034940F21710BDE8F0
:10232000704004F00FBD00BF648A0400EFF3058025
:10233000003018BF01207047F0B54FF080510025E4
:102340000C6E496E45EA0102074D83B004F0FF07A9
:102350000024224347EA050302A961E90223082277
:1023600043F051F903B0F0BD000E010B08B516F0B3
:10237000AFFB437B03B908BDFFF7A8FB0028FAD1E8
:1023800040BF20BF20BF08BD08B51CF093F848B976
:10239000054B1B7813B9054B1B781BB1BDE80840F2
:1023A0001CF08EB808BD00BFE5010020E801002048
:1023B0002DE9F84F06460D461CF07CF840B33DB3BE
:1023C0001C4F1D4BDFF878B0DFF87080DBF8002081
:1023D000DFF870A0FF1AFF083F0447F003074FF033
:1023E0000009C2F10804AC42A8BF2C4608EB020069
:1023F0003146224643F007F9DBF800202244082A40
:10240000A5EB04052644CBF8002003D0002DE8D12D
:10241000BDE8F88FBAF80230022B05D8CBF800904F
:102420000022002DDDD1F3E704493846FFF7B0FA6A
:10243000F4E700BF60D9040070D80400740D0020D8
:102440007C0D00209005002010B50C4C22682AB1AC
:102450000B4B5B88022B05D800232360BDE810409E
:10246000FFF734BB074B08480849C01AC0080004EE
:1024700092B240F00300FFF78BFAEDE77C0D0020ED
:102480009005002070D8040060D90400740D00206D
:1024900010B5436804466BB92378022B06D96B212B
:1024A0004CF6C900BDE810401BF05EBDBDE8104011
:1024B0001CF014B861214CF6C9001BF055FDEBE788
:1024C00070B54FF010224FF08053526919695B6963
:1024D000124D134E501C08BF03FB01F24FF0805108
:1024E0004FF0102300245B6908692A614A69C6F825
:1024F0000841591C08BF02FB00F3A3F540430949FA
:102500000648EB60224608F063FF00B970BD06493B
:10251000A820BDE8704004F015BC00BF54060020A0
:10252000800D0020AC9A0400B48A04004FF480406F
:10253000704700BF0220704701281ED870B50446BE
:102540005818B0F5804F1BD202B3E3B14FF01025FD
:102550004FF080506D6906694069B5F1FF3FA1F504
:10256000404108BF00FB06F501EB843110462944C9
:102570001A4643F048F8002070BD6FF038007047ED
:102580006FF0160070BD6FF00C0070BD6FF00B00A7
:1025900070BD00BF012845D8F0B55C18B4F5804F78
:1025A00085B042D2002A46D09C0841D04FF0102579
:1025B0004FF080546F69256964697E1C01D104FB6A
:1025C00005F71D46A1F5404404EB8034AB071646E1
:1025D0003C4405D040F23D114CF6C9001BF0C4FC50
:1025E0001BF084FF0028FBD103901BF06FFF0398C2
:1025F000009021462B463246104808F023FF04463F
:1026000048B91BF073FF0028FBD1201C18BF012024
:10261000404205B0F0BD4FF4A6714CF6C9001BF066
:10262000A3FCEEE76FF0380070476FF01600F0E79C
:102630006FF00C00EDE76FF00B00EAE754060020A6
:102640002DE9F0472D4FD7F808518246884691462C
:102650001C4665B197F80001D7F8041182453CD0BB
:10266000ABB2264AFFF796FF0023C7F80831B4F54E
:10267000807F87F800A1C7F80481264623D800256B
:1026800044B3002478193246494642F0BCFFD7F8DB
:1026900008513544C7F80851E4B155B1ABB2174AF7
:1026A000D7F8041197F80001FFF774FF0023C7F86B
:1026B0000831B044B4F5807FB14487F800A1C7F871
:1026C00004812646DBD9A4F58074A4B200254FF41A
:1026D0008076D7E70020BDE8F0876B189845BFD11A
:1026E000B5F5807FBCD0C5F58073A3422646C7D21E
:1026F000E41AA4B21E46002BCED0C3E7800D002002
:1027000001283FD82DE9F0414FF010224FF08053BF
:1027100055691A695B691D4F691C08BF03FB02F507
:1027200005EB8035A5F5404582B0064605F58048A5
:102730001BF0DCFE0028FBD101901BF0C7FE0198C6
:10274000012203462946384608F03EFF78B91BF0BF
:10275000CDFE04460028FAD105F580554545E7D160
:1027600030461BF0CBFE204602B0BDE8F08140F2BF
:102770008D114CF6C9001BF0F7FB4FF0FF3002B093
:10278000BDE8F0816FF03800704700BF54060020AC
:1027900010B5084CD4F8083103B910BD9BB22246DD
:1027A000D4F8041194F80001FFF7F4FE0023C4F8F4
:1027B000083110BD800D002000B5104A83B01268AA
:1027C00000924FF0102359694FF08053481C1A694A
:1027D0005B6908BF03FB02F1A1F5804101A8042257
:1027E00042F011FF01A80422694642F0FDFEB0FA52
:1027F00080F0400903B05DF804FB00BFB08A04001C
:1028000070B44FF010244FF0805364691D695E6905
:102810000B46611C08BF06FB05F443B138B1A2F5B5
:102820007F523C3A11191A4670BC42F0ECBE70BCA3
:10283000704700BF00487047F48A04000249002234
:10284000C0E90012704700BF04000307B0F5A27F83
:1028500000D070471BF054BE08B5FFF7EBFF0DF03A
:1028600063FDFFF7E7FF0DF003FD024B00221A7036
:1028700008BD00BF8C0E002070B51A4C237884B0C0
:1028800053B1FFF7D7FF0DF06BFD18B9FFF7D2FF7B
:102890000DF02CFD04B070BD02A8FFF7CFFFFFF7CD
:1028A000C9FF02A9104A0DF00DFC18B10F496720AD
:1028B00004F048FAFFF7BEFF0368D3F8106501255E
:1028C000FFF7B8FFF6B24FF47032F2402946022308
:1028D00000950DF08BFDFFF7ADFF0DF007FD2570A6
:1028E000CFE700BF8C0E00204D280000FC8A0400BA
:1028F000014B1878704700BF8C0E002030B585B0B2
:1029000002A8FFF79BFFFFF795FF02A9104A0DF001
:10291000D9FB18B10F49672004F014FAFFF78AFFBA
:102920000368D3F810550124FFF784FFEDB24FF48C
:102930007032EA402146022300940DF057FDFFF764
:1029400079FF0DF0D3FC044B1C7005B030BD00BF07
:102950004D280000FC8A04008C0E002000B583B0D6
:1029600002900091019244F2010071466A463BF0E8
:1029700087FB03B000BD00BFF0B412F0030412D116
:102980004B1CDB000A4D0B4E0B4F34709BB21344B3
:102990002B600A4E0A4D0B4B28803A603470198028
:1029A0002046F0BC704707242046F0BC704700BFAB
:1029B000900E00208D0E0020940E00209C0E002012
:1029C000980E00209A0E00202DE9F84F1B4C1C4D4C
:1029D00022782B789A4226D0DFF86CA0DFF86C9032
:1029E000184FDFF86CB04FF000082378DAF80020B9
:1029F0003888D9F80060DBB20FFA83FE02EBCE0113
:102A000003FB0060898852F83E3098472378BBF872
:102A10000010DBB25A1C9942D2B206D92270237838
:102A20002A789A42E1D1BDE8F88F84F800802278B4
:102A30002B789A42D9D1BDE8F88F00BF9C0E0020B8
:102A40008D0E0020980E0020940E0020900E002085
:102A50009A0E0020F8B5204A204B0024C2F84041CD
:102A6000C2F84441C2F84841C2F84C41C2F80041A2
:102A7000C2F804411B6833B31949D2F804550A68F7
:102A8000AD1A1A6825F07F45AA4227460DD8197C51
:102A9000DE69AD1A144419B11F74D3E905209047BB
:102AA0001EB133461A68AA42F1D90E490E4A0B7874
:102AB00012789A4208D00D490D4A41F823404FF44C
:102AC0008013C2F80031F8BD531CDBB2022B08BFE3
:102AD00000230B70EFE700BF00100140C00F002083
:102AE000BC0F0020B90F0020B80F0020B00F00204D
:102AF00000E100E02DE9F04F8C4A8D491378097808
:102B0000DFF85082994285B0D8F800A000F07B81B0
:102B10000133DBB2022B08BF002386481370864ABC
:102B2000076852F823107B1823F07F4300240360CA
:102B3000534626462046A446ABB11A688A4200F2A4
:102B40006581DC68C3F800C0891A1044DA6934B1C1
:102B50003D1825F07F45C3E90154DE611E4613464A
:102B60000124002BE9D1002C40F07C81012300934B
:102B7000724B734FDFF8E09143F001030193554628
:102B80004FF0000B46B3D6E901C13446F669694BF4
:102B90006C481A68ACEB020323F07F43834248D8A9
:102BA0000B44236000220121C4E90122E261217467
:102BB000002D5DD02A689A424DD2284603E00A686B
:102BC0009A424FD20846C1699B1A0029F7D1236067
:102BD000E161C461002ED6D178783978884264D01A
:102BE0000B4603EB43034C1CBA7807EBC303E1B27B
:102BF0008A421A79397004BF00213970022A9C6810
:102C000044D0032A38D0012AE8D1227C002AE5D119
:102C1000D3F80CC0C4F804C01969A1605869E06019
:102C200099F800009B69A3610028B0D062609446C7
:102C3000ADE7A2EB0C0222F07F428A4202D28B1A4D
:102C40002360AFE700230122C4E90033A360E361FE
:102C500022746DB12A68C8F80040D31A2B60E56170
:102C600025468FE7D21A0A602360E161C461B1E7AB
:102C7000C8F80040254685E7002DAFD000232B740F
:102C8000ED69002DFBD1C8F80050A5E74DB1AC426D
:102C90002B4603D1E4E094422FD01346DA69002A90
:102CA000F9D10023237488429AD1BBF1000F01D1DE
:102CB000554553D0002D56D1234E244A1F4C4FF476
:102CC00080334FF400310127C2F880103C43C6F82E
:102CD00048334FF43C60C6F808337760A047154B83
:102CE000B7604FF43C601D60A047194B1D70002376
:102CF00089F8003005B0BDE8F08FA34200F0918064
:102D0000E0692168D861002800F086802A460368BF
:102D10000B440360AA424FF000033978787823749B
:102D20001CBF15464FF0010BBDE700BFB80F0020D8
:102D3000B90F0020BC0F0020B00F0020408B040012
:102D4000A00E0020FEFF7F000010014000E100E027
:102D5000AD0F0020C00F0020AC0F0020009B002B07
:102D6000C5D0002DA8D0434B434A1C68D2F8046557
:102D7000424FD5F800A03978331B23F07F43DD1C88
:102D8000B9B93F493F4B4FF48030C2F844034FF08C
:102D90000108C2F804034FF40030C1F8800143F089
:102DA00001030860C2F800804FF43C60984787F840
:102DB0000080AA452CBF04EB0A0363192E4923F0B7
:102DC0007F43C1F84035D1F80425921B9B1B22F0AC
:102DD0007F4223F07F4303329A4288D9294BD1F8AE
:102DE0000425C1F8402543F001034FF43C609847A7
:102DF000234B4FF40032C3F80021002389F8003040
:102E000005B0BDE8F08F00260096B1E674BB521AFB
:102E10001A6001230093ABE6002339787878237495
:102E200041E71946EA69C8F8002092B9CDE90231B4
:102E3000114BDFF840C001209860019B89F8000029
:102E4000CCF800204FF43C609847DDE90231D8F817
:102E50000020C8690968D86100287FF458AF59E795
:102E60002946DFE7C8F800309A467FE6C8F8003008
:102E70009A46CCE7BC0F002000100140AD0F0020A7
:102E800000E100E0408B04002DE9F8431F4D204E87
:102E9000204FDFF898804FF480334FF400324FF02A
:102EA00001090024C6F8802047EA0907C5F848331D
:102EB0004FF43C60C5F80833C5F80490B847C5F82E
:102EC00008904FF43C60C8F80040B847124A134BD2
:102ED00013491C601470134B134A0C700B211470AF
:102EE0001C8099704FF48012E023C6F8802186F888
:102EF00014333260C5F8084586F81133D5F8043527
:102F0000C8F800302046BDE8F88300BF001001403B
:102F100000E100E0408B0400AD0F0020C00F002056
:102F2000B80F0020A00E0020B90F0020BC0F002019
:102F3000074B9B784BB132B128B10368187C20B99C
:102F400059745A617047072070470820704700BFC6
:102F5000A00E00202DE9F843224CA378002B35D099
:102F6000002833D0042934D943697BB3437C064617
:102F7000012B4FF000000CBF88468046174689465B
:102F800003F0B4F86378A17822785D1CEDB2A94211
:102F900008BF0025AA421FD003EB430304EBC30381
:102FA0000121114A9E601971D2F80425DA600020CF
:102FB000C3E904989F61657003F0B2F80B4B4FF4BE
:102FC0008012C3F800210020BDE8F8830820BDE886
:102FD000F8830720BDE8F883002003F0A1F804205F
:102FE000F2E700BFA00E00200010014000E100E069
:102FF00070B5174DAB7823B318B343690BB30024F6
:1030000004740646204603F071F86A78A878297897
:10301000531CDBB2984208BF2346994213D002EBFF
:10302000420205EBC20202219660204611716B70CC
:1030300003F076F8074B4FF48012C3F800212046C6
:1030400070BD082070BD204603F06AF8042070BDF2
:10305000A00E002000E100E00378052B02D0094B10
:103060001B681847084BD3F88424D3F8803413F036
:10307000FF0FF4D1054BD2B2052A08BF1846014B09
:103080001B681847C40F002000700240A08B04008A
:1030900018B9084B08481B68184710B540F255206E
:1030A000064903F04FFE034B03481B68BDE8104080
:1030B000184700BFC40F0020A48B0400508B0400ED
:1030C00001280FD00AD3022803D1084B08481B68F7
:1030D000184708494FF40F7003F034BE034B0648FD
:1030E0001B681847014B05481B681847C40F002090
:1030F0009C8B0400508B0400948B0400988B04007C
:103100002DE9F04F87B006AF002604468946924667
:103110009B4647F8106D00E0013662680123556850
:10312000214600223846A8470028F5D18DF8060030
:10313000049066B3804605460AE09DF8063067684D
:10314000023B7F68B8479DF806301D44AE421ED949
:1031500062680123576821460DF1060204A8B847AA
:1031600062680123576821460DF1070204A8B84799
:103170009DF807304B454FF00002214604A8DCD1F2
:10318000C24508D008F101085FFA88F8D5E70520A4
:1031900007B0BDE8F08F109A9DF8063013608BF8E9
:1031A00000308BF801906168023B4D680BF1020220
:1031B0002146A8470020EBE72DE9F04F85B00546F2
:1031C00009F058F9002800F08C805D480AF0C2FA36
:1031D000044618B1204605B0BDE8F08F594A5A4957
:1031E0005A4B14700C604822214659481C6042F02A
:1031F0002EFA21464822574842F029FA002D00F0C5
:10320000868095E80700544B83E80700002876D0B5
:10321000002009F0F5F9002869D1DFF844A14D4DEF
:103220009AF80830019300261A46F3B29342DAF86E
:1032300004B0474F0AF109043DD2002C3BD061781D
:1032400091B3A378E31818BF4FF0010914D12BE014
:10325000B8F1080F21D805EBC803C3F800A0DBF8CC
:1032600000005860894509F10103D8B21CD2A37847
:103270004B44E31818D081461878030600F00F0875
:10328000E6D5B8F1080F05D934494FF4B97003F009
:1032900059FD617807EBC803DFE730494FF4BC7094
:1032A00003F050FD6178D6E70136019AF3B29342FC
:1032B00004F10304C1D30B238DF80C30BBF1000FD4
:1032C00038D0DBF8003073B3254803A9984704468B
:1032D00000283FF47FAF0AF0F3FA204605B0BDE8BE
:1032E000F08F1E4940F20B3003F02CFD6DE785286E
:1032F00093D01A4A40F23931FFF730FB8DE7194A73
:103300001A60002009F07CF9002886D0EFE7124B04
:10331000144A5D6000201D721A6009F071F90028DE
:103320003FF47BAFE3E70D49EB2003F00BFDDBF847
:103330000030C9E70949EA2003F004FDC1E700BFF6
:103340005930000069100020601000206410002037
:10335000D00F002018100020C40F0020508B040054
:10336000808C0400553A000010B50AF0B9FB40B15A
:103370000AF0BEFB044620B9064809F055F910B919
:1033800010BD082010BD044A4FF46771FFF7E6FA3C
:10339000204610BD908B0400508B04000AF0A0BAA8
:1033A00008B50AF0AFFB20B1044940F2AB3003F09E
:1033B000C9FCBDE808400BF0E3BD00BF508B040022
:1033C00010B50AF095FB88B14FF0804303E0D3F8C5
:1033D0003824D10709D5D3F838249207F7D5064BFE
:1033E00006481B68BDE81040184710BD044940F26C
:1033F000B23003F0A7FCE7E7C40F0020A88B04005D
:10340000508B040000B583B002A8822300F8043D6D
:10341000024B1B68984703B05DF804FBC40F002003
:103420002DE9F04F824685B0002800F0E680DAF8FA
:103430000430002B00F0EB801B68002B00F0D780DD
:10344000DAF800301B6823B17C4940F2475003F0A2
:1034500079FC0AF04DFB00283FD10AF041FB00281F
:103460003BD000269AF80820DFF8D8B1DFF8CC81ED
:10347000734FF4B20AF10903944201933FD2019BC6
:1034800004EB44041C193BD0002507E0B9F1080FF8
:1034900029D80BEBC90301351B68D3B96378EAB2AD
:1034A000934226D9A3781344DC4222D0E25C02F096
:1034B0000F091206EAD5B9F1080F04D941464FF4B5
:1034C000B97003F03FFC07EBC90301351B68002B03
:1034D000E4D0112005B0BDE8F08F584940F24B50C0
:1034E00003F030FCBDE741464FF4BC7003F02AFC0A
:1034F000CFE701369AF80820F4B29442BFD30024F3
:103500005FFA84F90AF1090391454E4DDFF82C81E9
:103510004B4F019345D2019B09EB490913EB090974
:103520003FD099F80130BBB399F8023019EB03038F
:1035300018BF4FF0010B18D12EE0082E24D805EB50
:10354000C603C3F800A0DAF8042012685A6099F89C
:1035500001100BF101035945DAB21BD999F8023079
:103560005B4419EB030315D093461A78130602F057
:103570000F06E2D5082E04D941464FF4B97003F086
:10358000E1FB07EBC603DCE741464FF4BC7003F0F8
:10359000D9FBD4E79AF8082001345FFA84F9914501
:1035A000B9D3294C236833B1244D9A4514D01C68F3
:1035B0002368002BF9D1C4F800A0DAF804300B22FC
:1035C0008DF80C20002B32D01B6843B3504603A962
:1035D000984705B0BDE8F08F294640F2715003F0DE
:1035E000B1FB23681C682368002BDED1E3E7134995
:1035F00040F2465003F0A6FB22E7104940F2445047
:1036000003F0A0FBDAF80430002B7FF415AF0B4970
:1036100040F2455003F096FBDAF804300CE7074916
:10362000EB2003F08FFBDAF804301B68CEE7034988
:10363000EA2003F087FBDAF80430C5E7508B04007A
:10364000D00F00201810002060100020024B1878C6
:10365000003018BF012070476810002000F00F03F1
:10366000072B10B5044604D80AF084FC20460BF062
:103670005DF82046BDE810400AF0C4BF0BF072B9F7
:10368000014B1868704700BF6010002070B4114BE8
:103690001E68A6B1357A75B1737A834206F10902C4
:1036A00010D0002303E012F8034F84420BD0013303
:1036B000DBB29D42F7D133681E68002EEAD1304656
:1036C00070BC704700230029F9D030460B7070BCE5
:1036D000704700BF6010002070B51546044698B1D1
:1036E0006368C3B11B6823B129462046BDE870401A
:1036F00018470C49EB2003F025FB63682946204658
:103700001B68BDE8704018470649E92003F01AFB22
:103710006368002BE6D10349EA2003F013FB6368DA
:10372000E0E700BF508B040000F00F03082B14D813
:10373000020670B54CBF104A104ADB0013441D68E6
:103740004DB16B680C468BB11B6843B121462846CE
:10375000BDE870401847102070BD10207047084920
:10376000EB2003F0EFFA6B681B68EFE70449EA20EF
:1037700003F0E8FA6B68E7E7D00F0020181000208C
:10378000508B040070B5134B1C680CB30546124EE9
:1037900007E0294620469847062812D123681C686E
:1037A000B4B1636873B11B68002BF2D13146EB20D2
:1037B00003F0C8FA636829461B6820469847062824
:1037C000ECD070BD3146EA2003F0BCFA6368EAE74A
:1037D000062070BD60100020508B040038B50D46E7
:1037E00004460AF009FA18B1054B1B78022B01D0E8
:1037F000082038BD29462046BDE838400AF01EBAE8
:103800006910002038B50D4604460AF0F5F918B1E4
:10381000054B1B78022B01D0082038BD29462046D5
:10382000BDE838400AF0D4BA69100020F8B5436802
:103830009B6805460C4616461BB19847062800D0E3
:10384000F8BD2B7AA34232D3002E37D12B7AA34274
:103850001DD9093504EB44042C4467782FB3354651
:1038600033463A460EE0A3786219D65C06F00F03A1
:10387000072B30460DD901350AF0C4FEEBB29F424A
:1038800013D962789342EED300231B78FFDE73785E
:10389000FFDE0AF06FFB30460AF048FF0135304684
:1038A0000AF0B0FEEBB2BB42EBD30020F8BD0449F6
:1038B00040F2D32003F046FA002EC7D00720F8BD0F
:1038C000508B040043681B6903B1184718467047C2
:1038D0002DE9F84F364B1F68002F5DD0DFF8D4B0CC
:1038E00097F808A0BAF1000F52D04FF000094C46EB
:1038F00007F109050DE020B1594640F2447003F08C
:1039000021FA09F101095FFA89F4A24505F10305DD
:103910003ED97B689B682BB10022214638469847E8
:103920000628E8D13B7AA3423BD3A34236D995F887
:103930000180B8F1000FE4D00024234642460EE097
:10394000AB782A19D65C06F00F03072B30460BD94B
:1039500001340AF057FEE3B24345D2D26A7893426B
:10396000EED300231B78FFDE0AF004FB30460AF09A
:10397000DDFE013430460AF045FEE3B29845EDD84D
:1039800009F101095FFA89F4A24505F10305C0D8E0
:103990003B681F68002FA3D1BDE8F88F00235B7838
:1039A000FFDE594640F2D32003F0CCF93B7ABCE766
:1039B00060100020508B04002DE9F047234B1F6856
:1039C000002F37D0DFF888A097F80890B9F1000FE2
:1039D0002CD04FF00008444607F109057B68DB68EE
:1039E00013B12146384698473B7AA34227D39C42DD
:1039F00022D26E7896B100242346324609E0AB7895
:103A00002A190134D05C0AF0ADFFE3B29E4205D919
:103A10006A789342F3D300231B78FFDE08F1010894
:103A20005FFA88F4A14505F10305D7D83B681F6804
:103A3000002FC9D1BDE8F08700235B78FFDE514637
:103A400040F2F22003F07EF93B7AD0E760100020CC
:103A5000508B04002DE9F041844D2B680446002B67
:103A600000F0048302F076FB062840F28C80237875
:103A7000852B00F2F482DFE813F04702E0018C00AE
:103A80006A02BD02B700BE00F202E00005011E019D
:103A9000F202F202F202F2023701F202F202F20242
:103AA000F202F202F202F202F202F202F202F20276
:103AB000F202F202F202F202F202F202F202F20266
:103AC000F202F202F202F202F202F202F202F20256
:103AD000F202F202F202F202F202F202F202F20246
:103AE000F202F202F202F202F202F202F202F20236
:103AF000F202F202F202F202F202F202F202F20226
:103B0000F202F202F202F202F202F202F202F20215
:103B1000F202F202F202F202F202F202F202F20205
:103B2000F202F202F202F202F202F202F202F202F5
:103B3000F202F202F202F202F202F202F202F202E5
:103B4000F202F202F202F202F202F202F202F202D5
:103B5000F202F202F202F202F202F202F202F202C5
:103B6000F202F202F202F202F202F202F202F202B5
:103B7000F202F202F202F202F20250015E019C0134
:103B80009F021702B7003A4940F2064003F0DAF804
:103B90006DE7384E3278931EDBB2062B0BD83649D0
:103BA000CB5C13B108F006FD3278022A01D0082A56
:103BB00001D109F0EBFF314B5B68032232700BB18E
:103BC000022098472D687DB1294E6B68002B00F0CC
:103BD00060831B6828462146002B00F0B682984778
:103BE0002B681D68002DF0D1254B2146D3E900023A
:103BF000BDE8F0411047A37803F00F051B0600F164
:103C00004082082D00F27E831D4B03EBC5052B6817
:103C1000002B00F084836B68002B00F07983286808
:103C20002146984700B3A07800F00F03013B062B14
:103C30001AD8BDE8F0410AF053B9104B5B680BB1DC
:103C4000082098472D687DB1094E6B68002B00F065
:103C50002C831B6828462146002B00F04982984798
:103C60002B681D68002DF0D1BDE8F08160100020A8
:103C7000508B040069100020488B0400C40F002002
:103C800018100020974B5B680BB1092098472D68EE
:103C9000002DE9D0944E6B68002B00F000831B6868
:103CA00028462146002B00F05F8298472B681D684C
:103CB000002DF0D1D8E78B4B5B680BB10A209847F9
:103CC0002D68002DD0D0884E6B68002B00F0C98283
:103CD0001B6828462146002B00F0A58298472B68D8
:103CE0001D68002DF0D1BFE77E4B5B680BB10F2044
:103CF00098472D68002DB7D07B4E6B68002B00F0E5
:103D0000DA821B6828462146002B00F00082984783
:103D10002B681D68002DF0D1A6E7744E3378062B72
:103D200000F0C481072B01D0052B9DD109F038FF8D
:103D30000223337098E76E4B6E49D3E90002904737
:103D40002C6884B1684E6B4D6368002B00F09B8239
:103D50001B6820462946002B00F0568298472368AE
:103D60001C68002CF0D15F4C63680BB10D209847A4
:103D7000FFF722FE01F0D0FD5F4B1B68002B00F027
:103D800090810120594E09F067FE3278931EDBB214
:103D9000062B0BD85949CB5C13B108F00BFC3278D9
:103DA000022A00F0A082082A00F09D8201233370CD
:103DB0005AE74E4EFFF700FE0AF024FF3278931EBA
:103DC000DBB2062B0BD84D49CB5C13B108F0F2FBEC
:103DD0003278022A01D0082A01D109F0D7FE2C68D6
:103DE0000023337084B1404F454D6368002B00F0D1
:103DF00068821B6820462946002B00F0978198476F
:103E000023681C68002CF0D1394B3D49D3E90002EE
:103E10009047344B5B680BB10E2098473378023BD8
:103E2000DBB2062B3FF620AF344AD35C002B3FF4C5
:103E30001BAFBDE8F04108F0BDBB2C4EFFF7BCFD49
:103E400001F060FD3278931EDBB2062B00F2148184
:103E50002A49CB5C002B00F00F81022A03D0082AEC
:103E600001D009F09DFE1F4B5B68022232700BB13E
:103E7000012098471E4B2146D3E9000290472D6848
:103E8000002D3FF4F1AE184E6B68002B00F01F823E
:103E90001B6828462146002B00F0758198472B6847
:103EA0001D68002DF0D1DFE6104E3378032B00F0B3
:103EB000028109F035FE00283FF4D6AE3278931E19
:103EC000DBB2062B40F237820E4808F031FB327825
:103ED000022A00F01482082A00F0118206233370AF
:103EE000C2E600BFC40F0020508B04006910002000
:103EF00018100020AC8B040064100020488B0400D4
:103F0000B08B04000C000020A64B1B78032B00F0A4
:103F1000EB80082B00F0E880A34B5B680BB100201E
:103F20009847A24B1D68002D3FF49EAEA04E6B68D3
:103F3000002B00F0D2811B6828462146002B00F0A0
:103F4000458198472B685D68002DF0D18CE6954E31
:103F50003378082B00F0A0809A1ED2B2062A40F2D5
:103F6000C881944808F0E4FA3378022B00F0BE814F
:103F7000082B00F0BB81052333708B4B5B680BB1C2
:103F8000032098478C4B2146D3E9000290472D68C7
:103F9000002D3FF469AE864E6B68002B00F0678100
:103FA0001B6828462146002B00F04C8198472B685F
:103FB0001D68002DF0D157E67A4E3378032B7FF43D
:103FC00053AE0AF0FDFE00283FF44EAE3278931E49
:103FD000DBB2062B0BD87949CB5C13B108F0EAFAB7
:103FE0003278022A00F0AD81082A00F0AA81042369
:103FF000337039E66C4B5B680BB1032098476E4B0E
:104000006F49D3E9000290472C6884B1684E6C4D2B
:104010006368002B00F031811B6820462946002B85
:1040200000F0E380984723681C68002CF0D15D4EB7
:104030003378062B37D0082B0ED09A1ED2B2062A20
:1040400040F273815B4808F073FA3378022B03D097
:10405000082B01D009F0A4FD0223337004E6544973
:104060004FF4A060BDE8F04102F06CBE504940F250
:10407000FF3002F067FEF5E44E4808F059FA327856
:10408000EBE6082D04D94A494FF4B97002F05AFE04
:104090004C4B03EBC505BAE50223337009F08AFDEA
:1040A0006BE7207A6EE607233370DDE509F078FDD3
:1040B00008233370D8E50AF083FE00283FF4F9AEF8
:1040C0003278931EDBB2062B0BD83C49CB5C13B184
:1040D00008F070FA3278022A00F03681082A00F0DF
:1040E000338104233370E4E63748FFF7B3FC13E76A
:1040F0003146EB2002F026FE6B6828461B682146FD
:1041000098472B681D68002D7FF49FADACE53146C4
:10411000EB2002F017FE6B6828461B682146984783
:104120002B681D68002D7FF4E8AD9DE53946EB2036
:1041300002F008FE636820461B68294698472368FA
:104140001C68002C7FF451AE5EE63146EB2002F095
:10415000F9FD6B6828461B68214698472B681D6847
:10416000002D7FF432AD3FE53146EB2002F0EAFD51
:104170006B6828461B68214698472B681D68002DF0
:104180007FF489AD70E53146EB2002F0DBFD6B6812
:1041900028461B68214698472B681D68002D7FF430
:1041A00073AE61E569100020C40F00206410002088
:1041B000508B04000C00002018100020488B0400D5
:1041C000B88B0400D00F0020B48B04003146EB20E4
:1041D00002F0B8FD6B6828461B68214698472B689B
:1041E0005D68002D7FF4A3AE3EE53146EB2002F082
:1041F000A9FD636820461B682946984723681C6808
:10420000002C7FF405AF12E73146EB2002F09AFD57
:10421000636820461B682946984723681C68002C61
:104220007FF492AD9FE53146EB2002F08BFD6B6889
:1042300028461B68214698472B681D68002D7FF48F
:1042400043AD11E53146EB2002F07CFD6B6828465A
:104250001B68214698472B681D68002D7FF49CAE93
:1042600002E53146EA2002F06DFD6B6830E531462B
:10427000EA2002F067FD6B6892E63146EA2002F020
:1042800061FD6368C8E63146EA2002F05BFD6368C1
:104290005EE53146EA2002F055FD6B6899E431464F
:1042A000EA2002F04FFD6B68F9E43146EA2002F0A3
:1042B00049FD6B68CDE43146EA2002F043FD6B68AE
:1042C0001FE53946EA2002F03DFD636891E531467D
:1042D000EA2002F037FD6B68DAE53146EA2002F0A9
:1042E00031FD6B6827E609F051FC5FE509F04EFCF3
:1042F00041E617498A5C002A7FF437AE31E609F0BF
:1043000045FCEBE513494FF4BC7002F01BFD7BE468
:10431000104940F2DD4002F015FD6B687FE40D4965
:1043200040F2DC4002F00EFD75E409498A5C002A87
:104330007FF48CAE86E60649CB5C002B7FF4C8ADDB
:10434000C2E509F023FC52E609F020FCC9E600BFF3
:10435000488B0400508B04004360CA699A4205D21E
:1043600001F1280202608B67002070478A690260B1
:104370000B67CB61002070472DE9F04FDFF8B08468
:104380000F46097A88F8001083B015461E46044689
:10439000002800F0CB81216840F21E33994200F0E2
:1043A000988331D9B1F54C7F00F0128400F2A680D9
:1043B00040F22633994200F0F68340F2238140F226
:1043C0002B33994200F08A84B1F54B7F80F0B282A2
:1043D00040F22933994200F0948340F22A33994203
:1043E00040F0108301230022002D00F07485217914
:1043F000A9549E424FF00202227100F2A98540F2B8
:104400002B33236001208EE1B1F5407F00F0DD8386
:104410002AD8B1F53C7F00F0638340F2358140F249
:10442000F323994200F07F83B1F53D7F80F08481D2
:1044300040F2F123994200F00B8440F2F2239942BA
:1044400040F0E082002D00F04E8621794FF0010906
:10445000002200234E45A954237100F2818540F2C9
:10446000F323236001205EE140F20D33994200F016
:10447000A18340F2848040F21633994200F03C84DC
:1044800040F2ED82B1F5477F00F0B58200F25B8427
:1044900040F21B33994240F0B58201234FF00009EE
:1044A000002D00F0DA84227905F80920B3424FF09C
:1044B0002402227180F0A6841146581C00228642F4
:1044C000E954227140F28784411C10238E422A5401
:1044D000237140F263841A46481C012386426A54C1
:1044E000237140F251841A46C11805238E422A5482
:1044F000237140F23F841A46481C9CE0B1F5537F7B
:1045000000F05C8340F2EB8040F25D33994200F0B2
:10451000458340F2988240F26333994200F067820B
:10452000B1F55A7F00F0638240F25E33994240F069
:104530006982002D00F0EE8523792A464FF00109AB
:104540001370B64B3A7D1B681B789A4200F030849A
:10455000BA7D9A4240F0498400234E45237140F2CF
:1045600073854B4609F101090DB12279EA54AC4932
:10457000AC4A0B7812780133DBB20B7006E240F2E2
:104580000633994200F0EE8200F2178140F20133C7
:10459000994200F0AC8240F20233994240F03282FC
:1045A0009E4B1A68002D00F0AF85237929464FF005
:1045B000010A0B7013783A7D9A4200F03284BA7D7A
:1045C0009A4240F03C840A235645237140F26685A6
:1045D0000AF10103002D00F01785227905F80A2061
:1045E0000021B342217180F0898403F1010A002285
:1045F0005645E954227100F2158540F20F332360CD
:10460000012090E040F22333994200F09583B1F508
:10461000497F80F0DF8140F21F33994200F05282DF
:1046200040F22233994240F0ED81002D00F059858F
:10463000227901200021242386426A54237140F20A
:104640008A831A46411C01238E422A54237140F268
:104650006E831A46C818032386426A54237140F2B7
:104660006183411C2B548E42B87D207140F26782D9
:104670004A1C042396426854237100F2658440F278
:104680002933236001204EE040F2ED23994200F0EF
:10469000EE8200F22781002900F0C682B1F53B7F4F
:1046A00040F0B081002D00F07A8423792B70012E28
:1046B0004FF00B03237140F2648403210222012096
:1046C0002B549642387D207140F2638302238E4240
:1046D000A854237140F253831A46481C12E140F259
:1046E0003333994200F0ED82B1F54D7F80F0A28026
:1046F00040F23133994200F0CA8240F2323399429B
:1047000040F080814FF001090023002D00F02F813F
:104710002279EA544E45BB7D237100F2268440F293
:1047200033332360012003B0BDE8F08F3E4940F2EF
:10473000E92002F007FB2EE640F2FA23994200F04E
:10474000C98240F2FB23994240F05C81002D00F0C9
:10475000D88423792A4601211370344B3A7A1B7886
:104760009A4240F28E8103EB430207F109032B4882
:1047700013F802C084F804C013448E42036040F270
:104780002F834B1C002D00F0C38322796A549E4274
:104790004FF00002227140F2068320481146026861
:1047A00003F1010AE95456455378237100F2E3837B
:1047B00040F2023323600120B5E740F2073399420B
:1047C00000F04D82B1F5427F40F01C81002D00F0D9
:1047D000948423792A464FF0010A1370002356452A
:1047E000237140F22B810AF1010915B1237905F8F3
:1047F0000A30DFF828A0397DDAF800301A789142C3
:1048000000F04981B97D914200F0BA8006494FF429
:104810004F7002F097FADAF80030B1E07010002023
:104820006D1000206A100020DC8B04006B1000204B
:104830006C10002040F24733994200F07081B1F5CE
:10484000527F40F0DF80002D40F015844FF00109C9
:10485000DFF804B3BF4ADBF8003092F800A0002B69
:1048600000F0FC835A78524540F2E5809A449B78E8
:10487000B1451AF80330237180F01F8109F1010A54
:1048800015B1237905F80930DBF800303A7D1B7843
:104890009A4200F0BC82BA7D9A4240F0CA8202235A
:1048A000B245237180F0EE8353460AF1010A0DB13F
:1048B0002279EA5440235645237140F2E7800AF1F9
:1048C0000109002D00F07F82237905F80A30B145F7
:1048D0004FF000032371C0F08F8240F25E332360FB
:1048E000012020E740F2EE23994200F0DE8140F201
:1048F000EF23994240F08680002D00F0ED8322796D
:1049000001200021022386426A54237140F22D8245
:104910001A46411C02238E422A54237140F22082FF
:104920004A1C6B549642797E217140F2F68102F165
:1049300001098EE500F0638140F22F33994261D185
:10494000002D40F09483012324229E42227140F2E4
:1049500051815A1C06239642237140F246813B7DC9
:104960002371531CB34280F0698102F10209BB7DBF
:1049700023714E457FF6D3AE09F10109764B1B68D2
:10498000764874495A78027000230B7093423CD3E6
:10499000734A13780133DBB2137098F800209A42FF
:1049A00040F28A8109234E45237140F2C78209F102
:1049B0000101002D00F0EB82237905F809308E42C9
:1049C0004FF00403237100F2458340F2FB23236080
:1049D0000120A8E600F0958140F22533994211D1DB
:1049E000002D00F06D832379012100203AE64FF07D
:1049F00001090023B8E5002D00F06683217901202C
:104A000000235BE5002020608DE607234E452371DF
:104A100049D909F10102002D00F01782237905F828
:104A2000093096424FF00503237141D9A91802F1CC
:104A300001090B700CE700231B78FFDE40F21633F0
:104A4000236001206FE640F25133994203D040F2D7
:104A500056339942D6D14FF0010A002327E740F29E
:104A60000E33994200F00B8140F20F339942C9D1C5
:104A7000002D00F042832B4622791A704FF0010A74
:104A8000ACE6354A002313601B78FFDE40F25D334D
:104A90002360012047E60523B145237180F0488259
:104AA00009F10103FCE440F24733236001203AE6B8
:104AB0004FF452732360012035E64FF453732360A3
:104AC000012030E6002D00F0F4822279012100203F
:104AD0000BE5002D00F0EF82227901200021FCE49B
:104AE000002D00F0E18222790121002012E71A4B0B
:104AF0001A68002D00F0DB8221794FF0010A0023B3
:104B000050E6002D00F0128321792846012224234B
:104B100096420170237117D91946531C68E401228B
:104B20004FF0000977E7002D00F0FB8223792A4639
:104B30004FF0010913700A4A002313702DE740F269
:104B4000263323600120EEE540F22A332360012062
:104B5000E9E500BF6D100020701000206A100020F1
:104B60006B10002001234FF0000A002D00F061823D
:104B7000227905F80A209E424FF00202227140F28B
:104B8000C28103F1010AEA5456457B7E237100F28B
:104B900035824FF4427323600120C4E54FF00109D0
:104BA0004FF0000A8DE6002D00F08C822079012262
:104BB00000215EE501234FF0000A0BE5DFF874B534
:104BC0004FF0010A4FF000095AE601230021D9E510
:104BD00001220023002D3FF4BDAE2179E954964215
:104BE0004FF00603237100F2B78140F231332360A6
:104BF000012098E54FF44C732360012093E50123D5
:104C00000022002D00F073812179A9549E424FF0BB
:104C10000502227117D9E81801332421B34202702A
:104C20002171E7D25A1CD9E708232371002E7FF4A3
:104C300039AD4FF43B732360012074E540F2323309
:104C4000236001206FE540F22F33236001206AE5E5
:104C5000002D00F04D8223790122002161E6002D14
:104C600000F03D8222794FF0010A00238BE7002DEE
:104C700000F02382237902210122002020E5002D6B
:104C800000F0348221794FF0010A0023AFE4002DB7
:104C900000F03E8221792846012301703A7D22717D
:104CA0009E42CBD903F1010933E5002D00F00E82BD
:104CB00020790121002209E540F2733323600120AD
:104CC00031E5002D00F02A822A46237913704FF037
:104CD000010953E601214FF000096AE6002D00F0BA
:104CE00023822179284601220223964201702371F2
:104CF0000ED91946531C88E74FF001094FF0000AFE
:104D000073E5002D00F0E481227901200021A2E466
:104D10004FF44B732360012005E540F2F22323603A
:104D2000012000E540F2253323600120FBE44FF42D
:104D3000497323600120F6E4002D00F0DC81227924
:104D4000012100207FE4002D00F0C481227901219F
:104D50000020FFF7BABB40F2233323600120E2E4D6
:104D600040F2F12323600120DDE44FF43C73236023
:104D70000120D8E440F2223323600120D3E440F242
:104D8000EF2323600120CEE440F21F332360012093
:104D9000C9E440F2EE2323600120C4E440F21E3354
:104DA00023600120BFE440F2013323600120BAE414
:104DB0003B6A4E451B7823713FF6D3AB40F2633319
:104DC00023600120AFE4B1452571BFF486AD09F140
:104DD0000109FFF7B6BB40F21D3323600120A2E4B6
:104DE0004FF44073236001209DE4D1494FF45B7080
:104DF00001F0A8FFFFF7BBBB05EB090209F10109B0
:104E0000FFF79EBB4FF44773236001208BE403231D
:104E1000B2452371FFF448AD40F2513323600120C5
:104E200081E402235645237140F232810AF10103E5
:104E30009BE6BF4940F25A3001F084FF3AE5BC4995
:104E400040F2133001F07EFFC8E40523964223713F
:104E50007FF62EAE02F10109FAE42422B342227158
:104E6000D0D2013300229E422271B4D901331022E4
:104E70009E42227192D9013301229E42227183D92E
:104E8000134405229E4222717FF674AF013324221F
:104E90009E4222717FF65FAF013301229E42227152
:104EA0007FF645AF134403229E4222717FF63AAF4C
:104EB0000133BA7D22719E427FF641AE0133042256
:104EC0009E4222717FF6DBAB5A1C2421B242217133
:104ED000BFF43AAE023302229E4222717FF68FAABD
:104EE0005A1C0221B2422171BFF412AF0B440522B9
:104EF0009E4222717FF6A7AE013325E540F20E33C4
:104F0000236001200FE440F20733236001200AE40C
:104F10009E4225717FF647AF864A12680133517869
:104F200021719E427FF644AC03F1010AFFF742BBB8
:104F300040F21B3323600120FFF7F5BB40F2FA2358
:104F400023600120FFF7EFBBA81819460132DEE508
:104F50001146E8185A1CC7E61946A818531C9CE6C7
:104F600005EB090209F10109E4E505EB090209F184
:104F70000109137002E505EB0A010AF1010AFFF7C6
:104F800018BB40F2ED2323600120FFF7CCBB0423C4
:104F90008E4223717FF619AD0131FFF7DEBB0B2383
:104FA000012E2371EDD903230222397D217196420E
:104FB0007FF6EFAE02229E4222717FF6E0AE03F151
:104FC000010902234E4523717FF6CFAE09F1010995
:104FD00002234E4523717FF6C3AE09F101097B7EA2
:104FE00023714E457FF699AE09F1010900234E4524
:104FF00023717FF634AA09F101099CE505EB0A0249
:105000000AF1010AFFF7E9BBB3422571BFF476AF9D
:10501000013300229E4222717FF6EFAA03F1010ABA
:10502000FFF7DCBB05EB0A030AF1010A1A70FFF770
:10503000D5BB02229E4222717FF665AF01337A7E94
:1050400022719E42EAD8A4E54FF45A7323600120EE
:10505000FFF769BB6A180131FFF77EBB3649019340
:1050600040F21D1001F06EFE019BFFF7FBBB2279A1
:1050700028460123D1E5294623790B704FF0010919
:10508000FFF7E6BB40F2563323600120FFF74BBB2E
:1050900040F2063323600120FFF745BB40F20D3399
:1050A00023600120FFF73FBB4FF0010990E7012388
:1050B00035E70123E5E60123DEE60223012274E75A
:1050C0000123F6E60123FAE60123CBE6012371E78B
:1050D0000123E8E60123CAE64FF0010971E7012345
:1050E000ADE70123D3E64FF001097FE7012390E705
:1050F0004FF0010973E70123CFE64FF0010AFFF7F4
:105100006DBB0121FFF729BB4FF0010AFFF752BA2F
:10511000002224E44FF00109FFF713BA4FF0010910
:105120002CE44FF0010906E52B46D9E60023CBE637
:10513000DC8B040070100020308C04004360CA69CE
:105140009A4205D201F12802026000208B67704765
:105150008A6910B40260C8698C690A6FC01A1C445D
:105160001A44C86100308C6118BF01200A675DF8DD
:10517000044B704788B910B50C46C9B1206870B1AE
:10518000037B202B07D100F10E010722183040F0DD
:105190003AFA002010BD062010BD032070473A20C7
:1051A000064901F0CFFD2068037B202BEBD0F2E70E
:1051B0000249392001F0C6FDE0E700BFDC8B0400A6
:1051C0002DE9F0430E4689B0054600287ED0002E1A
:1051D00000F0848033780E2B5AD8DFE803F05408AF
:1051E0005454591E5E595908595454545400002DB2
:1051F00000F083802B68002B00F088800024C3E936
:105200001E44C3E9204403F134021C845C62DC6266
:105210005A67204609B0BDE8F083002D00F03581C3
:105220007378D9094FEA531276D1012A30D13DB9AA
:10523000B0492C2001F086FDAE49392001F082FDF5
:105240002F6827B9AB493A2001F07CFD2F68B3786D
:10525000202B00F0B380222B1AD1B6F80730BBB94F
:10526000B6F8033097F820203B8402F0010203F0E7
:1052700001039A4207D0EA69002B00F0728112B153
:105280002846022190470024204609B0BDE8F0835B
:105290000624204609B0BDE8F083002D00F0F08020
:1052A0002F7A1FB3AB7A05F10901EBB1EA7AB37833
:1052B0008A5C9A42E7D01B06F47800F1CE80012C7C
:1052C000E1D043D3032CDED00324A2E7894940F286
:1052D000B72001F037FD002E7FF47CAF85494FF4F5
:1052E0002E7001F02FFD75E71B78FFDE824940F23A
:1052F0001D1001F027FD7B78FFDE7E492C2001F098
:1053000021FD7C49392001F01DFD73E779493A20E0
:1053100001F018FD2B6871E712F0030274D0012A26
:10532000B6D1002D00F04D812B68002B00F042819A
:10533000B378212BACD1B6F80720072AA8D1296869
:10534000701C183100F0F2FA044662E72E68002E55
:1053500000F00081012F06F10C0240F28980697B88
:10536000012905F10C0340F296806448A97BCDE940
:1053700005020B44B26A93F80180002A40F08E8047
:10538000F36FF46AB267C6E91F23002C00F0E080D7
:1053900006F12C0393E8030006F1240383E80300DD
:1053A000F262404605A9FEF72DFA0446EB69002B90
:1053B0003FF42FAF2846002198472AE7B6F8072088
:1053C000072A7FF465AF002F00F01B813B73B6F80E
:1053D00007300024DBB27B7320460E37CDE905731E
:1053E000079400F083FE204605A9FEF7F7F904466E
:1053F00030B9434B049503A9039300F019FE04460A
:10540000002000F08DFE04E703F01F03012B7FF462
:105410003FAFB478062C7FF43BAF05A8039200F0B1
:105420001BFE0DF10C0C0746F2783179CDF800C067
:1054300028463B46FDF764FE05283FF4EAAE039A92
:105440003F2A04D92B49A32001F07CFC039A39465A
:10545000701C00F06BFA0446DBE6002C7FF432AFE0
:10546000EB69002B3FF40FAF284601219847D0E6A7
:10547000214940F21D1001F065FC00235B78FFDE3E
:105480001D49EA2001F05EFC0AE71A494FF4D17089
:1054900001F058FCC4E600231B78FFDED6F88490A8
:1054A000706A4A4506F1340C28BF4A4661461446E4
:1054B000674640F0A8F8F26FF16AA9EB040307EB26
:1054C000040C22444FF00009C6E91DC3C6E91F922F
:1054D000002974D006F12C0797E8030006F1240494
:1054E00084E80300C6F82C90002B73D0B26A934274
:1054F00016D278E0DC8B0400308C04003D510000B3
:105500007551000097E8030084E80300B36FC6F804
:105510002C90002B5ED0B26AD6F874C09A4262D842
:105520006146706A40F06FF8D6E91D32B16AC6F87C
:1055300080100B44521AC6E91D32EB6913B10021E9
:1055400028469847F36A002BDCD1736200242DE7CC
:1055500074622BE72E493A2001F0F4FB2F7A2E6873
:10556000F8E612B10321284690472B7A012B7FF6EB
:105570007FAF6B7B05F10C04002B3FF4B5AEAB7B2A
:10558000E05C09F009F92B7A012B7FF671AF6B7B98
:10559000012B80D9AB7B1C44607809F0FDF8002416
:1055A00007F134037C62FC62C7E91E44C7E920446A
:1055B0007B672EE616493A2001F0C4FBB8E671621B
:1055C000C4E713492C2001F0BDFB1149392001F03B
:1055D000B9FBA9E6736A002BB8D0404605A9FEF7CF
:1055E00011F90446E2E61A466146706A40F00BF88B
:1055F000D6E90932B16FF167521A0B44C6E9093294
:10560000E9E703493A2001F09DFBB3782F68DDE616
:10561000DC8B040070B50E4684B0154604460028A5
:105620002CD0236823B31B8CDB0702D4082004B0E2
:1056300070BD237A012B13D9637B04F10C026BB18B
:10564000A37BD05CAA060CBF0123002301A9CDE9EE
:1056500001650393FEF7C2F804B070BD1B78FFDE4E
:10566000094940F21D1001F06DFB00235B78FFDE5D
:1056700006493A2001F066FB2368D4E70349392044
:1056800001F060FBCDE700BF308C0400DC8B040030
:1056900010B5044660B1236813B1D3F8800010BD83
:1056A00006493A2001F04EFB2368D3F8800010BD74
:1056B0000249392001F046FBEDE700BFDC8B040016
:1056C000F0B5054685B017460E46B9B1EDB12C6868
:1056D00014B3238CDB070DD5002000F007FDA26F6B
:1056E00002BB636A83B31124002000F019FD204639
:1056F00005B0F0BD0824204605B0F0BD244940F2B5
:10570000F93001F01FFB002DE1D12149392001F0D2
:1057100019FB2C68002CDCD11D493A2001F012FB4A
:105720002C68D6E7974228BF17463A46616F304645
:105730003FF069FFD4E91D23DB1B3A44C4F88070B5
:10574000C4E91D230024CFE7C4E909672A7A012AA6
:1057500015D9697B012905F10C020ED9AB7B0D49E6
:10576000029113440C345878039402A9FEF74AF8C6
:10577000002814BF04469224B6E71B78FFDE0649D2
:10578000019340F21D1001F0DDFA019B5B78FFDE12
:10579000DC8B040059430000308C0400002070476B
:1057A0002DE9F04F87B04B6802900D460192002B17
:1057B00000F08180019B402B77D808F08DFBEE68CC
:1057C000019B9E4228BF1E468146002E00F08C8021
:1057D0004FF000084246C2464FF0010BD5E90113D5
:1057E000B3421C4628BF3446361BA71819B309EB31
:1057F000020022463FF007FFD5E902321B1B141BB3
:10580000C5F804A0C5E902347BB1002C2ED0AB68EA
:1058100073B33A46002EE1D1029BC3F800905F605B
:10582000584607B0BDE8F08FEC68B8F1000F14D10E
:10583000F4B9C346EDE7002BF6D028464A4450F8A9
:10584000101B4B68D3F804802346C047D5E90232C9
:105850001B1B141BC5E9023423B92B68E3B11B6879
:105860001B682B604FF00108002CD0D1A346D0E775
:10587000296800292FD0CDF810A003E0AB68296873
:105880000133AB604B6800225C6804A80123A04789
:105890000028F3D12861BCE71849039340F21D208A
:1058A00001F050FAEC68039BD9E715494FF4B87042
:1058B00001F048FA81E70C68D4B123681B68002B1B
:1058C0007FF478AFAB68002B7FF474AF029A9B46ED
:1058D00013605360A4E76960002F9DD0019BBB4219
:1058E00088BF4FF0000B97E737464FF0010B93E767
:1058F000024940F21D2001F025FADEE7E08C0400A9
:10590000208D040008B50020FDF7A8FE8020BDE82A
:105910000840FDF7A3BE00BF08B50020FDF7AEFEAE
:105920008020BDE80840FDF7A9BE00BF70B5C38860
:1059300093421D4628BF1546934284B00E461DD89B
:10594000002200200392CDE9016500F0CFFB01A900
:105950008020FDF743FF044628B1002000F0E0FB63
:10596000204604B070BD08F08BFB802812D00020C8
:1059700000F0D6FB1024204604B070BD80201446F1
:1059800008F01EF9B4FBF0F303FB1042B2FA82F206
:105990005209D6E7054A064B92E8030083E8030064
:1059A000002000F0BDFB204604B070BDC88C040090
:1059B000A01000202DE9F04F0B78062B87B000F0E7
:1059C000A58017D90D2B00F091803ED80B2B70D0FD
:1059D0000C2B43D1A54C2378012B29D1A449A548F0
:1059E0000A78002322F002020A7023701D46FEF797
:1059F00031F826E0022B23D066D9032B44D0052BA7
:105A00002CD105460DF10D008DF80C3008F0D6FABA
:105A10009DF80D20984C002102F01F032160032BFC
:105A200000F28481DFE813F0FD003001CC00BB0000
:105A3000924940F21C4001F085F92378002BCDD12A
:105A40000025284607B0BDE8F08F0E2B0BD0852B24
:105A500004D1864B1A78032A00F074810625284663
:105A600007B0BDE8F08F814C2378012B40F26081B4
:105A70007F4A80481378012123F0020313702170BC
:105A80000025FDF7E7FFDCE77D4801F0BBF930B109
:105A90007C4B01221A60BFF36F8FBFF34F8F734BA4
:105AA0001D78002DCCD1754940F2024001F04AF931
:105AB000C7E76E4B1B78002BC2D0704940F21640EE
:105AC00001F040F90025BCE7012BC7D1674B1A78DC
:105AD000032AC3D0664967480A78032422F00202E9
