:1000000000000420B5020000DD020000DF02000055
:10001000E1020000E3020000E50200000000000031
:10002000000000000000000000000000E7020000E7
:10003000E902000000000000EB020000ED020000F9
:10004000CD900000C1F20300DD900000EF0200003F
:10005000EF020000EF020000918D0000EF020000AF
:10006000EF020000EF020000EF020000EF020000CC
:10007000EF0200005D920000EF020000EF020000BE
:10008000EF020000A1200000EF020000EF020000DC
:100090003D210000EF020000EF020000EF0200002F
:1000A000EF020000EF020000F5950000EF020000F3
:1000B000EF020000EF02000000000000000000005E
:1000C000EF020000EF020000EF020000EF0200006C
:1000D000FD190400EF020000EF02000049B6000025
:1000E000EF020000EF020000991F04000000000072
:1000F00000000000EF02000000000000EF0200001E
:1001000000000000000000000000000000000000EF
:1001100000000000000000000000000000000000DF
:1001200000000000000000000000000000000000CF
:1001300000000000000000000000000000000000BF
:1001400000000000000000000000000000000000AF
:10015000000000000000000000000000000000009F
:10016000000000000000000000000000000000008F
:10017000000000000000000000000000000000007F
:10018000000000000000000000000000000000006F
:10019000000000000000000000000000000000005F
:1001A000000000000000000000000000000000004F
:1001B000000000000000000000000000000000003F
:1001C000000000000000000000000000000000002F
:1001D000000000000000000000000000000000001F
:1001E000000000000000000000000000000000000F
:1001F00000000000000000000000000000000000FF
:1002000010B5054C237833B9044B13B10448AFF350
:1002100000800123237010BD98060020000000001C
:1002200098B3040008B5034B1BB103490348AFF36F
:10023000008008BD000000009C06002098B3040068
:10024000154B002B08BF134B9D46A3F5803A0021A8
:100250008B460F461348144A121A41F06EFF0F4B9B
:10026000002B00D098470E4B002B00D09847002061
:10027000002104000D000D48002802D00C48AFF307
:10028000008041F0DFFE200029000BF00BFD41F063
:10029000B3FE00BF000008000000042000000000C2
:1002A0000000000098060020748900200000000073
:1002B000000000000649074A074B9B1A03DD043B78
:1002C000C858D050FBDC01F073F9FFF7B9FF00000C
:1002D00040B604000000002098060020FEE7FEE77C
:1002E000FEE7FEE7FEE7FEE7FEE7FEE7FEE7FEE7E6
:1002F0007047000007B5044B0093044A802300F0C8
:1003000032F803B05DF804FB11030000B5060020CD
:100310002DE9F84389461446B2B10F4B0F4E032521
:10032000002743F00108224609EB070100200BF0EB
:1003300001FE0744241A48B933782BB14FF47A40B0
:10034000C047013D02D13570BDE8F8830123337009
:10035000002CE8D1F8E700BF80450400B406002077
:1003600070470BF01BBEF0B595B008460D4616461B
:100370001C4607F032FD1A9A0D920023082205A9A7
:1003800028460A938DF82C300C93CDE9086407F0C9
:100390004DFD079B0293BDF81830ADF80C30BDF849
:1003A0001A30ADF80E3001238DF811309DF814305D
:1003B00003F00302012A1DD1BDF81440059EC3F3CA
:1003C000C203C4F383148DF81030A20008230EA9D1
:1003D000284607F02BFDC6F3952608AB009322466E
:1003E00002AB0EA9304600F087FF284607F0F9FC63
:1003F00015B0F0BD022AF8D1BDF81640C3F3C20310
:10040000A4098DF810300827082C264628BF082696
:100410003B4632460EA9284607F008FDA41B08AB50
:1004200002AA31460EA8374400F0CAFF002CEBD1D7
:10043000DBE7000008B5FFF794FF0421064800F051
:10044000A3FE002803DA05491B2004F097F9044BAA
:1004500001225A7108BD00BF08B60400944504008B
:100460000000002000230428CB604B6098BF044BA1
:10047000044A98BF53F820308A600B60704700BF71
:1004800008480400E4470400CB6800225A71704712
:10049000C368DB6800225A717047CB6801225A7129
:1004A0007047C368DB6801225A717047104A8A603E
:1004B000F0B5104A104C0023121BCB604B600B6050
:1004C00022F00F021D46264693420DD006EB030C88
:1004D000E718DCF80CC09CF804C0BCF1FF0F05D095
:1004E000854202D1BB680B60F0BD01351033EBE7EC
:1004F0001C48040038B6040008B604002DE9F74F84
:10050000174E184D0093AD1B52F8043C07468A461F
:10051000904625F00F050024B146A54207D1124AA6
:100520000221384603B0BDE8F04F04F0B7BF09EB35
:10053000040118468968019342F036FB06EB040B70
:10054000019B10340028E8D1DDED007A17EE90CA47
:10055000434652465946384603B0BDE8F04F60471F
:1005600008B6040038B6040054490400014BFFF7F4
:10057000C5BF00BF890B0000014BFFF7BFBF00BF25
:1005800089040000014BFFF7B9BF00BF9B040000C6
:10059000014BFFF7B3BF00BFC1090000037813F0A0
:1005A000040216D003F00303012B03D0022B09D061
:1005B000012070470A6800880232C0F383100244A9
:1005C0000A60F5E70B684288023303EB92130B6075
:1005D000EEE71046704700002DE9F04F484C87B019
:1005E0000D460646871C0020009203F04BFF23684F
:1005F0002B60D4E901231344226801339B1A04F2CF
:100600001C4804F5836B04F21449BB4219D3009AC9
:100610000023002A6CD0012262F3010343F004039B
:1006200066F389132168A2680A4003320F44002050
:1006300044F82230276003F035FF012007B0BDE801
:10064000F08F0121404604F0DCF8584604F0F2F83F
:100650000DF1180A484604F0EDF860684AF8100DEC
:10066000A5682840033004EB80005146FFF796FF51
:1006700002460298002AF4D105EA000304EB830342
:10068000811CDB6803930130054004EB850503F012
:100690000303012B0291ED6823D0022B08D01949E6
:1006A00001924FF4AC7004F069F8019A154607E026
:1006B000BDF80E309B0903332D0C01EB930302931D
:1006C000484604F0BAF808B1029B636029464046E8
:1006D00004F097F8D4E901231344226801339B1AEC
:1006E00093E7BDF80C30C3F383132D0C0B44E6E7FE
:1006F000022262F3010343F0040366F39F5391E780
:10070000D0080020F1450400012907B5034604D0B4
:100710008168D1F85413890707D50022114618467D
:1007200003B05DF804EB06F0B9B853680193054BCC
:1007300000931368044A022104F0B0FE03B05DF890
:1007400004FB00BF40460400364604002DE9F34791
:100750008368D3F85443C4F34004074634B10022FD
:10076000114602B0BDE8F04706F098B8144D154E9A
:10077000DFF85880DFF85890DFF858A0761B26F095
:100780000F06B44202D102B0BDE8F0872B19DA6837
:100790009B681179FF2906D10B4A0821384604F0DD
:1007A0007DFE1034EDE75279002A0CBF42464A46DE
:1007B000CDE9002138465246082104F06FFEF0E7EB
:1007C00008B6040038B60400664604005D4604001E
:1007D000554604008546040030B50A4B0A4A0B49C9
:1007E000D21AD20800239A4201D1052006E031F83E
:1007F00023500468A54202D10360002030BD0133BC
:10080000F1E700BF24B404003CB504001805002043
:100810008368D3F854339B0703D50022114606F0B2
:100820003DB8024A022104F039BE00BFA6460400CA
:100830008368D3F854339B0703D50022114606F092
:100840002DB8024A022104F029BE00BFA6460400CA
:100850002DE9F84F224B2348FF229A600022C3F86B
:100860001824C3E90022C3F8142483F8202407F0D5
:100870006DFA804688B91C481C4E1D4DDFF874A0E7
:1008800007F098FDAD1BED084446AC4208D10023AB
:10089000184919481A469C421BD14046BDE8F88FBA
:1008A0004FF000094F4606EBC40BBC420AD014229D
:1008B00056F83710DBF8000042F090F90028C8BF66
:1008C00009F101090137BD42EFD12AF82490013422
:1008D000DBE701EB830540F823206A800133DAE788
:1008E000D0080020B4B50400D847040024B40400A4
:1008F0003CB5040018050020A405002007B50190B0
:1009000031B9019A064B53F8320003B05DF804FB8D
:1009100001A8FFF761FF0028F3D00020F5E700BF32
:1009200024B40400002310B5CB604B60034B8B60F4
:100930000C460121FFF7E2FF206010BDE4470400F0
:10094000094B013903EBC000032909D8DFE801F0A6
:100950000A02040604207047007970474079704706
:10096000002070470220704724B4040030B5124CB8
:1009700000EB400054F821508240072303FA00F0B6
:100980006A4002400D4B6A40C2F3821044F82120B5
:1009900003EB8101C2F3C203834238BF0346C2F3B3
:1009A0004220834202F0070238BF03469A4238BF12
:1009B0001A464A8030BD00BFA4050020180500205B
:1009C0002DE9F74F06461D469046002A50D0CB68C9
:1009D00028684B4993F80490072242F0FFF8D0B9F9
:1009E000B8F1010F07D1474A0221304603B0BDE8F4
:1009F000F04F04F053BD444F04460A2257F8241028
:100A0000686842F0EBF8002873D00134052CF4D16B
:100A10006B683E4A13E008223D49286842F0DEF840
:100A200058B9B8F1010F04462BD00127394A3A4B87
:100A30009B1A4FEAD30A934645E02B68374A0221B6
:100A4000304603B0BDE8F04F04F028BD08EBC50305
:100A50009B79A3420FD200212846FFF74FFF524651
:100A600003460221304604F019FD0135BD42EDD1A7
:100A700003B0BDE8F08F224629464846FFF776FFCF
:100A8000F3E7244B244FDFF89CA0FF1AFF08002552
:100A90009846EBE7184600210193FFF72FFF0099D6
:100AA000202242F09BF8019B014608B1013310E07F
:100AB0000BEBC3029279A24215D32246194648464F
:100AC000FFF754FF01374745D2D255F8273000933E
:100AD00000239A45DED155F82730114A02213046CD
:100AE00004F0DCFCEEE71846FFF708FF0D4A03466A
:100AF000F4E7B8F1020FE4B2C3D0022796E700BFD3
:100B0000B7460400BE460400F44704002147040031
:100B1000FB7C040024B404003CB50400D54604006A
:100B20000D470400EA46040013460A46C168FFF771
:100B300047BF000013B504460191A3B162B9019A01
:100B40000F4B04EB4404072053F82230A040184018
:100B5000E040C0B202B010BD01A8FFF73DFE002882
:100B6000EDD00020F6E72AB9019A064B03EBC20349
:100B70009879EFE701A8FFF72FFE0028F1D1F3E7FE
:100B8000A405002024B404002DE9F04F274B284A87
:100B90009B1A4FEAD309CB685B7985B005460E46B0
:100BA0001BB9244A022104F079FC234B234A244F29
:100BB0000821284604F072FC224A0821284604F045
:100BC0006DFC00244C4502D105B0BDE8F08FF36800
:100BD00093F8048001231A4621464046FFF7AAFFF6
:100BE00001222146834600234046FFF7A3FF032846
:100BF000034628BF03235FFA83FA8046012120467B
:100C0000FFF77CFE57F82A3001930F4A0F4B57F835
:100C10002B100091D04598BF134602930C4A03460F
:100C20000821284604F03AFC0134CBE73CB5040027
:100C300024B4040040470400534704005F47040005
:100C4000F44704007D470400D65D04003E470400DD
:100C5000BA47040013460A46C168FFF795BF000073
:100C600037B51C4B93F8203404460BB918B900244F
:100C7000204603B030BD41F0A9FF02AA013042F87E
:100C8000080D012301A9144807F0A2FB054600281E
:100C9000EDD1009A0198214641F02BFADDE90023BD
:100CA00013440D4803F8015C009907F0D5FB20B10F
:100CB0000A494FF4F27003F061FD0099064807F00D
:100CC000C5FC20B105494FF4F47003F057FD019CB9
:100CD000CEE700BFD0080020D8470400F14504004B
:100CE000034BD3E90030C31A58425841704700BF44
:100CF000D00800202DE9F04F85B0FFF7F1FF064640
:100D0000002840F018818D4DC5F81804BFF34F8FAF
:100D10006868AC6804AF47F8100D2040033005EB5D
:100D200080003946FFF73AFC009B18B1D5F818242B
:100D3000002A66D004EA0302991C013305EB820203
:100D4000234005EB8303D268DB68029302F00303C0
:100D5000022B0192009169D1BDF8063078489DF8C8
:100D600004604FEA931ABAF1A00FD14628BF4FF0A2
:100D7000A00969F38F1309F10801ADF8063006F0F8
:100D8000FDFFC6F3C2068046002800F0BB8007F0D6
:100D900024F801A900230822404607F031F8009901
:100DA00024EA01070137BF00B94538D95FFA89F94C
:100DB00097B3FFB2A9EB0709214003315FFA89FB22
:100DC000B946604F05EB810108234A46404607F0CB
:100DD00017F837B109F108035A463946404607F07B
:100DE0000FF8009B0AF1030A03EB9A030093D5F86E
:100DF0001834002B50D1D5F81044DFF85C91072748
:100E00006FE02A689A4204D86A60304605B0BDE8AF
:100E1000F08F04EA030081E74A49BB46D4E721404A
:100E2000033108234A4605EB8101D7E7012B69D13D
:100E3000BDF804604248C6F38311062928BF062185
:100E400061F3891602318900ADF8046006F096FF5F
:100E5000C6F3C2068046002854D006F0BEFF002329
:100E6000082201A9404606F0CBFF0027BDF8042068
:100E7000C2F38312BB1C97424FEA8303B7D2009997
:100E80004A1C21400331009205EB810104224046B7
:100E900006F0B6FF0137E9E7404606F0A2FFFFF78C
:100EA0001FFF80F00100C6B2AFE7E3685A79B2B124
:100EB0001B79BDF8081003EB430259F8211007FA1B
:100EC00002F3052E03EA010323FA02F308BF032607
:100ED000B34204D3236841461B6820469847E36821
:100EE0001C68002CE1D1404606F07BFF204603F051
:100EF000C9FAD5F818340BB9009B6B60002003F0D9
:100F0000D1FACCE7D5F8104474B90F4B5B88012BAC
:100F1000C5D90E4B0E480F49C01AC008000440F056
:100F2000020000F087F8BAE7236820469B689847DC
:100F3000E3681C68E8E7002667E700BFD0080020E8
:100F4000B4B50400DC0800203805002024B40400F7
:100F500064B404007C490400A40500202DE9F74F87
:100F60002F4C80460F46914601A9012218469B4608
:100F7000D4F808A0FFF730FB00283DD0019D0026E3
:100F8000A91C5E4506EB010240D10021254803F073
:100F900002FC80F3100B244B244A4FEA18499B1A99
:100FA000B9EBD30F04D3224940F27D1003F0E6FBE6
:100FB0006B1C03EA0A0304EB830349EA0B42DA6081
:100FC00005EA0A030333012114F8232068F3C5025C
:100FD00004F8232034F8232066F3891224F8232010
:100FE00054F8232067F39F2244F8232061F3010281
:100FF0006FF3820204F8232094F820341BB1FFF72A
:1010000079FE0028FBD103B0BDE8F08F0AEA0202A6
:1010100004EB820259F82630D3600136B1E700BFF5
:10102000D0080020EC0C00203CB5040024B40400DF
:10103000F145040000231A46FFF790BF13B502AC38
:10104000012344F8042D2246FFF788FF02B010BDAB
:1010500007B5CDE9002302236A46FFF77FFF03B0FF
:101060005DF804FB1FB5CDE90123069B039301AA9C
:101070000323FFF773FF05B05DF804FB1FB5CDE94F
:101080000023069B0293079B03936A460423FFF702
:1010900065FF05B05DF804FB7FB5CDE90123089B32
:1010A0000393099B04930A9B059301AA0523FFF769
:1010B00055FF07B05DF804FB2DE9F3478046304C3F
:1010C000D01C8A46174601A900228008A568FFF7B0
:1010D00083FA002840D0DDF80490A66809F10200E8
:1010E000019001362840361AB6000330B74204EBAF
:1010F00080003BD83A46514640F0FBFF0021214892
:1011000003F049FB80F3100009F101032B4004EBCD
:1011100083034FEA184242EA0040D86005EA090317
:10112000033304EB830214F8231068F3C50104F8B9
:10113000231034F823106FF38F1124F823105188F3
:1011400067F38F11518014F82320022161F301020B
:101150006FF3820204F8232094F820341BB1FFF7C8
:10116000C9FD0028FBD102B0BDE8F08732465146E8
:1011700040F0BFFFBA1B0AEB060104F10C00BBE70D
:10118000D0080020EC0C00202DE9F8431F4B8846C6
:10119000D3F81014054600240A469AB9E9680C7180
:1011A000D3F81014A1B9C3F81054EB681A60184FA3
:1011B000184EF61BF6084FF00009B14511D1204634
:1011C000BDE8F883D2681079A04218D01268E4E72D
:1011D000C968EA6809681160D3F81034DB681D60DB
:1011E000E5E707EBC9034946DA79EB68424528BFD2
:1011F00042461879FFF7BAFB09F10109DDE701342E
:101200000A2CC9D14FF0FF34D9E700BFD008002025
:1012100024B404003CB5040038B5094A0123D2F8CF
:10122000104482F820341D4604B938BDE3685D716E
:10123000236820465B689847E3681C68F4E700BFB2
:10124000D008002010B5037A052B0C460FD0437A46
:1012500023B1084A0849204606F02CF907492046E0
:1012600006F028F92046BDE8104006F011B9002A22
:10127000F8D0F3E7034C0400C05D04006459040097
:1012800073B5C38804460D4633B1144A009214491D
:10129000144A284606F00EF9217A05291CD0637AF3
:1012A0004BB1A088FFF74CFB0F4B104953F820209F
:1012B000284606F0FFF8227A0D4BA08853F82260EA
:1012C0000021FFF71BFB0B4903463246284602B0BC
:1012D000BDE8704006F0EEB802B070BD034C0400EB
:1012E000104C0400084C0400D44B0400C05D040002
:1012F000344C0400284C04002DE9F04385B01F460F
:101300000C9D002306460C46904695F80C902B73D6
:1013100029463846FFF7B4FFB8F1060F09D8DFE8D1
:1013200008F00412181F283340003146284606F002
:10133000C1F8002229463846FFF784FF85F80C9053
:1013400005B0BDE8F08322683146284606F0B2F8C1
:10135000EFE7D4E900233146284606F0ABF8E8E78A
:10136000A36800933146D4E90023284606F0A2F88A
:10137000DFE7E3680193A36800933146D4E90023D3
:10138000284606F097F8D4E723690293E3680193AF
:10139000A36800933146D4E90023284606F08AF872
:1013A000C7E76369039323690293E3680193A36822
:1013B00000933146D4E90023284606F07BF8B8E7CD
:1013C00008292DE9F84F80460E4617461C4635D8A9
:1013D000002593F80C901D7319461046FFF750FF37
:1013E000DFF88CA0DFF88CB0AE4229D918F80520C0
:1013F0005946204606F05EF80135082DF4D11A4909
:10140000DFF874B0204606F055F84FF0000A564554
:1014100024D918F80A507E2D17D92E225946204675
:1014200006F048F80AF1010ABAF1080FEFD10122DB
:1014300021463846FFF706FF84F80C90BDE8F88F88
:101440005146204606F036F8D6E740F023FE284401
:10145000427812F0970FE0D02A46DFE70349204692
:1014600006F028F8DEE700BFFE4B0400EF8D040015
:10147000ED8D0400F84B0400004C040010B5036827
:101480002F2B044604D907494FF4E07003F076F996
:1014900023681F2B83BF03F01F03236002484FF014
:1014A000A04010BDB84C040000030050032813B541
:1014B000044603D908491B2003F060F9074B02A832
:1014C0001B5D40F8043DFFF7D9FF019A01239340CB
:1014D000C0F80C3502B010BD804C0400B44C0400C0
:1014E000032813B5044603D90849212003F046F91F
:1014F000074B02A81B5D40F8043DFFF7BFFF019AB0
:1015000001239340C0F8083502B010BD804C0400A0
:10151000B44C040008B50020FFF7E2FF0120FFF7FC
:10152000DFFF0220FFF7DCFF0320BDE80840FFF7E4
:10153000D7BF0000F7B5C207054611D5124F0024EA
:101540000326E35D00936846FFF798FF009B013494
:1015500003F5E073042C40F82360F2D1FFF7DAFFC3
:10156000AB070FD5094E00240C25A35D019301A8FC
:10157000FFF784FF019B013403F5E073042C40F86E
:101580002350F2D103B0F0BDB44C0400B04C0400C1
:10159000054B1B68082B01BF044B1868B0FA80F09C
:1015A000400918BF002070473001001034010010BE
:1015B00008B54FF080430022C3F80C21C3F8102176
:1015C000C3F838254FF0805203F54043D2F8041495
:1015D000C3F82015D2F80814C3F82415D2F80C1457
:1015E000C3F82815D2F81014C3F82C15D2F8141427
:1015F000C3F83015D2F81814C3F83415D2F81C14F7
:10160000C3F84015D2F82014C3F84415D2F82414B6
:10161000C3F84815D2F82814C3F84C15D2F82C1486
:10162000C3F85015D2F83014C3F85415D2F8341456
:10163000C3F86015D2F83814C3F86415D2F83C1416
:10164000C3F86815D2F84014C3F86C15D2F84424D6
:10165000C3F87025FFF79CFF10B1384B384A1A6069
:10166000FFF796FF18B1374BFB22C3F81825FFF799
:101670008FFF48B13449354B0A681B6822F00F02CE
:1016800003F00F0313430B60FFF782FF18B1304BD9
:101690004FF400721A604FF08043D3F80024D20751
:1016A00044BF6FF00102C3F800242A4AD2F8883000
:1016B00043F47003C2F88830BFF34F8FBFF36F8FCE
:1016C0004FF01023D3F80022002A03DBD3F80432B2
:1016D000002B2FDA204B0122C3F80425D3F8002475
:1016E000002AFBD04FF010221221C2F80012D3F8CA
:1016F0000024002AFBD04FF010231222C3F804224A
:10170000154B1A46D3F800140029FBD00021C3F86A
:101710000415D2F80034002BFBD0BFF34F8F0D49D6
:101720000E4BCA6802F4E0621343CB60BFF34F8FE5
:1017300000BFFDE70A4B0B4A1A6008BD8C560040FB
:101740004881030000F00040E40E00405802001001
:101750004096024000ED00E000E001400400FA0580
:10176000080000200090D0030D4930B5A1F50E729D
:101770000225914201D800200EE08B1ADB1093FB6A
:10178000F5F302EBC30452F83330834205DC02DA8E
:1017900004F10802EDE7606830BD2146E9E700BFCB
:1017A0007854040008B5FFF7DFFF024B002808BF9C
:1017B000184608BDE04C040013B502AC002304F841
:1017C000053D01939DF80330032B08D904210DEB4F
:1017D000010007F097F830B9019802B010BD20461B
:1017E00007F07AF8EEE70020F7E7000008B500F010
:1017F000D1FA00F0A5F8002007F04EF818B1094919
:10180000F82002F0BBFFFFF7D7FF41F0C5F807F063
:1018100019F930B903494FF48B70BDE8084002F064
:10182000ADBF08BD7854040008B500F0DFF8FCE750
:1018300062B6704772B67047FFF7BEBF08B51CF0BE
:1018400039FF4FF47053584308BD0000034A431A50
:10185000934288BF0B1A1846704700BFFEFFFF7FF8
:1018600010B50446FFF7EAFF0444FFF7E7FFA04284
:1018700004D9FFF7E3FFA042FBD810BDFFF7DEFF5E
:10188000A042FBD3F9E7000070B50E4614460546AA
:1018900028B940F21F1143F65E3018F027FB76B9E5
:1018A0004FF4907143F65E3018F020FBCCB940F253
:1018B000211143F65E30BDE8704018F017BB002CD4
:1018C000F5D075B1284607F001F93146204607F0FA
:1018D000D3F830B9034940F22910BDE8704002F056
:1018E0004DBF70BD78540400EFF30580003018BF81
:1018F0000120704700000000F7B54FF0805300252D
:101900001C6E596E04F0FF0745EA010206A5D5E9F1
:10191000004502A9224347EA050361E902230822A0
:1019200040F0E7FB03B0F0BD000000000036CEF44D
:10193000004870478C0D0020704706F08DBA0000FB
:1019400008B518F097FD48B9054B1B7813B9054B3E
:101950001B781BB1BDE8084018F092BD08BD00BF60
:10196000E5010020E80100202DE9F84307460E4676
:1019700018F080FD58B1184C184BDFF86890DFF86C
:101980006880E41AE408240444F003040EB9BDE8B6
:10199000F883D9F80000C0F10805B542A8BF354664
:1019A0002A463946404440F0A4FBD9F800202A4496
:1019B000082AC9F800202F44A6EB0506E6D1084BFB
:1019C0005B88022B03D941462046FFF775FB0023B5
:1019D000C9F80030DAE700BF14B5040024B40400ED
:1019E00090050020D80D0020D00D002010B50C4C23
:1019F000226882B10B4B5B88022B0AD90A480B4B39
:101A00000B49C01AC008000492B240F00300FFF76F
:101A100053FB00232360BDE81040FFF76BB900BF04
:101A2000D80D00209005002014B5040024B4040053
:101A3000D00D00204FF0102358694FF08053411C07
:101A40001A695B6908BF03FB02F0704710B5436871
:101A5000044623B161214CF6C90018F047FA2378F7
:101A6000022B03D8BDE8104018F018BD6B214CF6CE
:101A7000C900BDE8104018F039BA000010B5FFF7F2
:101A8000D9FF0B4C2061FFF7D5FF0A4B0A49A0F59F
:101A90004040E06000222046C3F8082105F006FF20
:101AA00028B10649A820BDE8104002F067BE10BD6D
:101AB0006C060020DC0D0020AC630400C054040060
:101AC0004FF4804070470220704708B513460A461D
:101AD00031B143B10146184640F00BFB002008BD70
:101AE0006FF00A00FBE76FF00B00F8E70128F8B58C
:101AF00007460C4616461D4612D80B44B3F5804FD8
:101B000011D29AB1ADB1FFF795FFA4F5404101EBB9
:101B1000873101442A46304640F0EBFA0020F8BDF8
:101B20006FF03800FBE76FF01600F8E76FF00B007E
:101B3000F5E76FF00C00F2E70128F7B507460C4611
:101B400016461D4636D80B44B3F5804F35D2002AD1
:101B500036D0AB0837D0FFF76DFFA4F5404404EB57
:101B60008734AB07044405D040F23D114CF6C90060
:101B700018F0BCF918F09AFC07460028FAD118F0C2
:101B800085FC214600972B463246104805F0CAFED8
:101B9000044628B14FF4A6714CF6C90018F0A6F916
:101BA00018F084FC0028FBD1201C18BF0120404203
:101BB00003B0F0BD6FF03800FAE76FF01600F7E7FA
:101BC0006FF00B00F4E76FF00C00F1E76C060020FB
:101BD00001282DE9F04106462FD8FFF72BFF00EB37
:101BE0008630A0F54044DFF8588004F5804718F0AF
:101BF0005DFC05460028FAD118F048FC2B4601226E
:101C00002146404605F04EFF48B14CF6C90040F26F
:101C10008D1118F06BF94FF0FF30BDE8F08118F02E
:101C200045FC05460028FAD104F58054A742DED1D0
:101C3000304618F043FC2846EFE76FF03800ECE739
:101C40006C06002010B5084CD4F8083153B19BB293
:101C50002246D4F8041194F80001FFF76DFF002329
:101C6000C4F8083110BD00BFDC0D00202DE9F84399
:101C70001C4C1E46D4F8083181460F4690466BB185
:101C800094F80021824207D1D4F804211A449142E9
:101C900002D1B3F5807F01D1FFF7D4FFD4F808015A
:101CA00018B984F80091C4F80471C0F58075B54284
:101CB00034BFADB235464DB12A464146204440F0CE
:101CC00018FAD4F808312B44C4F80831761BB6B2A0
:101CD00016B93046BDE8F883FFF7B4FF2F44A84497
:101CE000DCE700BFDC0D002007B50C4B1868009046
:101CF000FFF7A0FE0422A0F580410DEB020040F0AA
:101D0000F8F9042269460DEB020040F0E3F9B0FA5D
:101D100080F0400903B05DF804FB00BFBC54040030
:101D200070B506460D461446FFF784FEA4F57F54B1
:101D30003C3C324629462044BDE87040FFF7C5BE12
:101D4000004870470055040004220321027081708E
:101D5000002206214270C17042607047B0F5A27F38
:101D600001D118F0ADBB704708B5FFF7E9FF07F0E8
:101D70008DFBFFF7E5FF07F0A3FB024B00221A7073
:101D800008BD00BFE80E0020014B1878704700BF67
:101D9000E80E00202DE9104887B004A8FFF7D4FF13
:101DA000FFF7CEFF1C4A04A907F0A4FA18B11B499B
:101DB000672002F0E3FCFFF7C3FF0368D3F81015B8
:101DC0004FF47030C9B24FF0000C20FA01FBBCF1A7
:101DD000010F08BFBBF1000F08D3114940F28B205F
:101DE000CDE902BC02F0CAFCDDE902BCCDE902BCCF
:101DF000FFF7A6FFDDE902BC012402235A46214673
:101E0000009407F0E0FBFFF79BFF07F023FB054B77
:101E10001C7007B0BDE810885D1D00000855040067
:101E200045550400E80E002008B5084B1B780BB997
:101E3000FFF7B0FFFFF784FF07F06AFB28B9FFF751
:101E40007FFFBDE8084007F005BB08BDE80E002095
:101E50002DE9F14F1C4600F10803C91AC9B2054625
:101E600093469DF828609DF82C70BDF83080BDF831
:101E70003490DDF838A017F0BDFE022C05D0032CFD
:101E800013D0D4B94FF6FF7101E0BBF800100A97E8
:101E90000023CDE90DA3224633462846CDE90B8920
:101EA00001B0BDE8F04F1DF043BB584617F052FBA0
:101EB0004FF6FF739842014605D1284601B0BDE8B0
:101EC000F04F17F0A9BD0224E1E70000024B00200B
:101ED000C3F80005704700BF00A0025038B50A4B98
:101EE00000251D60BFF35F8F084C0123C4F8003547
:101EF00040F038F8C4F8005520B1052848F20350E6
:101F000018BF032038BD00BFE866002000A00250C3
:101F100000B583B002900091019244F20100714635
:101F20006A4610F097F803B000BD000012F00303FA
:101F300010B511D1094C22604C1CE400A4B222441B
:101F4000074C2260074A1370074A1370074A108033
:101F5000074A1846118010BD0720FCE7F00E00204C
:101F6000EC0E0020E90E0020F80E0020F40E0020F8
:101F7000F60E0020F8B5124C124D264622782B782A
:101F80009A4200D1F8BD23780F48104A078812689A
:101F90000F48DBB219B202EBC10C006852F83120D5
:101FA000BCF8041003FB070090470A4A2378128804
:101FB000DBB29A4286BF0133DBB200233370DDE728
:101FC000F80E0020E90E0020F40E0020F00E002094
:101FD000EC0E0020F60E0020094A53789178013368
:101FE000DBB2994208BF0023117899421FBF0370EA
:101FF0005078182303FB002014BF043000207047E2
:10200000FC0E002037B5044600200D4602F03AFAD7
:102010000DF10700FFF7E0FF90B10570094B9DF847
:10202000072044605A700024002002F03BFA24B9D3
:10203000054B4FF48012C3F80021204603B030BD99
:102040000424F1E7FC0E002000E100E0024B4FF415
:102050003C6043F0010318477055040038B50C4B41
:102060000C4C4FF40032C3F8802001254FF480332C
:10207000C4F84833C4F808336560FFF7E7FF064B40
:10208000A56000241C60FFF7E1FF044B1C7038BD05
:1020900000E100E0001001401810002009100020AD
:1020A000F8B51F491F4B0025C1F84051C1F84451F4
:1020B000C1F84851C1F84C51C1F80051C1F8045160
:1020C0001B684BB3D1F8044517490968641A24F01A
:1020D0007F442F461A68A24209D8A41A15441A7CD4
:1020E000DE691AB11F74D3E905209047AEB90F4BD2
:1020F0000F4A197813788B4205D10133DBB2022BDA
:1021000008BF0023137012780A4B43F822500A4B81
:102110004FF48012C3F80021F8BD3346DAE700BF60
:10212000001001401C100020181000201410002086
:10213000151000200C10002000E100E02DE9F74F01
:102140009E4A9F49137809789E4D99423CD00133AD
:10215000DBB2022B08BF002313709B4912789B4B04
:102160000F6853F822003B1823F07F4300220B60D6
:102170002B6816461446944613B942B12B6006E00C
:10218000196881420ED902B12B60091A19604FF00B
:1021900001082B68DFF83CA200930027BEB9DFF8E6
:1021A0003CB260E0401A0C44D968C3F800C0D3F8D0
:1021B0001CE031B13A1922F07F42C3E90121DE610E
:1021C0001E4601227346D7E70026B046E1E73446B3
:1021D000F6697D4A63681268DFF804C2A068991A3C
:1021E00021F07F41614500F2A58001442160012278
:1021F00022742A680023C4E90133E361002A40F015
:10220000A2802C60CAE75A1C9BF80210D2B29142FD
:102210008BF8002004BF00228BF80020182202FB5C
:1022200003B32A6819799C68022974D003297ED0E7
:10223000012918D1217CB1B9DA6862601A69A260FB
:102240005A69E2609B69A361614B1B78002BC0D087
:102250006160BEE79C4200F093809946DB69002BE9
:10226000F8D1002323749BF800309BF801209A4298
:10227000C9D12B682FB9009A934202D1B8F1000F4F
:1022800043D0002B79D0D3F800A0524D4E4BD5F857
:1022900004751C68DFF84C813E1B98F8003026F06E
:1022A0007F4603369BB94FF48033C5F84433C5F8F5
:1022B0000433494B4FF400324FF00109C3F8802139
:1022C0001A60C5F80090FFF7C1FE88F80090B2458B
:1022D0002CBF5444A41924F07F44C5F84045D5F8D8
:1022E0000435DB1B23F07F43E41B033324F07F44DE
:1022F000A3420AD9D5F80435C5F84035FFF7A6FE44
:10230000354B4FF40032C3F80021314B00221A70D4
:1023100003B0BDE8F08F13469146A0E71174D2696F
:102320000123002AFAD1002B9DD02A609BE70023CD
:102330001946F6E7D31A23F07F43834234BFC31A0A
:102340000023236053E721681368994213D8591A70
:102350001160E26155E7091AD8691A4638B1034697
:1023600018688842F7D3401A18601846134621604F
:10237000E061DC6112E71346F2E7FFF76FFEC4E7A6
:102380004C450DD1D3692B6053B90F4801920121FF
:10239000CAF8081003600E4B1970FFF757FE019A38
:1023A000E1692368C9F81C1011B1086803440B6087
:1023B0002B689A4218BF012753E700BF1410002072
:1023C000151000201C100020181000200C100020F8
:1023D000081000200010014000E100E0FC0E002089
:1023E000FEFF7F000910002008B5FFF737FE104BF5
:1023F00000200B2218809A700E4B18600E4B18703C
:102400000E4B18700E4B4FF48012C021C3F8802180
:1024100083F814131A6002F18042A2F56F22C2F809
:10242000080583F81113074BD2F804251A6008BD7C
:10243000FC0E00201C10002014100020151000209D
:1024400000E100E018100020074B9B784BB132B13F
:1024500028B10368187C20B959745A617047072065
:1024600070470820704700BFFC0E00202DE9F341A3
:102470001C4EB37804460D4617468BB380B304292F
:102480002CD9436963B3437C0020012B0CBF8846E1
:102490004FF0000801F0F6FF0DF10700FFF79CFD7B
:1024A000D0B101230370104B4460D3F80435C0E968
:1024B0000487C0E902359DF80730737000240020BE
:1024C00001F0F0FF24B9094B4FF48012C3F800214A
:1024D000204602B0BDE8F0810424F0E70724F7E7C6
:1024E0000824F5E7FC0E00200010014000E100E0A8
:1024F000064A92783AB130B1426922B100220274A0
:102500000221FFF77FBD0820704700BFFC0E0020AE
:10251000024B5B6803B11847704700BF20100020D2
:10252000024B01465A681868104700BF741000201B
:102530000378052B0CD1084AD2F88434D2F88024D1
:1025400012F0FF0F04D1054ADBB2052B08BF10467D
:10255000034B1B68184700BF00700240345604004C
:1025600020100020FFF7E4BF38B50D46044620B91F
:10257000064940F21D1002F001F96378AB4283BFB7
:10258000A07840190019002038BD00BF7D55040017
:1025900038B50D46044618B90649EA2002F0EEF8AF
:1025A000237AAB4283BF093405EB4505601900204F
:1025B00038BD00BF7D55040070B50D46044618B9FE
:1025C0000B49E92002F0DAF863681BB90849EA20F0
:1025D00002F0D4F863681B681BB90549EB2002F0D0
:1025E000CDF86368294620461B68BDE8704018474F
:1025F000EA55040008B520B1044940F2552002F024
:10260000BDF80348BDE80840FFF792BFEA55040053
:102610003856040010B5044620B9044940F21D2084
:1026200002F0ACF82368186810BD00BFB95504006B
:1026300000F00F0310F0800F10B51CB20AD0082B69
:1026400004D909494FF4B97002F098F8074800EB33
:10265000C40010BD082B04D903494FF4BC7002F02C
:102660008DF80348F3E700BFEA5504002C10002062
:102670007410002070B50D460646FFF7D9FF0446DA
:1026800005604DB9730604D105494FF4CE7002F0D0
:1026900075F80023636070BD6B681B68FAE700BFC4
:1026A000EA55040001280AD006D3022809D00649B9
:1026B0004FF40F7002F062B80448FFF739BF0448C6
:1026C000FBE70448F9E700BFEA5504002856040078
:1026D0002C5604003056040038B5831EDBB2062B9E
:1026E00098BF194A194C98BFD25C2378A3F1020312
:1026F000DBB288BF0022062B9ABF1349CB5C0023B4
:102700009342054603D0A2B1114806F02DF8022DE0
:1027100001D0082D10D101232278022A01D0082AE5
:102720000CD101229A4202D053B108F093FA2570DD
:1027300038BD06F055F8EAE70023EDE70022F1E79F
:1027400008F07EFAF3E700BF76550400C5100020BC
:102750000C0000202DE9F04F87B006AC002644F8AD
:10276000106D05468946924698466B6800225F6860
:10277000294601232046B84740B98DF80600049049
:1027800004460746BE4203D805202AE00136ECE79E
:102790006B680DF10602D3F804B02946012304A8A2
:1027A000D8476B680DF10702D3F804B0294601231E
:1027B00004A8D8479DF807304B459DF8063015D141
:1027C000544511D1109A136088F8003088F80190B0
:1027D0006A68023B5468294608F1020204A8A0472F
:1027E000002007B0BDE8F08F0134E4B26A68023B14
:1027F000D2F804B02946002204A8D8479DF8063034
:102800001F44BFE72DE9F341054605F055FF20B908
:102810002E4940F20B3001F0B1FF2D4808F056FA76
:10282000044600283AD12B4B18702B4B18602B4BC9
:102830000146186048222A483FF07FFC4822214682
:1028400028483FF07AFC284B65BB284A1D72C3E933
:1028500000251A680AB9254A1A60002005F0E4FF2D
:1028600030B1852804D0194A40F23931FFF750FBC6
:10287000DFF87C80002421464046FFF789FE651C76
:10288000EDB20746F8B902A90B2301F8043D184838
:10289000FFF792FE044608B108F08EF8204602B019
:1028A000BDE8F08195E8070083E80700D1E74146DD
:1028B0000078FFF7DFFEF1B23846FFF755FE01362C
:1028C0000028F4D1D7E700262C46F4E7EA550400A7
:1028D00065250000C5100020BC100020C01000209D
:1028E0002C1000207410002020100020012D00006A
:1028F000B456040010B508F057F908B9082010BD07
:1029000008F05AF904460028F8D1064805F0A7FF58
:102910000028F4D0044A4FF46771FFF7F9FA204613
:10292000EDE700BF24560400EA55040008F05AB849
:1029300008B508F04BF920B1044940F2AB3001F082
:102940001DFFBDE8084008F08BBF00BFEA5504003A
:1029500008B508F031F920B90A4940F2B23001F067
:102960000DFF4FF08043D3F83824920704D5064872
:10297000BDE80840FFF7DCBDD3F83824D107F2D416
:1029800008BD00BFEA5504003956040007B502A887
:10299000822300F8043DFFF7CBFD03B05DF804FB94
:1029A0002DE9F341044620B93B4940F2445001F07F
:1029B000E5FE636823B9384940F2455001F0DEFE78
:1029C00063681B6823B9344940F2465001F0D6FED3
:1029D00023681B6823B1304940F2475001F0CEFE16
:1029E00008F0EAF830B12C4940F24B5001F0C6FE35
:1029F000002617E008F0D8F80028F9D1F3E70078AE
:102A0000FFF716FE036808F1010823B1112026E044
:102A10004FF000083E465FFA88F12846FFF7A4FD14
:102A20000028ECD131462046FFF7B2FD771CFFB2FB
:102A300005460028ECD129462046FFF7A9FD6E1C6B
:102A4000F6B28046D0B9154D134E2B68CBB902A90A
:102A50000B232C60204601F8043DFFF7ADFD02B0CA
:102A6000BDE8F08121460078FFF704FEF9B2404648
:102A7000FFF77AFD01370028F4D1DCE7002735465F
:102A8000F4E7A34204D1314640F2715001F076FEE2
:102A90002B681D68D9E700BFEA550400BC10002070
:102AA000024B1878003018BF01207047C410002076
:102AB00000F00F03072B10B5044604D808F006FCFD
:102AC000204608F09DFF2046BDE8104008F046BFB4
:102AD00008F00EBF014B1868704700BFBC10002003
:102AE0002DE9F8430E4B1C6880460F46ACB194F8B4
:102AF00008900026F5B24D4504D32046FFF78AFD25
:102B00000446F3E729462046FFF742FD0378434594
:102B100006F10106EED107B13D702046BDE8F8830D
:102B2000BC1000201146FFF747BD00F00F03082B33
:102B300010B50C4608D8FFF77BFD006820B1214690
:102B4000BDE81040FFF738BD102010BD38B5074B69
:102B50001C68054604B938BD29462046FFF72CFD00
:102B60002046FFF757FD0446F4E700BFBC100020E5
:102B700038B5084B1C6805460CB9062038BD2946F7
:102B80002046FFF719FD0628F8D12046FFF742FD41
:102B90000446F1E7BC10002038B504460D4608F0A5
:102BA000DEF848B1054B1B78022B05D1294620469B
:102BB000BDE8384008F0E0B8082038BDC510002056
:102BC00038B504460D4608F0CAF848B1054B1B78E5
:102BD000022B05D129462046BDE8384008F052B9FD
:102BE000082038BDC510002070B543689B680546B5
:102BF0000E4614469BB92B7AB34204D20F4940F2D9
:102C0000D32001F0BBFDB4B931462846FFF7C0FC24
:102C100046780546E1B28E4205D8002002E098478A
:102C20000628E8D070BD2846FFF79EFC0078FFF725
:102C30003FFF0134EEE70720F4E700BFEA55040048
:102C400070B54368DB6804460D4603B19847237AA4
:102C5000AB4204D20B4940F2F22001F08FFD29462D
:102C60002046FFF795FC467805460024E1B28E42E7
:102C700000D870BD2846FFF777FC007808F038FED2
:102C80000134F3E7EA55040043681B6903B11847B0
:102C900018467047F8B50D4B0D4E1C6804B9F8BDC9
:102CA000277A0025E9B2B94204D32046FFF7B2FCE7
:102CB0000446F3E700222046FFF796FF20B1314695
:102CC00040F2447001F05AFD0135EBE7BC100020E2
:102CD000EA55040070B5094B1C6804B970BD267A2A
:102CE0000025E9B2B142204603D3FFF793FC044626
:102CF000F3E7FFF7A5FF0135F3E700BFBC100020A5
:102D000038B58C4B1B68054623B98B4940F2FF3020
:102D100001F034FD01F0D6FB052804D8864940F2C5
:102D2000064001F02BFD2C78092C20D023D8032C51
:102D300000F0C08012D8012C00F0AA8040F29180EF
:102D40000320FFF7C9FC0220FFF7E2FB2846FFF74C
:102D5000FDFE2846BDE83840FFF7E2BB052CF8D061
:102D6000C0F0B780062C00F0C380082C13D1204699
:102D7000FFF7CEFB99E0812C14D005D80F2CF6D0AC
:102D8000802C4AD00A2CF1E7832C52D027D3842CF4
:102D900058D0852CDDD068494FF4A060BDE838409C
:102DA00001F0ECBC6548FFF7BBFB6448FFF7CEFEC3
:102DB0000D20FFF7ADFBFFF78DFF01F000F8604B32
:102DC0001B6853B95F4B187A00F0010007F0B4FE9E
:102DD0000120BDE83840FFF77FBC0120F4E7FFF792
:102DE00079FF08F013FD0020FFF776FC5648FFF747
:102DF000ADFE5548FFF794FB0E20FFF789FB534BC0
:102E00001B78023BDBB2062B3AD8514AD35C002B2D
:102E100036D0BDE8384005F0E3BC4C4B1B78062BA0
:102E200005D0072B01D0052B2AD10220D1E708209D
:102E3000CFE7464B1B78032B22D108F033FDF8B1C6
:102E40000420C6E7414B1B78032B05D108F02AFD6F
:102E500010B10420FFF740FC07F0C6FE80B1062049
:102E6000B7E73A4B1B78032B01D0082B02D1394826
:102E7000FFF746FF0020FFF74BFB314B1C6804B9FE
:102E800038BD20462946FFF797FB23685C68F6E7C4
:102E9000FFF720FF00F08AFF0220FFF71DFC20460D
:102EA000FFF736FB2846FFF73BFB2846BDE83840D6
:102EB000FFF74CBE254B1B78082B06D10220FFF7ED
:102EC0000BFC07F0D1FE0320EAE70520FFF704FC26
:102ED000F9E70320FFF71CFB1F48FFF721FB1E4803
:102EE000FFF734FE194B1B78062B9ED1072070E7A5
:102EF000A878FFF79DFB0368044623B90E4940F20A
:102F0000DC4001F03BFC636823B90B4940F2DD4033
:102F100001F034FC63682068294698470028AFD048
:102F2000A87800F00F03013B062BA9D8BDE8384074
:102F300008F090B9BC100020EA5504003A5604008D
:102F4000C0100020201000203B560400C5100020B7
:102F5000765504003C5604003D5604004360CA699F
:102F60009A4227BF8A69026001F12802026026BFE7
:102F70000B67CB618B6700207047000038B50D46AA
:102F8000044618B90649EA2001F0F8FB237AAB425F
:102F900083BF093405EB45056019002038BD00BF2B
:102FA0007D55040038B50D46044620B9064940F267
:102FB0001D1001F0E3FB6378AB4283BFA07840199A
:102FC0000019002038BD00BF7D55040008B501215F
:102FD000FFF7D4FF0121FFF7E5FF007808BD0000EF
:102FE0002DE9F8431746BE4A99460B7A13700E46F0
:102FF0000546904620B9BB4940F2E92001F0BEFBEE
:103000002B6840F21E32934200F0C78200F2D28059
:10301000B3F5407F00F0378265D8B3F53C7F00F010
:10302000F48125D840F2ED22934200F0D38109D8F3
:10303000002B00F0B981B3F53B7F00F0C081002088
:103040002860BAE140F2EE22934200F0D18140F2D2
:10305000EF229342F3D100240FB12B793B55013479
:1030600002234C452B71C0F0D1814FF43C73A2E197
:1030700040F2F322934200F0E181B3F53D7F15D297
:1030800040F2F122934200F0CC8140F2F2229342CE
:10309000D5D100240FB12B793B55013400234C4589
:1030A0002B71C0F0CC8140F2F32384E140F2FA228C
:1030B000934200F0DB8140F2FB229342BFD1002417
:1030C0000FB12B793B55884B30461978FFF756FFE7
:1030D000864B013418604C4503782B71C0F0D481C5
:1030E0004FF4407367E140F20D32934200F00982E1
:1030F00039D840F20632934200F0E0811DD840F208
:103100000132934200F0CB8140F20232934296D1D9
:1031100000240FB12B793B55744B327D1B681B7813
:103120009A4204F1010440F0E28102234C452B71E4
:10313000C0F0C58140F206333DE140F207329342D0
:1031400000F0C881B3F5427F7FF479AF00240FB15E
:103150002B793B5501340023A1452B7100F2F181FD
:1031600040F2163327E140F21632934200F0E88134
:1031700008D840F20E32934200F0CF8140F20F3275
:103180009342E1E7B3F5477F00F0EF8100F2F98168
:1031900040F21B3293427FF452AF00240FB12B79DF
:1031A0003B55013424234C452B71C0F0DF814FF493
:1031B000477300E1B3F54C7F00F05D826BD840F2BD
:1031C0002632934200F0258232D840F223329342D5
:1031D00000F00682B3F5497F16D240F21F329342C7
:1031E00000F0E88140F2223293427FF428AF0024BD
:1031F0000FB12B793B55013424234C452B71C0F082
:10320000F08140F22333D6E000F0F68140F225321F
:1032100093427FF414AF00240FB12B793B55013456
:10322000B37D2B714C45C0F0F58140F22633C2E0EE
:1032300040F22B32934200F00582B3F54B7F16D259
:1032400040F22932934200F0F08140F22A32934258
:103250007FF4F5AE00240FB12B793B5501340223E6
:103260004C452B71C0F0EF8140F22B33A3E000F00E
:10327000F58140F22F3293427FF4E1AE00240FB18A
:103280002B793B55013424234C452B71C0F0F4813C
:103290004FF44C738FE0B3F5537F00F03A8243D87C
:1032A00040F23332934200F0FF81B3F54D7F1FD2DD
:1032B00040F23132934200F0EA8140F232329342DE
:1032C0007FF4BDAE00240FB12B793B550134B37DA3
:1032D0002B714C45C0F0E98140F233336BE000BF05
:1032E000C81000205C560400C7100020CC1000203D
:1032F00040F24732934200F0FF81B3F5527F7FF4F2
:103300009EAE00240FB12B793B55B14B1978B14BD0
:103310001868FFF747FE013403782B714C45C0F065
:10332000F9814FF4537346E040F25D32934200F06E
:10333000158215D840F25132934204D040F25632F1
:1033400093427FF47CAE00240FB12B793B550134BE
:103350004023A1452B7100F2028240F25D332AE046
:1033600040F26332934200F01082B3F55A7F00F0CE
:103370000C8240F25E3293427FF461AE00240FB1C2
:103380002B793B55934B327D1B681B789A4204F195
:10339000010440F0F081336A4C451B782B71C0F07A
:1033A000F58140F2633306E008232B71B9F1000F79
:1033B00005D14FF43B732B600120BDE8F8830FB1BA
:1033C0002B793B700B23B9F1010F2B710ED840F212
:1033D000ED23F0E700240FB12B793B550134337D09
:1033E0002B714C4505D340F2EE23E4E70124F2E7CC
:1033F00000240FB12B793B55013402234C452B712E
:10340000FFF42AAE40F2EF23D5E700240FB12B7969
:103410003B55013402234C452B7103D340F2F12379
:10342000C9E700240FB12B793B550134737E2B7112
:103430004C45FFF42FAE40F2F223BCE700240FB15D
:103440002B793B55644B002201341A70624B1A7879
:1034500098F800309A4202D340F27333ABE7092365
:10346000A1452B7103D840F2FA23A4E700240FB141
:103470002B793B55013404234C452B71FFF420AECE
:1034800040F2FB2397E700240FB12B793B55013421
:1034900000234C452B7103D340F201338BE700240A
:1034A0000FB12B793B554B4B1B6801345B782B716B
:1034B0004C45FFF42EAE40F202337CE700240FB1FE
:1034C0002B793B55013402234C452B7103D340F239
:1034D000073370E700240FB12B793B550134737E1D
:1034E0002B714C45FFF433AE4FF4427363E7B27D6A
:1034F0009A421FD10A234C452B7103D340F20D335E
:1035000059E700240FB12B793B55013400234C457A
:103510002B7103D340F20E334DE700240FB12B790A
:103520003B55013400234C452B71FFF410AE40F2A3
:103530000F3340E7294940F2133001F01FF90AE642
:1035400000240FB12B793B55224B327D1B681B7831
:103550009A4204F1010440F0BF8005234C452B71D1
:10356000FFF41CAE40F21B3325E700240FB12B798A
:103570003B55013400234C452B7103D340F21D33DE
:1035800019E700240FB12B793B55013410234C452A
:103590002B7103D340F21E330DE700240FB12B79BA
:1035A0003B55013401204C45287104D340F21F33B0
:1035B0002B6002E700240FB12B793B550134052322
:1035C0004C452B71FFF414AE40F22233F3E600BFFA
:1035D000C9100020CC100020C71000205C56040049
:1035E00000240FB12B793B55013401204C45287143
:1035F00003D34FF44973DBE700240FB12B793B551C
:10360000013403234C452B71FFF406AE40F2253301
:10361000D1E600240FB12B793B55013404234C45EE
:103620002B7103D340F22933C5E600240FB12B7967
:103630003B55013424234C452B71FFF40CAE40F272
:103640002A33B8E600240FB12B793B55013402230D
:103650004C452B7103D34FF44B73ACE600240FB1F0
:103660002B793B55013405234C452B71FFF407AEF4
:1036700040F22F339FE600240FB12B793B550134E4
:1036800006234C452B7103D340F2313393E60024DB
:103690000FB12B793B550134337D2B714C45FFF431
:1036A00012AE40F2323386E600240FB12B793B553F
:1036B00001343E4B1B685A783D4B1A703D4B00223B
:1036C0001A703C4B1A783A4B1B789A420DD33A4AFF
:1036D000137801331370B9E6B27D9A42E9D03749C5
:1036E0004FF44F7001F04AF8E3E70723A1452B712F
:1036F00003D840F247335EE600240FB12B793B55E7
:10370000013405234C452B71FFF4FCAD4FF452738B
:1037100051E600240FB12B793B55244B327D1B68B9
:103720001B789A4204F1010407D103234C452B7105
:10373000FFF40AAE40F251333DE6B27D9A4207D122
:1037400002234C452B71FFF4FFAD40F2563332E6B5
:103750001A4940F25A3001F011F8F9E500240FB18E
:103760002B793B55013400234C452B71FFF407AEF8
:1037700040F25E331FE6B27D9A4210D100234C45E1
:103780002B7103D34FF45A7315E600240FB12B7934
:103790003B550134074A13780133137091E7074909
:1037A0004FF45B7000F0EAFFF4E700BFCC1000209C
:1037B000C6100020C9100020C71000205C5604006D
:1037C00010B5044618B90649392000F0D7FF236820
:1037D0001BB903493A2000F0D1FF20680C3010BD1E
:1037E0005C5604004360CA699A420ED38A6902603B
:1037F0008A69C8691A448A610A6FC01A1A44C86182
:1038000000300A6718BF0120704701F128020260EA
:103810008B6700207047000001492C2000F0AEBFEC
:103820005C56040070B50D46044608B9FFF7F4FF76
:10383000E36923B129462046BDE87040184770BDB2
:1038400010B5044608B9FFF7E7FF2046FFF7B8FFB9
:103850000023C0E91B33C0E91D3383828361036207
:1038600000F12803836610BD2DE9F0430E4689B0B0
:10387000054620B99E4940F2B72000F07FFF26B9E7
:103880009B494FF42E7000F079FF33780E2B21D82E
:10389000DFE803F00B080B0B2010BE202008200BE4
:1038A0000B0B0B002846FFF7CBFF0024204609B086
:1038B000BDE8F08325B98E494FF4D17000F05EFF6A
:1038C0007278D1094FEA52133AD013F0030303D0B0
:1038D000012B25D00624E9E702F01F02012AF9D1C5
:1038E000B478062CF6D105A8039300F03FFD03AB96
:1038F000F27831790093074603462846FEF72AFFFF
:103900000528D3D0039B3F2B03D97949A32000F08E
:1039100035FF039A3946701C00F06CFA0446C5E77F
:103920000DB9FFF779FF2846FFF74AFFB378212B3F
:10393000D0D1B6F80720072ACCD100F10C01EAE774
:10394000012BC7D10DB9FFF767FF2846FFF738FFF6
:10395000B378202B074632D0222BBBD1B6F80730E4
:10396000002BB7D1037DB6F80340848203F0010336
:1039700004F00104A34298D0A4B2002C0CBF032190
:1039800002212846FFF74EFF002C8ED10121284648
:10399000FFF7F4FA2146FFF705FB007807F018FE61
:1039A0002846FFF713FB07F013FE07F12803BC615D
:1039B0003C62C7E91B44C7E91D44BB6676E7B6F81D
:1039C0000730072B86D10DB9FFF726FF2846FFF7F2
:1039D000F7FEB3780370B6F807304370831C0024F9
:1039E0000593437806932046079400F04BFD20464C
:1039F00005A9FFF7D1F8044630B93E4B03A9CDE93C
:103A0000033500F0E5F90446002000F04BFD4DE7DA
:103A100000212846FFF7B2FA0021FFF7C3FAB37876
:103A200002789A423FF441AF1B06F4780AD524B1DC
:103A3000032C3FF43AAF032438E701212846FFF76F
:103A4000F1FE33E7012C3FF430AFF1D20DB9FFF7AF
:103A5000E3FE2846FFF7B4FE06462846FFF7B6FA0F
:103A6000254BCDE90536F7698046B7B9336F346A1F
:103A7000F766C6E91C736CB106F1200103C906F1B3
:103A8000180383E80300376205A94046FFF798F85A
:103A9000044600E0B4610021D0E7D6F87890B06920
:103AA0004F4528BF4F4606F128043A4621463EF0CE
:103AB00020FB336F3B447367A9EB0703F366336A5C
:103AC00000223C443267B466002B3BD006F120094B
:103AD00099E8030006F1180787E8030014463262EC
:103AE000F36EB06953B9B469002CCDD1D3E700BFF0
:103AF0005C560400493B0000E5370000F269B16EF6
:103B00009A4215D83EF0F5FAF369F26E7367D21A4D
:103B1000F266B26E1A44B26600212846FFF782FEB2
:103B2000336A7BB199E8030087E803003462D7E782
:103B30001A463EF0DEFAF26EF36932679B1AF361C1
:103B4000B3691344B361CEE710B5044660B90846C3
:103B5000FFF736FE0378202B08D1811C07220C309A
:103B60003EF0C7FA204610BD0320FCE70620FAE726
:103B70007FB5144606460D46FFF722FE838ADA0714
:103B800013D501213046FFF7F9F90021FFF70AFAB2
:103B9000A30600780CBF0123002301A9CDE901543D
:103BA0000393FEF7F9FF04B070BD0820FBE708B5EA
:103BB000FFF706FE406F08BD2DE9F341074690462A
:103BC0000E4621B91E4940F2F93000F0D7FD3846C3
:103BD000FFF7F6FD838ADB0704462FD5002000F0AF
:103BE00051FCE56EB5B1454528BF4546A16E2A4654
:103BF00030463EF07EFAE36E65675B1BE366A36EBC
:103C00002B44A3660024002000F04CFC204602B0A8
:103C1000BDE8F081A3697BB9C4E906683846FFF7BF
:103C2000D5F9084B6946CDE90034FEF7C9FF0028F5
:103C300014BF04469224E6E71124E4E70824E5E7EC
:103C40005C5604005D2F00000020704710B504464C
:103C500020B9044940F21D2000F090FD2368186847
:103C600010BD00BFB95504002DE9F04F4B6887B077
:103C700080460C4693465BB90868FFF7E7FF38B902
:103C8000A5682DB9C8E90055284607B0BDE8F08FF2
:103C9000BBF1400F04D938494FF4B87000F06EFD05
:103CA00007F03AF9E76802905F453B4628BF5B465C
:103CB00001934FF0000904F110034E4601250393D0
:103CC000019B002B31D0A368019A616893429A4608
:103CD00028BF924600292CD0029B524698193EF0EC
:103CE00008FA00236360E268A368A2EB0A02E260BC
:103CF000019AA3EB0A03A2EB0A02A36001925644C5
:103D000033B9B9F1000F03D02068FFF79FFF20609F
:103D1000E368002B2ED0A368002BD1D12268B2B962
:103D2000626016B1B34588BF0025029BC8E9003622
:103D3000AAE7002BD7D02168029A4B680398D3F8E2
:103D4000049032445346C8474FF00109CBE70DF1C8
:103D5000180A4AF8083D21684B685B6800221F4634
:103D600050460123B84708B92061A9E7A368013389
:103D7000A360F0E71D46A3E70E570400084B1A782E
:103D800082420CD0052818BF064A187018BF137855
:103D900005481CBF23F002031370FEF7B1BF704744
:103DA000DC100020F8100020C456040008B50020E4
:103DB000FEF77EFE8020BDE80840FEF779BE08B51C
:103DC0000020FEF785FE8020BDE80840FEF780BE9B
:103DD00038B505460C4607F009FBA84203BFD4E9F5
:103DE0000001034BC3E90001102008BF002038BDCB
:103DF000FC1000207FB5C38893421D4628BF15469E
:103E000093420E46144620D9802006F0A3FFB4FB4F
:103E1000F0F303FB1040B0FA80F04009039000205B
:103E2000CDE9016500F02EFB01A98020FEF7B4FE6C
:103E3000044620B906498020FFF7CAFF0446002047
:103E400000F030FB204604B070BD0020E6E700BF64
:103E5000F85604002DE9F04F0C78062C89B0064680
:103E60000D4600F0498221D8022C52D003D8012CF3
:103E70003DD0062454E0032C3DD0052CF9D10DF1A2
:103E800015008DF8144007F045FAAE4A0023136080
:103E90009DF8153003F01F039346032B00F2C981F0
:103EA000DFE813F042007701BE0119010D2C00F08C
:103EB000108211D80B2C00F001820C2CD9D1A24B0E
:103EC0001B78012B04D0A14940F22B4000F056FC96
:103ED0000020FFF753FF1CE00E2C00F00282852C1F
:103EE000C7D1994B1B78032BC3D1042000E00320DA
:103EF000FFF744FFBDE7964800F09FFC30B1954BBB
:103F000001221A60BFF36F8FBFF34F8F8E4B1C7867
:103F10000CB1002404E08D4940F2114000F02EFC69
:103F2000204609B0BDE8F08F26B9884940F2373005
:103F300000F024FC9DF81530C3F34115002D40F02E
:103F4000CA80DB099DF8161000F0B680062918D04B
:103F5000082900F0A480002940F0BD807E4C022298
:103F600020463EF0EAF8237843F0010222707B4AB3
:103F70001278950744BF43F0030323700222764969
:103F80000FE09DF81830022B11D0032B79D0012BB4
:103F900040F0A180BDF81B30002B00F0B0807049CC
:103FA00012220DF11500FFF725FF044639E0BDF898
:103FB0001B70002F00F0A380092F28BF0927FEF7F0
:103FC00089FDDFF888A104464FF0090874BB624CF4
:103FD00064493A4620463EF08CF82571A4F80280E8
:103FE000FEF75EFD18B1E37943F02003E371FEF7BD
:103FF00071FD5D4BC3E900049F60BDF81B20DA60D2
:10400000002000F03FFA59498020FEF7D9FD044610
:1040100020B957498020FFF7DBFE0446002000F05E
:1040200041FA062C57D0002C69D060E0636823B9B0
:1040300051464FF4287000F0A1FB63685B6823B918
:10404000514640F2A12000F099FB0DF12009002615
:1040500049F8146D019663685B6800221E4621468C
:1040600001234846B047019B40B99844237A204633
:104070001D44FFF7EBFDEDB20446A7E701330193C2
:10408000E9E7BDF81B30002B39D0BDF819109DF8B9
:10409000170000F0C3F90146E8B1027881E72A4A27
:1040A0001278052A03D12C4A1370012267E7042AEB
:1040B00011D1294B1D70F8E7013908290BD8DFE829
:1040C00001F02C0A0E0A050A0A0A39001F4940F2BB
:1040D0005B3000F053FB05A8FEF74AFD9EE0BDF8FB
:1040E0001730012BF7D1FEF7DBFC18B90F2407F0CE
:1040F0007AF915E7194A137843F002031370DBF8D5
:104100000040002C00F0218107F070F904460028DF
:104110007FF4FFAE07F024F902E7BDF81730012B5A
:10412000D9D1FEF7BDFC0028E0D00C4A137823F06B
:104130000203E3E7044B1B78043B012B1AD9082444
:10414000D5E700BFFC100020DC1000200E57040053
:10415000041100205C70024008110020F8100020BB
:10416000E4560400C5560400E01000205057040037
:10417000F85604009DF817302BB9FEF7ABFD04206C
:10418000FFF7FCFDBBE7012B41D1FEF783FD0520C6
:10419000F6E703A99DF81900FEF7A2FC064608B948
:1041A0001024A4E705AA9DF80C10FEF7BBFC062816
:1041B00004467FF438AF9DF8152012F0600F96D1B9
:1041C000644B9DF80C1018789DF81630D50915D061
:1041D00073B10A2B8BD10528B1D13046FEF754FDBF
:1041E0005D492A4608700DF11500FFF703FE15E042
:1041F0000528A4D158490B800222F4E70B2B7FF449
:1042000076AF05289BD1BDF81730FF2B01D90724C5
:104210006DE79DF817203046FEF7E6FC044602E7FE
:104220009DF81900040706D19DF8153013F0600FB2
:1042300009D006245BE705A9FEF777FC06280446AB
:104240007FF4F1AEF0E79DF81620424B9DF819403F
:104250001B78012A1ED012D3032AEAD104F00F02E0
:10426000072AE6D8BDF817100029E2D1052B02D0A5
:10427000002A7FF464AF204606F0ECFF3FE7052BF1
:1042800002D021077FF45BAF204607F001F83249E6
:104290000880B1E704F00F02072ACAD8BDF817104A
:1042A0000029C6D1052B02D0002A7FF448AF204652
:1042B00007F00CF8204607F0A3FB20E7254B1B78FE
:1042C000002B3FF426AE254940F2254000F056FA77
:1042D0001FE64FF08043D3F83834DA070AD50220BE
:1042E000F7E51C4B1B78012B04D81C4940F23F40DA
:1042F00000F044FA0120ECE5CB78032B3FF410AE3C
:104300008B785B0604D0154940F24E4000F036FA37
:10431000134EE8783368DBB1002232607168984749
:10432000044600287FF4E3AE336823B1AB78002B5A
:104330007FF4EFADEEE60B4B1B68082B7FF4E9AD85
:10434000094B1B68002B3FF4E4AD07F049F8E7E5A3
:104350000E24CCE6DC100020081100200E570400CB
:10436000FC100020300100103401001008B140237F
:1043700003600148704700BF0811002070B54FF07E
:10438000805286B0D2F8A830D2F8A42000926FEA0A
:1043900083436FEA934302AD9BB2094A094E0D2154
:1043A00028463EF051FB002428463EF00FFC844294
:1043B00001D306B070BD2B5DA3550134F4E700BFF7
:1043C00058570400EC660020F8B5124B53F8205003
:1043D0002B7813B9AE1C3046F8BD0020FFF7C6FF9E
:1043E0000D4F0646013D002315F8012F5C1C2AB92C
:1043F0006400E4B244F440743480ECE71E2B03D92B
:104400003946C02000F0BAF9E3B22A7826F8132022
:10441000EAE700BFF4570400AE57040008B9FFF7FD
:10442000D3BF052807D8054A105C20B1044B53F8C8
:104430002030002BF3D10020704700BF0C5804003F
:10444000F457040072B6024A1368013313607047D0
:1044500048110020034A1368013B136003B962B698
:10446000704700BF48110020EFF30583C3F3080332
:104470002BB9EFF31480C04300F001007047012016
:104480007047000008B5FFF7EFFF012803D004498B
:104490001D2000F073F9BDE80840FFF7D3BF00BF4F
:1044A0001258040008B5FFF7DFFF012803D00449C4
:1044B0002B2000F063F9BDE80840FFF7CBBF00BF39
:1044C00012580400EFF30583C3F308038BB1103BCC
:1044D0005AB2002AADBF02F1604303F00F03064A4F
:1044E00003F56143B4BFD05C93F800034009C0B248
:1044F00070470F20704700BF14ED00E038B50B0780
:1045000004460FD53DF0C6FD651C435D03F0030373
:10451000012B07D13DF0BEFD435D03F00303012BEA
:1045200008BF2034204638BD2DE9F04F87B08A46B9
:1045300014460293064618B9012007B0BDE8F08F73
:104540000029F9D0029B002B00F0138102F0040334
:104550000D46049321463078FFF7D0FFC7B23F2FB6
:1045600006F1010823D00BDCD7B12A2F38D0214621
:104570002878FFF7C3FF874205F101061FD0DBE76C
:104580005B2F7DD05C2FF2D1E307F0D42146707809
:10459000FFF7B4FFC7B2002FE9D006F10208E6E743
:1045A000E106287839D52F2837D10020C5E72B78A8
:1045B000002BC1D02F2B05D1A207BDD46E1C3546D0
:1045C0004646C7E72E2BF9D1049B002BF6D0554564
:1045D000B2D0A307F2D515F8013C2F2BEED1ABE7F3
:1045E00070782146FFF78AFFC1B22A2919D02B78AB
:1045F0002E2B09D1049B3BB155459DD0A70703D570
:1046000015F8013C2F2B97D079B9A607CDD5E40634
:10461000CBD42F2128463EF0BAFA003018BF012033
:104620008BE7214618F8010FDCE72F291FD0029BEA
:1046300024F004095F1E04F0020AAB4621469BF8F1
:104640000000FFF75BFFC6B20135002E3FF474AFE8
:104650003B464A4659464046FFF766FF01287FF42D
:104660006CAF2F2EE9D1BAF1000FE6D064E7A007B6
:10467000DDD528463EF08BFA064600289FD15BE741
:10468000287800283FF458AF2F2802D1A1073FF522
:1046900053AF2146FFF732FF8346B8F1000F3FF4D6
:1046A0004BAF7378212B01D05E2B25D1023601232D
:1046B0000122019304EA02034FF00009039321460B
:1046C00030780592FFF71AFFC3B25D2B06F10107A0
:1046D000059A14D112BB019B4B453FF42DAF002F1F
:1046E0003FF42AAF7A1C04D12B785B2B7FF424AFE4
:1046F00047466E1CB84662E746460023D8E72F2B94
:10470000F2D05C2B07D1039A42B921467078FFF7AB
:10471000F5FEB71CC3B2002B3FF40EAF3A782D2A3A
:1047200021D1214678780593FFF7E8FEC0B2059BBA
:10473000C8B15D2817D05C2807F102060BD1039A97
:104740004AB92146B878FFF7D9FEC0B200283FF435
:10475000F3AE059BFE1C9B4503DB8345D8BF4FF0A2
:1047600001090022ABE73E469B4508BF4FF0010917
:10477000F7E70320E1E64023FFF7D6BE07B5ADF823
:10478000000001916A46002144F202000DF062FC33
:1047900003B05DF804FB50E8002F0B4640E8003CF6
:1047A0009CF0000FF7D11046704750E8002F42EA06
:1047B000010340E8003C9CF0000FF6D11046704722
:1047C00050E8003F43EA010240E8002C9CF0000F53
:1047D000F6D11046704750E8002F02EA010340E886
:1047E000003C9CF0000FF6D11046704750E8003FA7
:1047F00003EA010240E8002C9CF0000FF6D11046BD
:10480000704750E8003F03EB010240E8002C9CF0A9
:10481000000FF6D11046704750E8003FA3EB0102AD
:1048200040E8002C9CF0000FF6D1104670470121A3
:10483000FFF7BBBF0121FFF7C3BF0021FFF7CBBFCD
:104840000021FFF7D3BF00002DE9F0438368D3F8C0
:104850005463C6F3400689B0074636B100221146BC
:1048600009B0BDE8F04302F019B8012906D91E4A83
:10487000022109B0BDE8F04300F010BE1B4C1C4DF6
:10488000DFF870901C23E2182D1B4FF06408B5FB75
:10489000F3F503FB05251C34AC4202D109B0BDE899
:1048A000F08354F81C0C54E90623017900689A1A25
:1048B0001B1ADBB2039308FB03F3B3FBF2F3CDE95E
:1048C000016334F8043C0093CDE9061254F8083C27
:1048D00011FB08F13846B1FBF2F1CDE904214A465B
:1048E000082100F0DBFDD6E7C6580400B4B504008B
:1048F00008B60400D958040010B50446002830D08A
:1049000003681BB91849D920FFF738FF63681BB942
:104910001549DA20FFF732FFA3681BB91249DB20E3
:10492000FFF72CFFE3681BB90F49DC20FFF726FFD8
:10493000238B1BB90C49DD20FFF720FFD4E90123AD
:1049400021689B1ADBB20A60013BDBB2FF2B2268B5
:1049500002D10020107110BD1168481C10600B704E
:10496000F2E70E20F7E700BF8858040038B5044688
:1049700018B91249FE20FFF701FF0020FFF782FD62
:104980002268616813688B4215D9591E116013F8AB
:10499000015C228BE36802FB05352268A36811687D
:1049A0005B1A1179DBB2994200D213710020FFF734
:1049B00079FD284638BD0025F8E700BF8858040077
:1049C00038B50C46054620B90E4940F22110FFF7D4
:1049D000D5FE24B90B494FF49170FFF7CFFE0020AC
:1049E000FFF750FD2A681368591C1160EA68A41A81
:1049F0002A8BB4FBF2F41C700020BDE83840FFF7AE
:104A000051BD00BF8858040010B543689C686068B9
:104A1000036801219B689847A36810B903221A70A4
:104A200010BD0422FBE7000038B505460C4621B94D
:104A3000064940F60920FFF7A1FE35B1A268B2F899
:104A4000543343F02003A2F8543338BDEE59040028
:104A500038B50D46044620B9084940F6FD10FFF769
:104A60008DFE25B9054940F6FE10FFF787FE29683F
:104A70002068BDE838403EF097B800BFEE5904000A
:104A80002DE9F047089C1E4609BB1B4F1B4CE41B3D
:104A9000E4089442B94606D91948E50000EB8208BB
:104AA0000C46A54201D100230EE009EB0403D8F81F
:104AB00000005B6819683EF077F807EB040A0834D9
:104AC0000028EED1DAF804303360BDE8F087002822
:104AD000E9D00178436839B12146104698472368E8
:104AE000002BE0D03460F0E7120199189B58002B9E
:104AF000D9D03160E9E700BF3CB50400B4B504008B
:104B00003006002010B5044620B909494FF4DA7088
:104B1000FFF734FE236923B905494FF4DA70FFF734
:104B20002DFE2069034A0449BDE8104002F0C2BCD2
:104B3000EE590400305A0400C05D040010B504466C
:104B400020B909494FF4D770FFF718FE236923B93C
:104B500005494FF4D770FFF711FE2069034A044955
:104B6000BDE8104002F0A6BCEE5904002C5A040027
:104B7000C05D040010B5044620B909494FF4DD704A
:104B8000FFF7FCFD236923B905494FF4DD70FFF7FA
:104B9000F5FD2069034A0449BDE8104002F08ABCD3
:104BA000EE590400335A0400C05D040008B13EF021
:104BB0000DB8704710B50446FFF7F8FF23462044B0
:104BC000834201D1002010BD13F8012B3F2A01D0F0
:104BD0002A2AF5D10120F6E738B505468368006832
:104BE0001C8DFFF7E3FFAB68DA8B2044B0FBF2F3D8
:104BF00002FB1300B0FA80F0400938BD10B584689C
:104C00000068FFF7D3FF238DE28B84F82000C0B249
:104C1000034493FBF2F102FB11330133A382E38CD3
:104C200001311844218390FBF2F3591C02FB13035A
:104C300001336183E38204F1140010BD38B50546E9
:104C400083680068DC8CFFF7B1FFAB68DA8B204427
:104C5000B0FBF2F302FB1300B0FA80F0400938BD5C
:104C600030B50368D3F84C5385B00446EDB100234A
:104C70000A2201A9284603F0D9F82368029AC3F84A
:104C80004C2300210A2201A83DF057FA00230A22F2
:104C900001A9284603F0B4F8284603F059F8236820
:104CA000D3F84C0318B9C3F8480305B030BD01A9C7
:104CB00000230A2203F0BAF8206800230A2201A97F
:104CC000D0F84C03019303F09BF8EEE707B5836837
:104CD000C9B193F822208A4212D00D4A00923322A1
:104CE0008DF8042001F12F028DF805206D22ADF81A
:104CF000062083F822106A460649006902F0DAFBB2
:104D000003B05DF804FB83F82210034AF4E700BF08
:104D10001B5B313BC05D0400365A040007B5836855
:104D200093F823208A4214D045F61B32ADF80020B8
:104D300034228DF8022001F12F0283F823108DF820
:104D400003206D22ADF80420034900696A4602F091
:104D5000B1FB03B05DF804FBC05D0400014902F043
:104D6000A9BB00BFD55D04000A460068014902F0F6
:104D7000A1BB00BF605A040009B1FFF7F5BF70473F
:104D80002DE9F84F00250746884614460560267829
:104D900066B13DF07FF93044437813F0080314D036
:104DA0000023237001343B680B2BF0D93B680C2B9C
:104DB00004D9594940F20450FFF7E0FC3B68002257
:104DC00048F823202846BDE8F88F3A68511C39601E
:104DD00048F822401D4694F80090B9F1000FE2D047
:104DE000002D40F08A80B9F1270F05D0B9F15C0F92
:104DF0000ED0B9F1220F79D12046FFF7D7FE611C02
:104E0000024620463DF080F94D4626463446E2E70C
:104E1000661C2046FFF7CAFE3146024620463DF09A
:104E200073F9F3E7B9F15C0F01D0661CEEE7607827
:104E30008542EED0302825D102234FF00009E05CF6
:104E4000A0F13001C9B207295FFA83FA17D80133FC
:104E500041EAC901052B5FFA81F9F0D19A46204653
:104E6000FFF7A4FE0AF1FF3BA344821CA2EB0A0257
:104E7000594620463DF048F984F80090C6E7BAF15B
:104E8000020FECD17828D0D102214FF00009635CE9
:104E9000A3F13002D2B2092AC8B214D842EA0913E7
:104EA00003295FFA83F90CD14FF0040B2046FFF77A
:104EB0007DFE0BF1FF3AA244821CA2EB0B0251468D
:104EC000D7E70321E3E7A3F16102052A03D8573BA3
:104ED00043EA0913E4E7A3F14102052A01D8373B6D
:104EE000F6E70228A1D04FF0030BDFE73DF0D2F840
:104EF000484443781B0798D555E7A94504F10106B6
:104F000090D12046FFF752FE3146024620463DF042
:104F1000FBF8002579E700BFEE59040070B50D4697
:104F20001646044618B90A49FD20FFF727FC6368B6
:104F30001BB90749FE20FFF721FC606803681C6964
:104F400029463346A4460122BDE87040604700BFB1
:104F5000EE590400F7B505468068454F00244FF42C
:104F6000C072214600F5D6708DF803403DF0E5F89B
:104F70004049286902F09EFA286902F089FA4FF444
:104F80007A7647F0010701AA0DF103012846FFF7E1
:104F9000C5FF019B5BB94FF6C010B847019B002BC2
:104FA000F1D1013EB6B2002EEDD10D203AE09DF8D0
:104FB0000320AB681B2A4ED093F8AC111B29EDD10E
:104FC000522A48D11C44002284F8AC21AC6894F8E1
:104FD000AD315B2B23D104F5D7710223164611F8AE
:104FE000012B01333B2A9BB21ED1B3F5C07F24D0E5
:104FF00003F2AB102044002210F8011FF9B9FA2A7D
:1050000086BFFA23A382A282AB68FA2E86BFFA2259
:105010001A831E83AB68002083F8AC0102E084F899
:10502000AC210B2003B0F0BD06EB860602EB460276
:10503000303AB3F5C07F96B2D1D10C20F2E70133FC
:1050400002EB82029BB2303901EB4202B3F5C07F22
:1050500092B2D1D3F1E723440134A4B2092C83F8EE
:10506000AC219BD9AB68002283F8AC210420D9E79E
:10507000705A04004B5A04002DE9F7430F461446BA
:10508000054600B119B91D49CE20FFF777FB6B68C3
:105090001B681BB91949CF20FFF770FBDFF85C8054
:1050A000002614B903B0BDE8F0836868036822469F
:1050B000D3F80C90B91901ABC84718B14146D920B3
:1050C000FFF75CFB019B9C4203D24146DA20FFF7CD
:1050D00055FB019B1E44E41A002BE2D1AB681A7801
:1050E000032ADED0D3F854239206FBD5B3F8542319
:1050F0006FF34512A3F85423D3E700BFEE59040021
:105100002DE9F74F054617460E46002975D00C4687
:105110003CF0C0FFA4EB060A14F8013B18444378A6
:105120001A07F5D41FFA87F905F110083046FFF782
:105130003DFDAB68DB8BA0EB0A00DB1B98424FF018
:10514000000406EB0A0B15D901933CF0A3FF1BF8F2
:105150000420019B1044417811F0080F02D00A2A64
:105160002FD02346A968C98B3A198A4228D2013424
:10517000EAE70134A04218D01BF804300A2B0AEBEE
:105180000408F6D1286902F083F922462C465946D4
:105190002846FFF771FF54F8100FFFF7DFFDB9B293
:1051A000204608F1010AFFF7E7FD286906EB0A012E
:1051B00002F080F9286903B0BDE8F04FFFF7CEBDDB
:1051C0001C46286902F064F9224659462846FFF732
:1051D00053FF544434443CF05DFFA4EB060A14F83A
:1051E000013B184443781B07F5D42869FFF7B6FD47
:1051F00049464046FFF7C0FD98E703B0BDE8F08F91
:105200000A4619B10249006802F054B9704700BF5C
:105210005A5A04000A4619B10249006802F04AB914
:10522000704700BF665A040070B50546FFF7E6FCFC
:10523000037B0288818801339A42044601D1012907
:1052400015D0012905F1100604D9013989B230467B
:10525000FFF7E0FF2388217B8B4209D9013B591AD4
:1052600089B23046FFF7CCFFAB6800221A8570BDCB
:10527000C91A013189B23046FFF77EFDF4E7F8B56F
:105280000546FFF7BBFC04468788C6882846FFF71B
:10529000A3FC78B12869FFF761FDB74205F110055D
:1052A0000ED161882388C91A284689B2BDE8F84022
:1052B000FFF7A6BF2846FFF7C1FC0028EAD1ECE7BC
:1052C000A388E188C91A89B22846FFF7A3FF23887B
:1052D00061888B42E7D9591A284689B2BDE8F8405F
:1052E000FFF74ABD38B50546FFF788FC02884388BA
:1052F0009A4204468388C28801D1934214D09A42CC
:1053000005D9D21A92B20B49286902F0D3F8238842
:1053100061888B4205F1100007D9591A89B2FFF74D
:105320006FFFAB68DA8C1A8538BDC91A89B2FFF7EE
:1053300023FDF6E7545A04002DE9F74F0F461646B1
:105340000193044648B94E4940F67C20FFF716FA0F
:105350004B4940F61F20FFF711FAA3681BB16368A1
:105360000BB1236823B946494FF42260FFF706FAD0
:10537000E368444A5B689C606068036839461D685E
:105380002346A847054600285BD1636923B93C49F9
:1053900040F62F20FFF7F2F9606902F0D7FC0546CE
:1053A00000284ED1A368DFF8EC90C3F84803A36847
:1053B000354FC3F84C034FF456720146A068DFF82E
:1053C000C080DFF8CCB03CF0B8FEA268B2F854332D
:1053D00043F02003A2F85433A368B3F8542366F3D0
:1053E0008202A3F85423A268B2F8543343F00803AE
:1053F000A2F85433A36801221A70A3685022DA83FA
:10540000A3681822A7EB09079A834FEAD70A2E460A
:1054100056451AD1072F05D91C4B1D480422314689
:105420003DF092F9019B63B19DF83010E068FBF705
:10543000ABFE0028A1BFE368DB6801225A71B8BF48
:105440000425284603B0BDE8F08FB9F1000F04D160
:10545000414640F64B20FFF791F9D9F80420126835
:1054600022B9414640F64C20FFF788F9D9F80420CC
:1054700012684BF8262009F108090136C8E700BF79
:10548000EE590400294A0000B4B50400514A000056
:10549000300600203CB50400FFF7EEBD0CB4F7B5B4
:1054A000089E04460F4626B9234940F63930FFF7D7
:1054B00065F924B9204940F63A30FFF75FF9A3684F
:1054C0001BB163680BB1236823B91B4940F63B301D
:1054D000FFF754F902AD09AB45F8043DA168D1F8D6
:1054E00054335B0721D591F82230BB421DD00222F4
:1054F000223168463CF0FDFD39462046FFF7E6FBC9
:105500002A463146206902F06FF89DF800102046C7
:10551000FFF7DCFB9DF8011011B12046FFF7FEFB01
:1055200003B0BDE8F04002B070472A46314620691A
:1055300002F05AF8F4E700BFEE5904008168002237
:1055400081F82C2081680A858168CA840368024A30
:105550000321FFF7A3BF00BFC05D040070B5044680
:1055600020B9184940F6D220FFF708F9A3681BB10B
:1055700063680BB1236823B9124940F6D320FFF7C3
:10558000FDF8A3681E78012E1AD160680368002117
:105590009B689847054688B908212046FFF796FB87
:1055A00031462046FFF7BAFB2069074901F082FF28
:1055B000A36802221A702046FFF7C0FF284670BD7C
:1055C0000825FBE7EE590400D45D0400F8B5044655
:1055D00016460F4621B9244940F22D60FFF7CEF858
:1055E000A068C58CAB19B3F5C07F3BDA002E39D06B
:1055F000038DED1A03F12C0133442C33ADB2014479
:105600006A1C18443CF080FDA068038D2C333246A0
:10561000394618443CF078FDA0682C30FFF7C6FAF4
:10562000A368D884A268138D2C33134420460F4AF4
:105630000821FFF733FFA3681A8D16441E85204604
:10564000FFF7CAFA40B12069FFF788FB55B1204641
:10565000BDE8F840FFF713BE2046FFF7EFFA002839
:10566000F1D1F3E7F8BD00BFEE590400C05D0400BE
:105670002DE9F04104468068D0F85433C28CC3F35E
:105680000008038D5FFA88F7D51A0E46ADB2002FD9
:1056900040D1B2F5BF7F42D83DB103F12C012D338B
:1056A00001442A4618443CF02FFDA3681A8D134488
:1056B00083F82C60002F6FD1A268D38C01339BB28A
:1056C000D384134483F82C80002D6FD02046FFF73D
:1056D00095FA8288C3889A4204F1100621D1A26803
:1056E000138D2C33134408212046334AFFF7D6FE8E
:1056F000E91B89B23046FFF783FDA268138D0133A1
:1057000013852046FFF768FAF8B12069BDE8F0413B
:10571000FFF724BBB2F5BF7FC7D9002DC5D1BDE8C7
:10572000F0812046FFF7EEF9A268138D2C33134465
:105730000821214A2046FFF7B1FE2046FFF71AFA5A
:1057400001213046FFF710FBD7E72046FFF776FA36
:105750000028E4D02046FFF751FAC2888388013A36
:10576000D21A92B2054604F110061AB11349206903
:1057700001F0A0FE2069FFF7F1FAE988AB88C91AA9
:10578000304689B2FFF746FD29880139304689B293
:10579000BDE8F041FFF7F0BA002D97D1A268D38C95
:1057A00001339BB2D384134483F82C50324604490E
:1057B000206901F07FFEA0E7C05D0400545A040098
:1057C000004C0400F0B585B0826800250446CDE9A0
:1057D0000155ADF80C50D2F850630F46002946D160
:1057E000002E3FD0FFF720FDA0683B460A22D0F8EC
:1057F000500301A902F01AFBA368029AC3F85023D0
:10580000A068D0F85033C58C002B50D100F5D6706D
:10581000FFF7CCF9A36838B303F5D67103F12C0078
:105820003DF0CCF9A0682C30FFF7C0F9ADF80C00C2
:10583000A268BDF80C301385A268AB42D38402D2B3
:105840002046FFF77BF9A3682D4A20462C33082118
:10585000FFF724FE2046FFF7BFF900284AD0206951
:10586000FFF77CFA05B0F0BD83F82C00DAE7D2F838
:105870004C33B342F6D0D2F84833002BF2D0FFF7C6
:10588000D3FCA368D3F8500340BB03F12C00FFF70F
:105890008DF9A368D3F84823C3F8502385B2A068D4
:1058A000CDB100F12C0100F5D6703DF087F9A0686C
:1058B00001A900230A22D0F8500302F0B7FAA06829
:1058C000BDF80C2000F12C010A230132D0F850035E
:1058D00002F0ACFAACE780F8AC51E8E72B460A22BC
:1058E00001A902F0A3FAA368019ABDF80C50C3F80D
:1058F0005023DCE72046FFF7A1F90028AFD1B1E73C
:10590000C05D040038B504468068038DC58CED1A6F
:10591000ADB2002D43D003F12D012C3301442A46B2
:1059200018443CF0F1FBA268D38C013BD3842046A1
:10593000FFF764F98288C3889A421CD1A268138D4C
:105940002C3313440821164A2046FFF7A7FD23698C
:1059500023B9144940F26940FEF710FF54F8100FC4
:105960000F49114A01F0A6FD691E204689B2BDE823
:105970003840FFF745BC2046FFF7C4F82046FFF744
:10598000DDF8A268138D2C3313442046044A082105
:10599000FFF784FD2046BDE83840FFF7EBB838BD7F
:1059A000C05D0400EE5904003A5A0400F0B5C36823
:1059B0005B6891B004460D46002203A9186802F006
:1059C000A7FB002840F093809DB1039802F009FAEC
:1059D000A268D2F844330133C2F84433A368D3F841
:1059E000443303F00703012B03D00125284611B0EF
:1059F000F0BD2046FFF702F981880129064605D946
:105A0000013989B204F11000FFF704FC3188012943
:105A100005D9013989B204F11000FFF7F1FB2046E6
:105A2000FFF78CF82DB1334A02212046FFF736FDEF
:105A3000DCE70023082204A9039802F0F7F9069B8B
:105A40000793BDF81430ADF82030BDF81630ADF82E
:105A5000223001238DF825309DF8103003F0030229
:105A6000012A25D1BDF81050049E0398C3F3C20348
:105A7000C5F383158DF82430AA0008230AA902F083
:105A8000D5F9C6F39526236900932A4607AB0AA9E0
:105A90003046FBF731FC039802F0A3F9E3685B683A
:105AA000002203A9186802F033FB0028C1D09CE74C
:105AB000022AF0D1BDF81250C3F3C203AD098DF82C
:105AC00024300827082D2E4628BF08263B4632469C
:105AD0000AA9039802F0AAF9AD1B236907AA314667