:1000000000000420B5020000DD020000DF02000055
:10001000E1020000E3020000E50200000000000031
:10002000000000000000000000000000E7020000E7
:10003000E902000000000000EB020000ED020000F9
:100040000581000045D3030015810000EF02000088
:10005000EF020000EF020000217E0000EF0200002E
:10006000EF020000EF020000EF020000EF020000CC
:10007000EF020000FD810000EF020000EF0200002F
:10008000EF020000FD1E0000EF020000EF02000082
:10009000991F0000EF020000EF020000EF020000D5
:1000A000EF020000EF02000051840000EF020000A8
:1000B000EF020000EF02000000000000000000005E
:1000C000EF020000EF020000EF020000EF0200006C
:1000D00081FA0300EF020000EF020000019F000020
:1000E000EF020000EF0200001D000400000000000D
:1000F00000000000EF02000000000000EF0200001E
:1001000000000000000000000000000000000000EF
:1001100000000000000000000000000000000000DF
:1001200000000000000000000000000000000000CF
:1001300000000000000000000000000000000000BF
:1001400000000000000000000000000000000000AF
:10015000000000000000000000000000000000009F
:10016000000000000000000000000000000000008F
:10017000000000000000000000000000000000007F
:10018000000000000000000000000000000000006F
:10019000000000000000000000000000000000005F
:1001A000000000000000000000000000000000004F
:1001B000000000000000000000000000000000003F
:1001C000000000000000000000000000000000002F
:1001D000000000000000000000000000000000001F
:1001E000000000000000000000000000000000000F
:1001F00000000000000000000000000000000000FF
:1002000010B5054C237833B9044B13B10448AFF350
:1002100000800123237010BD900600200000000024
:10022000C487040008B5034B1BB103490348AFF36F
:10023000008008BD0000000094060020C487040070
:10024000154B002B08BF134B9D46A3F5803A0021A8
:100250008B460F461348144A121A3FF0B0FF0F4B5B
:10026000002B00D098470E4B002B00D09847002061
:10027000002104000D000D48002802D00C48AFF307
:1002800000803FF021FF200029000AF035F93FF0FF
:10029000F5FE00BF00000800000004200000000080
:1002A00000000000900600206C7900200000000093
:1002B000000000000649074A074B9B1A03DD043B78
:1002C000C858D050FBDC01F013F9FFF7B9FF00006C
:1002D0005C8A04000000002090060020FEE7FEE794
:1002E000FEE7FEE7FEE7FEE7FEE7FEE7FEE7FEE7E6
:1002F0007047000007B5044B0093044A802300F0C8
:1003000032F803B05DF804FB11030000AD060020D5
:100310002DE9F84389461446B2B10F4B0F4E032521
:10032000002743F00108224609EB070100200AF0EC
:1003300019FA0744241A48B933782BB14FF47A409C
:10034000C047013D02D13570BDE8F8830123337009
:10035000002CE8D1F8E700BF10260400AC0600200E
:1003600070470AF033BAF0B595B008460D46164608
:100370001C4606F015FF1A9A0D920023082205A9C3
:1003800028460A938DF82C300C93CDE9086406F0CA
:1003900025FF079B0293BDF81830ADF80C30BDF86F
:1003A0001A30ADF80E3001238DF811309DF814305D
:1003B00003F00302012A1DD1BDF81440059EC3F3CA
:1003C000C203C4F383148DF81030A20008230EA9D1
:1003D000284606F003FFC6F3952608AB0093224695
:1003E00002AB0EA9304600F05BFF284606F0DCFEAB
:1003F00015B0F0BD022AF8D1BDF81640C3F3C20310
:10040000A4098DF810300827082C264628BF082696
:100410003B4632460EA9284606F0E0FEA41B08AB78
:1004200002AA31460EA8374400F09EFF002CEBD103
:10043000DBE7000008B5FFF794FF0421034800F054
:1004400077FE034B01225A7108BD00BF248A0400C5
:100450000000002000230428CB604B6098BF044BB1
:10046000044A98BF53F820308A600B60704700BF81
:1004700008280400E4270400CB6800225A71704762
:10048000C368DB6800225A717047CB6801225A7139
:100490007047C368DB6801225A717047104A8A604E
:1004A000F0B5104A104C0023121BCB604B600B6060
:1004B00022F00F021D46264693420DD006EB030C98
:1004C000E718DCF80CC09CF804C0BCF1FF0F05D0A5
:1004D000854202D1BB680B60F0BD01351033EBE7FC
:1004E0001C280400548A0400248A04002DE9F74FD4
:1004F000174E184D0093AD1B52F8043C07468A4630
:10050000904625F00F050024B146A54207D1124AB6
:100510000221384603B0BDE8F04F04F063BB09EB9D
:10052000040118468968019340F080FB06EB040B38
:10053000019B10340028E8D1DDED007A17EE90CA57
:10054000434652465946384603B0BDE8F04F60472F
:10055000248A0400548A040054290400014BFFF744
:10056000C5BF00BF750B0000014BFFF7BFBF00BF49
:1005700079040000014BFFF7B9BF00BF8B040000F6
:10058000014BFFF7B3BF00BFAD090000037813F0C4
:10059000040216D003F00303012B03D0022B09D071
:1005A000012070470A6800880232C0F383100244B9
:1005B0000A60F5E70B684288023303EB92130B6085
:1005C000EEE71046704700002DE9F04F484C87B029
:1005D0000F460546861C0020019203F053FC236859
:1005E0003B60D4E901231344226801339B1A04F2CF
:1005F0001C4704F5836A04F21448B34219D3019AE4
:100600000023002A6CD0012262F3010343F00403AB
:1006100065F389132168A2680A4003320E44002062
:1006200044F82230266003F02FFC012007B0BDE81B
:10063000F08F0121384603F0ACFD504603F0C2FDB7
:10064000404603F0BFFD0DF118096068D4F808B00A
:1006500049F8100D00EA0B00033004EB8000494616
:10066000FFF794FF029BB0B90BEA030204EB82028E
:10067000D16803919A1C013303EA0B0B04EB8B0C3A
:1006800001F00303012B0292DCF80CB020D0022B06
:1006900004D083460BE00BEA0300DDE7BDF80E3023
:1006A0009B0903334FEA1B4B02EB93030293404633
:1006B00003F08BFD08B1029B63605946384603F096
:1006C00068FDD4E901231344226801339B1A94E79F
:1006D000BDF80C30C3F383134FEA1B4B1344E5E71B
:1006E000022262F3010343F0040365F39F5391E791
:1006F000C8080020012907B5034604D08168D1F855
:100700005413890707D500221146184603B05DF837
:1007100004EB05F029BC53680193054B0093136863
:10072000044A022104F05EFA03B05DF804FB00BF46
:100730003E260400342604002DE9F3478368D3F8ED
:100740005443C4F34004074634B10022114602B0BA
:10075000BDE8F04705F008BC144D154EDFF8588091
:10076000DFF85890DFF858A0761B26F00F06B44249
:1007700002D102B0BDE8F0872B19DA689B681179C5
:10078000FF2906D10B4A0821384604F02BFA103411
:10079000EDE75279002A0CBF42464A46CDE90021D6
:1007A00038465246082104F01DFAF0E7248A040076
:1007B000548A0400642604005B26040053260400C7
:1007C0008326040030B50A4B0A4A0B49D21AD208D4
:1007D00000239A4201D1052006E031F82350046835
:1007E000A54202D10360002030BD0133F1E700BF14
:1007F0004088040058890400180500208368D3F855
:1008000054339B0703D50022114605F0ADBB024AC5
:10081000022104F0E7B900BFA42604008368D3F8DE
:1008200054339B0703D50022114605F09DBB024AB5
:10083000022104F0D7B900BFA42604002DE9F84F27
:10084000224B2348FF229A600022C3F81824C3E9F0
:100850000022C3F8142483F8202406F05AFC8046B2
:1008600088B91C481C4E1D4DDFF874A006F0D5FE5B
:10087000AD1BED084446AC4208D100231849194885
:100880001A469C421BD14046BDE8F88F4FF0000944
:100890004F4606EBC40BBC420AD0142256F8371060
:1008A000DBF8000040F0DCF90028C8BF09F10109BD
:1008B0000137BD42EFD12AF824900134DBE701EB88
:1008C000830540F823206A800133DAE7C808002056
:1008D000D0890400D8270400408804005889040007
:1008E00018050020A405002007B5019031B9019A30
:1008F000064B53F8320003B05DF804FB01A8FFF784
:1009000061FF0028F3D00020F5E700BF4088040015
:10091000002310B5CB604B60034B8B600C4601216C
:10092000FFF7E2FF206010BDE4270400094B013906
:1009300003EBC000032909D8DFE801F00A0204062E
:100940000420704700797047407970470020704755
:10095000022070474088040030B5124C00EB400084
:1009600054F821508240072303FA00F06A40024005
:100970000D4B6A40C2F3821044F8212003EB810141
:10098000C2F3C203834238BF0346C2F3422083420C
:1009900002F0070238BF03469A4238BF1A464A801F
:1009A00030BD00BFA4050020180500202DE9F74F39
:1009B00006461D469046002A50D0CB6828684B4911
:1009C00093F80490072240F04BF9D0B9B8F1010F29
:1009D00007D1474A0221304603B0BDE8F04F04F08A
:1009E00001B9444F04460A2257F82410686840F0C1
:1009F00037F9002873D00134052CF4D16B683E4AD6
:100A000013E008223D49286840F02AF958B9B8F1A6
:100A1000010F04462BD00127394A3A4B9B1A4FEA63
:100A2000D30A934645E02B68374A0221304603B08B
:100A3000BDE8F04F04F0D6B808EBC5039B79A3429C
:100A40000FD200212846FFF74FFF524603460221EE
:100A5000304604F0C7F80135BD42EDD103B0BDE822
:100A6000F08F224629464846FFF776FFF3E7244BEE
:100A7000244FDFF89CA0FF1AFF0800259846EBE7FB
:100A8000184600210193FFF72FFF0099202240F024
:100A9000E7F8019B014608B1013310E00BEBC302FC
:100AA0009279A24215D3224619464846FFF754FFD1
:100AB00001374745D2D255F82730009300239A4595
:100AC000DED155F82730114A0221304604F08AF869
:100AD000EEE71846FFF708FF0D4A0346F4E7B8F1C2
:100AE000020FE4B2C3D0022796E700BFB526040088
:100AF000BC260400F42704001F270400FC52040055
:100B00004088040058890400D32604000B27040001
:100B1000E826040013460A46C168FFF747BF0000F5
:100B200013B504460191A3B162B9019A0F4B04EBCE
:100B30004404072053F82230A0401840E040C0B2DF
:100B400002B010BD01A8FFF73DFE0028EDD0002047
:100B5000F6E72AB9019A064B03EBC2039879EFE74F
:100B600001A8FFF72FFE0028F1D1F3E7A40500202C
:100B7000408804002DE9F04F274B284A9B1A4FEA82
:100B8000D309CB685B7985B005460E461BB9244A6C
:100B9000022104F027F8234B234A244F082128463A
:100BA00004F020F8224A0821284604F01BF800240B
:100BB0004C4502D105B0BDE8F08FF36893F804808E
:100BC00001231A4621464046FFF7AAFF012221468B
:100BD000834600234046FFF7A3FF0328034628BFB0
:100BE00003235FFA83FA804601212046FFF77CFE4B
:100BF00057F82A3001930F4A0F4B57F82B100091EA
:100C0000D04598BF134602930C4A03460821284654
:100C100003F0E8FF0134CBE7588904004088040062
:100C20003E270400512704005D270400F427040038
:100C30007B270400663A04003C270400B827040020
:100C400013460A46C168FFF795BF000037B5164B3B
:100C500093F8203404460BB918B90024204603B099
:100C600030BD3FF0F5FF02AA013042F8080D012324
:100C700001A90E4806F0DFFC05460028EDD121460B
:100C8000009A01983FF077FADDE900231344074802
:100C900003F8015C009906F005FD0099034806F091
:100CA000CFFD019CDAE700BFC8080020D827040068
:100CB000034BD3E90030C31A58425841704700BF74
:100CC000C80800202DE9F04F85B0FFF7F1FF064678
:100CD000002840F018818D4DC5F81804BFF34F8FE0
:100CE0006868AC6804AF47F8100D2040033005EB8E
:100CF00080003946FFF74AFC009B18B1D5F818244C
:100D0000002A66D004EA0302991C013305EB820233
:100D1000234005EB8303D268DB68029302F00303F0
:100D2000022B0192009169D1BDF8063078489DF8F8
:100D300004604FEA931ABAF1A00FD14628BF4FF0D2
:100D4000A00969F38F1309F10801ADF8063006F028
:100D5000F8F9C6F3C2068046002800F0BB8006F012
:100D60001FFA01A900230822404606F02CFA009938
:100D700024EA01070137BF00B94538D95FFA89F97C
:100D800097B3FFB2A9EB0709214003315FFA89FB52
:100D9000B946604F05EB810108234A46404606F0FC
:100DA00012FA37B109F108035A463946404606F0AF
:100DB0000AFA009B0AF1030A03EB9A030093D5F8A1
:100DC0001834002B50D1D5F81044DFF85C91072778
:100DD0006FE02A689A4204D86A60304605B0BDE8E0
:100DE000F08F04EA030081E74A49BB46D4E721407B
:100DF000033108234A4605EB8101D7E7012B69D16E
:100E0000BDF804604248C6F38311062928BF0621B5
:100E100061F3891602318900ADF8046006F091F99A
:100E2000C6F3C2068046002854D006F0B9F9002364
:100E3000082201A9404606F0C6F90027BDF80420A3
:100E4000C2F38312BB1C97424FEA8303B7D20099C7
:100E50004A1C21400331009205EB810104224046E7
:100E600006F0B1F90137E9E7404606F09DF9FFF7D2
:100E70001FFF80F00100C6B2AFE7E3685A79B2B154
:100E80001B79BDF8081003EB430259F8211007FA4B
:100E900002F3052E03EA010323FA02F308BF032637
:100EA000B34204D3236841461B6820469847E36851
:100EB0001C68002CE1D1404606F076F9204602F08D
:100EC000E1FFD5F818340BB9009B6B60002002F0ED
:100ED000DBFFCCE7D5F8104474B90F4B5B88012BCE
:100EE000C5D90E4B0E480F49C01AC008000440F087
:100EF000020000F073F8BAE7236820469B68984721
:100F0000E3681C68E8E7002667E700BFC808002020
:100F1000D0890400D408002038050020408804004F
:100F2000808804007C290400A40500202DE9F74FE7
:100F3000284C80460F46924601A9012218469B463E
:100F4000D4F80890FFF740FB88B3019D0026A91C48
:100F50005E4506EB010234D100211F4803F0E3F89F
:100F600080F310006A1C02EA090204EB820200040A
:100F700005EA0903033340EA1840D06014F823203F
:100F800068F3C50204F8232034F8232066F389129D
:100F900024F8232054F82320012167F39F2244F8EA
:100FA000232061F301026FF3820204F8232094F8F6
:100FB00020341BB1FFF786FE0028FBD103B0BDE84B
:100FC000F08F09EA020204EB82025AF82630D3605D
:100FD0000136BDE7C8080020E40C002000231A46B3
:100FE000FFF7A4BF13B502AC012344F8042D224639
:100FF000FFF79CFF02B010BD07B5CDE90023022327
:101000006A46FFF793FF03B05DF804FB1FB5CDE917
:101010000123069B039301AA0323FFF787FF05B073
:101020005DF804FB1FB5CDE90023069B0293079BE7
:1010300003936A460423FFF779FF05B05DF804FBCC
:101040007FB5CDE90123089B0393099B04930A9B79
:10105000059301AA0523FFF769FF07B05DF804FBBC
:101060002DE9F3478046304CD01C8A46174601A92B
:1010700000228008A568FFF7A7FA002840D0DDF815
:101080000490A66809F10200019001362840361A42
:10109000B6000330B74204EB80003BD83A465146D5
:1010A0003FF069F80021214803F03DF880F310007B
:1010B00009F101032B4004EB83034FEA184242EA93
:1010C0000040D86005EA0903033304EB830214F8F7
:1010D000231068F3C50104F8231034F823106FF3CC
:1010E0008F1124F82310518867F38F11518014F861
:1010F0002320022161F301026FF3820204F823200E
:1011000094F820341BB1FFF7DDFD0028FBD102B0BD
:10111000BDE8F087324651463FF02DF8BA1B0AEB86
:10112000060104F10C00BBE7C8080020E40C002015
:101130002DE9F8431F4B8846D3F8101405460024C8
:101140000A469AB9E9680C71D3F81014A1B9C3F82A
:101150001054EB681A60184F184EF61BF6084FF043
:101160000009B14511D12046BDE8F883D268107955
:10117000A04218D01268E4E7C968EA6809681160FB
:10118000D3F81034DB681D60E5E707EBC903494677
:10119000DA79EB68424528BF42461879FFF7DCFB55
:1011A00009F10109DDE701340A2CC9D14FF0FF3400
:1011B000D9E700BFC808002040880400588904000F
:1011C00038B5094A0123D2F8104482F820341D466C
:1011D00004B938BDE3685D71236820465B689847B1
:1011E000E3681C68F4E700BFC808002010B5037A64
:1011F000052B0C460FD0437A23B1084A08492046F4
:1012000005F085FB0749204605F081FB2046BDE837
:10121000104005F071BB002AF8D0F3E7032C04005E
:10122000503A04002A36040073B5C38804460D46BC
:1012300033B1144A00921449144A284605F067FB5A
:10124000217A05291CD0637A4BB1A088FFF76EFB89
:101250000F4B104953F82020284605F058FB227AFE
:101260000D4BA08853F822600021FFF73DFB0B498E
:1012700003463246284602B0BDE8704005F047BB41
:1012800002B070BD032C0400102C0400082C0400D4
:10129000D42B0400503A0400342C0400282C040001
:1012A0002DE9F04385B01F460C9D002306460C46F1
:1012B000904695F80C902B7329463846FFF7B4FFFB
:1012C000B8F1060F09D8DFE808F00412181F283318
:1012D00040003146284605F01AFB002229463846D0
:1012E000FFF784FF85F80C9005B0BDE8F083226815
:1012F0003146284605F00BFBEFE7D4E900233146E1
:10130000284605F004FBE8E7A36800933146D4E9DA
:101310000023284605F0FBFADFE7E3680193A368A2
:1013200000933146D4E90023284605F0F0FAD4E7CB
:1013300023690293E3680193A36800933146D4E9DB
:101340000023284605F0E3FAC7E76369039323699E
:101350000293E3680193A36800933146D4E9002324
:10136000284605F0D4FAB8E708292DE9F84F804659
:101370000E4617461C4635D8002593F80C901D7371
:1013800019461046FFF750FFDFF88CA0DFF88CB04D
:10139000AE4229D918F805205946204605F0B7FA7B
:1013A0000135082DF4D11A49DFF874B0204605F054
:1013B000AEFA4FF0000A564524D918F80A507E2D8F
:1013C00017D92E225946204605F0A1FA0AF1010A42
:1013D000BAF1080FEFD1012221463846FFF706FF88
:1013E00084F80C90BDE8F88F5146204605F08FFA3E
:1013F000D6E73EF091FE2844427812F0970FE0D0F5
:101400002A46DFE70349204605F081FADEE700BF00
:10141000FE2B0400F3620400F1620400F82B0400C8
:10142000002C0400074B1B5C1F2B86BF03F01F031F
:1014300005494FF0A041012202FA03F3C1F80C352F
:10144000704700BF802C040000030050074B1B5C5A
:101450001F2B86BF03F01F0305494FF0A041012257
:1014600002FA03F3C1F80835704700BF802C04006E
:101470000003005008B50020FFF7E8FF0120FFF748
:10148000E5FF0220FFF7E2FF0320BDE80840FFF779
:10149000DDBFC20710B504460CD54FF0A0430322B0
:1014A000C3F83427C3F83827C3F83C27C3F84027CC
:1014B000FFF7E0FFA3070AD54FF0A0430C22C3F8C3
:1014C0002C27C3F83027C3F86027C3F8642710BD62
:1014D000054B1B68082B01BF044B1868B0FA80F05D
:1014E000400918BF0020704730010010340100107F
:1014F00008B54FF080430022C3F80C21C3F8102137
:10150000C3F838254FF0805203F54043D2F8041455
:10151000C3F82015D2F80814C3F82415D2F80C1417
:10152000C3F82815D2F81014C3F82C15D2F81414E7
:10153000C3F83015D2F81814C3F83415D2F81C14B7
:10154000C3F84015D2F82014C3F84415D2F8241477
:10155000C3F84815D2F82814C3F84C15D2F82C1447
:10156000C3F85015D2F83014C3F85415D2F8341417
:10157000C3F86015D2F83814C3F86415D2F83C14D7
:10158000C3F86815D2F84014C3F86C15D2F8442497
:10159000C3F87025FFF79CFF10B1384B384A1A602A
:1015A000FFF796FF18B1374BFB22C3F81825FFF75A
:1015B0008FFF48B13449354B0A681B6822F00F028F
:1015C00003F00F0313430B60FFF782FF18B1304B9A
:1015D0004FF400721A604FF08043D3F80024D20712
:1015E00044BF6FF00102C3F800242A4AD2F88830C1
:1015F00043F47003C2F88830BFF34F8FBFF36F8F8F
:101600004FF01023D3F80022002A03DBD3F8043272
:10161000002B2FDA204B0122C3F80425D3F8002435
:10162000002AFBD04FF010221221C2F80012D3F88A
:101630000024002AFBD04FF010231222C3F804220A
:10164000154B1A46D3F800140029FBD00021C3F82B
:101650000415D2F80034002BFBD0BFF34F8F0D4997
:101660000E4BCA6802F4E0621343CB60BFF34F8FA6
:1016700000BFFDE70A4B0B4A1A6008BD8C560040BC
:101680004881030000F00040E40E004058020010C2
:101690004096024000ED00E000E001400400FA0541
:1016A000080000200090D0030D4930B5A1F50E725E
:1016B0000225914201D800200EE08B1ADB1093FB2B
:1016C000F5F302EBC30452F83330834205DC02DA4F
:1016D00004F10802EDE7606830BD2146E9E700BF8C
:1016E0001C34040008B5FFF7DFFF024B002808BFD9
:1016F000184608BD842C040013B502AC002304F87E
:10170000053D01939DF80330032B08D904210DEB0F
:10171000010006F0ADF930B9019802B010BD2046C5
:1017200006F09CF9EEE70020F7E708B500F07EFA36
:1017300000F07EF8002006F071F910B100F0CEF84C
:10174000FCE7FFF7D9FF3FF069F906F011FA10B98D
:1017500000F0C4F8FCE708BD08B500F0BFF8FCE7EE
:1017600062B6704772B67047FFF7C6BF08B51BF088
:1017700001F84FF47053584308BD0000034A431A60
:10178000934288BF0B1A1846704700BFFEFFFF7FC9
:1017900010B50446FFF7EAFF0444FFF7E7FFA04255
:1017A00004D9FFF7E3FFA042FBD810BDFFF7DEFF2F
:1017B000A042FBD3F9E738B50D4614465AB151B1F2
:1017C00048B106F019FA2946204606F0EBF910B99F
:1017D00000F084F8FCE738BDEFF30580003018BF57
:1017E0000120704700000000F7B54FF0805300253E
:1017F0001C6E596E04F0FF0745EA010206A5D5E903
:10180000004502A9224347EA050361E902230822B1
:101810003EF0B1FC03B0F0BD000000000036CEF495
:1018200000487047840D0020704705F0E3BC0000BD
:1018300008B516F07FFE48B9054B1B7813B9054B68
:101840001B781BB1BDE8084016F07ABE08BD00BF8A
:10185000E5010020E80100202DE9F84307460E4687
:1018600016F068FE58B1184C184BDFF86890DFF896
:101870006880E41AE408240444F003040EB9BDE8C7
:10188000F883D9F80000C0F10805B542A8BF354675
:101890002A46394640443EF06EFCD9F800202A44DE
:1018A000082AC9F800202F44A6EB0506E6D1084B0C
:1018B0005B88022B03D941462046FFF7D1FB00236A
:1018C000C9F80030DAE700BF30890400408804001E
:1018D00090050020D00D0020C80D002010B50C4C44
:1018E000226882B10B4B5B88022B0AD90A480B4B4A
:1018F0000B49C01AC008000492B240F00300FFF781
:10190000AFFB00232360BDE81040FFF7DBB900BF49
:10191000D00D00209005002030890400408804008C
:10192000C80D00204FF0102358694FF08053411C20
:101930001A695B6908BF03FB02F070470378022B4A
:1019400001D816F00BBE704710B5FFF7EBFF0A4C3D
:101950002061FFF7E7FF094B0949A0F54040E0602F
:1019600000222046C3F8082105F094F918B1BDE81B
:101970001040FFF7F1BE10BD64060020D40D00201A
:101980004C3F04004FF4804070470220704708B578
:1019900013460A4631B143B1014618463EF0EBFB0F
:1019A000002008BD6FF00A00FBE76FF00B00F8E7BE
:1019B0000128F8B507460C4616461D4612D80B44BA
:1019C000B3F5804F11D29AB1ADB1FFF7ABFFA4F5DB
:1019D000404101EB873101442A4630463EF0CBFBC3
:1019E0000020F8BD6FF03800FBE76FF01600F8E755
:1019F0006FF00B00F5E76FF00C00F2E70128F7B588
:101A000007460C4616461D4626D80B44B3F5804FB4
:101A100025D23AB3AB0828D0FFF784FFA4F54044A1
:101A200004EB8734044416F0A1FD07460028FAD1E0
:101A300016F08CFD214600972B4632460C4805F0E7
:101A400065F9044616F092FD0028FBD1201C18BF52
:101A50000120404203B0F0BD6FF03800FAE76FF0AC
:101A60001600F7E76FF00B00F4E76FF00C00F1E7FA
:101A70006406002001282DE9F041064626D8FFF72C
:101A800051FF00EB8630A0F54044DFF84C8004F5B0
:101A9000804716F06BFD05460028FAD116F056FD7A
:101AA0002B4601222146404605F0F0F988B916F090
:101AB0005DFD05460028FAD104F58054BC42E8D10A
:101AC000304616F05BFD2846BDE8F0816FF0380027
:101AD000FAE74FF0FF30F7E76406002010B5084C36
:101AE000D4F8083153B19BB22246D4F8041194F8CB
:101AF0000001FFF783FF0023C4F8083110BD00BFC9
:101B0000D40D00202DE9F8431C4C1E46D4F80831B2
:101B100081460F4690466BB194F80021824207D16E
:101B2000D4F804211A44914202D1B3F5807F01D147
:101B3000FFF7D4FFD4F8080118B984F80091C4F86D
:101B40000471C0F58075B54234BFADB235464DB1B4
:101B50002A46414620443EF00EFBD4F808312B447F
:101B6000C4F80831761BB6B216B93046BDE8F88322
:101B7000FFF7B4FF2F44A844DCE700BFD40D0020DA
:101B800007B50C4B18680090FFF7CCFE0422A0F5B7
:101B900080410DEB02003EF0EEFA042269460DEBA7
:101BA00002003EF0D9FAB0FA80F0400903B05DF8C7
:101BB00004FB00BF2234040070B506460D461446EF
:101BC000FFF7B0FEA4F57F543C3C32462946204442
:101BD000BDE87040FFF7DBBE0048704728340400C2
:101BE0000422032102708170002206214270C1701C
:101BF00042607047B0F5A27F01D116F0C1BC7047BA
:101C000008B5FFF7E9FF06F0A3FBFFF7E5FF06F0D5
:101C1000ABFB024B00221A7008BD00BFE00E002093
:101C2000014B1878704700BFE00E00201FB502A8D6
:101C3000FFF7D6FFFFF7D0FF104A02A906F00CFB12
:101C400008B1FFF789FDFFF7C7FF0368D3F8104518
:101C5000FFF7C2FFE2B24FF47031012421FA02F221
:101C600002232146009406F0DCFBFFF7B5FF06F0E7
:101C700061FB034B1C7004B010BD00BFF51B0000DE
:101C8000E00E002008B5084B1B780BB9FFF7CEFF1C
:101C9000FFF7A2FF06F090FB28B9FFF79DFFBDE814
:101CA000084006F047BB08BDE00E00202DE9F14FCB
:101CB0001C4600F10803C91AC9B2054693469DF8AF
:101CC00028609DF82C70BDF83080BDF83490DDF8A8
:101CD00038A015F0EFFF022C05D0032C13D0D4B997
:101CE0004FF6FF7101E0BBF800100A970023CDE921
:101CF0000DA3224633462846CDE90B8901B0BDE845
:101D0000F04F1BF03BBC584615F084FC4FF6FF73B8
:101D10009842014605D1284601B0BDE8F04F15F0C4
:101D2000DBBE0224E1E70000024B0020C3F80005FF
:101D3000704700BF00A0025038B50A4B00251D6057
:101D4000BFF35F8F084C0123C4F800353EF04CF917
:101D5000C4F8005520B1052848F2035018BF0320ED
:101D600038BD00BFE056002000A002501FB5002182
:101D7000039001AA44F20100CDE901110EF0CAF965
:101D800005B05DF804FB000012F0030310B511D19B
:101D9000094C22604C1CE400A4B22244074C22608F
:101DA000074A1370074A1370074A1080074A1846FB
:101DB000118010BD0720FCE7E80E0020E40E002093
:101DC000E10E0020F00E0020EC0E0020EE0E0020B0
:101DD000F8B5124C124D264622782B789A4200D143
:101DE000F8BD23780F48104A078812680F48DBB205
:101DF00019B202EBC10C006852F83120BCF8041093
:101E000003FB070090470A4A23781288DBB29A4204
:101E100086BF0133DBB200233370DDE7F00E002014
:101E2000E10E0020EC0E0020E80E0020E40E002061
:101E3000EE0E0020094A537891780133DBB29942C3
:101E400008BF0023117899421FBF037050781823F0
:101E500003FB002014BF043000207047F40E002064
:101E600037B5044600200D4602F00CF80DF10700CE
:101E7000FFF7E0FF90B10570094B9DF80720446023
:101E80005A700024002001F0FFFF24B9054B4FF4E5
:101E90008012C3F80021204603B030BD0424F1E7CE
:101EA000F40E002000E100E0024B4FF43C6043F0F0
:101EB000010318473034040038B50C4B0C4C4FF478
:101EC0000032C3F8802001254FF48033C4F8483332
:101ED000C4F808336560FFF7E7FF064BA5600024F0
:101EE0001C60FFF7E1FF044B1C7038BD00E100E00F
:101EF000001001401010002001100020F8B51F490B
:101F00001F4B0025C1F84051C1F84451C1F8485158
:101F1000C1F84C51C1F80051C1F804511B684BB3D2
:101F2000D1F8044517490968641A24F07F442F4604
:101F30001A68A24209D8A41A15441A7CDE691AB19B
:101F40001F74D3E905209047AEB90F4B0F4A19789B
:101F500013788B4205D10133DBB2022B08BF00237B
:101F6000137012780A4B43F822500A4B4FF4801238
:101F7000C3F80021F8BD3346DAE700BF0010014086
:101F800014100020101000200C1000200D10002054
:101F90000410002000E100E02DE9F74F9E4A9F4920
:101FA000137809789E4D99423CD00133DBB2022B65
:101FB00008BF002313709B4912789B4B0F6853F89E
:101FC00022003B1823F07F4300220B602B6816464B
:101FD0001446944613B942B12B6006E01968814259
:101FE0000ED902B12B60091A19604FF001082B6855
:101FF000DFF83CA200930027BEB9DFF83CB260E0F6
:10200000401A0C44D968C3F800C0D3F81CE031B1C1
:102010003A1922F07F42C3E90121DE611E46012206
:102020007346D7E70026B046E1E73446F6697D4AB5
:1020300063681268DFF804C2A068991A21F07F4132
:10204000614500F2A58001442160012222742A68C2
:102050000023C4E90133E361002A40F0A2802C6030
:10206000CAE75A1C9BF80210D2B291428BF80020AA
:1020700004BF00228BF80020182202FB03B32A6859
:1020800019799C68022974D003297ED0012918D1BE
:10209000217CB1B9DA6862601A69A2605A69E260AB
:1020A0009B69A361614B1B78002BC0D06160BEE7C8
:1020B0009C4200F093809946DB69002BF8D1002305
:1020C00023749BF800309BF801209A42C9D12B68F9
:1020D0002FB9009A934202D1B8F1000F43D0002BE0
:1020E00079D0D3F800A0524D4E4BD5F804751C683A
:1020F000DFF84C813E1B98F8003026F07F4603360F
:102100009BB94FF48033C5F84433C5F80433494BC9
:102110004FF400324FF00109C3F880211A60C5F86E
:102120000090FFF7C1FE88F80090B2452CBF5444E0
:10213000A41924F07F44C5F84045D5F80435DB1BCD
:1021400023F07F43E41B033324F07F44A3420AD9E6
:10215000D5F80435C5F84035FFF7A6FE354B4FF4EA
:102160000032C3F80021314B00221A7003B0BDE8E1
:10217000F08F13469146A0E71174D2690123002A1B
:10218000FAD1002B9DD02A609BE700231946F6E781
:10219000D31A23F07F43834234BFC31A0023236042
:1021A00053E721681368994213D8591A1160E26104
:1021B00055E7091AD8691A4638B1034618688842A3
:1021C000F7D3401A1860184613462160E061DC61BD
:1021D00012E71346F2E7FFF76FFEC4E74C450DD157
:1021E000D3692B6053B90F4801920121CAF8081036
:1021F00003600E4B1970FFF757FE019AE1692368DF
:10220000C9F81C1011B1086803440B602B689A428E
:1022100018BF012753E700BF0C1000200D1000204D
:1022200014100020101000200410002000100020C6
:102230000010014000E100E0F40E0020FEFF7F00EE
:102240000110002008B5FFF737FE104B00200B22CD
:1022500018809A700E4B18600E4B18700E4B187049
:102260000E4B4FF48012C021C3F8802183F8141361
:102270001A6002F18042A2F56F22C2F8080583F8C5
:102280001113074BD2F804251A6008BDF40E002084
:10229000141000200C1000200D10002000E100E0C0
:1022A00010100020074B9B784BB132B128B1036866
:1022B000187C20B959745A6170470720704708206C
:1022C000704700BFF40E00202DE9F3411C4EB37897
:1022D00004460D4617468BB380B304292CD94369B5
:1022E00063B3437C0020012B0CBF88464FF00008ED
:1022F00001F0C8FD0DF10700FFF79CFDD0B10123EF
:102300000370104B4460D3F80435C0E90487C0E97A
:1023100002359DF8073073700024002001F0B4FDF1
:1023200024B9094B4FF48012C3F80021204602B0B3
:10233000BDE8F0810424F0E70724F7E70824F5E777
:10234000F40E00200010014000E100E0064A9278FF
:102350003AB130B1426922B1002202740221FFF782
:102360007FBD0820704700BFF40E002043681B6843
:1023700018470000024B5B6803B11847704700BF65
:1023800018100020020600F00F034CBF024803485B
:10239000DB001844704700BF241000206C100020A0
:1023A00008B5FFF7EFFF016009B9416008BD4B6850
:1023B0001B684360FAE70000024B01465A68186840
:1023C000104700BF6C1000200378052B0CD1084A81
:1023D000D2F88434D2F8802412F0FF0F04D1054AD9
:1023E000DBB2052B08BF1046034B1B68184700BF24
:1023F000007002405034040018100020012806D05C
:1024000002D3022805D070470348FFF7DDBF034819
:10241000FBE70348F9E700BF4434040048340400F4
:102420004C340400FFF7D0BF0148FFF7CDBF00BF19
:102430005434040038B5831EDBB2062B98BF194A0A
:10244000194C98BFD25C2378A3F10203DBB288BF9A
:102450000022062B9ABF1349CB5C0023934205460A
:1024600003D0A2B1114805F063FA022D01D0082D66
:1024700010D101232278022A01D0082A0CD101228E
:102480009A4202D053B107F09BFA257038BD05F08F
:1024900079FAEAE70023EDE70022F1E707F086FA90
:1024A000F3E700BF36340400BD1000200C0000200C
:1024B0002DE9F04F87B006AC002644F8106D0546B4
:1024C0008946924698466B6800225F682946012338
:1024D0002046B84740B98DF80600049004460746E8
:1024E000BE4203D805202AE00136ECE76B680DF107
:1024F0000602D3F804B02946012304A8D8476B6824
:102500000DF10702D3F804B02946012304A8D847E7
:102510009DF807304B459DF8063015D1544511D133
:10252000109A136088F8003088F801906A68023BBE
:102530005468294608F1020204A8A047002007B009
:10254000BDE8F08F0134E4B26A68023BD2F804B00F
:102550002946002204A8D8479DF806301F44BFE74B
:102560002DE9F74305462E4807F040FA04460028B7
:102570003AD12C4B18702C4B18602C4B014618602C
:1025800048222B483DF01BFE4822214629483DF0B9
:1025900016FE294B65BB294A1D72C3E900251A683E
:1025A0000AB9264A1A60002005F000FA18B18528F9
:1025B00001D0FFF7DBFB224E96F80890002506F1CC
:1025C0000908ECB2A14504D904EB440414EB080457
:1025D00023D102A90B2301F8043D1948FFF7C6FED9
:1025E000044608B107F0C2F8204603B0BDE8F08306
:1025F00095E8070083E80700D1E73146E05CFFF784
:10260000CFFE6378FAB2934205D9A3781344DC4233
:1026100007F10107F1D10135D3E70027F1E700BF4A
:1026200025240000BD100020B4100020B8100020A8
:10263000241000206C1000201810002071290000C8
:102640008034040010B507F065F908B9082010BD02
:1026500007F068F904460028F8D1044805F0C1F9EC
:102660000028F4D0FFF782FB2046F0E74034040056
:1026700007F086B807F044BD4FF08043D3F8382404
:10268000920702D50348FFF79FBED3F83824D1073D
:10269000F4D470475534040007B502A8822300F82B
:1026A000043DFFF791FE03B05DF804FB2DE9F34113
:1026B000037A00F109040325064615FB0345274666
:1026C000AC4231D01CB394F80180002106E0E05CFC
:1026D000FFF758FE03680131002B36D1CBB2984585
:1026E00003D9A3780B44DC42F1D10334E8E7314647
:1026F000E85CFFF755FE6A785FFA88F39A4205D9DD
:10270000AA781344DD4208F10108F0D10134337A8C
:10271000E5B2AB4203D905EB45057D1901D10C4B60
:1027200005E04FF00008E6E70024F0E713681A68B8
:10273000002AFBD102A91E600B2301F8043D30469C
:10274000FFF714FE02B0BDE8F0811120FAE700BFE8
:10275000B4100020024B1878003018BF01207047D9
:10276000BC10002000F00F03072B10B5044604D85E
:1027700007F05CFA204607F081FD2046BDE81040D6
:1027800007F030BD07F0FCBC014B1868704700BF74
:10279000B410002070B50A4B1B687BB11E7A002272
:1027A000D5B2B54201D31B68F6E7013202EB420411
:1027B0001C44A4798442F3D101B10D70184670BD58
:1027C000B41000201146FFF7D1BD08B500F00F038B
:1027D000082B07D8FFF7D6FD006818B1BDE8084000
:1027E000FFF7C4BD102008BD38B5054B05461C6871
:1027F00004B938BD29462046FFF7B8FD2368F6E73F
:10280000B410002038B5074B05461C680CB90620EB
:1028100038BD29462046FFF7A9FD0628F8D12368D0
:10282000F3E700BFB410002038B504460D4607F0AA
:102830001EF948B1054B1B78022B05D129462046CD
:10284000BDE8384007F016B9082038BDBD1000209B
:1028500038B504460D4607F00AF948B1054B1B7818
:10286000022B05D129462046BDE8384007F074B94F
:10287000082038BDBD100020F8B543689B680546A8
:102880000C46164613B92EB1072002E098470628D9
:10289000F9D0F8BD2B7AA34213D9093504EB4404CF
:1028A0002C446778F3B29F4201D80020F1E76278A8
:1028B0009A4208D9A219A378D05CFFF753FF0136DA
:1028C000F0E77378FFDE00231B78FBE770B5436801
:1028D000DB6805460C4603B198472B7AA34213D90F
:1028E000093504EB44042C4400256678EBB29E4283
:1028F00000D870BD62789A4209D96219A378D05C79
:1029000007F03EFC0135F1E700235B78FFDE002392
:102910001B78FBE743681B6903B1184718467047EB
:1029200070B5084B1C6804B970BD267A0025E9B261
:10293000B14201D32368F5E700222046FFF79CFF50
:102940000135F4E7B410002070B5084B1C6804B9D9
:1029500070BD267A0025E9B2B14201D32368F5E7BC
:102960002046FFF7B3FF0135F5E700BFB4100020A4
:1029700038B50478092C054620D023D8032C00F064
:10298000BC8012D8012C00F0A68040F28D8003207C
:10299000FFF750FD0220FFF7EDFC2846FFF724FF6C
:1029A0002846BDE83840FFF707BD052CF8D0C0F039
:1029B000B380062C00F0BF80082C13D12046FFF70F
:1029C000D9FC95E0812C0ED005D80F2CF6D0802CA8
:1029D00044D00A2CF1E7832C4CD021D3842C53D043
:1029E000852CDDD038BD5E48FFF7E6FC5C48FFF77C
:1029F000FBFE0D20FFF7BEFCFFF7A6FF00F051FF26
:102A0000584B1B6853B9584B187A00F0010006F078
:102A100057FF0120BDE83840FFF70CBD0120F4E767
:102A2000FFF792FF07F04EFB0020FFF703FD4F4832
:102A3000FFF7DAFE4D48FFF7BFFC0E20FFF79AFCC8
:102A40004B4B1B78023BDBB2062BCBD8494AD35CFD
:102A5000002BC7D0BDE8384004F094BF444B1B782E
:102A6000062B05D0072B01D0052BBBD10220D1E7C7
:102A70000820CFE73E4B1B78032BB3D107F05AFB5E
:102A80000028AFD00420C5E7394B1B78032B05D1B4
:102A900007F050FB10B10420FFF7CCFC06F05AFF02
:102AA00000289FD00620B5E7314B1B78032B01D0BF
:102AB000082B02D13048FFF75BFF0020FFF75AFCDC
:102AC000284B1C68002C8DD020462946FFF74EFC71
:102AD00023685C68F6E7FFF737FF00F0D9FE0220B5
:102AE000FFF7A8FC2046FFF745FC2846FFF764FCEB
:102AF0002846BDE83840FFF777BE1D4B1B78082BF2
:102B000006D10220FFF796FC06F064FF0320EAE7F7
:102B10000520FFF78FFCF9E70320FFF72BFC174890
:102B2000FFF74AFC1548FFF75FFE114B1B78062B99
:102B30009CD107206EE78078FFF724FC2946436884
:102B40000068984700283FF44DAFA87800F00F03C5
:102B5000013B062B3FF646AFBDE8384007F040B8D2
:102B600056340400B8100020181000205734040018
:102B7000BD100020363404005834040059340400D9
:102B8000C36903B118477047036800221A845A6268
:102B9000DA62C3E91E22C3E9202203F134025A6734
:102BA00070474360CA699A4227BF8A69026001F18F
:102BB0002802026026BF0B67CB618B67002070473D
:102BC000F0B5BE4D0C7A2C70046840F21E36B4424B
:102BD00000F0CD8200F2DD80B4F5407F00F042824B
:102BE00070D8B4F53C7F00F0008226D840F2ED2684
:102BF000B44200F0DF810AD8002C00F0C981B4F59E
:102C00003B7F00F0CD81002303601846C7E140F20E
:102C1000EE26B44200F0DC8140F2EF26B442F2D15D
:102C200000240AB106791655013402269C42067129
:102C3000C0F0DC814FF43C73AFE140F2F326B442C4
:102C400000F0EC81B4F53D7F15D240F2F126B4429C
:102C500000F0D78140F2F226B442D4D100240AB168
:102C600006791655013400269C420671C0F0D781C2
:102C700040F2F32391E140F2FA26B44200F0E581FC
:102C800040F2FB26B442BED100240AB106791655A3
:102C90008B4E0F7A3678DFF82CC2B74204F101046C
:102CA00040F2558301F1090706EB460607EB060ED5
:102CB0009C42BE5DCCF800E00671C0F0D4814FF4B8
:102CC00040736AE140F20D36B44200F00A8239D80E
:102CD00040F20636B44200F0E0811DD840F20136E1
:102CE000B44200F0CB8140F20236B4428BD10024D2
:102CF0000AB106791655734E0F7D36683678B7429D
:102D000004F1010440F0E28102269C420671C0F009
:102D1000C58140F2063340E140F20736B44200F08C
:102D2000C881B4F5427F7FF46EAF00240AB1067902
:102D3000165501340026A342067100F2EC8140F2E0
:102D400016332AE140F21636B44200F0E38108D887
:102D500040F20E36B44200F0D08140F20F36B44259
:102D6000E1E7B4F5477F00F0EA8100F2F48140F238
:102D70001B36B4427FF447AF00240AB106791655DA
:102D8000013424269C420671C0F0DA814FF4477367
:102D900003E1B4F54C7F00F054826BD840F2263644
:102DA000B44200F01C8232D840F22336B44200F024
:102DB000FD81B4F5497F16D240F21F36B44200F0CF
:102DC000E28140F22236B4427FF41DAF00240AB102
:102DD00006791655013424269C420671C0F0E7811D
:102DE00040F22333D9E000F0ED8140F22536B442C1
:102DF0007FF409AF00240AB10679165501348E7D9F
:102E000006719C42C0F0EC8140F22633C5E040F2EE
:102E10002B36B44200F0FC81B4F54B7F16D240F261
:102E20002936B44200F0E78140F22A36B4427FF4FA
:102E3000EAAE00240AB106791655013402269C42F6
:102E40000671C0F0E68140F22B33A6E000F0EC8181
:102E500040F22F36B4427FF4D6AE00240AB1067990
:102E60001655013424269C420671C0F0EB814FF4C4
:102E70004C7392E0B4F5537F00F0288248D840F2BA
:102E80003336B44200F0F681B4F54D7F1CD240F2E7
:102E90003136B44200F0E18140F23236B4427FF480
:102EA000B2AE00240AB10679165501348E7D067142
:102EB0009C42C0F0E08140F233336EE0C01000204D
:102EC000BF100020C410002040F24736B44200F08A
:102ED000F081B4F5527F7FF496AE00240AB10679F2
:102EE0001655AF4EAF4F36683F7896F801C0BC45D7
:102EF00004F1010440F2308296F802C03E449C4244
:102F000016F80C600671C0F0E2814FF4537344E090
:102F100040F25D36B44200F0F98115D840F25136E6
:102F2000B44204D040F25636B4427FF46CAE002472
:102F30000AB10679165501344026A342067100F203
:102F4000E68140F25D3328E040F26336B44200F09F
:102F5000F481B4F55A7F00F0F08140F25E36B4425D
:102F60007FF451AE00240AB1067916558C4E0F7DC0
:102F700036683678B74204F1010440F0D4810E6A15
:102F80009C4236780671C0F0D98140F2633304E088
:102F90000824047123B94FF43B7303600120F0BD92
:102FA0000AB1047914700B24012B04710ED840F27D
:102FB000ED23F2E700240AB10679165501340E7D9F
:102FC00006719C4205D340F2EE23E6E70124F2E7C6
:102FD00000240AB106791655013402269C42067176
:102FE000FFF41FAE40F2EF23D7E700240AB10679C1
:102FF0001655013402269C42067103D340F2F12398
:10300000CBE700240AB10679165501344E7E0671CD
:103010009C42FFF424AE40F2F223BEE700240AB142
:1030200006791655604E0027013437705E4E3778AA
:103030002E78B74202D340F27333AEE70926A3429B
:10304000067103D840F2FA23A7E700240AB10679F3
:103050001655013404269C420671FFF416AE40F268
:10306000FB239AE700240AB106791655013400269D
:103070009C42067103D340F201338EE700240AB16B
:1030800006791655464E36680134767806719C42AC
:10309000FFF42EAE40F202337FE700240AB1067936
:1030A0001655013402269C42067103D340F20733C1
:1030B00073E700240AB10679165501344E7E067175
:1030C0009C42FFF433AE4FF4427366E78F7DB74204
:1030D0007FF430AE0A269C42067103D340F20D33D2
:1030E0005BE700240AB106791655013400269C429C
:1030F000067103D340F20E334FE700240AB106797C
:103100001655013400269C420671FFF40FAE40F2C2
:103110000F3342E700240AB106791655204E0F7D81
:1031200036683678B74204F1010440F0A8800526DD
:103130009C420671FFF421AE40F21B332DE70024C0
:103140000AB106791655013400269C42067103D354
:1031500040F21D3321E700240AB1067916550134E7
:1031600010269C42067103D340F21E3315E700245B
:103170000AB106791655013401269C42067103D323
:1031800040F21F3309E700240AB1067916550134CD
:1031900005269C420671FFF41AAE40F22233FCE68B
:1031A000C4100020C1100020BF10002000240AB16C
:1031B00006791655013401269C42067103D34FF45B
:1031C0004973EAE600240AB106791655013403264C
:1031D0009C420671FFF40FAE40F22533DDE6002479
:1031E0000AB106791655013404269C42067103D3B0
:1031F00040F22933D1E600240AB10679165501348C
:1032000024269C420671FFF415AE40F22A33C4E630
:1032100000240AB106791655013402269C42067133
:1032200003D34FF44B73B8E600240AB10679165560
:10323000013405269C420671FFF410AE40F22F3394
:10324000ABE600240AB106791655013406269C42E5
:10325000067103D340F231339FE600240AB10679A8
:10326000165501340E7D06719C42FFF41BAE40F2F0
:10327000323392E600240AB1067916550134374EEE
:1032800036687778364E3770364E00273770354EB1
:103290003778334E3678B74204D3334F3E78013611
:1032A0003E70C3E60726A342067103D840F24733B7
:1032B00073E600240AB106791655013405269C42AE
:1032C0000671FFF40BAE4FF4527366E600240AB1A8
:1032D00006791655214E0F7D36683678B74204F1CF
:1032E000010407D103269C420671FFF421AE40F28F
:1032F000513352E68F7DB7427FF41EAE02269C42C8
:103300000671FFF415AE40F2563346E600240AB1CA
:1033100006791655013400269C420671FFF423AE4F
:1033200040F25E3339E68F7DB7420BD100269C42D6
:10333000067103D34FF45A732FE600240AB10679BD
:1033400016550134074F3E7801363E709FE7002343
:10335000CCF800301B78FFDE0023FBE7C410002010
:10336000BE100020C1100020BF1000204360CA69B9
:103370009A420ED38A6902608A69C8691A448A61CE
:103380000A6FC01A1A44C86100300A6718BF0120CA
:10339000704701F1280202608B670020704710B56A
:1033A000044658B90868037B202B09D100F10E01AF
:1033B000072218303CF0DFFE204610BD0320FCE75A
:1033C0000620FAE7037A012B08D9427B012A00F193
:1033D0000C0306D9827B13445878704700235B782E
:1033E000FFDE00231B78FBE72DE9F0430B7889B063
:1033F00005460E460E2B17D8DFE803F00A080A0A26
:10340000160CA1161608160A0A0A0A00FFF7BCFBDA
:10341000002427E04A78D1094FEA521330D013F044
:10342000030303D0012B21D006241BE002F01F026E
:10343000012AF9D1B478062CF6D105A8039300F03F
:10344000ADFC03ABF278317900930746034628467A
:10345000FFF72EF8052805D0039A3946701C00F0B6
:103460003BFA0446204609B0BDE8F083B378212B2F
:10347000DAD1B6F80720072AD6D101681831EDE76E
:10348000012BD1D1B3780768202B36D0222BCBD19A
:10349000B6F80730002BC7D197F82030B6F80340B4
:1034A0003C8403F0010304F00104A342B0D0A4B2B1
:1034B000002C0CBF03210221FFF762FB002CA7D1D7
:1034C0002B7A012B40F2D6806B7B05F10C02002B8E
:1034D00000F0D280AB7BD05C06F0D6FC2846FFF72C
:1034E00071FF06F0D1FC07F134037C62FC62C7E98E
:1034F0001E44C7E920447B67B4E7B6F80720072AD3
:1035000092D13B73B6F807300024DBB27B732046C0
:103510000E37CDE90573079400F0B4FC204605A9E9
:10352000FFF782F9044630B9554B03A9CDE90335BD
:1035300000F0C0F90446002000F0A6FC92E7037AF0
:10354000002B00F09B80837A00F10901002B00F032
:103550009380C27AB3788A5C9A423FF459AF1B06D3
:10356000F4780AD524B1032C0CBF0024032479E796
:1035700001212846FFF704FB74E7012C3FF448AF14
:1035800004D3032C3FF444AF03246BE70668FFF732
:1035900019FF3C4B059306F10C030693B76A80466E
:1035A000B7B9F36FF46AB767C6E91F736CB106F178
:1035B0002C0103C906F1240383E80300F76205A97F
:1035C0004046FFF745F9044600E074620021D0E769
:1035D000D6F88490706A4F4528BF4F4606F13404F0
:1035E0003A4621463CF0C7FDF36F3B44C6F88030B5
:1035F000A9EB0703B367F36A00223C44F2677467E0
:10360000002B35D006F12C0999E8030006F12407B8
:1036100087E803001446F262B36F706A1BB9746ADC
:10362000002CCCD1D2E7B26A716F9A4216D83CF026
:10363000A2FDB36AB26FC6F88030D21AB267726F59
:103640001A44726700212846FFF79AFAF36A7BB1A1
:1036500099E8030087E80300F462DDE71A463CF0CE
:103660008AFDB26FB36AF2679B1AB362736A13443E
:103670007362D4E76378FFDE1B78FCE75B78FAE7D8
:103680009F3300006D3300001FB503681B8CDC07FF
:1036900014D5037A012B13D9437B00F10C0493B1A9
:1036A000837BE05C9306CDE901120CBF012300236C
:1036B00001A90393FFF7B8F804B010BD0820FBE799
:1036C00000235B78FFDE1B78FCE70368D3F88000FB
:1036D000704700002DE9F3410468238CDB070646A0
:1036E0008846174631D5002000F0CCFBA56FBDB150
:1036F000BD4228BF3D46616F2A4640463CF03BFD37
:10370000A36FC4F880505B1BA367636F2B44636790
:103710000024002000F0B8FB204602B0BDE8F08194
:10372000636A83B9C4E909873046FFF74BFE0C345E
:10373000074B019469460093FFF78AF8002814BFED
:1037400004469224E5E71124E3E70824E4E700BFF8
:10375000A32B0000002070472DE9F04F87B04B6885
:10376000029281460C465BB90B681B681B683BB92B
:103770008D682DB9C0E90055284607B0BDE8F08F27
:1037800006F02AFAE768029B9F4228BF1F464FF0C7
:10379000000804F110038346019746460125039370
:1037A000019B002B2DD0A368019A616893429A4631
:1037B00028BF924641B352460BEB06003CF0DBFCBF
:1037C00000236360A268E3680199A2EB0A02A3EBFD
:1037D0000A03A1EB0A01A260E360019156440ABB0F
:1037E000B8F1000F38D02268126812682260002BEE
:1037F00030D02368D3B963601EB1029BB34288BF47
:103800000025C9E900B6B7E7002BDBD02168039893
:103810004B680BEB0602D3F804805346C0474FF0C9
:103820000108CFE7002B08BF0025B9E70DF1180A02
:1038300000234AF8083D21684B685B6800221F4658
:1038400050460123B84708B92061A9E7A3680133AE
:10385000A360F0E71D46A3E7002BCAD145469FE7CA
:10386000084B1A7882420CD0052818BF064A1870F7
:1038700018BF137805481CBF23F002031370FFF72D
:1038800077B87047D4100020F01000209034040066
:1038900008B50020FEF766FF8020BDE80840FEF76F
:1038A00061BF08B50020FEF76DFF8020BDE808402D
:1038B000FEF768BF38B505460C4606F033FAA84255
:1038C00003BFD4E90001034BC3E90001102008BF86
:1038D000002038BDF41000207FB5C38893421D46F8
:1038E00028BF154693420E46144620D9802006F084
:1038F000B9F8B4FBF0F303FB1040B0FA80F04009D4
:1039000003900020CDE9016500F0BCFA01A98020F8
:10391000FEF78AFF044620B906498020FFF7CAFF58
:103920000446002000F0B0FA204604B070BD00202C
:10393000E6E700BFC43404002DE9F04F0C78062CF4
:1039400087B00E4600F0FC8120D8022C3DD003D871
:10395000012C32D00624EDE1032C32D0052CF9D114
:103960000DF10D00B04D8DF80C4006F06FF90023FD
:103970002B609DF80D3003F01F02032A00F28481B2
:10398000DFE812F02D001D01790165000D2C00F01B
:10399000C58107D80B2C18D00C2CDBD10020FFF7E9
:1039A0005FFF12E00E2C00F0C981852CD2D19F4B15
:1039B0001B78032BCED1042000E00320FFF750FF3B
:1039C000C8E79B4800F001FC08B90024B2E1994B1C
:1039D00001221A60BFF36F8FBFF34F8FF5E7C3F378
:1039E0004116A6BBDB099DF80E1000F0A280062947
:1039F00016D0082900F0908049BB8F4C0222204647
:103A00003CF0DDFB237843F0010222708B4A1278F0
:103A1000910744BF43F003032370022286490EE05E
:103A20009DF81030022B16D0032B65D0012B0ED140
:103A3000BDF81330002B00F06E81814912220DF188
:103A40000D00FFF749FF0446062C40F0258103A82E
:103A5000FEF7D8FE0DE1BDF81370002F00F05B817A
:103A6000092F28BF0927FEF78FFE4FF009080446EB
:103A7000B14654BB704C73493A4620463CF07BFB40
:103A80002671A4F80280FEF765FE18B1E37943F0D1
:103A90002003E371FEF778FE6B4BC3E900049F60DF
:103AA000BDF81320DA60002000F0ECF967498020AF
:103AB000FEF7CEFE044620B965498020FFF7FAFEE6
:103AC0000446002000F0E0F9BEE7CDF804904FF086
:103AD000000A63680022D3F804B02146012301A83C
:103AE000D84730B9237A1E442368D044F6B21C6804
:103AF000BFE70AF1010AECE7BDF81330002B00F034
:103B00000A81BDF811109DF80F0000F095F90146EB
:103B100000289CD0027892E7444A1278052A03D103
:103B2000454A1370012279E7042A90D1424B1E7056
:103B3000F8E703290FD009292BD0012987D1BDF837
:103B40000F30012B83D1FEF705FE60B13B4A13789D
:103B500023F002030FE0BDF80F30012B7FF477AFA5
:103B6000FEF7F8FD18B90F2406F0D9F8E2E0334A61
:103B7000137843F0020313702B68002B00F0CB8006
:103B800006F0D0F8044600287FF41FAF06F084F852
:103B9000D0E0264B1B78043B012B01D90824E3E736
:103BA0009DF80F302BB9FEF7CFFE0420FFF758FE2B
:103BB000E2E7012B56D1FEF7B3FE0520F6E701A997
:103BC0009DF81100FEF7E6FD074608B91024CBE783
:103BD00003AA9DF80410FEF7F5FD062804465BD104
:103BE0009DF80D2012F0600FBED1104B9DF804100F
:103BF00018789DF80E30D6092CD073B10A2BB3D1AA
:103C00000528CBD13846FEF785FE0B4932460870B1
:103C10000DF10D00FFF760FE2BE00528BED106492F
:103C20000B800222F4E700BFF4100020D410002023
:103C3000FC1000205C70024000110020F0100020F9
:103C4000B034040091340400D8100020DC340400A7
:103C5000C43404000B2B87D105289FD1BDF80F3049
:103C6000FF2B01D907247FE79DF80F203846FEF788
:103C700003FE044610E09DF81100020706D19DF8EE
:103C80000D3013F0600F0BD006246DE703A9FEF78B
:103C90009CFD06280446F2D0002C3FF46DAF63E78C
:103CA0009DF80E20384B9DF811401B78012A1ED03C
:103CB00012D3032AE8D104F00F02072AE4D8BDF892
:103CC0000F100029E0D1052B02D0002A7FF466AF47
:103CD000204605F085FF4FE7052B02D023077FF430
:103CE0005DAF204605F088FF2849088099E704F079
:103CF0000F02072AC8D8BDF80F100029C4D1052B20
:103D000002D0002A7FF44AAF204605F08FFF2046FC
:103D100006F0B4FA30E705F0FFFF56E64FF08043B7
:103D2000D3F8384414F0010401D0022037E6012012
:103D3000FFF796FD204607B0BDE8F08F01202EE684
:103D4000C8780328F6D0124D2B68DBB100222A6018
:103D500069689847044600287FF406AF2B6823B1B2
:103D6000B378002B7FF431AE10E70A4B1B68082BA9
:103D70007FF42BAE084B1B68002B3FF426AE05F0FA
:103D8000CBFFD7E70E24EFE6D4100020001100206F
:103D9000F4100020300100103401001008B140235D
:103DA00003600148704700BF0011002070B54FF05C
:103DB000805286B0D2F8A830D2F8A42000926FEAE0
:103DC00083436FEA934302AD9BB2094A094E0D212A
:103DD00028463CF07BFE002428463CF039FF844214
:103DE00001D306B070BD2B5DA3550134F4E700BFCD
:103DF000E4340400E456002010B50E4B53F8204084
:103E000023780BB9A01C10BD0020FFF7C7FF224686
:103E1000E4B2131B12F8011BDBB231B901335B00B2
:103E2000DBB243F440730380EDE7131BDBB220F8F1
:103E30001310EEE73C35040008B9FFF7DDBF052895
:103E400007D8054A105C20B1044B53F82030002BF2
:103E5000F3D10020704700BF543504003C35040006
:103E600072B6024A13680133136070474011002094
:103E7000034A1368013B136003B962B6704700BF81
:103E800040110020FFF7ECBFFFF7F2BF38B50B077A
:103E900004460FD53CF040F9651C435D03F0030375
:103EA000012B07D13CF038F9435D03F00303012BEC
:103EB00008BF2034204638BD2DE9F04F87B08A4630
:103EC00014460293064618B9012007B0BDE8F08FEA
:103ED0000029F9D0029B002B00F0138102F00403AB
:103EE0000D46049321463078FFF7D0FFC7B23F2F2D
:103EF00006F1010823D00BDCD7B12A2F38D0214698
:103F00002878FFF7C3FF874205F101061FD0DBE7E2
:103F10005B2F7DD05C2FF2D1E307F0D4214670787F
:103F2000FFF7B4FFC7B2002FE9D006F10208E6E7B9
:103F3000E106287839D52F2837D10020C5E72B781E
:103F4000002BC1D02F2B05D1A207BDD46E1C354646
:103F50004646C7E72E2BF9D1049B002BF6D05545DA
:103F6000B2D0A307F2D515F8013C2F2BEED1ABE769
:103F700070782146FFF78AFFC1B22A2919D02B7821
:103F80002E2B09D1049B3BB155459DD0A70703D5E6
:103F900015F8013C2F2B97D079B9A607CDD5E406AB
:103FA000CBD42F2128463CF034FE003018BF01202E
:103FB0008BE7214618F8010FDCE72F291FD0029B61
:103FC00024F004095F1E04F0020AAB4621469BF868
:103FD0000000FFF75BFFC6B20135002E3FF474AF5F
:103FE0003B464A4659464046FFF766FF01287FF4A4
:103FF0006CAF2F2EE9D1BAF1000FE6D064E7A0072D
:10400000DDD528463CF005FE064600289FD15BE73B
:10401000287800283FF458AF2F2802D1A1073FF598
:1040200053AF2146FFF732FF8346B8F1000F3FF44C
:104030004BAF7378212B01D05E2B25D102360123A3
:104040000122019304EA02034FF000090393214681
:1040500030780592FFF71AFFC3B25D2B06F1010716
:10406000059A14D112BB019B4B453FF42DAF002F95
:104070003FF42AAF7A1C04D12B785B2B7FF424AF5A
:1040800047466E1CB84662E746460023D8E72F2B0A
:10409000F2D05C2B07D1039A42B921467078FFF722
:1040A000F5FEB71CC3B2002B3FF40EAF3A782D2AB1
:1040B00021D1214678780593FFF7E8FEC0B2059B31
:1040C000C8B15D2817D05C2807F102060BD1039A0E
:1040D0004AB92146B878FFF7D9FEC0B200283FF4AC
:1040E000F3AE059BFE1C9B4503DB8345D8BF4FF019
:1040F00001090022ABE73E469B4508BF4FF001098E
:10410000F7E70320E1E64023FFF7D6BE07B5ADF899
:10411000000001916A46002144F202000BF0FAFF10
:1041200003B05DF804FB50E8002F0B4640E8003C6C
:104130009CF0000FF7D11046704750E8002F42EA7C
:10414000010340E8003C9CF0000FF6D11046704798
:1041500050E8003F43EA010240E8002C9CF0000FC9
:10416000F6D11046704750E8002F02EA010340E8FC
:10417000003C9CF0000FF6D11046704750E8003F1D
:1041800003EA010240E8002C9CF0000FF6D1104633
:10419000704750E8003F03EB010240E8002C9CF020
:1041A000000FF6D11046704750E8003FA3EB010224
:1041B00040E8002C9CF0000FF6D11046704701211A
:1041C000FFF7BBBF0121FFF7C3BF0021FFF7CBBF44
:1041D0000021FFF7D3BF00002DE9F0438368D3F837
:1041E0005463C6F3400689B0074636B10022114633
:1041F00009B0BDE8F04301F0B7BE012906D91E4A57
:10420000022109B0BDE8F04300F0ECBC1B4C1C4D92
:10421000DFF870901C23E2182D1B4FF06408B5FBEB
:10422000F3F503FB05251C34AC4202D109B0BDE80F
:10423000F08354F81C0C54E90623017900689A1A9B
:104240001B1ADBB2039308FB03F3B3FBF2F3CDE9D4
:10425000016334F8043C0093CDE9061254F8083C9D
:1042600011FB08F13846B1FBF2F1CDE904214A46D1
:10427000082100F0B7FCD6E78C350400D089040093
:10428000248A04009F35040010B590B1D0E90123C1
:1042900001689B1ADBB20A60013BDBB2FF2B0268AC
:1042A00002D10020107110BD11684C1C14600B70FD
:1042B000F2E70E20F7E738B504460020FFF7E2FDED
:1042C0002268616813688B4215D9591E116013F872
:1042D000015C228BE36802FB05352268A368116844
:1042E0005B1A1179DBB2994200D213710020FFF7FB
:1042F000CBFD284638BD0025F8E738B50546002037
:104300000C46FFF7BFFD2A681368591C1160E96865
:10431000641A298BB4FBF1F41C700020BDE838400E
:10432000FFF7B2BD30B18A68B2F8543343F02003CE
:10433000A2F85433704710B543689C6860680368FE
:1043400001219B689847A36810B903221A7010BD19
:104350000422FBE7096800683CF068BC08B13CF047
:1043600077BC704710B50446FFF7F8FF234620449A
:10437000834201D1002010BD13F8012B3F2A01D048
:104380002A2AF5D10120F6E738B50546836800688A
:104390001C8DFFF7E3FFAB68DA8B2044B0FBF2F330
:1043A00002FB1300B0FA80F0400938BD10B58468F4
:1043B0000068FFF7D3FF238DE28B84F82000C0B2A2
:1043C000034493FBF2F102FB11330133A382E38C2C
:1043D00001311844218390FBF2F3591C02FB1303B3
:1043E00001336183E38204F1140010BD38B5054642
:1043F00083680068DC8CFFF7B1FFAB68DA8B204480
:10440000B0FBF2F302FB1300B0FA80F0400938BDB4
:104410002DE9F047089C1E4609BB1B4F1B4CE41BB3
:10442000E4089442B94606D91948E50000EB820831
:104430000C46A54201D100230EE009EB0403D8F895
:1044400000005B6819683CF0F1FB07EB040A0834D4
:104450000028EED1DAF804303360BDE8F087002898
:10446000E9D00178436839B121461046984723685E
:10447000002BE0D03460F0E7120199189B58002B14
:10448000D9D03160E9E700BF58890400C089040031
:104490003006002030B50368D3F84C5385B004468D
:1044A000EDB100230A2201A9284602F097FE2368F5
:1044B000029AC3F84C2300210A2201A83BF07FFE98
:1044C00000230A2201A9284602F07DFE284602F0B8
:1044D00022FE2368D3F84C0318B9C3F8480305B08B
:1044E00030BD01A900230A2202F078FE20680023D3
:1044F0000A2201A9D0F84C03019302F064FEEEE712
:1045000007B58368C9B193F822208A4212D00D4AB8
:10451000009233228DF8042001F12F028DF805203E
:104520006D22ADF8062083F822106A46064900691C
:1045300002F0EDF903B05DF804FB83F82210034AA2
:10454000F4E700BF1B5B313B503A0400C636040061
:1045500007B5836893F823208A4214D045F61B32AE
:10456000ADF8002034228DF8022001F12F0283F8EB
:1045700023108DF803206D22ADF804200349006953
:104580006A4602F0C4F903B05DF804FB503A040037
:10459000014902F0BCB900BF653A04000A46006850
:1045A000014902F0B4B900BFF036040009B1FFF7C9
:1045B000F5BF7047014A024902F0A9B9BC360400B0
:1045C000503A04002DE9F84F002507468846144666
:1045D0000560267866B13BF09FFD3044437813F0C8
:1045E00008030CD00023237001343B680B2BF0D957
:1045F0003B68002248F823202846BDE8F88F3A6837
:10460000511C396048F822401D4694F80090B9F1D9
:10461000000FEAD0002D40F08A80B9F1270F05D0B5
:10462000B9F15C0F0ED0B9F1220F79D12046FFF716
:1046300095FE611C024620463BF0A8FD4D462646ED
:104640003446E2E7661C2046FFF788FE3146024604
:1046500020463BF09BFDF3E7B9F15C0F01D0661CEF
:10466000EEE760788542EED0302825D102234FF066
:104670000009E05CA0F13001C9B207295FFA83FAB2
:1046800017D8013341EAC901052B5FFA81F9F0D14E
:104690009A462046FFF762FE0AF1FF3BA344821CC4
:1046A000A2EB0A02594620463BF070FD84F80090C8
:1046B000C6E7BAF1020FECD17828D0D102214FF031
:1046C0000009635CA3F13002D2B2092AC8B214D83F
:1046D00042EA091303295FFA83F90CD14FF0040B66
:1046E0002046FFF73BFE0BF1FF3AA244821CA2EBEF
:1046F0000B025146D7E70321E3E7A3F16102052A44
:1047000003D8573B43EA0913E4E7A3F14102052A22
:1047100001D8373BF6E70228A1D04FF0030BDFE7C3
:104720003BF0FAFC484443781B0798D55DE7A94560
:1047300004F1010690D12046FFF710FE31460246F3
:1047400020463BF023FD002579E72DE9F34106469D
:104750000F461446002514B902B0BDE8F081706818
:1047600003682246D3F80C80791901ABC047019B3E
:104770001D44E41A002BEED1B3681A78032AEAD05C
:10478000D3F854239206FBD5B3F854236FF34512A4
:10479000A3F85423DFE72DE9F74F054617460E46E9
:1047A000002975D00C463BF0B7FCA4EB060A14F8C0
:1047B000013B184443781A07F5D41FFA87F905F12D
:1047C00010083046FFF7CAFDAB68DB8BA0EB0A0090
:1047D000DB1B98424FF0000406EB0A0B15D901933E
:1047E0003BF09AFC1BF80420019B1044417811F027
:1047F000080F02D00A2A2FD02346A968C98B3A197C
:104800008A4228D20134EAE70134A04218D01BF8CA
:1048100004300A2B0AEB0408F6D1286902F06CF880
:1048200022462C4659462846FFF78FFF54F8100FB2
:10483000FFF7AEFEB9B2204608F1010AFFF7B6FE57
:10484000286906EB0A0102F062F8286903B0BDE8A6
:10485000F04FFFF79DBE1C46286902F04DF8224636
:1048600059462846FFF771FF544434443BF054FC4A
:10487000A4EB060A14F8013B184443781B07F5D44F
:104880002869FFF785FE49464046FFF78FFE98E707
:1048900003B0BDE8F08F00000A4619B10249006874
:1048A00002F035B8704700BFEA3604000A4619B175
:1048B0000249006802F02BB8704700BFF6360400CA
:1048C00070B50546FFF772FD037B028881880133CE
:1048D0009A42044601D1012915D0012905F110069B
:1048E00004D9013989B23046FFF7E0FF2388217BE4
:1048F0008B4209D9013B591A89B23046FFF7CCFFE8
:10490000AB6800221A8570BDC91A013189B23046E0
:10491000FFF74CFEF4E7F8B50546FFF747FD044600
:104920008788C6882846FFF72FFD78B12869FFF7EA
:104930002FFEB74205F110050ED161882388C91AF0
:10494000284689B2BDE8F840FFF7A6BF2846FFF722
:104950004DFD0028EAD1ECE7A388E188C91A89B2A5
:104960002846FFF7A3FF238861888B42E7D9591AAD
:10497000284689B2BDE8F840FFF718BE2DE9F3419B
:1049800005468068464F00244FF4C072214600F56A
:10499000D6708DF803403BF012FC4249286901F0C3
:1049A000B6FF286901F0A8FF4FF47A7647F00107B7
:1049B000686803680122D3F810800DF1030101AB90
:1049C000C047019B5BB94FF6C010B847019B002B55
:1049D000EED1013EB6B2002EEAD10D2038E09DF8AE
:1049E0000320AB681B2A4DD093F8AC111B29EDD1E5
:1049F000522A47D11C44002284F8AC21A86890F8C0
:104A0000AD315B2B21D100F5D774022314F8011BC3
:104A100001333B299BB21ED1B3F5C07F24D003F2F2
:104A2000AB160644002116F8014FFCB9FA2986BFDF
:104A3000FA2383828182AB68FA2A88BFFA221A831A
:104A4000AB68002083F8AC0102E080F8AC210B20B9
:104A500002B0BDE8F08102EB820201EB4202303A83
:104A6000B3F5C07F92B2D1D10C20F1E7013301EB55
:104A700081019BB2303C04EB4101B3F5C07F89B2A8
:104A8000D1D3F1E723440134A4B2092C83F8AC213B
:104A90009CD9AB68002283F8AC210420D8E700BF82
:104AA00000370400DB36040038B50546FFF77EFC0E
:104AB000028843889A4204468388C28801D193427F
:104AC00014D09A4205D9D21A92B20B49286901F042
:104AD0001EFF238861888B4205F1100007D9591AFF
:104AE00089B2FFF7D9FEAB68DA8C1A8538BDC91ACE
:104AF00089B2FFF75BFDF6E7E4360400F8B51E4621
:104B0000C3685B68986004464068036817461D6880
:104B10002E4A2346A847054600284DD1606902F079
:104B2000F8FA0546002847D1A368C3F84803A368EC
:104B3000C3F84C0301464FF45672A0683BF03FFBAC
:104B4000A268DFF898C0B2F8543343F02003A2F80B
:104B50005433A368B3F8542367F38202A3F85423B1
:104B6000A268B2F8543343F00803A2F85433A368A0
:104B700001221A70A3685022DA83A36818229A834C
:104B8000134A144B9B1AD8082946814216D1072B89
:104B900004D9114B114804223BF018FE66B19DF870
:104BA0001810E068FCF7C4FA0028A1BFE368DB68CE
:104BB00001225A71B8BF04252846F8BD02EBC1078F
:104BC0007F683F684CF821700131DEE72543000023
:104BD00058890400C08904005543000030060020B5
:104BE000FFF7B3BD0CB4F7B508AB02AD53F8046BD7
:104BF00045F8043D0F468168D1F854335B070446FD
:104C000021D591F82230BB421DD0022222316846C4
:104C10003BF0B1FA39462046FFF772FC2A4631468E
:104C2000206901F0F1FE9DF800102046FFF768FCB6
:104C30009DF8011011B12046FFF78AFC03B0BDE8D2
:104C4000F04002B070472A463146206901F0DCFE90
:104C5000F4E700008168002281F82C2081680A8531
:104C60008168CA840368024A0321FFF7BBBF00BF03
:104C7000503A040070B583681E78012E04461AD19C
:104C80004068036800219B689847054688B9082159
:104C90002046FFF735FC31462046FFF759FC2069D6
:104CA000064901F034FEA36802221A702046FFF77D
:104CB000D1FF284670BD0825FBE700BF643A040019
:104CC000F8B504468068C58CAB18B3F5C07F0F46B5
:104CD00016463BDA002A39D0038DED1A03F12C0178
:104CE00013442C33ADB201446A1C18443BF04EFA15
:104CF000A068038D2C333246394618443BF046FAFF
:104D0000A0682C30FFF72AFBA368D884A268138D13
:104D10002C33134420460E4A0821FFF763FFA36893
:104D20001A8D32441A852046FFF72EFB40B12069C8
:104D3000FFF72EFC55B12046BDE8F840FFF7EBBD6C
:104D40002046FFF753FB0028F1D1F3E7F8BD00BF81
:104D5000503A04002DE9F04104468068D0F85433FD
:104D6000C28CC3F30008038D5FFA88F7D51A0E468C
:104D7000ADB2002F40D1B2F5BF7F42D83DB103F1B3
:104D80002C012D3301442A4618443BF0FFF9A36857
:104D90001A8D134483F82C60002F73D1A268D38C32
:104DA00001339BB2D384134483F82C80002D73D03D
:104DB0002046FFF7FBFA8288C3889A4204F1100666
:104DC00021D1A268138D2C33134408212046354A83
:104DD000FFF708FFE91B89B23046FFF75DFDA268C7
:104DE000138D013313852046FFF7CEFA18B32069DF
:104DF000BDE8F041FFF7CCBBB2F5BF7FC7D9002DAE
:104E0000C5D1BDE8F0812069274A264901F07FFD20
:104E1000A268138D2C3313442046224A0821FFF741
:104E2000E1FE2069214A1F4901F071FD0121304650
:104E3000FFF7B4FBD3E72046FFF7D8FA0028E0D00D
:104E40002046FFF7B3FAC2888388013AD21A92B299
:104E5000054604F110061AB11549206901F057FD05
:104E60002069FFF795FBE988AB88C91A304689B2FB
:104E7000FFF71CFD29880139304689B2BDE8F041B1
:104E8000FFF794BB002D93D1A268D38C01339BB262
:104E9000D384134483F82C5032460649206901F02C
:104EA00036FD9CE7503A0400C0360400C3360400C7
:104EB000E4360400002C0400F0B585B082680025BB
:104EC0000446CDE90155ADF80C50D2F850630F46B9
:104ED000002946D1002E3FD0FFF7F2FCA0683B46E8
:104EE0000A22D0F8500301A902F078F9A368029AC7
:104EF000C3F85023A068D0F85033C58C002B50D194
:104F000000F5D670FFF72AFAA36838B303F5D67117
:104F100003F12C003BF094FEA0682C30FFF71EFA42
:104F2000ADF80C00A268BDF80C301385A268AB4246
:104F3000D38402D22069FFF73DFBA3682D4A2046A7
:104F40002C330821FFF74EFE2046FFF71DFA0028FC
:104F50004AD02069FFF71CFB05B0F0BD83F82C0098
:104F6000DAE7D2F84C33B342F6D0D2F84833002B0C
:104F7000F2D0FFF7A5FCA368D3F8500340BB03F1C0
:104F80002C00FFF7EBF9A368D3F84823C3F85023AC
:104F900085B2A068CDB100F12C0100F5D6703BF0D0
:104FA0004FFEA06801A900230A22D0F8500302F0A6
:104FB00015F9A068BDF80C2000F12C010A2301327C
:104FC000D0F8500302F00AF9ACE780F8AC51E8E7FA
:104FD0002B460A2201A902F001F9A368019ABDF843
:104FE0000C50C3F85023DCE72046FFF7FFF90028F8
:104FF000AFD1B1E7503A040038B504468068038D5C
:10500000C58CED1AADB2002D40D003F12D012C332B
:1050100001442A4618443BF0B9F8A268D38C013BFE
:10502000D3842046FFF7C2F98288C3889A4215D1FB
:10503000A268138D2C3313442046154A0821FFF72C
:10504000D1FD54F8100F1249124A01F060FC691E9C
:10505000204689B2BDE83840FFF71EBC0E4A0C4915
:10506000206901F054FC2069FFF7A4FAA268138DAF
:105070002C3313442046064A0821FFF7B3FD20696C
:10508000064A0349BDE8384001F041BC38BD00BFC5
:10509000503A0400CA360400C0360400C336040087
:1050A000F0B5C3685B6891B004460D46002203A9C1
:1050B000186802F000FA002840F093809DB1039830
:1050C00002F072F8A268D2F844330133C2F84433D4
:1050D000A368D3F8443303F00703012B03D0012561
:1050E000284611B0F0BD2046FFF760F981880129FC
:1050F000064605D9013989B204F11000FFF7D6FB45
:105100003188012905D9013989B204F11000FFF76E
:10511000C3FB2069FFF74EFA2DB1334A0221204626
:10512000FFF760FDDCE70023082204A9039802F0E2
:1051300055F8069B0793BDF81430ADF82030BDF844
:105140001630ADF8223001238DF825309DF810304F
:1051500003F00302012A25D1BDF81050049E0398E4
:10516000C3F3C203C5F383158DF82430AA000823C6
:105170000AA902F033F8C6F39526236900932A465C
:1051800007AB0AA93046FCF78BF8039802F00CF83D
:10519000E3685B68002203A9186802F08CF9002814
:1051A000C1D09CE7022AF0D1BDF81250C3F3C2036C
:1051B000AD098DF824300827082D2E4628BF082673
:1051C0003B4632460AA9039802F008F8AD1B236952
:1051D00007AA31460AA83744FCF7C6F8002DEBD1E0
:1051E000D3E700257CE700BF8836040013B5436889
:1051F00001A9002218689C6802F05DF9014610B907
:105200002046FFF74DFF02B010BDF7B5476801918A
:10521000BC68A3681E78042E0ED001A9386802F07D
:105220004FF8054650B9019801F0BAFF032E03D19B
:1052300029462046FFF734FF03B0F0BDF11E18BF2A
:1052400001212046FFF72CFFE7E700002DE9F04F92
:1052500004468068A5B0102100F55570FEF778FF70
:10526000A3681B78022B40F0DC8000230B93039390
:105270006068036801221D690DF12B010BABA84783
:105280000B9B002B00F0B4809DF92B30002BEFDB43
:1052900001F0CAFFA3685A78012A00F0DD854BD3DC
:1052A000022A40F05086039A5A70A368D3F8542318
:1052B000110740F19D809DF82B20313A1B2AD7D849
:1052C00001A151F822F000BF115F00001F5F000034
:1052D000415F0000035F0000715200007152000046
:1052E00071520000715200007152000071520000B2
:1052F00071520000715200007152000071520000A2
:105300007152000071520000655E0000715E000085
:10531000755E0000C15E000071520000075F000072
:1053200071520000155F00007152000071520000C0
:1053300071520000235F00009DF82B500D2D38D0D6
:105340000A2D36D0B3F854236FF38D12A3F85423EB
:10535000092D00F0338300F21383002D88D0082D2F
:1053600000F011853AF0D8FE9DF82B1008444378E0
:1053700013F0970F3FF47CAFA368D3F854231507BD
:10538000C2F3C00000F15984DA8CB2F5BF7F3FF65A
:105390006FAF1A8D551C1D85134483F82C10A3681C
:1053A0001A8D134483F82C00A268D38C0133D38464
:1053B0005EE7D3F8542312F47F5F3FD0D3F8542331
:1053C000C2F387129542C3D1B3F8541362F38D111F
:1053D000A3F85413A368DA8C92BBC3F85023206956
:1053E000FFF7D6F8A36802221A702046FFF732FCB6
:1053F00000212046FFF754FE98B12368BE4A0321DE
:105400002046FFF7EFFBA368D3F85423120708D513
:1054100020462C33B84A0821FFF7E4FB2046FFF76B
:105420007AFA206901F068FAA0686FF0100100F5BF
:105430005570FEF7A3FE25B0BDE8F08F2A46C3E7FE
:1054400093F82C30002B40F08880A0682C30FEF7B9
:1054500085FFA368002687B2C3F850632FB3A36803
:10546000D3F848033D46002800F0BC8033460A22AA
:1054700017A901F0B3FEBDF86430BB4240F0B28022
:10548000A0680A2300F5D6717A1CD0F8480301F011
:10549000A5FEA06800F5D6712C303BF0C7FBA368D1
:1054A000002840F09D8083F8AC01A0684FF4C072E2
:1054B000002100F5D6703AF082FEA068C28C00F19F
:1054C0002C0100F5D6703AF056FEA66806F5D676A1
:1054D0003046FEF743FF3EB14FF0000885B2C246AA
:1054E0006B1E9845C0F2C780A06800F5D670FEF725
:1054F00035FFA368013058852046FFF7D5FA2046CE
:10550000FEF742FF10B92069FFF742F8A26817A919
:105510002C320CA8FFF756F80C9A0346002A3FF4E9
:105520005EAF002840F0E280744F754EF61BF6081F
:105530000546AE42179B40F0EB80724A0092022172
:10554000714A2046FFF74EFB4CE70135B5F5803F29
:1055500004D1002283F82C2077E700253AF0DCFD07
:10556000A3685A19AEB292F82C2010444278120760
:10557000EBD476B1DA8C03F12C000132521B4119C5
:105580003AF004FEA268D38C9B1BD384A368DA8C08
:105590001A85A568EB8C2B331D442F46B8463AF08C
:1055A000BBFD98F800301844EE1B437813F0080256
:1055B000B6B207F1FF37F1D1A368D98C01F12B0006
:1055C000184480453FF441AF891B0B4483F82C20DD
:1055D000A268D38C9E1BD684A368DA8C1A8534E724
:1055E00083F8AC6108270B3504EB0708294660698E
:1055F00001F0A7FD0646002837D0A368D3F848037A
:10560000C8B9C3F84863A368C3F84C63CDE9170071
:10561000A368DB8CADF8643017A9304600230A225A
:1056200001F0D1FDA168CA8C0A2301322C31304629
:1056300001F0C9FD39E700230A2217A901F0CEFDC8
:10564000A068189600230A2217A9D0F8480301F091
:10565000BAFD00231893A368D3F848231792DA8C75
:10566000ADF86420C3F84863D6E74046FEF712FF62
:10567000013FBBD119E708F1010B3AF04DFD1FFACC
:105680008BF3029316F80830184443781F0704D4AC
:105690005746DDF80880BA4622E7029B4FF0000823
:1056A000F1181FFA88F30AEB03075B449BB29D4293
:1056B000BFB2EED903913AF02FFD039911F80830EB
:1056C000184401EB080C90F8019019F0080908F152
:1056D0000108E6D1002FDCD0ED1B6A1C614606EB09
:1056E0000B003AF053FDADB24F46D2E7074A022114
:1056F0002046FFF777FA75E6503A0400588904000F
:10570000C089040064390400A23804005039040040
:105710007A68184611683BF089FAB846083718B11C
:105720000135AE42BFF405AFA0680021102204305D
:105730000D913AF044FDD8F80430DA6822B10FCB6D
:10574000A568043585E80F00D8F804304FF000084C
:105750009B680393CDF810800125C3460C9BAB4298
:1057600010D924AB03EB85068F4956F8340C3BF077
:105770005DFA00282FD1A268B2F8543343F0020337
:10578000A2F85433B8F1000F0FD0A068428D00F595
:10579000D6712C303AF0EFFCA3685A8DDA84A268F7
:1057A00017A92C320CA8FEF70DFFA3681B69002B6C
:1057B00000F0E480049A049817A901EB82020C9986
:1057C000091A20469847A368B3F854236FF341029F
:1057D000A3F8542306E6754956F8340C3BF026FA34
:1057E0000028C8D056F8340CFEF7BCFD002800F0A5
:1057F0008B8056F8343C029324AB002643F8586D56
:10580000B146059309F10103079313AB00934A4690
:10581000059B03982946FEF7FBFD0E9BDBB100229A
:1058200019680298FEF76FFC002867D10E9B1B6871
:1058300006931846FEF792FDA26883B21F460893AE
:10584000538D01333B44B3F5C07F37D9584A042107
:105850002046FFF7C7F9002E94D0A068029900F502
:10586000D6703BF024FA07460298FEF777FD07B39F
:10587000A36803F5D6739F421FFA80F909D917F878
:10588000013C202B02BF09F101091FFA89F907F138
:10589000FF373846FEF762FDA268538DA3EB09037C
:1058A0005385421CA2EB090207EB090138463AF086
:1058B0006DFCB04401355F46BB464FE7029902F5E7
:1058C000D6703BF0F4F982460028C4D0FEF746FDBE
:1058D00082B2781C0132514650443AF057FC3A46A5
:1058E000069950463AF047FC20230AF80730A26890
:1058F0000899538D0133194451850136B9F1FF3FA1
:10590000A9D0DDF81C907DE70FAB0BF101070093E8
:105910005A460DAB29460398FEF77AFD002F3FF457
:1059200031AF0D9B002B3FF42DAF196856F8340CA6
:105930003BF07CF90028BFD10D9EF368CBB1B8F1E4
:10594000000F0FD02046FFF7AFF82046FEF71CFDF2
:1059500010B92069FEF71CFE164A02212046FFF707
:1059600041F930E796E80F00A7680495043787E807
:105970000F00B3680393013500279DE70E4AECE75B
:105980001B2D0CD07F2D7FF4EDACA368D3F85433DE
:105990001E077FF56DAC2046FFF72EFB68E4A36879
:1059A00001225A7064E400BF783904007B39040096
:1059B00082390400D0390400FF390400A068D0F80F
:1059C00054331D077FF554ACC38CC3F5BF7301334B
:1059D0001FFA83FABAF1000F3FF44AAC00F12C0130
:1059E000028D00F5D6703AF0C6FBA3681A8D1344F9
:1059F000039A83F8AC213AF08FFBA3681A8D1A44FE
:105A000092F82B201044427802F00801C2F3C00241
:105A10000792039AC3F85023A268089102F5D67240
:105A200017A90CA8FEF7CEFD1798FEF797FC0023E8
:105A3000CDE90D3387B21E4604931D4602939B4663
:105A400005930C9B2BB1079A013B1344AB4200F228
:105A5000C580089B002B36D124AB03EB850353F89C
:105A6000340CFEF77BFC87B224AB03EB85034FF0CD
:105A70000009099309F1010306930FAB00934A460D
:105A80000DAB29463046FEF7C3FC0D9B002B59D0C9
:105A90001968099B3A4653F8340C3BF0E1F880460C
:105AA000A8B9029B013302930D9B18680E9B8BB91A
:105AB000FEF754FC83B2D81B8245049301DD1FFA24
:105AC00080FACB4631E00027CEE7CDF81490DDF820
:105AD0001890CFE7FEF742FC049B80B2834238BFA8