:020000040000FA
:1010000010200020151200001D1200001F12000009
:101010002112000023120000251200000000000031
:101020000000000000000000000000002712000087
:1010300029120000000000002B1200002D120000F9
:101040002F1200002F1200002F1200002F1200009C
:101050002F1200002F1200002F1200002F1200008C
:101060002F1200002F1200002F1200002F1200007C
:101070002F1200002F1200002F1200002F1200006C
:101080002F1200002F1200002F1200002F1200005C
:101090002F1200002F1200002F1200002F1200004C
:1010A0002F1200002F1200002F1200002F1200003C
:1010B0002F1200002F1200000000000000000000AE
:1010C0002F1200002F1200002F1200002F1200001C
:1010D0002F1200002F1200002F1200002F1200000C
:1010E0002F1200002F1200002F120000000000003D
:1010F000000000002F120000000000002F1200006E
:1011000000000000000000000000000000000000DF
:1011100000000000000000000000000000000000CF
:1011200000000000000000000000000000000000BF
:1011300000000000000000000000000000000000AF
:10114000000000000000000000000000000000009F
:10115000000000000000000000000000000000008F
:10116000000000000000000000000000000000007F
:10117000000000000000000000000000000000006F
:10118000000000000000000000000000000000005F
:10119000000000000000000000000000000000004F
:1011A000000000000000000000000000000000003F
:1011B000000000000000000000000000000000002F
:1011C000000000000000000000000000000000001F
:1011D000000000000000000000000000000000000F
:1011E00000000000000000000000000000000000FF
:1011F00000000000000000000000000000000000EF
:10120000DFF80CD000F018F800480047FD1400008B
:10121000102000200648804706480047FEE7FEE70A
:10122000FEE7FEE7FEE7FEE7FEE7FEE7FEE7FEE796
:101230005D12000001120000064C074D06E0E06858
:1012400040F0010394E8070098471034AC42F6D30D
:10125000FFF7DAFFC0150000E015000030B54FF0D1
:10126000805000228300D0F83011C3F80C21C3F85D
:101270001021624B1A60624B1B68624C2360604B0A
:101280001B1D1B68241D23605D4B08331B68241D38
:1012900023605B4B0C331B68241D2360584B1033B9
:1012A0001B68241D2360564B14331B68241D2360C8
:1012B000534B18331B68534C20342360504B1C3362
:1012C0001B68241D23604E4B20331B68241D2360A4
:1012D0004B4B24331B68241D2360494B28331B6868
:1012E000241D2360464B2C331B68241D2360444B74
:1012F00030331B68434C40342360414B34331B680C
:10130000241D23603E4B38331B68241D23603C4B57
:101310003C331B68241D2360394B40331B68241D5C
:1013200023600123082902D1D0F8344114B10829DF
:1013300004D006E0354C3449216005E0D0F8344152
:1013400014B1082904D006E0314CFB21216005E0EE
:10135000D0F8344114B1082908D00EE090F8584272
:101360002C48016864F30301016002E0D0F83441C5
:101370001CB929494FF40070086028480168C90762
:1013800002D06FF0010101602548016841F470014D
:101390000160BFF34F8FBFF36F8F4FF01021D1F873
:1013A0000002002803DBD1F80402002822DA1D4CD9
:1013B00023601D480368002BFCD01223C1F80032C3
:1013C0000568002DFCD0C1F8043201680029FCD06A
:1013D000226001680029FCD0BFF34F8F10487C3891
:1013E0000168124A01F4E06111430160BFF34F8FBD
:1013F00000BFFDE70F490E48086030BD38050040CA
:101400000404001020C50040488103008C560040B1
:1014100018F50040E40E00404096024000040040F1
:1014200088ED00E004E5014000E401400400FA0515
:101430000090D0030800002002E008C8121F08C175
:10144000002AFAD170477047002001E001C1121F45
:10145000002AFBD1704700002DE9FC410646C00779
:101460004FF000050ED0104F00240122385D00958A
:1014700000231146019500F059F8641C042CF4D3A4
:1014800000F032F8B0070DD5074E0024361D0022BB
:10149000305D032300951146019500F047F8641C68
:1014A000042CF4D3BDE8FC81B6150000094908B549
:1014B000085C0090684600F053F8D0F80425009BC3
:1014C0000121994021EA0203C0F808351140C0F813
:1014D0000C1508BDB61500000249085C012100F09A
:1014E0004DB80000B615000010B500242046FFF7E7
:1014F000F3FF641C042CF9D310BD00000120FFF79A
:10150000ABFF094C4FF4FA784FF47A470026304687
:10151000FFF7CCFF4546611C384688476D1EFAD15F
:10152000761C042EF3DBF1E7B01500002DE9FF4136
:101530001C46DDE90A7815460E46684600F010F8AC
:1015400046EA450141EA840141EA072242EA0841AC
:10155000009A00EB8200C0F80017BDE8FF81000090
:101560000168202902D24FF0A040704701F01F010E
:1015700001600148704700000003005038B50124A5
:101580000090684631B1FFF7EBFF00998C40C0F83E
:10159000084538BDFFF7E4FF00998C40C0F80C45C2
:1015A00038BD000000000000000000000000000046
:1015B0000338FDD870470D0E0F100B0C18190000E2
:1015C000E0150000080000200400000038140000AE
:1015D000E41500000C000020042000004814000066
:0415E0000090D003A4
:0400000500001201E4
:00000001FF
