:020000040000FA
:1000000000040020810A000015070000610A0000BA
:100010001F07000029070000330700000000000050
:10002000000000000000000000000000A50A000021
:100030003D070000000000004707000051070000D6
:100040005B070000650700006F07000079070000EC
:10005000830700008D07000097070000A10700003C
:10006000AB070000B5070000BF070000C90700008C
:10007000D3070000DD070000E7070000F1070000DC
:10008000FB070000050800000F0800001908000029
:10009000230800002D080000370800004108000078
:1000A0004B080000550800005F08000069080000C8
:1000B000730800007D080000870800009108000018
:1000C0009B080000A5080000AF080000B908000068
:1000D000C3080000CD080000D7080000E1080000B8
:1000E000EB080000F5080000FF0800000909000007
:1000F000130900001D090000270900003109000054
:100100003B0900001FB500F003F88DE80F001FBD8C
:1001100000F0ACBC40F6FC7108684FF01022401CA7
:1001200008D00868401C09D00868401C04D0086842
:1001300000F037BA9069F5E79069F9E7704770B554
:100140000B46010B184400F6FF70040B4FF0805073
:100150000022090303692403406943431D1B104621
:1001600000F048FA29462046BDE8704000F042BA47
:10017000F0B54FF6FF734FF4B4751A466E1E11E0DA
:10018000A94201D3344600E00C46091B30F8027B3B
:10019000641E3B441A44F9D19CB204EB134394B25D
:1001A00004EB12420029EBD198B200EB134002EBB2
:1001B000124140EA0140F0BDF34992B00446D1E952
:1001C0000001CDE91001FF224021684600F0F4FB58
:1001D00094E80F008DE80F00684610A902E004C8FB
:1001E00041F8042D8842FAD110216846FFF7C0FF7C
:1001F0001090AA208DF8440000F099F9FFF78AFFCB
:1002000040F6FC7420684FF01025401C0FD0206889
:1002100010226946803000F078F92068401C08D030
:100220002068082210A900F070F900F061F9A869AF
:10023000EEE7A869F5E74FF080500369406940F6A2
:10024000FC71434308684FF01022401C06D0086838
:1002500000F58050834203D2092070479069F7E788
:100260000868401C04D00868401C03D00020704778
:100270009069F9E70420704770B504460068C34DE3
:10028000072876D2DFE800F033041929631E250021
:10029000D4E9026564682946304600F062F92A46CE
:1002A0002146304600F031F9AA002146304600F0E0
:1002B00057FB002800D0032070BD00F009FC4FF46C
:1002C000805007E0201D00F040F90028F4D100F034
:1002D000FFFB60682860002070BD241D94E80700C3
:1002E000920000F03DFB0028F6D00E2070BDFFF715
:1002F000A2FF0028FAD1D4E901034FF0805100EBAE
:10030000830208694D69684382420ED840F6F8704E
:1003100005684FF010226D1C09D0056805EB8305B8
:100320000B6949694B439D4203D9092070BD55694A
:10033000F4E70168491C03D00068401C02D003E0C8
:100340005069FAE70F2070BD2046FFF735FFFFF731
:1003500072FF0028F7D1201D00F0F7F80028F2D135
:1003600060680028F0D100F0E2F8FFF7D3FE00F05B
:10037000BFF8072070BD10B50C46182802D0012028
:10038000086010BD2068FFF777FF206010BD41684E
:10039000054609B1012700E0002740F6F8742068FF
:1003A0004FF01026401C2BD02068AA68920000F065
:1003B000D7FA38B3A86881002068401C27D020688D
:1003C000FFF7BDFED7B12068401C22D026684FF051
:1003D0008050AC686D68016942695143A9420DD9EA
:1003E000016940694143A14208D92146304600F0E5
:1003F000B8F822462946304600F087F800F078F831
:100400007069D2E700F093F8FFF784FEF6E77069B1
:10041000D6E77669DBE740F6FC7420684FF01026DB
:10042000401C23D02068401C0CD02068401C1FD0EA
:100430002568206805F18005401C1BD027683879A5
:10044000AA2819D040F6F8700168491C42D001680A
:10045000491C45D00168491C3ED001680968491C07
:100460003ED00168491C39D000683EE0B069DAE747
:10047000B569DEE7B769E2E710212846FFF778FEA5
:100480003968814222D12068401C05D0D4F8001080
:1004900001F18002C03107E0B169F9E730B108CA63
:1004A00051F8040D984201D1012000E000208A4259
:1004B000F4D158B1286810B1042803D0FEE72846CB
:1004C000FFF765FF3149686808600EE0FFF722FE1C
:1004D00000F00EF87169BBE77169BFE7706904E06D
:1004E0004FF480500168491C01D000F0CBFAFEE7C0
:1004F000BFF34F8F26480168264A01F4E06111439B
:100500000160BFF34F8F00BFFDE72DE9F0411746B3
:100510000D460646002406E03046296800F054F8EF
:10052000641C2D1D361DBC42F6D3BDE8F08140F69B
:10053000FC700168491C04D0D0F800004FF48051D1
:10054000FDE54FF010208069F8E74FF080510A690F
:10055000496900684A43824201D810207047002050
:10056000704770B50C4605464FF4806608E0284693
:1005700000F017F8B44205D3A4F5806405F5805562
:10058000002CF4D170BD0000F40A0000000000202F
:100590000CED00E00400FA05144801680029FCD0C5
:1005A0007047134A0221116010490B68002BFCD0E0
:1005B0000F4B1B1D186008680028FCD0002010603D
:1005C00008680028FCD07047094B10B501221A605A
:1005D000064A1468002CFCD0016010680028FCD08A
:1005E0000020186010680028FCD010BD00E4014015
:1005F00004E5014070B50C46054600F073F810B9EB
:1006000000F07EF828B121462846BDE8704000F091
:1006100007B821462846BDE8704000F037B8000012
:100620007FB5002200920192029203920A0B000B06
:100630006946012302440AE0440900F01F0651F80C
:10064000245003FA06F6354341F82450401C8242F8
:10065000F2D80D490868009A10430860081D016827
:10066000019A1143016000F03DF800280AD00649C4
:1006700010310868029A10430860091D0868039A3F
:10068000104308607FBD00000006004030B50F4CED
:10069000002200BF04EB0213D3F800582DB9D3F8A1
:1006A000045815B9D3F808581DB1521C082AF1D3C3
:1006B00030BD082AFCD204EB0212C2F80008C3F8CD
:1006C00004180220C3F8080830BD000000E0014013
:1006D0004FF08050D0F83001082801D0002070473A
:1006E000012070474FF08050D0F83011062905D016
:1006F000D0F83001401C01D0002070470120704725
:100700004FF08050D0F830010A2801D00020704707
:100710000120704708208F490968095808471020B0
:100720008C4909680958084714208A4909680958FA
:100730000847182087490968095808473020854923
:100740000968095808473820824909680958084744
:100750003C20804909680958084740207D490968BC
:100760000958084744207B49096809580847482028
:1007700078490968095808474C207649096809589A
:10078000084750207349096809580847542071499F
:1007900009680958084758206E49096809580847E8
:1007A0005C206C4909680958084760206949096854
:1007B00009580847642067490968095808476820AC
:1007C00064490968095808476C2062490968095852
:1007D000084770205F4909680958084774205D4937
:1007E00009680958084778205A490968095808478C
:1007F0007C205849096809580847802055490968EC
:10080000095808478420534909680958084788202F
:1008100050490968095808478C204E490968095809
:10082000084790204B4909680958084794204949CE
:10083000096809580847982046490968095808472F
:100840009C204449096809580847A0204149096883
:1008500009580847A4203F49096809580847A820B3
:100860003C49096809580847AC203A4909680958C1
:100870000847B0203749096809580847B420354966
:10088000096809580847B8203249096809580847D3
:10089000BC203049096809580847C0202D4909681B
:1008A00009580847C4202B49096809580847C82037
:1008B0002849096809580847CC2026490968095879
:1008C0000847D0202349096809580847D4202149FE
:1008D000096809580847D8201E4909680958084777
:1008E000DC201C49096809580847E02019490968B3
:1008F00009580847E4201749096809580847E820BB
:100900001449096809580847EC2012490968095830
:100910000847F0200F49096809580847F4200D4995
:10092000096809580847F8200A490968095808471A
:10093000FC2008490968095808475FF48070054998
:10094000096809580847000003480449024A034B54
:100950007047000000000020000B0000000B0000AA
:1009600040EA010310B59B070FD1042A0DD310C82C
:1009700008C9121F9C42F8D020BA19BA884201D97E
:10098000012010BD4FF0FF3010BD1AB1D30703D0C6
:10099000521C07E0002010BD10F8013B11F8014B7C
:1009A0001B1B07D110F8013B11F8014B1B1B01D198
:1009B000921EF1D1184610BD02F0FF0343EA032254
:1009C00042EA024200F005B87047704770474FF0A6
:1009D00000020429C0F0128010F0030C00F01B800C
:1009E000CCF1040CBCF1020F18BF00F8012BA8BF1A
:1009F00020F8022BA1EB0C0100F00DB85FEAC17CDE
:100A000024BF00F8012B00F8012B48BF00F8012B90
:100A100070474FF0000200B51346944696462039C1
:100A200022BFA0E80C50A0E80C50B1F12001BFF4A7
:100A3000F7AF090728BFA0E80C5048BF0CC05DF80D
:100A400004EB890028BF40F8042B08BF704748BF5B
:100A500020F8022B11F0804F18BF00F8012B7047CF
:100A6000014B1B68DB6818470000002009480A4951
:100A70007047FFF7FBFFFFF745FB00BD20BFFDE719
:100A8000064B1847064A1060016881F308884068E1
:100A900000470000000B0000000B000017040000DE
:100AA000000000201EF0040F0CBFEFF30881EFF3ED
:100AB0000981886902380078182803D100E0000015
:100AC000074A1047074A12682C3212681047000084
:100AD00000B5054B1B68054A9B58984700BD0000B0
:100AE0007703000000000020F00A0000040000006E
:100AF000001000000000000000FFFFFF0090D00386
:02000004000EEC
:104000002868002001430E0009430E000B430E00F8
:104010000D430E000F430E0011430E000000000080
:1040200000000000000000000000000013430E002C
:1040300015430E000000000017430E0019430E0048
:104040001B430E001B430E00E55B0E001B430E00DE
:104050001B430E001B430E001B430E001B430E00B0
:104060001B430E001B430E001B430E001B430E00A0
:104070001B430E001B430E001B430E001B430E0090
:10408000395C0E001B430E001B430E001B430E0049
:104090001B430E001B430E001B430E001B430E0070
:1040A0001B430E001B430E001B430E001B430E0060
:1040B0001B430E001B430E00000000000000000028
:1040C0001B430E001B430E001B430E001B430E0040
:1040D00005590E001B430E001B430E001B430E0030
:1040E0001B430E001B430E0069440E00000000003D
:1040F000000000001B430E00000000001B430E00E8
:1041000000000000000000000000000000000000AF
:10411000000000000000000000000000000000009F
:10412000000000000000000000000000000000008F
:10413000000000000000000000000000000000007F
:10414000000000000000000000000000000000006F
:10415000000000000000000000000000000000005F
:10416000000000000000000000000000000000004F
:10417000000000000000000000000000000000003F
:10418000000000000000000000000000000000002F
:10419000000000000000000000000000000000001F
:1041A000000000000000000000000000000000000F
:1041B00000000000000000000000000000000000FF
:1041C00000000000000000000000000000000000EF
:1041D00000000000000000000000000000000000DF
:1041E00000000000000000000000000000000000CF
:1041F00000000000000000000000000000000000BF
:10420000DFF80CD000F0F2F8004800471D760E00F1
:104210002868002080F308888E46104730B4044692
:1042200054E8000F0D4644E80053002BF8D1156008
:1042300030BC704730B4044654E8000F40EA010532
:1042400044E80053002BF7D1156030BC704730B400
:10425000044654E8000F00EA010544E80053002B2F
:10426000F7D1156030BC704730B4044654E8000FF5
:1042700080EA010544E80053002BF7D1156030BCFB
:10428000704730B4044654E8000F00EB010544E8E1
:104290000053002BF7D1156030BC704730B4044692
:1042A00054E8000FA0EB010544E80053002BF7D1C0
:1042B000156030BC704770B404464FF0000054E8FD
:1042C000006F0D68AE4207BF44E80023012044E8B8
:1042D00000630E60002B1CBF0020F0E770BC70472D
:1042E00030B4044654E8000F88422CBF451A0546F6
:1042F00044E80053002BF5D1156030BC7047000036
:104300000648804706480047FEE7FEE7FEE7FEE76F
:10431000FEE7FEE7FEE7FEE7FEE7FEE7095A0E00CE
:1043200001420E00202A04DB203A00FA02F10020AC
:1043300070479140C2F1200320FA03F319439040E3
:10434000704700000048704724E50E0010B5441A7D
:104350000346944209D28418114403E011F8013D48
:1043600004F8013D521EF9D210BD40EA0104A40731
:1043700003D009E010C9121F10C3042AFAD203E0C7
:1043800011F8014B03F8014B521EF9D210BDD2B205
:1043900001E000F8012B491EFBD270470022F6E72E
:1043A00010B513460A4604461946FFF7F0FF2046AB
:1043B00010BD421C10F8011B0029FBD1801A704768
:1043C00030B504460020034600E05B1C934203D254
:1043D000E05CCD5C401BF8D030BD034611F8012BEA
:1043E00000F8012B002AF9D118467047064C074DFA
:1043F00006E0E06840F0010394E8070098471034B5
:10440000AC42F6D3FFF700FF30F20E0050F20E0080
:1044100070B58C1810F8015B15F0070301D110F886
:10442000013B2A1106D110F8012B03E010F8016BB3
:1044300001F8016B5B1EF9D12B0705D40023521E36
:104440000DD401F8013BFAE710F8013BCB1A921C9E
:1044500003E013F8015B01F8015B521EF9D5A1429C
:10446000D8D3002070BD0000054B4FF0FF321A601A
:1044700053F8042C034B1A601A68034B1A607047F8
:1044800004BA02502448002008BA025001EB82020C
:1044900004388A4201D10020704752F8043D1BBA0B
:1044A00040F8043FF5E70000354B8EB019461A6816
:1044B0000092009AD207FAD5324B334A1A600A6842
:1044C0000192019AD007FAD5304A1A600A6802921E
:1044D000029AD207FAD52E4A1A600A680392039A02
:1044E000D007FAD52B4A1A600A680492049AD207B8
:1044F000FAD5294A1A600A680592059AD007FAD5B2
:10450000264A1A600A680692069AD207FAD5244A01
:104510001A600A680792079AD007FAD5214A1A60EA
:104520000A680892089AD207FAD51F4A1A600A68E0
:104530000992099AD007FAD51C4A1A600A680A92A9
:104540000A9AD207FAD51A4A1A6008680B900B9893
:10455000C007FAD51A600A680C920C9AD007FAD5EF
:10456000144A1A600A680D920D9AD207FAD5124AB7
:104570001A600E210D230F2200200EB000F080BD26
:10458000B0B0025080B0025080430129406339210D
:10459000807001298020542100D13490C040349093
:1045A000C0302029C0530D9000413890832308C8A3
:1045B00080E3102100413821CF4308C810B5504B8B
:1045C00096B01C461A680192019AD207FAD54D4B53
:1045D0004D4A1A6022680292029AD207FAD54B4AD3
:1045E0001A604B4A42EA804022680392039AD2073B
:1045F000FAD5186022680492049AD007FAD5454A81
:104600001A60A2F5800242EA814122680592059A69
:10461000D207FAD5196022680692069AD007FAD511
:104620003D4A1A6022680792079AD107FAD53B4A99
:104630001A6022680892089AD207FAD5384A1A6096
:1046400022680992099AD007FAD5364A1A60226878
:104650000A920A9AD107FAD5334A1A6022680B9255
:104660000B9AD207FAD5314A1A6022680C920C9A3A
:10467000D007FAD52E4A1A6022680D920D9AD107FA
:10468000FAD52C4A1A6022680E920E9AD207FAD5F1
:10469000294A1A6022680F920F9AD007FAD5274A42
:1046A0001A60216810911099C907FAD51A60144B45
:1046B0001A46196811911199C807FAD5114B20496A
:1046C0001960116812911299C907FAD51D4919602C
:1046D000116813911399CC07FAD50B491960116829
:1046E00014911499C807FAD51749196011681591E2
:1046F0001599C907FAD5154A1A6016B010BD00BF42
:10470000B0B0025080B00250400441900086292988
:10471000D81001C84014419040142129401465214B
:104720000034409000310C90C0400C90C0302029E3
:1047300040960D9000416090031645C800861121F7
:1047400000416021594644C84014459040142D90C2
:10475000F0B5454B89B01D461C680194019CE407E7
:10476000FAD5424BDFF80CE1DFF80CC113449B0093
:1047700000241A680B181E2B88BFC0F11E011F32BF
:104780000B1852095343B3F5806F82BF4FF4806119
:10479000B1FBF2F1091A00F1A05000F52C402746B8
:1047A000A14233DC2B680493049BDB07FAD5304B22
:1047B0001B68296805910599CF07FAD52D4C2E491C
:1047C000236000231E46934203F1010040D120F0F4
:1047D00001022948194600268A423CD829680691D8
:1047E0000699CE07FAD525490968286807900798E1
:1047F000C007FAD52160204800210C468B422DD1FC
:104800001D4900209A422CD809B0F0BD2B680293B4
:10481000029BDB07FAD503199B001B682E680396E1
:10482000039EF607FAD5CEF800300023934203F139
:10483000010306D1164623F00103B34204D8013424
:10484000AEE7CCF80070F1E7CCF800700136F4E781
:104850000E600346B7E706600131BDE70460013131
:10486000CCE708600133CDE7B4B0025024AC0014AB
:104870007CB00250D4B00250D8B0025078B0025090
:10488000F0B5294D85B02C462E680096009EF6079F
:10489000FAD500F1A05000F52C4080000568206892
:1048A00001900198C707FAD52048214F056002EB17
:1048B0008306B24229D15A1C1D4E22F00102002764
:1048C0009A4227D823680293029BDE07FAD5194B38
:1048D0000B449B001B681F335B099A4213D221686B
:1048E00003910399C907FAD5154400219B1A104A70
:1048F000056008468B4210D85A1C0D4922F001026F
:1049000000209A420CD805B0F0BD52F804CBC7F88D
:1049100000C0CEE737600133D2E710600131E9E72C
:1049200008600133EDE700BFB4B00250D4B00250CC
:10493000D8B0025024AC001410B5494B94B01946BD
:104940001A680092009AD207FAD5464B464A1A6076
:104950000A680192019AD407FAD5444A1A600A6893
:104960000292029AD007FAD5414818600A68039269
:10497000039AD207FAD53F4A1A600A680492049A49
:10498000D407FAD53C4A1A600A680592059AD207FC
:10499000FAD53A4A1A600A680692069AD407FAD5F6
:1049A000374A1A600A680792079AD207FAD5354A39
:1049B0001A600A680892089AD407FAD5324A1A602F
:1049C0000A680992099AD207FAD5304A1A600A6829
:1049D0000A920A9AD407FAD52D4A1A600A680B92ED
:1049E0000B9AD207FAD52B4A1A600A680C920C9AD5
:1049F000D407FAD5284A1A600A680D920D9AD20790
:104A0000FAD5264A1A600A680E920E9AD407FAD589
:104A1000234A1A600A680F920F9AD207FAD5214AE0
:104A20001A600F4B19461C681094109CE407FAD5C5
:104A30000C4B1860086811901198C407FAD51A60D9
:104A40000A681292129AD007FAD5174A1A600A68B1
:104A50001392139AD207FAD5144A1A6014B010BDF3
:104A6000B0B0025080B002508090652100040990DF
:104A7000409665908080612180200821802064908C
:104A800000816190004610210081112100414421E4
:104A900080202029024610C800860921802060213C
:104AA000402128294096652140962529594614C859
:104AB00010B5544B98B019461A680192019AD20762
:104AC000FAD5514B514A1A600A680292029AD407E9
:104AD000FAD54F4A1A600A680392039AD007FAD5AA
:104AE0004C4818600A680492049AD207FAD54A4AD8
:104AF0001A600A680592059AD407FAD5474A1A60DF
:104B00000A680692069AD207FAD5454A1A600A68D8
:104B10000792079AD407FAD5424A1A600A6808929F
:104B2000089AD207FAD5404A1A600A680992099A87
:104B3000D407FAD53D4A1A600A680A920A9AD2073F
:104B4000FAD53B4A1A600A680B920B9AD407FAD539
:104B5000384A1A600A680C920C9AD207FAD5364A7B
:104B60001A600A680D920D9AD407FAD5334A1A6072
:104B70000A680E920E9AD207FAD5314A1A600A686C
:104B80000F920F9AD407FAD52E4A1A600A6810922B
:104B9000109AD207FAD52C4A1A601A4B19461C688B
:104BA0001194119CE407FAD5174B1860086812900D
:104BB0001298C407FAD51A600A681392139AD0079C
:104BC000FAD5124A1A600A681492149AD207FAD5D2
:104BD0001E4A1A600A681592159AD407FAD51C4A1B
:104BE0001A600A681692169AD007FAD5194A1A60FE
:104BF0000A681792179AD207FAD5174A1A6018B09E
:104C000010BD00BFB0B0025080B0025000936521CB
:104C100000043190409665900083612100C33021EB
:104C200000C3649000816190004610210081112131
:104C30000041442100C320290C4610C800863121C0
:104C400000C3602140C1282940966521001331909E
:104C500040962529594614C8400432492DE9F041AF
:104C6000814B1D6898682033A0B01E461A680192D7
:104C7000019AD707FAD57D4B7D4A1A6032680292B5
:104C8000029AD407FAD57B4A1A607B4A1446116807
:104C900003910399C907FAD5784A1168C1F34021F5
:104CA00037680497049FFF07FAD5754F1F60276880
:104CB0000597059FFF07FAD51768002900F0CF80F8
:104CC000B90540F1CC80316806910699CF07FAD535
:104CD0006C491960216807910799C907FAD51168CD
:104CE000C1F3402137680897089FFF07FAD5664F40
:104CF0001F6027680997099FFF07FAD512680029E6
:104D000000F0AF80910540F1AC8032680A920A9AB7
:104D1000D207FAD5564A1A6032680B920B9AD70717
:104D2000FAD55A4A1A6031680C910C99CC07FAD519
:104D30005749196031680D910D99C907FAD5554940
:104D4000196031680E910E99CF07FAD55249196052
:104D500031680F910F99CC07FAD550491960504B23
:104D60001E46196810911099C907FAD53F4C4D4B52
:104D7000236033681193119BDB07FAD54A4B2360FC
:104D800033681293129BDF07FAD5484B23603A4BE6
:104D90009846196813911399C907FAD5324F3860AC
:104DA00033681493149BDB07FAD52260336815939C
:104DB000159BD807FAD53E4B236033681693169B94
:104DC000D907FAD53B4B236033681793179BDA0753
:104DD000FAD5394B236033681893189BDB07FAD553
:104DE000364B236033681993199BD807FAD5344B97
:104DF000236033681A931A9BD907FAD5314B236085
:104E000033681B931B9BDA07FAD52F4B236000F006
:104E1000D1F908BBD8F800301C931C9BDB07F9D5EF
:104E20003D6033681D931D9BD907FAD5274B23603E
:104E300033681E931E9BDA07FAD5254B2360D8F8FA
:104E400000301F931F9BDB07F9D50C4B1B6813F435
:104E5000805F204B08BF184620B0BDE8F0811E4897
:104E6000FAE71E48F8E700BF90B0025080B0025049
:104E700000100251C01F7229B4B0025088B0025015
:104E8000C0CF0129C01F0E29C03F0029400102499F
:104E9000003184A800001649400108A18044088818
:104EA000B0B00250C044708880077A41C0077E418C
:104EB00000006A498006164940006E490002002140
:104EC00000822021408220218082242140A161A1F2
:104ED00000C861510308F1000108F1000208F10067
:104EE00008B540B1202801464FF0070228BF202115
:104EF0000020FFF72DFC024B00221A6008BD00BF06
:104F00001CB80250F0B51D6885B001F01F040DB942
:104F10001F2C25D1154D2E462F680197019FFF07A5
:104F2000FAD500F1A05000F52C40800000683568EB
:104F30000395039DED07FAD50D4D00EB6110286038
:104F40000C48006802901F2C18BFC94302980FBF7D
:104F5000106001F01F0100FA01F1116000211960D9
:104F600010684300C00F136005B0F0BDB4B002502C
:104F7000E4B00250DCB0025030B51E4B85B01A468A
:104F8000196800910099CC07FAD500F1A05000F5FE
:104F90002C408000016813680193019BD807FAD563
:104FA000154B164C1868164D1F30202390FBF3F05C
:104FB0000138002810DA00230130400153B1A0F17C
:104FC00020014FF00042134204D1013888424FEAD9
:104FD0005202F8D105B030BD13680393039BDB0781
:104FE000FAD5431823602B680293029B002BE3D170
:104FF0000138DEE7B4B00250ACB00250E4B0025069
:10500000DCB002500A460021AFF3008038B5A0F1B1
:105010002003B3F5426F05462CD88F2826D800F11F
:10502000470300F16604DB064FEA541400D0013454
:1050300064013F34A409013411B1A1421AD30C46D2
:10504000E3004FF48050B0FBF3F0202828BF20206D
:1050500002B11060084B01221A60214600F068F886
:105060002846214600F088F8002038BD00F11F04D2
:105070006409DDE70148F8E71CB802502221F0007E
:1050800070B5264888B0054604680094009CE60781
:10509000FAD52348234C0460234C44EA83432C680C
:1050A0000194019CE407FAD50360930143EA82422C
:1050B00042F0104444F4C0442B680293029BDE0784
:1050C000FAD504602B680393039BDB07FAD5174BD3
:1050D00003608B0143EA814141F0104343F4C04334
:1050E0002E680496049EF607FAD503602B68059394
:1050F000059BDE07FAD5046041F058412B68069302
:10510000069BDC07FAD5016042F058422B680793F2
:10511000079BDB07FAD5026008B070BDB0B0025043
:1051200080B00250C02102298071009880611890DF
:10513000002230B549001346023840F6FC7502F1F2
:10514000A05404F52C44A400904202F10102CABF0D
:10515000236025605B181E2AF1D1044A13600B44BA
:105160005360034B034A1A6030BD00BF78B0025051
:1051700084B0025020F80F000C4B18603F3020F034
:105180003F008901403058609960D96019615961C8
:1051900099611C330648196082B002680192019A35
:1051A000D207FAD5196002B0704700BF90B0025024
:1051B000B4B002502DE9F041012392B0CDE90333A0
:1051C000624B1D461A680592059AD207FAD5604CC3
:1051D000604B2360604B19461A680692069AD707FF
:1051E000FAD55E4B1A68D60400F1A8802A680792A7
:1051F000079AD007FAD55A4A22600A680892089A94
:10520000D207FAD51E68C6F30036002E40F098800B
:105210001220FFF7B1FE07461320FFF7ADFE8742CD
:105220008CBF12201320FFF7A7FE471EFFF73CF9A3
:1052300003AB01AA39461220FFF764FE04AB804697
:1052400002AA39461320FFF75DFE00EB4800022852
:1052500032D003283ED0012874D12B680993099BD2
:10526000DB07FAD53F4B23602B680A930A9BD807CC
:10527000FAD53D4B23602B680F930F9BD907FAD5C6
:105280003A4B23602B681093109BDA07FAD5384B02
:1052900023602B681193119BDB07FAD5354B2360F4
:1052A000013F25D51023192218210020FFF7E8FE21
:1052B000304612B0BDE8F0812B680B930B9BD907E9
:1052C000FAD52D4B23602B680C930C9BDA07FAD58B
:1052D0002A4BCFE72B680D930D9BDB07FAD5284BA4
:1052E00023602B680E930E9BD807FAD5254BC1E798
:1052F00003AB01AA39461220FFF704FE04AB0446B3
:1053000002AA39461320FFF7FDFD10EB440402D139
:10531000FFF7CEFBC4E7FFF70FFB022C08D0032CEE
:1053200009D0012C10D117211620FFF747F9B7E754
:1053300015211420F9E70F210E20F6E7124EB7E7EA
:10534000124EB5E7124EB3E7124EB1E7B0B00250BD
:1053500080B0025000084A51B4B0025088B00250E8
:1053600000084E5100065A4940065E490004424179
:105370000014424940042E4900065249400656494D
:1053800000063A4940063E490608F1000708F100C8
:105390000408F1000508F100014B1860704700BFD8
:1053A00008BA0250014B1860704700BF04BA02509F
:1053B000094BC2431A60043B82B01B680193074B40
:1053C000019A024204D0064A1060186802B0704781
:1053D00020BF1A680192F3E704BA02502448002063
:1053E00008BA0250FEF7B2BFFEF7DABF0A46002144
:1053F000FEF7D6BF2DE9F74305460E4699461146FE
:1054000000F060FA0446002840F08480002E00F08E
:105410008580002900F08480B9F1200F40F082805F
:1054200005F14404082205F104082046FFF72EF890
:1054300005F12407082231464046FFF727F806F118
:10544000200108223846FFF721F802A94FF48070A6
:1054500041F8049DFFF7D6FD002865D1334A4FF48B
:1054600080731360012193600823314AFFF708FA23
:105470000121084605232F4AFFF702FA0823424676
:1054800001211C20FFF7FCF908233A4601210320E3
:10549000FFF7F6F92246082301210220FFF7F0F971
:1054A0000823254A01211A20FFF7EAF90523234A98
:1054B00001211B20FFF7E4F90823214A01211420D0
:1054C000FFF7DEF908231F4A01211520FFF7D8F95D
:1054D000082305F1640201211620FFF7D1F9082302
:1054E00005F1840201211720FFF7CAF90823164AA3
:1054F00001210B20FFF7C4F9FFF7B0FB0446019828
:10550000FFF7EEFC114B002C18BF1C46A4212846C7
:10551000FFF76CFF204603B0BDE8F0830C4CF9E7C1
:105520000C4CF7E70C4CF5E7084CEFE790B0025055
:10553000A4F10E001CF20E0064F10E0008F20E0041
:10554000C8F10E00E8F10E0084F10E008408F000AE
:105550007608F0008008F0008108F00038B50D46AC
:105560000446B0B1A02200210430FFF73DFF95B101
:105570000822294604F16400FEF788FF082205F19D
:10558000200104F18400FEF781FF044B236000201A
:1055900038BD0348FCE70348FAE700BFDD55AABB66
:1055A0007108F0008308F0002DE9F041069F0446E1
:1055B00015461E46FFF7D2FF38B93B46324629460C
:1055C0002046BDE8F041FFF715BFBDE8F0810000BF
:1055D0002DE9FF41144B04460E460FCB6F4687E87A
:1055E0000F00204600F07EF98046B0B9CEB1636A64
:1055F000251D01953BB901236362226F04F130013F
:10560000384600F087F82B46043E243453F8042B28
:1056100012BAA34246F8042FF8D1404604B0BDE8C0
:10562000F081DFF80880F8E734F10E000502F000A1
:1056300038B5044668B1051D70212846FFF7D6FE2F
:10564000284620220449FFF7CDFE044B23600020AA
:1056500038BD0348FCE700BF44F10E00DD55AABB8E
:105660000002F0002DE9F043284B04460E46154693
:105670000FCB85B06F4687E80F002DB94FF00009BA
:10568000484605B0BDE8F083204600F02BF981467E
:105690000028F5D1231D0193636AA3BB236F8BB14F
:1056A000C3F14008A84528BFA84604F130003146A0
:1056B00018444246FFF796FE236F4344464423674F
:1056C000A5EB0805226F402A06D104F130013846C7
:1056D00000F020F80023236705F03F0835F03F0570
:1056E00005D031462A46384600F014F82E44B8F169
:1056F000000FC3D04246314604F13000FFF772FE7E
:10570000C4F87080BCE7DFF80890B9E734F10E0008
:105710000C02F0002DE9F74F314B44688046924669
:1057200099461A68002AFCD12E4B9B461A68002A1B
:10573000FCD14FF0FF300191FFF72EFE8020FFF7E4
:1057400031FE294D294A2A4F2A4E012307202B607A
:10575000A2F59E72C2F83C011360636A3B60A36AC3
:105760003360D8F8003042F8043CD8F808302046BE
:1057700098470199D9F80030002BFBD1BAF1000FFE
:1057800020D11D4B04221A60D9F80030002BFBD128
:10579000DBF800A0BAF1000FFAD1D8F80C3020469F
:1057A00098473B6863623368A362144BC3F800A058
:1057B000C3F844A1D9F80030002BFBD12B6003B013
:1057C000BDE8F08F236A012B04BF0C4A13600C4B19
:1057D00040201960C3F804A0FFF7EAFDD4E700BF3A
:1057E00010B9025020BC025018B8025000B9025043
:1057F000CCB70250D0B70250C8B7025084B602509E
:1058000028BC0250084B1B681B0EF02B08D1074B1D
:105810001A68074B9A4205D1064B00201860704762
:10582000052070470620704728B9025024BA02505C
:105830000000E0200CBA02500C4B1B68C3610C4BFB
:105840001B6883610B4B1B6843610B4B1B68036137
:105850000A4B1B68C3600A4B1B688360094B1B68BB
:105860004360094B1B680360704700BF5CB6025081
:1058700058B6025054B6025050B602504CB60250C0
:1058800048B6025044B6025040B602500C4BC269B2
:105890001A60826943F8042C426943F8082C0269B3
:1058A00043F80C2CC26843F8102C826843F8142C7F
:1058B000426843F8182C026843F81C2C704700BF5C
:1058C0005CB6025030B10268034B04489A4208BFEC
:1058D0000020704702487047DD55AABB8208F000DF
:1058E0007108F00030B10268034B04489A4208BFC7
:1058F0000020704702487047DD55AABB0202F00045
:105900000002F0002DE9F0411E4E4FF48271D6F8EE
:10591000040130B11C48C268521CC260304605F018
:10592000ADFB00254FF4A07707EB85018AB2304626
:10593000B25812B389B205F0A1FB1348103000EB46
:105940000514204608F020F8104811492246401A54
:10595000C008042101EB00400EA105F045F9616883
:1059600019B1204607F066FF07E0A16811B1204693
:1059700007F060FF206800B180476D1C022DD3D373
:10598000BDE8F0810040024014000020C8F20E0083
:1059900070F20E0074696D65725F66697265202829
:1059A000307825782900000000F056B970B50E4611
:1059B000144900EB400001EBC0051446E86A1835B5
:1059C00020B101280FD0022805D113E0284600F0AD
:1059D00079F9A04201D2002411E02246314628463E
:1059E00000F0A8F90BE0284600F06CF9A042F4D2D0
:1059F0000446F2E73146284600F06FF90446204697
:105A000070BD00009C37002030B54FF08050002260
:105A10008300D0F83011C3F80C21C3F81021624B79
:105A20001A60624B1B68624C2360604B1B1D1B6835
:105A3000241D23605D4B08331B68241D23605B4BD2
:105A40000C331B68241D2360584B10331B68241D26
:105A50002360564B14331B68241D2360534B1833AB
:105A60001B68534C20342360504B1C331B68241D8F
:105A700023604E4B20331B68241D23604B4B243383
:105A80001B68241D2360494B28331B68241D236099
:105A9000464B2C331B68241D2360444B30331B685A
:105AA000434C40342360414B34331B68241D236036
:105AB0003E4B38331B68241D23603C4B3C331B6832
:105AC000241D2360394B40331B68241D23600123B0
:105AD000082902D1D0F8344114B1082904D006E0D5
:105AE000354C3449216005E0D0F8344114B108291F
:105AF00004D006E0314CFB21216005E0D0F83441B0
:105B000014B1082908D00EE090F858422C480168DA
:105B100064F30301016002E0D0F834411CB9294963
:105B20004FF40070086028480168C90702D06FF080
:105B3000010101602548016841F470010160BFF373
:105B40004F8FBFF36F8F4FF01021D1F80002002864
:105B500003DBD1F80402002822DA1D4C23601D4823
:105B60000368002BFCD01223C1F800320568002D19
:105B7000FCD0C1F8043201680029FCD02260016821
:105B80000029FCD0BFF34F8F10487C380168124ABF
:105B900001F4E06111430160BFF34F8F00BFFDE7E7
:105BA0000F490E48086030BD38050040040400105D
:105BB00020C50040488103008C56004018F5004085
:105BC000E40E0040409602400004004088ED00E0F2
:105BD00004E5014000E401400400FA050090D00310
:105BE0002801002010B5054C206818B904A12B200D
:105BF00000F089FB2068BDE810400047AC000020A1
:105C00002E2E5C2E2E5C2E2E5C2E2E5C2E2E5C6D8F
:105C10006F64756C65735C6E7266785C64726976CD
:105C20006572735C7372635C7072735C6E726678BB
:105C30005F7072732E630000064808B50021016092
:105C40000068009005F08EF804F060FE0028FBD19B
:105C500008BD00000001014010B5124C0220206177
:105C6000606111A0A06104F17800E0614FF4805000
:105C700020620020A06260620BA1A164E0620D4975
:105C8000E1641021A065C4E91410E0650AA1E01DDB
:105C9000FEF7A3FB09A12046FEF79FFB2020A07181
:105CA00010BD00009C3700205465726D696E616CF8
:105CB0000000000014480020525454005345474748
:105CC000455200000269C1688A4203D88068401AC0
:105CD000104400E0501A401E70472DE9F047C46898
:105CE0001746894606464FF000083069A04201D9A0
:105CF000051B02E0B168201A0D1AB0686D1E001B6A
:105D0000A84200D80546BD4200D33D4670682A46E9
:105D100020444946FEF71AFBB0687F1B2C44A84478
:105D2000A944A04200D10024F460002FDDD14046F8
:105D3000BDE8F0872DE9F04104468846D4E9020722
:105D4000C51BE168606816460844B54206D941465D
:105D5000FEF7FCFAB819E060BDE8F0812A4641463A
:105D6000FEF7F4FA761B08EB050132466068FEF791
:105D7000EDFAE660F0E702E008C8121F08C1002A49
:105D8000FAD170477047002001E001C1121F002ABC
:105D9000FBD17047800701D0002070470120704779
:105DA00040680068401E084201D101207047002071
:105DB0007047C3688B4206D811440069491E81426E
:105DC00001D8012070470020704700002DE9F05FE6
:105DD000DFF89CB05C46DBF84890DBF8246002F00A
:105DE000F9FB216B4718751A22482349401AC1084C
:105DF000042000EB0140804620A104F0F1FE216B5D
:105E00004944B94200D1002508232A46384601F00A
:105E10005FF90700184817494FF0010AA1EB00008D
:105E20004FEAD0010AEB014404D020461AA104F045
:105E3000D7FE19E002F0CEFB0022314600F0BAFD99
:105E4000DBF828200546D946AA4208D1404619A1C8
:105E500004F0C6FEC9E9075AC9F8186004E02046F4
:105E60002B461A4904F0C7FE3846BDE8F09F0000F3
:105E7000481E0020C8F20E0070F20E00456E7465D8
:105E800072206E72665F6466755F6170705F636FCB
:105E90006E74696E756500004661696C6564207496
:105EA0006F20636F7079206669726D776172652EFD
:105EB0000000000053657474696E67206170702083
:105EC00061732076616C69640000000014E60E00C6
:105ED00008B51346024600930648074BC01AC0088F
:105EE000012303EB00400B4604A104F08CFE05F0F7
:105EF000D7FF0000C8F20E0070F20E005265636515
:105F0000697665642061206661756C74212069641E
:105F10003A203078253038782C2070633A20307859
:105F2000253038782C20696E666F3A20307825301D
:105F300038780000024606480649401AC008012188
:105F400001EB004004A104F04FFE05F0A9FF0000A2
:105F5000C8F20E0070F20E005265636569766564E2
:105F600020616E206572726F723A20307825303869
:105F7000782100002DE9F04107461E4E1E481F49BA
:105F8000326A401AC508012A04D0032000EB0540FC
:105F90001BA12BE04FF44050184B174C4168E31AFB
:105FA000234A0220DB0800EB0344914206D1C102E0
:105FB0003B462048726B00F05BFA90B102F00AFB9E
:105FC00001461C483B464130B26900F051FA58B1D5
:105FD000042000EB054018A104F002FE0120BDE8FA
:105FE000F081204618A101E0204626A104F0F8FD2A
:105FF0000020F4E7481E0020C8F20E0070F20E00E8
:10600000426F6F742076616C69646174696F6E2091
:106010006661696C65642E204E6F2076616C6964E0
:106020002061707020746F20626F6F742E0000000A
:10603000DBE5B151A8200020417070206973207603
:10604000616C696400000000426F6F742076616CBF
:1060500069646174696F6E206661696C65642E2085
:10606000536F667444657669636520697320707246
:106070006573656E742062757420696E76616C69F3
:10608000642E0000426F6F742076616C69646174E5
:10609000696F6E206661696C65642E2041707020A6
:1060A000697320696E76616C69642E002DE9F04792
:1060B000244C8146924660880E4681423FD84FF676
:1060C000FF77002000F076F822786078A188884277
:1060D00001DA401C00E00020C0B2904203D1002051
:1060E00000F096F829E065784FF000086078884263
:1060F00001DA401C00E000206070002000F088F809
:10610000BD421AD0A068B9F1000F40F835A00DD0FB
:1061100066B16188E068324605FB01004946FEF73A
:1061200015F9A06800EBC500868003E000EBC50010
:10613000A0F804800020BDE8F0870420FBE70920D8
:10614000F9E70000B400002010B50E4C03E0401C3D
:1061500000E00020207020786178814210D0227801
:106160006188E068A36802FB010003EBC20153F8F9
:106170003220898890472078A1888842E9DAE6E7CA
:1061800010BD0000B400002030B5CB0008339DB234
:1061900093074FF0000401D0072030BD044B9A60F4
:1061A0002A44DA605C701C7058809980002030BDF1
:1061B000B400002010B506F063FD012803D004A14F
:1061C0001D2000F0A0F8BDE8104000F04FB800001E
:1061D0002E2E5C2E2E5C2E2E5C2E2E5C2E2E5C63C4
:1061E0006F6D706F6E656E74735C6C6962726172F4
:1061F0006965735C7574696C5C6170705F757469F6
:106200006C5F706C6174666F726D2E6300000000CD
:1062100010B506F035FD012803D004A12B2000F0B5
:1062200072F8BDE8104000F029B800002E2E5C2E58
:106230002E5C2E2E5C2E2E5C2E2E5C636F6D706F8E
:106240006E656E74735C6C69627261726965735CB1
:106250007574696C5C6170705F7574696C5F706C8B
:106260006174666F726D2E630000000072B60248A2
:106270000168491C01607047C40000200349086898
:10628000401E086000D162B670470000C4000020C4
:1062900070B5054608680C46411C04D004F04CFA61
:1062A000206804F0B5F96068411C02D0002104F0B8
:1062B000A6F92968A069C1F82405607D217D2A68B6
:1062C0000843C2F86C05D4E900122868C0F80C1520
:1062D000C0F81425207D012814D1A068411C02D0EB
:1062E000002104F08CF9E068411C04D004F024FA89
:1062F000E06804F08DF9D4E902122868C0F8082596
:10630000C0F8101570BD1CB56A46ADF800000191CB
:10631000002144F20200FFF7DBFD1CBDF8B5214867
:106320000146456AC06A8C6CAC2801D024B106E0F5
:10633000486B04442D1A02E002F060F904461A4842
:106340001A492346401AC708042000EB07400646B6
:10635000174A18A1009504F056FC2A462146144815
:10636000FEF72EF8D0B130462B4622461FA104F08E
:1063700042FC00BF04F0CAFA0028FBD101F09EFEE7
:106380002946204602F01CFD040005D0012000EB48
:10639000074022A104F024FC2046F8BD002430462A
:1063A00025A1F7E7481E0020C8F20E0070F20E008B
:1063B00000400E00566572696679696E6720424C2E
:1063C0003A20416464723A203078253038782C20A5
:1063D0005372633A203078253038782C204C656E23
:1063E0003A2030782530387800000000436F70790B
:1063F000696E6720626F6F746C6F616465723A20BA
:106400005372633A203078253038782C204C656EF2
:106410003A203078253038780000000052657175D8
:1064200065737420746F20636F707920424C20660E
:1064300061696C65640000004E6F20626F6F746C60
:106440006F6164657220636F7079206E6565646545
:10645000642C20626F6F746C6F616465722075705C
:106460006461746520636F6D706C6574652E0000E7
:1064700013B90378012B01D003F088B901207047CC
:106480000022C32100F5187000F094BA2DE9F04302
:10649000A3B00446DDE92A9620200F4621909846B5
:1064A00015467C2102A8FDF779FF41212046FDF722
:1064B00075FFB7F8940005EB051107EB8101A842C1
:1064C00001D991F896602670320033D0012A0DD0A0
:1064D0001B481C4D0123401BC00803EB0045022A4A
:1064E0000CD0032A20D0284617A117E000224946E5
:1064F000404600F05FFAC4F801001BE021A9601CCF
:10650000CDE900014B464246184902A801F032FF8E
:1065100080B104F0D5FD0246284615A104F064FBC5
:10652000002023B0BDE8F083B1F89820601C9A31B8
:10653000FDF70CFF4A464146204603F027F9F0E7F5
:1065400098F20E0070F20E00496E76616C6964205C
:10655000626F6F742076616C69646174696F6E201C
:10656000747970653A2025640000000094E00E0004
:106570006E72665F63727970746F5F686173685F73
:1065800063616C63756C6174652829206661696C50
:1065900065642077697468206572726F7220257354
:1065A0000000000010B504460A480B49401AC00814
:1065B000042101EB004009A104F012FB4FF00000A0
:1065C00034B10C490870BDE810400B4802F068BEB9
:1065D00000F09EFCC8F20E0070F20E00526573656A
:1065E0007474696E6720626F6F746C6F616465723A
:1065F0002E00000008000020116F0E002DE9FC4164
:106600000646C0074FF000050ED0104F00240122AF
:10661000385D009500231146019503F0B5FF641C19
:10662000042CF4D300F064F8B0070DD5074E002415
:10663000361D0022305D032300951146019503F0BD
:10664000A3FF641C042CF4D3BDE8FC8176E00E00AB
:1066500010B50446042803D305A12120FFF753FEFB
:106660000E480121005DBDE8104004F06FB8000045
:106670002E2E5C2E2E5C2E2E5C2E2E5C2E2E5C631F
:106680006F6D706F6E656E74735C626F6172647350
:106690005C626F617264732E6300000076E00E002E
:1066A00010B50446042803D305A11B20FFF72BFED9
:1066B0000E480021005DBDE8104004F047B800001E
:1066C0002E2E5C2E2E5C2E2E5C2E2E5C2E2E5C63CF
:1066D0006F6D706F6E656E74735C626F6172647300
:1066E0005C626F617264732E6300000076E00E00DE
:1066F00010B500242046FFF7ABFF641C042CF9D32F
:1067000010BD00002DE9F0470546861C90460F4657
:106710004FF001090020FFF74DFD1B4C2068386049
:10672000D4E90001401AA168081A41F21C01671857
:106730000EE00121384601F05DF800F0FBFE014655
:10674000384601F057F8D4E90001401AA168081A48
:10675000401C8642EDD8B8F1000F03D0052065F348
:10676000891002E0062065F39F50A268216811405D
:1067700004EB8101C8602068304420600020FFF7EE
:1067800047FD4846BDE8F0877827002010B54368EC
:106790009C18446021B905E013F8010B01F8010BC6
:1067A000521EF9D2012010BD70B50D4604460A29CB
:1067B00002D10D21FFF7F8FFA0682268411CA160FB
:1067C0001554D4E90101814204D32046BDE870404C
:1067D00003F04EBC70BD0000034803C8814201D1E4
:1067E00001207047002070477827002010B5054829
:1067F000012101F015F8BFF35F8F08B1002010BD33
:10680000012010BD4800002010B5064C206801286A
:1068100003D005A16D20FFF776FDBFF35F8F002049
:10682000206010BD480000202E2E5C2E2E5C2E2EE7
:106830005C2E2E5C2E2E5C636F6D706F6E656E74B9
:10684000735C6C69627261726965735C6D757465A5
:10685000785C6E72665F6D74782E68000449002063
:10686000086004494FF48060C1F88001704700005F
:1068700000A5025004E000E003490120086003493C
:106880008002C1F80001704700A5025004E000E05A
:1068900070B500F10805106814460E46202802D293
:1068A00048F2145070BDFFF7A1FF90B1FFF7E4FF6D
:1068B00031462846FEF78CFE0546FFF7CFFFFFF76F
:1068C000A3FF284600F0E0FB0028EBD12021216047
:1068D00070BD48F2045070BD10B50830FEF7A8FE38
:1068E000BDE8104000F0D0BB2DE9F04700F10809E9
:1068F0000E461446FFF77AFFB8B1FFF7BDFF4FF41D
:1069000080584546AC4200D825462A4631460E48B6
:10691000FDF71CFD2A460C494846FEF7A3FE07007A
:10692000A4EB05042E4404D005E048F20450BDE871
:10693000F087002CE5D1FFF791FFFFF765FF3846A0
:10694000BDE8F04700F0A0BB6005002070B50B4823
:1069500000240460BFF35F8F094D01202860FEF71B
:1069600051FF01002C604FF0030004D0052901D134
:1069700048F2035070BD002070BD000048000020A8
:1069800000A50250014900200860704700A5025090
:1069900010B5040003D10549CA20FFF7B4FC044830
:1069A000C16B6160006CA06010BD000070E70E005C
:1069B000481E0020F0B54FF0FF3622B11268D243D6
:1069C00000230A4D0DE03246FAE7C45C6240082419
:1069D000D70700D037462F4087EA5202641EF7D10E
:1069E0005B1C8B42F1D3D043F0BD00002083B8ED97
:1069F00010B504460068401C07D0204606F090FC05
:106A00002168814201D1012010BD002010BD00008D
:106A100010B5104C90B06078002818D101F00EFD30
:106A200018B10D49B520FFF76EFC20220B496846CE
:106A300001F024FD40236A4609490A4801F030FC70
:106A400018B10549BF20FFF75EFC0120607010B04F
:106A500010BD00008C0000200CEB0E0028E00E00A2
:106A6000F424002088E00E00F0B5146906468DB0CD
:106A700020681546271DE0B1022920D00A20009089
:106A80006B4609AA304606F01CF900280FD009A968
:106A900001A8009A05F09EFE01AE96E80F0005AE33
:106AA00086E80F00236869683A4605A898470DB044
:106AB000F0BD0DB03046BDE8F04005F0FFBE6946C0
:106AC000304605F091FE0028F1D0236869683A4607
:106AD000684698470028EAD002980028F5D1019826
:106AE00070600120E3E753689B7813F0C00303D084
:106AF000402B03D00020704700F002B8FFF7B4BF6E
:106B00002DE9FF410B465168064614468878334DFF
:106B100000F00F0210F0300055F8225006D0102877
:106B200006D0202808D0302856D13EE022694DE01A
:106B300061690120087047E0022B28D1042A26D879
:106B40004FF0010869463046676905F04DFE0028A0
:106B50001AD009E00B89226903FB00226846A84786
:106B600070B13888401C3880029820B1616838883C
:106B70004A899042EED301987060029860BB02E0AF
:106B80004FF00008F7E7404604B0BDE8F081D4E9D3
:106B900004300F890288498907FB02338A421BD2DD
:106BA000521C02801A46616810E008886169072A51
:106BB000088009D1606801892069FDF7EFFB6068F2
:106BC0002169C06805F02BFE2269616804B0304677
:106BD000AC46BDE8F04160470020D5E77CE40E00FC
:106BE00038B51E4901200A68D20301D500040CE023
:106BF0001B490A681523D2B2B3EBD20F07D10A683A
:106C0000D20704D0086800F0560008600020FFF7A3
:106C1000B1F91449144A891AC908042202EB014443
:106C2000B0B119200090684603F02AFDD0F8100595
:106C30000099C84010F0010F0DD004F00BFA10F0CD
:106C4000B10004D0204609A103F0CAFF012038BDDD
:106C500020460FA1F8E7204616A1F5E70004004002
:106C600020050040C8F20E0070F20E004446552088
:106C70006D6F6465207265717565737465642076E7
:106C800069612047505245475245542E000000008C
:106C9000444655206D6F6465206265636175736558
:106CA00020617070206973206E6F742076616C694A
:106CB000642E0000444655206D6F64652072657136
:106CC0007565737465642076696120627574746F8C
:106CD0006E2E0000FEB519490446086808B1401E32
:106CE00008601748174AD4E90153801AC0080422E3
:106CF00002EB004022789DB10E6821690296CDE931
:106D000000312B46012A16D00FA211A103F08EFFED
:106D10006169002911D0E06803B0BDE8F040084780
:106D200009680091012A04D007A218A103F06BFFA3
:106D3000EEE720A2F9E71FA2E7E7FEBD5000002022
:106D400078F20E0070F20E0065726173650000004B
:106D5000466C617368202573206661696C656420E8
:106D60002830782578293A20616464723D25702C9A
:106D7000206C656E3D307825782062797465732CBF
:106D80002070656E64696E6720256400466C6173CF
:106D90006820257320737563636573733A2061649B
:106DA00064723D25702C2070656E64696E672025C5
:106DB00064000000777269746500000010B508284F
:106DC0001BD2DFE800F004121A1A1A041A04012078
:106DD000FFF714FC0020FFF763FC0120FFF760FCC5
:106DE000BDE810400220FFF733BC0120FFF730FC64
:106DF000BDE810400220FFF753BC10BD10B504469B
:106E0000801E062810D2DFE800F00D03030F0909E9
:106E10000A494FF4701000F027FF05E00120FFF74A
:106E2000C1FB01E002F0B4FA05484168002903D033
:106E30002046BDE81040084710BD000041720E001A
:106E40000800002010B50446062801D0072C02D106
:106E5000002002F0DDFB04480168002903D0204631
:106E6000BDE81040084710BD4C00002010B5FF22BF
:106E70004FF400710648FDF78AFA054820212438AE
:106E8000FDF78CFA024900205C39086310BD000050
:106E9000A41E002070B5427805460C46012A09D090
:106EA0000F481049401AC008022101EB00400EA112
:106EB00003F09AFE287808280BD16088401E81B222
:106EC0006180208800280AD0002908D16080032032
:106ED000287029462046BDE8704005F023BF70BDEC
:106EE000D0F20E0070F20E004446552072657175A6
:106EF00065737420636F6D706C6574656420776969
:106F0000746820726573756C743A20307825780047
:106F100003F028FF03F0FAFC0028FBD1BFF34F8FEA
:106F200005480168054A01F4E06111430160BFF3BF
:106F30004F8F00BFFDE700000CED00E00400FA05F4
:106F400010B50021024800F06BFC80F3100010BD6A
:106F5000943700202DE9FC4180461F4615460E4619
:106F600000240D4800F043FC38B11120BDE8FC813D
:106F700006EB043004F01CF8641CAC42F8D106485F
:106F800000F02CFCCDE90057334600220221404698
:106F900000F004F80020E9E7C80000202DE9F043E4
:106FA00087B00446DDE90E8980681D4616460F4607
:106FB00000280BD018216846FDF7F0F902A88DF8DB
:106FC000007080E86003A1686846884707B0BDE8A4
:106FD000F0830B2803D30B38C0B200F009B8704718
:106FE0000249002208780A7070470000540000200F
:106FF000014908700B20704754000020014901200E
:10700000087070470800002001490120087070478F
:107010004400002070B515460E46040004D107490F
:1070200040F29220FFF76FF92A46314604F17200D0
:10703000BDE87040012302F0FBBB00000CEB0E002A
:1070400010B5040003D10E49B520FFF75CF9207894
:1070500018B90B49B620FFF756F994F855000949BD
:1070600038B1012805D06068C968884205D9012077
:1070700010BD606889688842F9D24FF0000010BDE9
:1070800054EB0E00481E002010B50F4C48F203517F
:10709000031B48F21652A04211D007DC00280AD088
:1070A0000A4BC01808D0012804D10BE00A2B01D0EC
:1070B0000D2B07D0104610BD48F2015010BD48F20C
:1070C000025010BD084610BD0202F00000FE0FFF86
:1070D0002DE9FC5F16460746394A3A481D46101A04
:1070E00004224FEAD00902EB09408B468246B9429E
:1070F00005D135A103F074FD0020BDE8FC9F04D24A
:1071000035494FF02900FFF7FEF81DB932492A2012
:10711000FFF7F9F8380503D02F492B20FFF7F3F8D4
:10712000ABEB0700040B03D12B492E20FFF7EBF844
:107130000020009006F6FF704FEA103800F0D2FFF2
:10714000A54239D22C4637E0A04503D83546CDF8C4
:10715000048001E02503019400223846019901F0E2
:10716000DBFC0028C9D150463B465A461BA100957E
:1071700003F049FD681E00F003002A1A0023594657
:107180003846D21C01F060FD0028B6D101991C4898
:10719000A8EB0108761B016B2F4429440163AB4423
:1071A000002002F0DDF9009030B1012101EB09402F
:1071B00014A103F015FD01E0002EC5D100989CE755
:1071C000C8F20E0070F20E004E6F20636F707920CF
:1071D0006E65656465640000C4E50E00436F7079F8
:1071E000696E67203078257820746F203078257894
:1071F0002C2073697A653A203078257800000000E9
:10720000481E00204661696C656420746F207772A7
:1072100069746520696D61676520636F7079696E57
:10722000672070726F677265737320746F20736567
:107230007474696E677320706167652E00000000CA
:107240000748084910B5401AC008032101EB004067
:1072500005A103F0C5FCBDE810400120FFF7A2B96D
:10726000C8F20E0070F20E00496E616374697669AF
:1072700074792074696D656F75742E0001494160E1
:1072800000207047E8E20E002DE9FC5F0E00834607
:10729000DDE90C47C6F1000098469246814600D4CD
:1072A0000846012503E000BF90FBFAF06D1C504535
:1072B000FADAA84500D9454624B1002E01DB78074B
:1072C00000D5641EB80702D5B8F1000F0AD0F80740
:1072D00008D13CB1A54205D220215846641EFFF7D3
:1072E00063FAF6E7002E02DA4E462D2102E0780717
:1072F00003D52B215846FFF757FA07F00300022861
:107300000BD1B8F1000F08D13CB1A54205D2302114
:107310005846641EFFF748FAF6E7CDE900474346B2
:1073200052463146584606F0FDFCBDE8FC9F000081
:1073300070B50E46044600684FF4887103F0CFFE26
:107340004FF49071206803F0CAFE4FF492712068E8
:1073500003F0C5FE4FF4A271206803F0C0FE4FF4A5
:10736000AC71206803F0BBFE20681449C0F8041318
:107370002068082E40F3073503D311A14520FEF7FE
:10738000C2FF7007000E002D06DA05F00F0101F1B3
:10739000E02181F8140D03E005F1E02585F80004F3
:1073A0002068012140F3073000F01F02914040099E
:1073B000800000F1E020C0F8001170BD1003420011
:1073C0002E2E5C2E2E5C2E2E5C2E2E5C2E2E5C69BC
:1073D0006E746567726174696F6E5C6E7266785CFC
:1073E0006E7266785F676C75652E680002460020D5
:1073F0001268530713D502F00300012802D00228B7
:107400000CD105E0C2F383100B68801C184404E023
:107410000223086803EB9252104408600120704771
:1074200002480068002800D001207047C8000020F2
:1074300038B54FF440521B49536800F500508B4259
:1074400004D044688C4201D1012400E000248B4226
:1074500026D143688B4223D11178142901D952696E
:1074600000E000221049B2FBF1F30278142A01D99E
:10747000406900E00020B0FBF1F0834203D001241A
:107480000AA2009002E000240AA200900B480C49D6
:10749000401AC008032101EB00400AA103F0B3FB2E
:1074A000204638BDDBE5B15140420F006D616A6F87
:1074B000720000006D696E6F7200000098F20E009D
:1074C00070F20E00536F66744465766963652075CB
:1074D000706461746520697320612025732076656E
:1074E0007273696F6E207570646174652E204375C8
:1074F0007272656E743A2025642E204E65773A20AC
:1075000025642E0070B5054608680C464A688668F2
:107510002846314605F0A4F86068286104F10C00A3
:107520006861B0780221B1EB901F01D1241D2C615C
:1075300070BD00002DE9FF410026264800F054F9F7
:107540002448001F074600F04FF9234C6068009064
:10755000A56800E000986946284004EB80000C30E4
:10756000FFF744FF0028F5D101AA009901EA0503BD
:1075700004EB8303491CDB6842F82030401C009177
:107580000228F2D3019800F0030001281AD0022843
:107590000ED012A14FF4AC70FEF7B5FE384600F0E5
:1075A00020F908B10098606004B03046BDE8F08171
:1075B0000198032101EB90500099BDF80A6001EB9E
:1075C000900005E00198BDF80A60C0F383100844FC
:1075D0000090E3E790370020782700202E2E5C2EC5
:1075E0002E5C2E2E5C2E2E5C2E2E5C636F6D706FCB
:1075F0006E656E74735C6C69627261726965735CEE
:107600006C6F675C7372635C6E72665F6C6F675FF2
:1076100066726F6E74656E642E63000000F036FD56
:1076200000224FF48051104600F03EFBD0B91648BE
:107630000022C0F57E2100F037FB98B900211348E5
:1076400003F05AFB03F04CF911481249401AC408E0
:10765000032000EB044010A103F0C2FA114800F02F
:107660003BFC08B1FEF766FC03F050F90028FBD1A3
:10767000012000EB04400CA103F0B2FA03F046F93C
:107680000028FBD1EEE7000000400E00917C0E00C8
:10769000C8F20E0070F20E00496E73696465206DC9
:1076A00061696E00BD6D0E004166746572206D618A
:1076B000696E2C2073686F756C64206E65766572D8
:1076C00020626520726561636865642E00000000B9
:1076D0002DE9F05F1E46DDF828B091468A46040089
:1076E00003D124A19020FEF70EFEB4F80680607945
:1076F00008FB00F8A8F10408464503D31DA19E200D
:10770000FEF701FEE788301DB0FBF7F1B0FBF7F2A2
:1077100007FB1200D9F80050AA19424501D9A8EB7D
:107720000605C9F8005001E02468491E0029FBD174
:107730003E1A8846AE4215D817E000BF2044001D0F
:107740000AEB0803BBF1000F324602D0014618468F
:1077500000E01946FCF7FAFD00202468AD1BB04498
:10776000AF4201D92E4600E03E46002DE6D1BDE8ED
:10777000F09F00002E2E5C2E2E5C2E2E5C2E2E5C9A
:107780002E2E5C636F6D706F6E656E74735C6C69CA
:10779000627261726965735C6D656D6F626A5C6E61
:1077A00072665F6D656D6F626A2E630030B502466A
:1077B00051B103F0BFFA0021074C08E034F8213042
:1077C0001568AB4202D11160002030BD491C8142D6
:1077D000F4D3052030BD000000000000002100F0BF
:1077E0000FB8002100F012B8012100F01EB80121ED
:1077F00000F011B808B56A46FCF743FD009808BDD3
:1078000008B56A46FCF723FD009808BD08B56A462E
:10781000FCF71DFD08BD08B56A46FCF70BFD08BD69
:1078200008B56A46FCF7FAFC08BD08B56A46FCF7DD
:1078300001FD009808BD08B56A46FCF72FFD0098C9
:1078400008BD000070B5040003D113A1FE20FEF7AF
:107850005AFD00252846FEF7ADFC206862680168E5
:10786000914214D9491E01600D781CB918A1C2209B
:10787000FEF749FD208AE16805FB00152068217AA2
:107880000278891A0279C9B28A4200D201710020B5
:10789000FEF7BEFC284670BD2E2E5C2E2E5C2E2ED2
:1078A0005C2E2E5C2E2E5C636F6D706F6E656E7439
:1078B000735C6C69627261726965735C62616C6C45
:1078C0006F635C6E72665F62616C6C6F632E6300E7
:1078D0002E2E5C2E2E5C2E2E5C2E2E5C2E2E5C63AD
:1078E0006F6D706F6E656E74735C6C6962726172DD
:1078F0006965735C62616C6C6F635C6E72665F621B
:10790000616C6C6F632E630070B50C46050004D18A
:1079100010A140F22110FEF7F6FC24B90DA14FF49E
:107920009170FEF7F0FC0020FEF744FC1DB91749EA
:10793000CF20FEF7E8FCE8682A68211A288AB1FB04
:10794000F0F11068431C13600170BDE87040002026
:10795000FEF75EBC2E2E5C2E2E5C2E2E5C2E2E5C38
:107960002E2E5C636F6D706F6E656E74735C6C69E8
:10797000627261726965735C62616C6C6F635C6E8C
:1079800072665F62616C6C6F632E6300D0780E006C
:1079900010B5040002D0206830B901E00E2010BDFF
:1079A00017A1D920FEF7AFFC606818B914A1DA203E
:1079B000FEF7A9FCA06818B911A1DB20FEF7A3FC13
:1079C000E06818B90EA1DC20FEF79DFC208A18B9EA
:1079D0000BA1DD20FEF797FC207A61682268401A2F
:1079E000C0B2116004E0226811684B1C136008707B
:1079F000401EC0B2F7D221680020087110BD0000FF
:107A00002E2E5C2E2E5C2E2E5C2E2E5C2E2E5C637B
:107A10006F6D706F6E656E74735C6C6962726172AB
:107A20006965735C62616C6C6F635C6E72665F62E9
:107A3000616C6C6F632E63002DE9F04116481749A5
:107A40004FF48052401AC708042000EB0740154647
:107A5000044613A103F0C8F84FF0E026D6F88021C1
:107A600020461DA106F5C07603F0BEF87017306001
:107A7000C6F8000101F0B0F928B1012000EB074081
:107A800020A103F0ADF802F041FF0028FBD1284609
:107A9000BDE8F04100F052B8C8F20E0070F20E00DE
:107AA00052756E6E696E67206E72665F626F6F747C
:107AB0006C6F616465725F6170705F737461727422
:107AC000207769746820616464726573733A20304A
:107AD000782530387800000044697361626C696E03
:107AE0006720696E74657272757074732E204E56BD
:107AF00049432D3E494345525B305D3A203078255D
:107B0000780000004661696C65642072756E6E696C
:107B10006E67206E72665F6466755F6D62725F6924
:107B200072715F666F72776172645F6164647265BF
:107B300073735F73657428290000000070B50646F2
:107B400029480022C0F5801100F0AEF80400274853
:107B50002749A0EB01004FEAD0004FF0010101EBF3
:107B6000004507D02846224622A103F03DF82046D2
:107B7000FEF7E0F900F02EFD01462C488069421E18
:107B8000C2F30B02801A01440022104601F6FF7175
:107B900000F08AF8040004D02846224624A103F00D
:107BA00023F8201E4FF0FF3401D0FEF7C3F9EFF3A6
:107BB0000580D6E90056C005C00D4FF0000181F3E5
:107BC000148881F3108881F3118881F3138803D01E
:107BD00024494820FEF797FB324621462846BDE857
:107BE0007040FCF717BB000000400E00C8F20E000A
:107BF00070F20E00436F756C64206E6F74207072AB
:107C00006F7465637420626F6F746C6F616465720A
:107C100020616E642073657474696E67732070618F
:107C20006765732C20307825782E0000481E0020D0
:107C3000436F756C64206E6F742070726F7465632F
:107C40007420536F667444657669636520616E6461
:107C5000206170706C69636174696F6E2C2030787C
:107C600025782E0028E50E0070B5084D04460E4616
:107C7000686805F089FE002C06D032462146686807
:107C8000BDE8704005F072BE70BD00001400002019
:107C90000348D0F804050349097B00EB01607047F5
:107CA000004002401400002070B50B0502D1B0F571
:107CB0007F2F01D9072070BD0AB1062500E00225FB
:107CC000104A114B1468082C01D3042070BD03EB3B
:107CD0000416C6F80008C6F80418C6F80858641C4C
:107CE000146003EB0414D4F8F0678642EAD1D4F8A8
:107CF000F4678E42E6D1D4F8F847AC42E2D10020D6
:107D000070BD00001000002000E001402DE9F041AE
:107D10003A483B49384E401AC508042000EB05405C
:107D20000027044637A102F05BFFB06801280ED09F
:107D3000A52813D0AA2818D0AC281ED0032000EB09
:107D4000054039A102F04CFF0020BDE8F08120463B
:107D50003CA102F045FFFEF739F80CE020463CA1BB
:107D600002F03EFF05F0D2F80DE020463BA102F004
:107D700037FFFEF7D3FA024607E020463AA102F0A9
:107D80002FFF05F091F9024601271D491B4B0120E9
:107D9000591AC90800EB014522B1284636A1B3683B
:107DA00002F029FF304600F039FCDFF800810021A5
:107DB00088F800103E4801F0D3FB064698F8000012
:107DC00020B93C494FF4BE70FEF79DFA2EB128460B
:107DD00039A102F005FF0320B7E70120002FB4D03E
:107DE00005492439096A0129AFD12046394902F0F1
:107DF000F7FE0220A9E700006C1E0020C8F20E006A
:107E000070F20E00456E746572206E72665F626F6E
:107E10006F746C6F616465725F66775F61637469CC
:107E200076617465000000004E6F206669726D77A0
:107E300061726520746F2061637469766174652E68
:107E40000000000056616C69642041707000000001
:107E500056616C69642053440000000056616C69EF
:107E60006420424C0000000056616C696420534459
:107E7000202B20424C0000004163746976617469D4
:107E80006F6E206661696C6564207769746820652F
:107E900072726F72202564202862616E6B20636F9E
:107EA00064653A20307825782900000044000020DD
:107EB00009700E00C4E50E00436F756C64206E6F90
:107EC000742077726974652073657474696E677362
:107ED0002E0000005CE60E002DE9F84304464548FC
:107EE0004549401AC108042000EB0140054643A162
:107EF00002F076FE474F19207C600090684602F041
:107F0000BFFB009A444900EB82004FF00008C0F824
:107F10000017404601F0CAF9002854D1FFF7F6FED9
:107F2000354A344B01219A1AD20801EB024420B1A0
:107F3000012828D0022846D105E04FF47016FEF73C
:107F40004FFE10B93CE04FF4A02600F0CBF8334AC6
:107F500020211820FEF718F908B1FDF7EBFF03F018
:107F600079F81621B1EBD00F09D103F073F8C007EF
:107F700005D003F06FF82A4920F0B100086000F046
:107F8000FFFE00BB03E00120FEF70CFB2CE02549BF
:107F90003046FFF769FE244800F0A6FE98B928464F
:107FA00022A102F01DFE00BF00F088F8FEF7CCF819
:107FB00002F0ACFC0028F7D120BF40BF20BFF3E7A0
:107FC00001F04EF910B10320BDE8F88387F8008076
:107FD0001A4801F065F9387820B919A14FF4EF700B
:107FE000FEF791F9FFF728FD204625A102F0F8FDE4
:107FF000E9E70000C8F20E0070F20E00496E206E34
:1080000072665F626F6F746C6F616465725F696ED8
:1080100069740000080000200C00030040010020EB
:108020001C05004041720E00FD6D0E00456E74652A
:1080300072206D61696E206C6F6F7000FD6F0E00B5
:108040002E2E5C2E2E5C2E2E5C2E2E5C2E2E5C6335
:108050006F6D706F6E656E74735C6C696272617265
:108060006965735C626F6F746C6F616465725C6E7E
:1080700072665F626F6F746C6F616465722E63000D
:10808000556E726561636861626C650010B540F69B
:10809000F8700168491C02D1074902F0A1FF40F6BF
:1080A000FC700168491C05D1BDE810404FF47E21E9
:1080B00002F096BF10BD000000400E0010B503F0A6
:1080C00015F8002803D0BDE8104005F04FBF10BDE3
:1080D000034A93680A4601469860184605F046BC74
:1080E000140000202DE9F0411A4E307800282ED1DE
:1080F00002F0FCFF1849194A0127891AC90803220E
:1081000002EB014500281DD0154804682846224688
:1081100014A102F069FDA4F54864962C00DA9624B7
:1081200005F024FF2846224615A102F05DFD2149F5
:108130002046FFF7CDFF4FF0E0214FF48030C1F82B
:10814000000103E028461CA102F04AFD3770BDE89B
:10815000F08100004500002070F20E0070F20E0069
:108160000405014057445420656E61626C656420CB
:108170004352563A2564207469636B730000000013
:108180005374617274696E6720612074696D6572E1
:1081900020282564207469636B732920666F722020
:1081A00066656564696E67207761746368646F678C
:1081B0002E000000A9DF0E00574454206973206E82
:1081C0006F7420656E61626C6564000070B5044672
:1081D0000D4620220830FCF7B9F8202205F12001D5
:1081E00004F12800FCF7B2F8002070BD2DE9F84337
:1081F0000C461B49DDF82090016005461F4690465D
:1082000018480121FFF70CFBBFF35F8F002618B160
:1082100048F20450BDE8F883FEF72EFB43464A4679
:1082200004F1080128460097FDF7BEF90446FEF761
:1082300015FB0C4D2868012803D00BA16D20FEF71B
:1082400062F8BFF35F8F2E6044B11448C44202D17C
:1082500048F24250DEE748F21650DBE70020D9E74B
:10826000DD55AABB480000202E2E5C2E2E5C2E2E43
:108270005C2E2E5C2E2E5C636F6D706F6E656E745F
:10828000735C6C69627261726965735C6D7574654B
:10829000785C6E72665F6D74782E68007CF70FFFF5
:1082A00070B516460C46054600F00CF900280ED1B4
:1082B000AA791946304600F012F9002807D1314654
:1082C0002046FFF783FF002801D10149216070BDDE
:1082D0007052464D2DE9F8430C46DDE90858074633
:1082E000994616461249204600F0E0F8002811D1C0
:1082F0006068414640794200284600F0F0F80028C6
:1083000008D14EB15FB14B46324621463846009502
:10831000FFF76CFFBDE8F88348F21050FAE705A1BB
:108320004FF4C770FDF7EFFF48F21550F2E7000079
:108330007052464D2E2E5C2E2E5C2E2E5C2E2E5C08
:108340002E2E5C636F6D706F6E656E74735C6C69FE
:10835000627261726965735C63727970746F5C6E6E
:1083600072665F63727970746F5F65636473612EA8
:10837000630000002DE9F0411D46DDE90687164641
:10838000044600F02DF800280DD12A46314620463B
:1083900000F03CF8002806D13A4641462046BDE8A8
:1083A000F04100F002B8BDE8F08170B515460E4608
:1083B000044605F0CBFD002807D13EB1606829686E
:1083C000C268914205D248F2145070BD48F2135071
:1083D00070BD83682A4631462046BDE87040184784
:1083E00010B550B161B14160096804468847002862
:1083F00002D105482060002010BD48F2015010BD98
:1084000048F2105010BD00006E52464870B5154637
:108410000E46044605F09AFD00280BD146B155B131
:1084200060682A46314643682046BDE870401847D8
:1084300048F2105070BD002070BD00002DE9F041E1
:108440000B480C4D0C4F401BC6080120387000240F
:1084500006E000BF55F834008047002805D1641CB1
:10846000B442F7D3022038700020BDE8F08100004C
:1084700058F20E0050F20E004600002070B514466F
:108480000D46064600F036F8291930192246BDE897
:10849000704000F02FB870B50C46054600F064F847
:1084A00028192146BDE8704000F05EB828B1006888
:1084B000884205D048F24050704748F2105070474B
:1084C0000020704728B139B10022C1E900201046D0
:1084D000704748F21050704748F21350704720B16F
:1084E000914205D048F21150704748F21050704741
:1084F0000020704770B516460C46050003D10AA14E
:108500001F20FDF700FF1CB907A12020FDF7FBFE8F
:10851000A919491E04E000BF14F8010B01F8010974
:10852000A942F9D270BD00002E2E5C2E2E5C2E2E9C
:108530005C2E2E5C2E2E5C636F6D706F6E656E749C
:10854000735C6C69627261726965735C6372797085
:10855000746F5C6E72665F63727970746F5F73685C
:10856000617265642E63000070B50D46040003D18E
:1085700007A10D20FDF7C7FE6019401E05E0217818
:10858000027804F8012B00F80119A042F7D270BD5F
:108590002E2E5C2E2E5C2E2E5C2E2E5C2E2E5C63E0
:1085A0006F6D706F6E656E74735C6C696272617210
:1085B0006965735C63727970746F5C6E72665F6319
:1085C000727970746F5F7368617265642E63000006
:1085D000AFF300804FF44050074A4168914207D101
:1085E0008068411EC1F30B01401A00F6FF7070470E
:1085F0004FF4805070470000DBE5B15100B5FFF744
:10860000E9FF054989690A18401E0844C0F30B00B8
:10861000101A00F6FF7000BD481E00200021016006
:10862000416081600148016370470000481E0020DE
:108630002DE9FF4F8B466E486E4981B0401AC10844
:10864000042000EB014400916BA1204602F0C8FA1F
:10865000204671A1019A02F0C7FABBF1000F01D0C8
:1086600073A200E074A2204675A102F0BDFA03983F
:1086700008B16FA200E070A2204676A102F0B4FA21
:10868000049808B16AA200E06BA2204675A102F02E
:10869000ABFA4FF4405041687848814201D164A25E
:1086A00000E065A2204676A102F09EFA204678A15D
:1086B00002F096FA7A4D20467AA1AB692A6A02F056
:1086C0009AFA20467FA16B6AEA6A02F094FA4FF0A8
:1086D0000009DFF810A20CE0012650B1012812D0E9
:1086E000B9F1020F1ED080498620FDF70CFE002054
:1086F0001AE0FFF783FF8046039888B16848006A54
:1087000001280BD00CE0FFF765FF8046049828B9DC
:108710004FF4405041685948814201D0012604E09D
:10872000002602E04FF480508046D04503D96E49C0
:108730008B20FDF7E8FD6D480199A0EB0800A0F53E
:108740004050884201D2012700E0002747EA0B058C
:1087500020464A4666A102F047FA2046424667A1F3
:1087600002F042FA0FB132A200E033A2204669A122
:1087700002F03AFA0EB12EA200E02FA220466BA121
:1087800002F032FA0DB12AA200E02BA220466CA121
:1087900002F02AFAB54308D0B9F1020F05D209F167
:1087A0000100C0B28146022896D957B10098022133
:1087B00001EB004067A102F013FA042005B0BDE808
:1087C000F08FB9F1020F06D320466DA102F008FA2E
:1087D00000F0D6FE02E0B9F1000F07D020466FA1ED
:1087E00002F0FEF92E481830FFF718FF0020E5E7E9
:1087F000C8F20E0070F20E00456E746572206E7243
:10880000665F6466755F63616368655F70726570FB
:10881000617265282900000072657175697265646E
:108820005F73697A653A20307825782E0000000061
:10883000747275650000000066616C73650000006D
:1088400073696E676C655F62616E6B3A2025732E8B
:10885000000000006B6565705F6170703A202573E1
:108860002E0000006B6565705F736F6674646576DB
:108870006963653A2025732E00000000DBE5B151E5
:1088800053445F50524553454E543A2025732E00B1
:1088900042616E6B20636F6E74656E74733A000094
:1088A000481E002042616E6B203020636F64653A81
:1088B000203078253032783A2053697A653A203072
:1088C0007825780042616E6B203120636F64653AD1
:1088D000203078253032783A2053697A653A203052
:1088E0007825780000100E0010E90E0000400E0000
:1088F000706173733A2025642E0000006361636821
:10890000655F616464726573733A20307825782EF0
:108910000000000063616368655F746F6F5F736D73
:10892000616C6C3A2025732E000000006B65657049
:108930005F6669726D776172653A2025732E00005B
:1089400064656C6574655F6D6F72653A2025732E82
:108950000000000041626F7274696E672E204361EF
:108960006E6E6F7420666974206E6577206669721A
:108970006D77617265206F6E20646576696365004E
:10898000496E76616C69646174696E6720536F66C5
:10899000744465766963652E00000000496E766157
:1089A0006C69646174696E67206170702E000000EC
:1089B00070B50C46050004D121494FF49970FDF7BC
:1089C000A2FC24B91E4940F23310FDF79CFC1D485F
:1089D0001D4B2978C01A0422C00802EB0040092967
:1089E00027D2DFE801F02605260B15261B260F00EF
:1089F00021462846BDE8704002F01CBE13A102F0DB
:108A0000EFF811E021462846BDE8704002F0B4BE00
:108A100021462846BDE8704002F04CBE14A102F089
:108A2000DFF84FF40070E0602046BDE87040FDF7CD
:108A3000AFBFBDE8704002494FF4A970FDF763BCB9
:108A400070E70E0080F20E0070F20E0048616E6456
:108A50006C65204E52465F4446555F4F505F43520F
:108A6000435F4745542028636F6D6D616E64290034
:108A700048616E646C65204E52465F4446555F4FB8
:108A8000505F4F424A4543545F53454C4543542041
:108A900028636F6D6D616E642900000070B50E462D
:108AA000040004D11B4940F24F20FDF72CFC26B9ED
:108AB00018494FF41470FDF726FC20780125092889
:108AC00020D2DFE800F01F051F0F141F1A1F0A0035
:108AD0003146204602F0E0FE19E03146204603F020
:108AE00031F914E03146204602F098FE0FE031469D
:108AF000204602F0DBFF054609E03146204603F040
:108B0000D5F804E0034940F27120FDF7FCFB28464C
:108B100070BD000070E70E002DE9F843134C0746C6
:108B20000D4620680090124812499046401AC60827
:108B3000042000EB06402B463A460FA102F063F8F2
:108B400043462A4639461C4801F0E6FB050009D099
:108B5000022000EB06402A4618A102F045F82846FC
:108B6000BDE8F8832068401C2060F8E75000002032
:108B700078F20E0070F20E006E72665F6673746FAC
:108B8000726167655F657261736528616464723DD7
:108B9000307825702C206C656E3D256420706167EF
:108BA0006573292C2071756575652075736167651E
:108BB0003A202564000000002C0100206E72665FE0
:108BC0006673746F726167655F657261736528298A
:108BD000206661696C6564207769746820657272CB
:108BE0006F7220307825782E00000000084809496F
:108BF00010B5401AC008042101EB004006A101F0A5
:108C0000EFFFBDE810400E4900220E4801F0E4BB22
:108C100078F20E0070F20E00496E697469616C6939
:108C20007A696E67206E72665F6673746F726167D1
:108C3000655F6E766D63206261636B656E642E00A6
:108C4000F4E20E002C0100202DE9FC47154C804673
:108C50000F4620681549CDE9002013489946401A6F
:108C6000C6081546042000EB06403B464246104924
:108C700001F0D2FF2B463A4641460E48CDF800900F
:108C800001F006FC050009D0022000EB06402A4650
:108C900009A101F0A9FF2846BDE8FC872068401C17
:108CA0002060F8E75000002078F20E0070F20E000D
:108CB000B8E60E002C0100206E72665F6673746F5A
:108CC000726167655F7772697465282920666169DA
:108CD0006C65642077697468206572726F722030E9
:108CE0007825782E0000000070B511490860114801
:108CF0001149401AC508032000EB05400FA101F0FF
:108D00006FFF0020FEF79EF8114800F0DFFC040022
:108D100008D0012000EB054022460EA101F064FFBF
:108D2000204670BDBDE87040094800F0ABB80000B7
:108D30004C000020C8F20E0070F20E00456E746503
:108D400072696E6720444655206D6F64652E000081
:108D5000456E0E00436F756C64206E6F7420696EF3
:108D60006974616C697A6520444655207472616E3D
:108D700073706F72743A20307825303878000000B4
:108D80000648074910B5401AC008042101EB00400D
:108D900004A101F025FF002010BD0000C8F20E0064
:108DA00070F20E00696E207765616B206E72665FEF
:108DB0006466755F696E69745F7573657200000043
:108DC0001FB58908002201AB009283E807006846BE
:108DD00018DF04B010BD00001FB5094A4FF48054DD
:108DE0001069D2E90612CDE90004CDE90212684605
:108DF00018DF072802D160040460002004B010BD11
:108E000060E20E0070B50E460178134C062901D0C1
:108E1000012901D1017C217021780125012911D07E
:108E2000022913D00D480E49401AC008012101EB58
:108E300000400CA101F0D4FE0020207005207070CD
:108E4000284670BD3146FFF7B3FDF9E73146FFF71D
:108E500025FE0546F4E700005800002080F20E00D1
:108E600070F20E00496E76616C6964206F626A650B
:108E70006374207479706520696E20726571756500
:108E800073742E0010B5040011D00020FFF7AEFE61
:108E900000280BD100F088FD00F068FE48B10949B8
:108EA000081F00F0F1FD012803D0032010BD0720AA
:108EB00010BD04480838C4600020FEF799F800206F
:108EC00010BD00006000002010B5816889B10A4A19
:108ED0001821FDF7EBF8040009D008480849401AAA
:108EE000C008022101EB004006A101F079FE2046F6
:108EF00010BD072010BD0000218F0E0080F20E0073
:108F000070F20E005363686564756C65722072615F
:108F10006E206F7574206F66207370616365210029
:108F2000AFF3008070B50546806886B020B941492E
:108F300040F2A920FDF7E7F918223F496846FBF700
:108F400005FA28788DF800003C483D4B2A78181A1D
:108F50000421C0083B4E01EB00440D2A4ED2DFE84D
:108F600002F007463946464D463146290D243E005B
:108F7000204635A101F034FE012020E020463BA12F
:108F800001F02EFE4FF08050D0F800110191D0F882
:108F900004110291D0F80C1189020491D0F810113B
:108FA000890203910069059031E06946284602F084
:108FB0009FFF2CE0204636A101F012FE287C8DF8A0
:108FC000040024E0204638A101F00AFE288AADF80A
