:020000040000FA
:1000000000040020810A000015070000610A0000BA
:100010001F07000029070000330700000000000050
:10002000000000000000000000000000A50A000021
:100030003D070000000000004707000051070000D6
:100040005B070000650700006F07000079070000EC
:10005000830700008D07000097070000A10700003C
:10006000AB070000B5070000BF070000C90700008C
:10007000D3070000DD070000E7070000F1070000DC
:10008000FB070000050800000F0800001908000029
:10009000230800002D080000370800004108000078
:1000A0004B080000550800005F08000069080000C8
:1000B000730800007D080000870800009108000018
:1000C0009B080000A5080000AF080000B908000068
:1000D000C3080000CD080000D7080000E1080000B8
:1000E000EB080000F5080000FF0800000909000007
:1000F000130900001D090000270900003109000054
:100100003B0900001FB500F003F88DE80F001FBD8C
:1001100000F0ACBC40F6FC7108684FF01022401CA7
:1001200008D00868401C09D00868401C04D0086842
:1001300000F037BA9069F5E79069F9E7704770B554
:100140000B46010B184400F6FF70040B4FF0805073
:100150000022090303692403406943431D1B104621
:1001600000F048FA29462046BDE8704000F042BA47
:10017000F0B54FF6FF734FF4B4751A466E1E11E0DA
:10018000A94201D3344600E00C46091B30F8027B3B
:10019000641E3B441A44F9D19CB204EB134394B25D
:1001A00004EB12420029EBD198B200EB134002EBB2
:1001B000124140EA0140F0BDF34992B00446D1E952
:1001C0000001CDE91001FF224021684600F0F4FB58
:1001D00094E80F008DE80F00684610A902E004C8FB
:1001E00041F8042D8842FAD110216846FFF7C0FF7C
:1001F0001090AA208DF8440000F099F9FFF78AFFCB
:1002000040F6FC7420684FF01025401C0FD0206889
:1002100010226946803000F078F92068401C08D030
:100220002068082210A900F070F900F061F9A869AF
:10023000EEE7A869F5E74FF080500369406940F6A2
:10024000FC71434308684FF01022401C06D0086838
:1002500000F58050834203D2092070479069F7E788
:100260000868401C04D00868401C03D00020704778
:100270009069F9E70420704770B504460068C34DE3
:10028000072876D2DFE800F033041929631E250021
:10029000D4E9026564682946304600F062F92A46CE
:1002A0002146304600F031F9AA002146304600F0E0
:1002B00057FB002800D0032070BD00F009FC4FF46C
:1002C000805007E0201D00F040F90028F4D100F034
:1002D000FFFB60682860002070BD241D94E80700C3
:1002E000920000F03DFB0028F6D00E2070BDFFF715
:1002F000A2FF0028FAD1D4E901034FF0805100EBAE
:10030000830208694D69684382420ED840F6F8704E
:1003100005684FF010226D1C09D0056805EB8305B8
:100320000B6949694B439D4203D9092070BD55694A
:10033000F4E70168491C03D00068401C02D003E0C8
:100340005069FAE70F2070BD2046FFF735FFFFF731
:1003500072FF0028F7D1201D00F0F7F80028F2D135
:1003600060680028F0D100F0E2F8FFF7D3FE00F05B
:10037000BFF8072070BD10B50C46182802D0012028
:10038000086010BD2068FFF777FF206010BD41684E
:10039000054609B1012700E0002740F6F8742068FF
:1003A0004FF01026401C2BD02068AA68920000F065
:1003B000D7FA38B3A86881002068401C27D020688D
:1003C000FFF7BDFED7B12068401C22D026684FF051
:1003D0008050AC686D68016942695143A9420DD9EA
:1003E000016940694143A14208D92146304600F0E5
:1003F000B8F822462946304600F087F800F078F831
:100400007069D2E700F093F8FFF784FEF6E77069B1
:10041000D6E77669DBE740F6FC7420684FF01026DB
:10042000401C23D02068401C0CD02068401C1FD0EA
:100430002568206805F18005401C1BD027683879A5
:10044000AA2819D040F6F8700168491C42D001680A
:10045000491C45D00168491C3ED001680968491C07
:100460003ED00168491C39D000683EE0B069DAE747
:10047000B569DEE7B769E2E710212846FFF778FEA5
:100480003968814222D12068401C05D0D4F8001080
:1004900001F18002C03107E0B169F9E730B108CA63
:1004A00051F8040D984201D1012000E000208A4259
:1004B000F4D158B1286810B1042803D0FEE72846CB
:1004C000FFF765FF3149686808600EE0FFF722FE1C
:1004D00000F00EF87169BBE77169BFE7706904E06D
:1004E0004FF480500168491C01D000F0CBFAFEE7C0
:1004F000BFF34F8F26480168264A01F4E06111439B
:100500000160BFF34F8F00BFFDE72DE9F0411746B3
:100510000D460646002406E03046296800F054F8EF
:10052000641C2D1D361DBC42F6D3BDE8F08140F69B
:10053000FC700168491C04D0D0F800004FF48051D1
:10054000FDE54FF010208069F8E74FF080510A690F
:10055000496900684A43824201D810207047002050
:10056000704770B50C4605464FF4806608E0284693
:1005700000F017F8B44205D3A4F5806405F5805562
:10058000002CF4D170BD0000F40A0000000000202F
:100590000CED00E00400FA05144801680029FCD0C5
:1005A0007047134A0221116010490B68002BFCD0E0
:1005B0000F4B1B1D186008680028FCD0002010603D
:1005C00008680028FCD07047094B10B501221A605A
:1005D000064A1468002CFCD0016010680028FCD08A
:1005E0000020186010680028FCD010BD00E4014015
:1005F00004E5014070B50C46054600F073F810B9EB
:1006000000F07EF828B121462846BDE8704000F091
:1006100007B821462846BDE8704000F037B8000012
:100620007FB5002200920192029203920A0B000B06
:100630006946012302440AE0440900F01F0651F80C
:10064000245003FA06F6354341F82450401C8242F8
:10065000F2D80D490868009A10430860081D016827
:10066000019A1143016000F03DF800280AD00649C4
:1006700010310868029A10430860091D0868039A3F
:10068000104308607FBD00000006004030B50F4CED
:10069000002200BF04EB0213D3F800582DB9D3F8A1
:1006A000045815B9D3F808581DB1521C082AF1D3C3
:1006B00030BD082AFCD204EB0212C2F80008C3F8CD
:1006C00004180220C3F8080830BD000000E0014013
:1006D0004FF08050D0F83001082801D0002070473A
:1006E000012070474FF08050D0F83011062905D016
:1006F000D0F83001401C01D0002070470120704725
:100700004FF08050D0F830010A2801D00020704707
:100710000120704708208F490968095808471020B0
:100720008C4909680958084714208A4909680958FA
:100730000847182087490968095808473020854923
:100740000968095808473820824909680958084744
:100750003C20804909680958084740207D490968BC
:100760000958084744207B49096809580847482028
:1007700078490968095808474C207649096809589A
:10078000084750207349096809580847542071499F
:1007900009680958084758206E49096809580847E8
:1007A0005C206C4909680958084760206949096854
:1007B00009580847642067490968095808476820AC
:1007C00064490968095808476C2062490968095852
:1007D000084770205F4909680958084774205D4937
:1007E00009680958084778205A490968095808478C
:1007F0007C205849096809580847802055490968EC
:10080000095808478420534909680958084788202F
:1008100050490968095808478C204E490968095809
:10082000084790204B4909680958084794204949CE
:10083000096809580847982046490968095808472F
:100840009C204449096809580847A0204149096883
:1008500009580847A4203F49096809580847A820B3
:100860003C49096809580847AC203A4909680958C1
:100870000847B0203749096809580847B420354966
:10088000096809580847B8203249096809580847D3
:10089000BC203049096809580847C0202D4909681B
:1008A00009580847C4202B49096809580847C82037
:1008B0002849096809580847CC2026490968095879
:1008C0000847D0202349096809580847D4202149FE
:1008D000096809580847D8201E4909680958084777
:1008E000DC201C49096809580847E02019490968B3
:1008F00009580847E4201749096809580847E820BB
:100900001449096809580847EC2012490968095830
:100910000847F0200F49096809580847F4200D4995
:10092000096809580847F8200A490968095808471A
:10093000FC2008490968095808475FF48070054998
:10094000096809580847000003480449024A034B54
:100950007047000000000020000B0000000B0000AA
:1009600040EA010310B59B070FD1042A0DD310C82C
:1009700008C9121F9C42F8D020BA19BA884201D97E
:10098000012010BD4FF0FF3010BD1AB1D30703D0C6
:10099000521C07E0002010BD10F8013B11F8014B7C
:1009A0001B1B07D110F8013B11F8014B1B1B01D198
:1009B000921EF1D1184610BD02F0FF0343EA032254
:1009C00042EA024200F005B87047704770474FF0A6
:1009D00000020429C0F0128010F0030C00F01B800C
:1009E000CCF1040CBCF1020F18BF00F8012BA8BF1A
:1009F00020F8022BA1EB0C0100F00DB85FEAC17CDE
:100A000024BF00F8012B00F8012B48BF00F8012B90
:100A100070474FF0000200B51346944696462039C1
:100A200022BFA0E80C50A0E80C50B1F12001BFF4A7
:100A3000F7AF090728BFA0E80C5048BF0CC05DF80D
:100A400004EB890028BF40F8042B08BF704748BF5B
:100A500020F8022B11F0804F18BF00F8012B7047CF
:100A6000014B1B68DB6818470000002009480A4951
:100A70007047FFF7FBFFFFF745FB00BD20BFFDE719
:100A8000064B1847064A1060016881F308884068E1
:100A900000470000000B0000000B000017040000DE
:100AA000000000201EF0040F0CBFEFF30881EFF3ED
:100AB0000981886902380078182803D100E0000015
:100AC000074A1047074A12682C3212681047000084
:100AD00000B5054B1B68054A9B58984700BD0000B0
:100AE0007703000000000020F00A0000040000006E
:100AF000001000000000000000FFFFFF0090D00386
:02000004000EEC
:10C0000008B30020E5C30E00EDC30E00EFC30E0021
:10C01000F1C30E00F3C30E00F5C30E0000000000D4
:10C02000000000000000000000000000F7C30E0048
:10C03000F9C30E0000000000FBC30E00FDC30E009C
:10C040006DDA0E00FFC30E005DDD0E00FFC30E00B3
:10C05000FFC30E00FFC30E00FFC30E00FFC30E00A0
:10C06000FFC30E00FFC30E00FFC30E00FFC30E0090
:10C07000FFC30E00FFC30E00FFC30E00FFC30E0080
:10C0800011DF0E00FFC30E00FFC30E00FFC30E0042
:10C09000FFC30E00FFC30E00FFC30E00FFC30E0060
:10C0A000FFC30E00FFC30E00FFC30E00FFC30E0050
:10C0B000FFC30E00FFC30E000000000000000000E0
:10C0C000FFC30E00FFC30E00FFC30E00FFC30E0030
:10C0D0007DDA0E00FFC30E00FFC30E00B1DD0E00BF
:10C0E000FFC30E00FFC30E00D1C50E00000000000C
:10C0F00000000000FFC30E0000000000FFC30E00A0
:10C10000000000000000000000000000000000002F
:10C11000000000000000000000000000000000001F
:10C12000000000000000000000000000000000000F
:10C1300000000000000000000000000000000000FF
:10C1400000000000000000000000000000000000EF
:10C1500000000000000000000000000000000000DF
:10C1600000000000000000000000000000000000CF
:10C1700000000000000000000000000000000000BF
:10C1800000000000000000000000000000000000AF
:10C19000000000000000000000000000000000009F
:10C1A000000000000000000000000000000000008F
:10C1B000000000000000000000000000000000007F
:10C1C000000000000000000000000000000000006F
:10C1D000000000000000000000000000000000005F
:10C1E000000000000000000000000000000000004F
:10C1F000000000000000000000000000000000003F
:10C20000DFF80CD000F096F900480047A51D0F009C
:10C2100008B3002080F308888E46104730B40446E7
:10C2200054E8000F0D4644E80053002BF8D1156088
:10C2300030BC704730B4044654E8000F40EA0105B2
:10C2400044E80053002BF7D1156030BC704730B480
:10C25000044654E8000F00EA010544E80053002BAF
:10C26000F7D1156030BC704730B4044654E8000F75
:10C2700080EA010544E80053002BF7D1156030BC7B
:10C28000704730B4044654E8000F00EB010544E861
:10C290000053002BF7D1156030BC704730B4044612
:10C2A00054E8000FA0EB010544E80053002BF7D140
:10C2B000156030BC704770B404464FF0000054E87D
:10C2C000006F0D68AE4207BF44E80023012044E838
:10C2D00000630E60002B1CBF0020F0E770BC7047AD
:10C2E00030B4044654E8000F88422CBF451A054676
:10C2F00044E80053002BF5D1156030BC70470000B6
:10C3000030B4044654E8000F0D4644E80053002BB7
:10C31000F8D1156030BC704730B4044654E8000FC3
:10C3200040EA010544E80053002BF7D1156030BC0A
:10C33000704730B4044654E8000F00EA010544E8B1
:10C340000053002BF7D1156030BC704730B4044661
:10C3500054E8000F80EA010544E80053002BF7D1B0
:10C36000156030BC704730B4044654E8000F00EB51
:10C37000010544E80053002BF7D1156030BC70472D
:10C3800030B4044654E8000FA0EB010544E8005324
:10C39000002BF7D1156030BC704770B404464FF0E5
:10C3A000000054E8006F0D68AE4207BF44E8002368
:10C3B000012044E800630E60002B1CBF0020F0E762
:10C3C00070BC704730B4044654E8000F88422CBF5C
:10C3D000451A054644E80053002BF5D1156030BCE2
:10C3E000704700000648804706480047FEE7FEE722
:10C3F000FEE7FEE7FEE7FEE7FEE7FEE7FEE7FEE715
:10C4000081DB0E0001C20E00202A04DB203A00FA74
:10C4100002F1002070479140C2F1200320FA03F39B
:10C42000194390407047000000487047D4AD0F009A
:10C4300010B5441A0346944209D28418114403E00B
:10C4400011F8013D04F8013D521EF9D210BD40EA39
:10C450000104A40703D009E010C9121F10C3042A65
:10C46000FAD203E011F8014B03F8014B521EF9D246
:10C4700010BDD2B201E000F8012B491EFBD270477B
:10C480000022F6E710B513460A4604461946FFF7A0
:10C49000F0FF204610BD421C10F8011B0029FBD103
:10C4A000801A704730B504460020034600E05B1C4C
:10C4B000934203D2E05CCD5C401BF8D030BD034614
:10C4C00011F8012B00F8012B002AF9D1184670470A
:10C4D0002DE9F05F0546002092469B4688460646B9
:10C4E000814640241BE0284641464746224600F04C
:10C4F00033F853465A46C01A914110D31146184694
:10C500002246FFF781FF2D1A67EB01084F462246AE
:10C5100001200021FFF778FF17EB00094E41201E94
:10C52000A4F10104DFDC484631462A464346BDE813
:10C53000F09F0000064C074D06E0E06840F0010364
:10C5400094E8070098471034AC42F6D3FFF75CFE3E
:10C55000B8BB0F00D8BB0F00202A04DB203A21FA19
:10C5600002F00021704721FA02F3D040C2F120020C
:10C57000914008431946704770B58C1810F8015B5C
:10C5800015F0070301D110F8013B2A1106D110F86C
:10C59000012B03E010F8016B01F8016B5B1EF9D170
:10C5A0002B0705D40023521E0DD401F8013BFAE7F6
:10C5B00010F8013BCB1A921C03E013F8015B01F861
:10C5C000015B521EF9D5A142D8D3002070BD0000F6
:10C5D000054B4FF0FF321A6053F8042C034B1A60DE
:10C5E0001A68034B1A60704704BA02500493002083
:10C5F00008BA025001EB820204388A4201D10020BD
:10C60000704752F8043D1BBA40F8043FF5E70000BC
:10C61000354B8EB019461A680092009AD207FAD5A7
:10C62000324B334A1A600A680192019AD007FAD550
:10C63000304A1A600A680292029AD207FAD52E4A44
:10C640001A600A680392039AD007FAD52B4A1A6037
:10C650000A680492049AD207FAD5294A1A600A682D
:10C660000592059AD007FAD5264A1A600A680692FA
:10C67000069AD207FAD5244A1A600A680792079ADE
:10C68000D007FAD5214A1A600A680892089AD20798
:10C69000FAD51F4A1A600A680992099AD007FAD592
:10C6A0001C4A1A600A680A920A9AD207FAD51A4AEC
:10C6B0001A6008680B900B98C007FAD51A600A68D0
:10C6C0000C920C9AD007FAD5144A1A600A680D9297
:10C6D0000D9AD207FAD5124A1A600E210D230F22A5
:10C6E00000200EB000F080BDB0B0025080B002500B
:10C6F0008043012940633921807001298020542121
:10C7000000D13490C0403490C0302029C0530D90E7
:10C7100000413890832308C880E31021004138216C
:10C72000CF4308C810B5504B96B01C461A6801920A
:10C73000019AD207FAD54D4B4D4A1A6022680292EF
:10C74000029AD207FAD54B4A1A604B4A42EA804015
:10C7500022680392039AD207FAD5186022680492DD
:10C76000049AD007FAD5454A1A60A2F5800242EA37
:10C77000814122680592059AD207FAD5196022688C
:10C780000692069AD007FAD53D4A1A6022680792A7
:10C79000079AD107FAD53B4A1A6022680892089A8C
:10C7A000D207FAD5384A1A6022680992099AD00746
:10C7B000FAD5364A1A6022680A920A9AD107FAD53F
:10C7C000334A1A6022680B920B9AD207FAD5314A83
:10C7D0001A6022680C920C9AD007FAD52E4A1A6079
:10C7E00022680D920D9AD107FAD52C4A1A60226858
:10C7F0000E920E9AD207FAD5294A1A6022680F9231
:10C800000F9AD007FAD5274A1A602168109110991B
:10C81000C907FAD51A60144B1A4619681191119973
:10C82000C807FAD5114B2049196011681291129965
:10C83000C907FAD51D491960116813911399CC07DE
:10C84000FAD50B491960116814911499C807FAD5E3
:10C8500017491960116815911599C907FAD5154A34
:10C860001A6016B010BD00BFB0B0025080B00250C8
:10C870004004419000862929D81001C840144190F5
:10C8800040142129401465210034409000310C905F
:10C89000C0400C90C030202940960D90004160901F
:10C8A000031645C80086112100416021594644C83D
:10C8B0004014459040142D90F0B5454B89B01D466D
:10C8C0001C680194019CE407FAD5424BDFF80CE1A7
:10C8D000DFF80CC113449B0000241A680B181E2BB0
:10C8E00088BFC0F11E011F320B1852095343B3F524
:10C8F000806F82BF4FF48061B1FBF2F1091A00F141
:10C90000A05000F52C402746A14233DC2B6804934D
:10C91000049BDB07FAD5304B1B6829680591059904
:10C92000CF07FAD52D4C2E49236000231E46934293
:10C9300003F1010040D120F00102294819460026E8
:10C940008A423CD8296806910699CE07FAD525492E
:10C950000968286807900798C007FAD52160204821
:10C9600000210C468B422DD11D4900209A422CD823
:10C9700009B0F0BD2B680293029BDB07FAD50319BF
:10C980009B001B682E680396039EF607FAD5CEF827
:10C9900000300023934203F1010306D1164623F031
:10C9A0000103B34204D80134AEE7CCF80070F1E7DC
:10C9B000CCF800700136F4E70E600346B7E7066076
:10C9C0000131BDE704600131CCE708600133CDE7F8
:10C9D000B4B0025024AC00147CB00250D4B0025069
:10C9E000D8B0025078B00250F0B5294D85B02C4631
:10C9F0002E680096009EF607FAD500F1A05000F5CB
:10CA00002C4080000568206801900198C707FAD57E
:10CA10002048214F056002EB8306B24229D15A1CFF
:10CA20001D4E22F0010200279A4227D82368029364
:10CA3000029BDE07FAD5194B0B449B001B681F3382
:10CA40005B099A4213D2216803910399C907FAD569
:10CA5000154400219B1A104A056008468B4210D8E5
:10CA60005A1C0D4922F0010200209A420CD805B050
:10CA7000F0BD52F804CBC7F800C0CEE737600133F1
:10CA8000D2E710600131E9E708600133EDE700BF4C
:10CA9000B4B00250D4B00250D8B0025024AC00144C
:10CAA00010B5494B94B019461A680092009AD20703
:10CAB000FAD5464B464A1A600A680192019AD40791
:10CAC000FAD5444A1A600A680292029AD007FAD547
:10CAD000414818600A680392039AD207FAD53F4A80
:10CAE0001A600A680492049AD407FAD53C4A1A607C
:10CAF0000A680592059AD207FAD53A4A1A600A6876
:10CB00000692069AD407FAD5374A1A600A6807923D
:10CB1000079AD207FAD5354A1A600A680892089A25
:10CB2000D407FAD5324A1A600A680992099AD207DC
:10CB3000FAD5304A1A600A680A920A9AD407FAD5D6
:10CB40002D4A1A600A680B920B9AD207FAD52B4A23
:10CB50001A600A680C920C9AD407FAD5284A1A600F
:10CB60000A680D920D9AD207FAD5264A1A600A6809
:10CB70000E920E9AD407FAD5234A1A600A680F92C9
:10CB80000F9AD207FAD5214A1A600F4B19461C6832
:10CB90001094109CE407FAD50C4B186008681190AB
:10CBA0001198C407FAD51A600A681292129AD0072F
:10CBB000FAD5174A1A600A681392139AD207FAD55F
:10CBC000144A1A6014B010BDB0B0025080B00250C8
:10CBD00080906521000409904096659080806121D5
:10CBE00080200821802064900081619000461021FF
:10CBF000008111210041442180202029024610C8D3
:10CC00000086092180206021402128294096652145
:10CC100040962529594614C810B5544B98B019466A
:10CC20001A680192019AD207FAD5514B514A1A60FB
:10CC30000A680292029AD407FAD54F4A1A600A6823
:10CC40000392039AD007FAD54C4818600A680492F8
:10CC5000049AD207FAD54A4A1A600A680592059AD8
:10CC6000D407FAD5474A1A600A680692069AD2078C
:10CC7000FAD5454A1A600A680792079AD407FAD586
:10CC8000424A1A600A680892089AD207FAD5404ABE
:10CC90001A600A680992099AD407FAD53D4A1A60BF
:10CCA0000A680A920A9AD207FAD53B4A1A600A68B9
:10CCB0000B920B9AD407FAD5384A1A600A680C927C
:10CCC0000C9AD207FAD5364A1A600A680D920D9A64
:10CCD000D407FAD5334A1A600A680E920E9AD20720
:10CCE000FAD5314A1A600A680F920F9AD407FAD51A
:10CCF0002E4A1A600A681092109AD207FAD52C4A66
:10CD00001A601A4B19461C681194119CE407FAD555
:10CD1000174B1860086812901298C407FAD51A6069
:10CD20000A681392139AD007FAD5124A1A600A6851
:10CD30001492149AD207FAD51E4A1A600A681592FC
:10CD4000159AD407FAD51C4A1A600A681692169AE0
:10CD5000D007FAD5194A1A600A681792179AD207AB
:10CD6000FAD5174A1A6018B010BD00BFB0B0025013
:10CD700080B0025000936521000431904096659088
:10CD80000083612100C3302100C364900081619061
:10CD900000461021008111210041442100C32029B7
:10CDA0000C4610C80086312100C3602140C12829EB
:10CDB000409665210013319040962529594614C8A4
:10CDC000400432492DE9F041814B1D6898682033B9
:10CDD000A0B01E461A680192019AD707FAD57D4B7A
:10CDE0007D4A1A6032680292029AD407FAD57B4AC9
:10CDF0001A607B4A1446116803910399C907FAD552
:10CE0000784A1168C1F3402137680497049FFF07EF
:10CE1000FAD5754F1F6027680597059FFF07FAD55C
:10CE20001768002900F0CF80B90540F1CC80316847
:10CE300006910699CF07FAD56C49196021680791C8
:10CE40000799C907FAD51168C1F3402137680897D7
:10CE5000089FFF07FAD5664F1F6027680997099F4B
:10CE6000FF07FAD51268002900F0AF80910540F164
:10CE7000AC8032680A920A9AD207FAD5564A1A60EA
:10CE800032680B920B9AD707FAD55A4A1A60316862
:10CE90000C910C99CC07FAD55749196031680D915E
:10CEA0000D99C907FAD55549196031680E910E9947
:10CEB000CF07FAD55249196031680F910F99CC0705
:10CEC000FAD550491960504B1E46196810911099B7
:10CED000C907FAD53F4C4D4B236033681193119B22
:10CEE000DB07FAD54A4B236033681293129BDF07A6
:10CEF000FAD5484B23603A4B984619681391139919
:10CF0000C907FAD5324F386033681493149BDB0796
:10CF1000FAD5226033681593159BD807FAD53E4B96
:10CF2000236033681693169BD907FAD53B4B2360D1
:10CF300033681793179BDA07FAD5394B23603368A8
:10CF40001893189BDB07FAD5364B23603368199387
:10CF5000199BD807FAD5344B236033681A931A9B70
:10CF6000D907FAD5314B236033681B931B9BDA0733
:10CF7000FAD52F4B236000F0D1F908BBD8F8003068
:10CF80001C931C9BDB07F9D53D6033681D931D9BEB
:10CF9000D907FAD5274B236033681E931E9BDA0707
:10CFA000FAD5254B2360D8F800301F931F9BDB0771
:10CFB000F9D50C4B1B6813F4805F204B08BF184653
:10CFC00020B0BDE8F0811E48FAE71E48F8E700BF30
:10CFD00090B0025080B0025000100251C01F722960
:10CFE000B4B0025088B00250C0CF0129C01F0E2932
:10CFF000C03F002940010249003184A800001649C1
:10D00000400108A180440888B0B00250C044708834
:10D0100080077A41C0077E4100006A4980061649B0
:10D0200040006E4900020021008220214082202120
:10D030008082242140A161A100C861510308F10050
:10D040000108F1000208F10008B540B120280146AE
:10D050004FF0070228BF20210020FFF72DFC024BD4
:10D0600000221A6008BD00BF1CB80250F0B51D6850
:10D0700085B001F01F040DB91F2C25D1154D2E468A
:10D080002F680197019FFF07FAD500F1A05000F526
:10D090002C408000006835680395039DED07FAD5A4
:10D0A0000D4D00EB611028600C48006802901F2CA9
:10D0B00018BFC94302980FBF106001F01F0100FAAA
:10D0C00001F111600021196010684300C00F136066
:10D0D00005B0F0BDB4B00250E4B00250DCB0025074
:10D0E00030B51E4B85B01A46196800910099CC07DF
:10D0F000FAD500F1A05000F52C40800001681368BB
:10D100000193019BD807FAD5154B164C1868164D9C
:10D110001F30202390FBF3F00138002810DA0023A1
:10D120000130400153B1A0F120014FF00042134201
:10D1300004D1013888424FEA5202F8D105B030BD1F
:10D1400013680393039BDB07FAD5431823602B680E
:10D150000293029B002BE3D10138DEE7B4B002500A
:10D16000ACB00250E4B00250DCB002500A460021DC
:10D17000AFF3008038B5A0F12003B3F5426F054648
:10D180002CD88F2826D800F1470300F16604DB066F
:10D190004FEA541400D0013464013F34A40901342F
:10D1A00011B1A1421AD30C46E3004FF48050B0FBFA
:10D1B000F3F0202828BF202002B11060084B012284
:10D1C0001A60214600F068F82846214600F088F8E9
:10D1D000002038BD00F11F046409DDE70148F8E7CD
:10D1E0001CB802502221F00070B5264888B00546D0
:10D1F00004680094009CE607FAD52348234C046099
:10D20000234C44EA83432C680194019CE407FAD53B
:10D210000360930143EA824242F0104444F4C04464
:10D220002B680293029BDE07FAD504602B680393F8
:10D23000039BDB07FAD5174B03608B0143EA81415F
:10D2400041F0104343F4C0432E680496049EF60751
:10D25000FAD503602B680593059BDE07FAD50460B9
:10D2600041F058412B680693069BDC07FAD5016014
:10D2700042F058422B680793079BDB07FAD5026000
:10D2800008B070BDB0B0025080B00250C021022979
:10D290008071009880611890002230B549001346D3
:10D2A000023840F6FC7502F1A05404F52C44A400A9
:10D2B000904202F10102CABF236025605B181E2A5A
:10D2C000F1D1044A13600B445360034B034A1A60C4
:10D2D00030BD00BF78B0025084B0025020F80F007B
:10D2E0000C4B18603F3020F03F00890140305860FF
:10D2F0009960D9601961596199611C3306481960B8
:10D3000082B002680192019AD207FAD5196002B080
:10D31000704700BF90B00250B4B002502DE9F04108
:10D32000012392B0CDE90333624B1D461A68059282
:10D33000059AD207FAD5604C604B2360604B1946C2
:10D340001A680692069AD707FAD55E4B1A68D60471
:10D3500000F1A8802A680792079AD007FAD55A4A9E
:10D3600022600A680892089AD207FAD51E68C6F3A6
:10D370000036002E40F098801220FFF7B1FE0746DD
:10D380001320FFF7ADFE87428CBF12201320FFF75A
:10D39000A7FE471EFFF73CF903AB01AA394612204E
:10D3A000FFF764FE04AB804602AA39461320FFF75C
:10D3B0005DFE00EB4800022832D003283ED0012851
:10D3C00074D12B680993099BDB07FAD53F4B236087
:10D3D0002B680A930A9BD807FAD53D4B23602B682C
:10D3E0000F930F9BD907FAD53A4B23602B68109304
:10D3F000109BDA07FAD5384B23602B681193119BE9
:10D40000DB07FAD5354B2360013F25D510231922C0
:10D4100018210020FFF7E8FE304612B0BDE8F08189
:10D420002B680B930B9BD907FAD52D4B23602B68E8
:10D430000C930C9BDA07FAD52A4BCFE72B680D9398
:10D440000D9BDB07FAD5284B23602B680E930E9BB0
:10D45000D807FAD5254BC1E703AB01AA39461220FC
:10D46000FFF704FE04AB044602AA39461320FFF777
:10D47000FDFD10EB440402D1FFF7CEFBC4E7FFF73C
:10D480000FFB022C08D0032C09D0012C10D117213E
:10D490001620FFF747F9B7E715211420F9E70F2108
:10D4A0000E20F6E7124EB7E7124EB5E7124EB3E77D
:10D4B000124EB1E7B0B0025080B0025000084A519D
:10D4C000B4B0025088B0025000084E5100065A49CC
:10D4D00040065E49000442410014424940042E497E
:10D4E000000652494006564900063A4940063E4960
:10D4F0000608F1000708F1000408F1000508F10032
:10D50000014B1860704700BF08BA0250014B186009
:10D51000704700BF04BA0250094BC2431A60043B73
:10D5200082B01B680193074B019A024204D0064A5D
:10D530001060186802B0704720BF1A680192F3E7C4
:10D5400004BA02500493002008BA0250FEF770BFDC
:10D55000FEF798BF0A460021FEF794BF2DE9F74376
:10D5600005460E469946114600F060FA044600282A
:10D5700040F08480002E00F08580002900F0848037
:10D58000B9F1200F40F0828005F14404082205F132
:10D5900004082046FFF72EF805F12407082231463B
:10D5A0004046FFF727F806F1200108223846FFF72A
:10D5B00021F802A94FF4807041F8049DFFF7D6FDD1
:10D5C000002865D1334A4FF48073136001219360C2
:10D5D0000823314AFFF708FA0121084605232F4A9C
:10D5E000FFF702FA0823424601211C20FFF7FCF94D
:10D5F00008233A4601210320FFF7F6F922460823C3
:10D6000001210220FFF7F0F90823254A01211A2001
:10D61000FFF7EAF90523234A01211B20FFF7E4F96C
:10D620000823214A01211420FFF7DEF908231F4AAD
:10D6300001211520FFF7D8F9082305F16402012123
:10D640001620FFF7D1F9082305F1840201211720E4
:10D65000FFF7CAF90823164A01210B20FFF7C4F986
:10D66000FFF7B0FB04460198FFF7EEFC114B002CCE
:10D6700018BF1C46A4212846FFF76CFF204603B0C4
:10D68000BDE8F0830C4CF9E70C4CF7E70C4CF5E7E0
:10D69000084CEFE790B002502CBB0F00A4BB0F006A
:10D6A000ECBA0F0090BB0F0050BB0F0070BB0F0017
:10D6B0000CBB0F008408F0007608F0008008F00032
:10D6C0008108F00038B50D460446B0B1A022002113
:10D6D0000430FFF73DFF95B10822294604F16400AC
:10D6E000FEF788FF082205F1200104F18400FEF70F
:10D6F00081FF044B2360002038BD0348FCE703484A
:10D70000FAE700BFDD55AABB7108F0008308F000FE
:10D710002DE9F041069F044615461E46FFF7D2FF4D
:10D7200038B93B46324629462046BDE8F041FFF76E
:10D7300015BFBDE8F08100002DE9FF41144B044600
:10D740000E460FCB6F4687E80F00204600F07EF9AB
:10D750008046B0B9CEB1636A251D01953BB901235E
:10D760006362226F04F13001384600F087F82B46DF
:10D77000043E243453F8042B12BAA34246F8042F73
:10D78000F8D1404604B0BDE8F081DFF80880F8E742
:10D79000BCBA0F000502F00038B5044668B1051D9B
:10D7A00070212846FFF7D6FE284620220449FFF7BD
:10D7B000CDFE044B2360002038BD0348FCE700BFCA
:10D7C000CCBA0F00DD55AABB0002F0002DE9F043F2
:10D7D000284B04460E4615460FCB85B06F4687E8AA
:10D7E0000F002DB94FF00009484605B0BDE8F083A1
:10D7F000204600F02BF981460028F5D1231D019326
:10D80000636AA3BB236F8BB1C3F14008A84528BF4F
:10D81000A84604F13000314618444246FFF796FE10
:10D82000236F434446442367A5EB0805226F402A33
:10D8300006D104F13001384600F020F800232367B8
:10D8400005F03F0835F03F0505D031462A463846F9
:10D8500000F014F82E44B8F1000FC3D04246314610
:10D8600004F13000FFF772FEC4F87080BCE7DFF807
:10D870000890B9E7BCBA0F000C02F0002DE9F74F91
:10D88000314B44688046924699461A68002AFCD17A
:10D890002E4B9B461A68002AFCD14FF0FF300191B5
:10D8A000FFF72EFE8020FFF731FE294D294A2A4F2F
:10D8B0002A4E012307202B60A2F59E72C2F83C017C
:10D8C0001360636A3B60A36A3360D8F8003042F8A3
:10D8D000043CD8F80830204698470199D9F8003020
:10D8E000002BFBD1BAF1000F20D11D4B04221A608E
:10D8F000D9F80030002BFBD1DBF800A0BAF1000F03
:10D90000FAD1D8F80C30204698473B6863623368F8
:10D91000A362144BC3F800A0C3F844A1D9F80030A7
:10D92000002BFBD12B6003B0BDE8F08F236A012BE5
:10D9300004BF0C4A13600C4B40201960C3F804A0CC
:10D94000FFF7EAFDD4E700BF10B9025020BC025037
:10D9500018B8025000B90250CCB70250D0B70250EC
:10D96000C8B7025084B6025028BC0250084B1B684E
:10D970001B0EF02B08D1074B1A68074B9A4205D1B2
:10D98000064B00201860704705207047062070473E
:10D9900028B9025024BA02500000E0200CBA02500C
:10D9A0000C4B1B68C3610C4B1B6883610B4B1B68E2
:10D9B00043610B4B1B6803610A4B1B68C3600A4B36
:10D9C0001B688360094B1B684360094B1B6803603D
:10D9D000704700BF5CB6025058B6025054B60250B1
:10D9E00050B602504CB6025048B6025044B60250EF
:10D9F00040B602500C4BC2691A60826943F8042C8D
:10DA0000426943F8082C026943F80C2CC26843F8B9
:10DA1000102C826843F8142C426843F8182C0268D2
:10DA200043F81C2C704700BF5CB6025030B102684E
:10DA3000034B04489A4208BF0020704702487047D1
:10DA4000DD55AABB8208F0007108F00030B1026811
:10DA5000034B04489A4208BF0020704702487047B1
:10DA6000DD55AABB0202F0000002F00010B508F07C
:10DA7000C3FABDE8104008F02DBA00002DE9F041CE
:10DA80001E4E4FF48271D6F8040130B11C48C268B2
:10DA9000521CC260304607F019FF00254FF4A077F2
:10DAA00007EB85018AB23046B25812B389B207F04B
:10DAB0000DFF1348103000EB051420460CF056F80B
:10DAC000104811492246401AC008042101EB0040C9
:10DAD0000EA107F0A3FC616819B120460BF09CFF72
:10DAE00007E0A16811B120460BF096FF206800B155
:10DAF00080476D1C022DD3D3BDE8F0810040024069
:10DB00001400002078BC0F00F8BB0F0074696D652D
:10DB1000725F6669726520283078257829000000D8
:10DB200000F006BA70B50E46144900EB400001EB58
:10DB3000C0051446E86A183520B101280FD0022824
:10DB400005D113E0284600F029FAA04201D20024B2
:10DB500011E022463146284600F06DFA0BE02846D7
:10DB600000F01CFAA042F4D20446F2E731462846FF
:10DB700000F034FA0446204670BD00004C690020D5
:10DB800030B54FF0805000228300D0F83011C3F838
:10DB90000C21C3F81021624B1A60624B1B68624C67
:10DBA0002360604B1B1D1B68241D23605D4B0833E5
:10DBB0001B68241D23605B4B0C331B68241D2360F2
:10DBC000584B10331B68241D2360564B14331B68BD
:10DBD000241D2360534B18331B68534C203423609F
:10DBE000504B1C331B68241D23604E4B20331B6895
:10DBF000241D23604B4B24331B68241D2360494B99
:10DC000028331B68241D2360464B2C331B68241DBE
:10DC10002360444B30331B68434C40342360414BFA
:10DC200034331B68241D23603E4B38331B68241D8E
:10DC300023603C4B3C331B68241D2360394B40332D
:10DC40001B68241D23600123082902D1D0F8344128
:10DC500014B1082904D006E0354C3449216005E0B0
:10DC6000D0F8344114B1082904D006E0314CFB212E
:10DC7000216005E0D0F8344114B1082908D00EE045
:10DC800090F858422C48016864F30301016002E0F7
:10DC9000D0F834411CB929494FF400700860284875
:10DCA0000168C90702D06FF00101016025480168D1
:10DCB00041F470010160BFF34F8FBFF36F8F4FF0DE
:10DCC0001021D1F80002002803DBD1F8040200285B
:10DCD00022DA1D4C23601D480368002BFCD0122360
:10DCE000C1F800320568002DFCD0C1F8043201688B
:10DCF0000029FCD0226001680029FCD0BFF34F8FBF
:10DD000010487C380168124A01F4E0611143016057
:10DD1000BFF34F8F00BFFDE70F490E48086030BDCD
:10DD2000380500400404001020C50040488103006D
:10DD30008C56004018F50040E40E0040409602402A
:10DD40000004004088ED00E004E5014000E40140EB
:10DD50000400FA050090D0038801002010B5054C9E
:10DD6000206818B904A12B2001F0AEFF2068BDE89F
:10DD7000104000479C0000202E2E5C2E2E5C2E2E84
:10DD80005C2E2E5C2E2E5C6D6F64756C65735C6E04
:10DD90007266785C647269766572735C7372635CD8
:10DDA0007072735C6E7266785F7072732E630000BF
:10DDB0002DE9F05F5248D0F8045300242E464FF06E
:10DDC00001090FE096FAA6F0B0FA80F7B80000F566
:10DDD000807007F07BFF10B109FA07F0044309FADD
:10DDE00007F08643002EEDD108F03BFE002869D0F5
:10DDF000444AD078F0BBA00264D5434940F2A978E8
:10DE0000C1F80080081D036813F0FF0C02D00368FE
:10DE100003EA0C0C40F2AA7AC1F800A0036813F0E0
:10DE2000FF0301D00668334040F2AB7BC1F800B07D
:10DE3000066816F0FF0601D007683E4040F2AC7756
:10DE40000F60076817EA0C0709D0D2F810C04CEA37
:10DE5000070CC2F810C0C1F800800760076840F2E4
:10DE6000AD770F6007681F4009D0136943EA074385
:10DE7000136100E026E0C1F800A00760036840F2EB
:10DE8000AE730B60036833400BD0DE0701D044F45F
:10DE90000004DE0601D544F00104C1F800B00360BF
:10DEA0000068106930F0011102D005F080710C4358
:10DEB00010F0011F06D0690504D520F0011044F4CC
:10DEC00080641061C4F3C05624F400044F46DFF8A8
:10DED0003C8009E094FAA4F0B0FA80F558F82500E7
:10DEE000804707FA05F08443002CF3D10CF086F943
:10DEF000002E03D0BDE8F05F03F09ABBBDE8F09FB1
:10DF000000700240A4000020007802408CA90F009D
:10DF1000064808B5002101600068009007F03CFB4E
:10DF200007F00EF90028FBD108BD000000010140F8
:10DF300010B5124C02202061606111A0A06104F1B3
:10DF40007800E0614FF4805020620020A06260629F
:10DF50000BA1A164E0620D49E1641021A065C4E950
:10DF60001410E0650AA1E01DFEF7A9FA09A12046F8
:10DF7000FEF7A5FA2020A07110BD00004C6900201A
:10DF80005465726D696E616C00000000C4790020F8
:10DF90005254540053454747455200000269C16836
:10DFA0008A4203D88068401A104400E0501A401E8C
:10DFB00070470000C11700EBD161074B4A1153F8BD
:10DFC000222021F01F01411A01208840024201D085
:10DFD000012070470020704700E100E02DE9F04784
:10DFE000C4681746894606464FF000083069A042CB
:10DFF00001D9051B02E0B168201A0D1AB0686D1E28
:10E00000001BA84200D80546BD4200D33D467068BB
:10E010002A4620444946FEF70BFAB0687F1B2C4481
:10E02000A844A944A04200D10024F460002FDDD10F
:10E030004046BDE8F0872DE9F04104468846D4E922
:10E040000207C51BE168606816460844B54206D958
:10E050004146FEF7EDF9B819E060BDE8F0812A46C7
:10E060004146FEF7E5F9761B08EB0501324660688C
:10E07000FEF7DEF9E660F0E70FB41CB502460020BB
:10E0800007AC00290BD0491ECDE90021054B6A469B
:10E090002146069800F018F8009A002111701CBC67
:10E0A0005DF814FB2BE50E0002E008C8121F08C142
:10E0B000002AFAD170477047002001E001C1121F09
:10E0C000002AFBD1704700002DE9FF4F8DB00F46AD
:10E0D0000546002606E025280BD0DDE90F12904703
:10E0E0006D1C761C28780028F5D111B03046BDE8AB
:10E0F000F08F0024A246A1460122EC4900E004432F
:10E1000015F8013F203B02FA03F00842F7D12878C6
:10E110002A2810D06FF02F022878A0F130010929A9
:10E1200014D80AEB8A0102EB410144F0020400EB2F
:10E13000010A6D1CF0E701CF5FEA000A03D544F441
:10E140000054CAF1000A44F002046D1C28782E28FD
:10E1500017D115F8010F44F004042A280ED06FF0EF
:10E160002F022878A0F1300109290AD809EB89018A
:10E1700002EB410100EB01096D1CF2E757F8049B2B
:10E180006D1C28786C280FD006DC4C2817D0682826
:10E190000DD06A2814D104E0742810D07A280FD149
:10E1A0000DE044F400140AE044F4801401E044F467
:10E1B00040146978814202D104F580146D1C6D1CF5
:10E1C0002A786E2A1FD00CDC632A31D004DC002AA6
:10E1D0008BD0582A11D1A3E0642A68D0692A0CD1C7
:10E1E00065E0732A2ED004DC6F2A73D0702A04D124
:10E1F0009BE0752A6FD0782A6ED01046DDE90F12A9
:10E200009047761C50E1C4F30250022806D0032840
:10E2100009D0042801CF09D0066045E101CFF117EC
:10E22000C0E9006140E101CF06803DE106703BE1BD
:10E2300017F8040B8DF8000000208DF80100EB4664
:10E24000012003E057F804BB4FF0FF3061074FF0A7
:10E25000000102D40DE008F10101884649450FDABA
:10E260008045F8DB1BF808100029F4D108E008F11C
:10E27000010188468142FADB1BF808100029F6D11B
:10E28000DDE90F23AAEB08008146214600F036F9AC
:10E29000304400EB080604E0DDE90F121BF8010B27
:10E2A0009047B8F10108F7D221464846F7E00A2125
:10E2B000C4F302534FF0000B0891022B04D001CF9E
:10E2C000C117032B09D00AE0FF1D27F00707F7E865
:10E2D000020108E032E01FE020E000B2C117042B89
:10E2E00001D140B2C117031E71F1000307DA4FF0EC
:10E2F000000CD0EB0C006CEB01012D2302E0230598
:10E3000004D52B238DF82430012303E0E30701D04B
:10E310002023F7E7984658E00A2110E010210EE08C
:10E3200010204FF0000B08900CE010214FF0000B74
:10E3300044F004044FF00809089103E008214FF06D
:10E34000000B0891C4F30253022B04D001CF00212B
:10E35000032B06D006E0FF1D27F00707F7E80201B0
:10E3600003E080B2042B00D1C0B24FF000082307B5
:10E370002BD5702A07D0DDF820C08CF0100C5CEA99
:10E380000B0C05D00EE040238DF82430012308E06B
:10E3900050EA010306D030238DF824308DF8252073
:10E3A00002239846DDF820C08CF0080C5CEA0B0CC8
:10E3B0000BD150EA010301D1630706D530238DF854
:10E3C00024304FF00108A9F10109582A04D038A2DD
:10E3D0000B9208AA0A920BE03AA2F9E75B46089A68
:10E3E000FEF776F80B9B9B5C0A9A521E0A921370FA
:10E3F00050EA0102F2D10A98ADEB000000F1200BC7
:10E40000600702D524F4803401E04FF00109D945BA
:10E4100002DDA9EB0B0000E0002000EB0B01414402
:10E420000890AAEB010AE00306D4DDE90F23214698
:10E43000504600F063F806444FF0000908E009A9CF
:10E4400011F80900DDE90F12904709F10109761C66
:10E45000C145F4DBE0030CD5DDE90F23214650462E
:10E4600000F04CF8064404E0DDE90F12302090473C
:10E47000761C0899481E08900029F5DC08E00A98E7
:10E480000A990078491C0A91DDE90F129047761C21
:10E49000BBF10001ABF1010BF1DC21465046DDE997
:10E4A0000F2300F019F806446D1C1BE60928010033
:10E4B00030313233343536373839616263646566FA
:10E4C00000000000303132333435363738394142BC
:10E4D00043444546000000002DE9F0410446002574
:10E4E0001E461746880404D405E039462020B0476C
:10E4F0006D1C641EF9D52846BDE8F0812DE9F04178
:10E50000044600251E469046C80301D5302700E08A
:10E510002027880404D505E041463846B0476D1CE5
:10E52000641EF9D52846BDE8F0814A68002A06D065
:10E530000A68531C0B6010704868401E48607047A2
:10E54000800701D0002070470120704740680068B4
:10E55000401E084201D10120704700207047C36867
:10E560008B4206D811440069491E814201D801201E
:10E5700070470020704700002DE9F05FDFF89CB085
:10E580005C46DBF84890DBF8246004F0F7FB216B75
:10E590004718751A22482349401AC108042000EB85
:10E5A0000140804620A106F035FF216B4944B94265
:10E5B00000D1002508232A46384603F0A1F90700B8
:10E5C000184817494FF0010AA1EB00004FEAD001AB
:10E5D0000AEB014404D020461AA106F01BFF19E003
:10E5E00004F0CCFB0022314602F0E8FBDBF82820E7
:10E5F0000546D946AA4208D1404619A106F00AFFAD
:10E60000C9E9075AC9F8186004E020462B461A49A0
:10E6100006F00BFF3846BDE8F09F0000C01C00204C
:10E6200078BC0F00F8BB0F00456E746572206E72E7
:10E63000665F6466755F6170705F636F6E74696E4C
:10E64000756500004661696C656420746F20636FB6
:10E650007079206669726D776172652E0000000026
:10E6600053657474696E67206170702061732076E1
:10E67000616C696400000000C4AE0F0008B5134669
:10E68000024600930648074BC01AC008012303EB5B
:10E6900000400B4604A106F0D0FE09F0D5F90000B9
:10E6A00078BC0F00F8BB0F0052656365697665643E
:10E6B0002061206661756C74212069643A2030788D
:10E6C000253038782C2070633A203078253038781F
:10E6D0002C20696E666F3A2030782530387800003B
:10E6E000024606480649401AC008012101EB0040D5
:10E6F00004A106F093FE09F0A7F9000078BC0F0012
:10E70000F8BB0F00526563656976656420616E2011
:10E710006572726F723A20307825303878210000A7
:10E720002DE9F04107461E4E1E481F49326A401A25
:10E73000C508012A04D0032000EB05401BA12BE0F3
:10E740004FF44050184B174C4168E31A234A0220FB
:10E75000DB0800EB0344914206D1C1023B4620484E
:10E76000726B01F06FFB90B104F008FB01461C488E
:10E770003B464130B26901F065FB58B1042000EB23
:10E78000054018A106F046FE0120BDE8F0812046B4
:10E7900018A101E0204626A106F03CFE0020F4E787
:10E7A000C01C002078BC0F00F8BB0F00426F6F74D4
:10E7B0002076616C69646174696F6E206661696C52
:10E7C00065642E204E6F2076616C696420617070E4
:10E7D00020746F20626F6F742E000000DBE5B15172
:10E7E000201F00204170702069732076616C69647D
:10E7F00000000000426F6F742076616C6964617480
:10E80000696F6E206661696C65642E20536F667453
:10E810004465766963652069732070726573656EFF
:10E82000742062757420696E76616C69642E0000D4
:10E83000426F6F742076616C69646174696F6E20D9
:10E840006661696C65642E2041707020697320696F
:10E850006E76616C69642E002DE9F047244C814688
:10E86000924660880E4681423FD84FF6FF770020DF
:10E8700001F0BCF922786078A188884201DA401C56
:10E8800000E00020C0B2904203D1002001F0DCF98A
:10E8900029E065784FF000086078884201DA401C72
:10E8A00000E000206070002001F0CEF9BD421AD0D7
:10E8B000A068B9F1000F40F835A00DD066B16188AD
:10E8C000E068324605FB01004946FDF7B1FDA0684E
:10E8D00000EBC500868003E000EBC500A0F80480D3
:10E8E0000020BDE8F0870420FBE70920F9E70000DD
:10E8F000B800002010B50E4C03E0401C00E00020E2
:10E90000207020786178814210D022786188E06898
:10E91000A36802FB010003EBC20153F8322089888F
:10E9200090472078A1888842E9DAE6E710BD000028
:10E93000B800002030B5CB0008339DB293074FF0EC
:10E94000000401D0072030BD044B9A602A44DA60ED
:10E950005C701C7058809980002030BDB800002089
:10E9600070B505460648446807E02946204602F08F
:10E97000B1F9204600F0AEFA0446002CF5D170BD86
:10E98000C800002070B50A4845680EE02E7A0024C1
:10E9900005E02146284600F0D7FE641CE4B2B442EC
:10E9A000F7D3284600F096FA0546002DEED170BD4B
:10E9B000C80000202DE9F0410E4840F24477456838
:10E9C00014E02E7A00240BE000222146284600F0B5
:10E9D0001DFF18B108A1384601F076F9641CE4B2B5
:10E9E000B442F1D3284600F075FA0546002DE8D16F
:10E9F000BDE8F081C80000202E2E5C2E2E5C2E2E4D
:10EA00005C2E2E5C2E2E5C636F6D706F6E656E7467
:10EA1000735C6C69627261726965735C7573626460
:10EA20005C6170705F757362642E630070B506463A
:10EA30000948062544680AE03146204602F04AF9B2
:10EA40000546062805D1204600F044FA0446002C6D
:10EA5000F2D1284670BD0000C80000202DE9FC411D
:10EA600015460E00074604D129494FF46C7001F099
:10EA70002BF9384601F08EFC0446007DC0070DD00E
:10EA8000002001F0B3F8A06950B1206AD8B3112476
:10EA9000002001F0D9F82046BDE8FC810820FBE702
:10EAA000E06EA8420DD32A463046A16EFDF7C0FCA9
:10EAB000E06E401BE066A06E65672844A0660024F7
:10EAC000E6E7C4E90665384602F0F3F90546114861
:10EAD0000069CDE90004E26E6AB1A16EA069FDF79C
:10EAE000A7FCE169E06E091AE161A1690144A16135
:10EAF00020670020E0666946284600F031FC0400EB
:10EB0000C6D19224C4E7FFE7C4E90865F9E700002D
:10EB100050B40F007CAA0F00FEB515460E46044601
:10EB200001F038FC007D10F0010F0CD0204602F0FF
:10EB3000B7F9A90609D000210096CDE9015169462F
:10EB400000F058FCFEBD0820FEBD0149896AF3E7CC
:10EB50007CAA0F00F8B5040004D138A140F244505B
:10EB600001F0B2F8606820B934A140F2455001F0DC
:10EB7000ABF86068006820B930A140F2465001F05F
:10EB8000A3F82068006820B12CA140F2475001F0A2
:10EB90009BF808F023F910B908F02AF920B927A149
:10EBA00040F24B5001F090F800250FE0002705E0FF
:10EBB000007800F0E9FB08B11120F8BD3946781C57
:10EBC000C7B2304600F0BEF80028F1D12946681CD3
:10EBD000C5B2204600F01AF90600E7D100250DE085
:10EBE000002703E00078214600F0D4FB3946781C6A
:10EBF000C7B2304600F0A6F80028F3D12946681CB9
:10EC0000C5B2204600F002F90600E9D1184D40F2E5
:10EC1000715607E0A04203D108A1304601F054F834
:10EC20002868056828680028F4D112482C606946D5
:10EC300080690090204602F04DF8F8BD2E2E5C2E23
:10EC40002E5C2E2E5C2E2E5C2E2E5C636F6D706FF4
:10EC50006E656E74735C6C69627261726965735C17
:10EC6000757362645C6170705F757362642E6300BB
:10EC7000CC00002028AA0F002DE9F04F87B04FF0FC
:10EC800000081D46934689460446DDF840A04646E6
:10EC9000CDF80C8000E0761C6068012300224768F4
:10ECA000214603A8B8470028F5D140468DF80080DA
:10ECB0000027B84601903BE0606801236A46D0F81F
:10ECC00004C0214601A8E0476068012305AAD0F8E6
:10ECD00004C0214601A8E0479DF8141049451AD107
:10ECE000D84514D19DF80000CAF8000005F8010BC2
:10ECF0006A1C85F8009060689DF8003021464568E0
:10ED000001A89B1EA847002007B0BDE8F08F08F1BE
:10ED1000010000F0FF0860689DF800300022D0F884
:10ED200004C0214601A89B1EE0479DF8000007444F
:10ED3000B742C1D30520E7E70148406870470000AB
:10ED4000C800002070B50D46040004D106A140F2B1
:10ED50001D1000F0B9FF6078A84201D8002070BDF6
:10ED6000A0782044284470BD2E2E5C2E2E5C2E2EC2
:10ED70005C2E2E5C2E2E5C636F6D706F6E656E74F4
:10ED8000735C6C69627261726965735C75736264ED
:10ED90005C6170705F757362645F636C6173735FF5
:10EDA000626173652E68000070B50D46040004D1E1
:10EDB00006A140F21D1000F087FF6078A84201D83C
:10EDC000002070BDA0782044284470BD2E2E5C2EFB
:10EDD0002E5C2E2E5C2E2E5C2E2E5C636F6D706F63
:10EDE0006E656E74735C6C69627261726965735C86
:10EDF000757362645C6170705F757362645F636C8D
:10EE00006173735F626173652E68000070B50D46B3
:10EE1000040003D106A1EA2000F056FF207AA842A0
:10EE200001D8002070BD05EB45000934204470BDB9
:10EE30002E2E5C2E2E5C2E2E5C2E2E5C2E2E5C63D7
:10EE40006F6D706F6E656E74735C6C696272617207
:10EE50006965735C757362645C6170705F75736221
:10EE6000645F636C6173735F626173652E68000039
:10EE700070B50D46040003D106A1EA2000F024FF7E
:10EE8000207AA84201D8002070BD05EB4500093466
:10EE9000204470BD2E2E5C2E2E5C2E2E5C2E2E5C01
:10EEA0002E2E5C636F6D706F6E656E74735C6C6933
:10EEB000627261726965735C757362645C617070C3
:10EEC0005F757362645F636C6173735F62617365C6
:10EED0002E68000010B5040004D1044940F21D2042
:10EEE00000F0F2FE2068006810BD0000B8F60E00C9
:10EEF00010B5040004D104A140F21D2000F0E4FE8E
:10EF00002068006810BD00002E2E5C2E2E5C2E2E78
:10EF10005C2E2E5C2E2E5C636F6D706F6E656E7452
:10EF2000735C6C69627261726965735C757362644B
:10EF30005C6170705F757362642E6800024840788F
:10EF4000002800D001207047C800002010B5002024
:10EF500000F0F2F9BDE81040802000F0EDB910B5E6
:10EF6000002000F0EBF9BDE81040802000F0E6B989
:10EF70002DE9F0414B4E0D460246097806243078C3
:10EF80000B2934D009DC4FF0010707296DD2DFE8E7
:10EF900001F06C0D0F116C2951000C292FD00D2997
:10EFA00036D00E293DD085295FD115E0032016E02B
:10EFB00000245AE03B48001D02F0D7FF28B13A4830
:10EFC0000760BFF36F8FBFF34F8F30780028EFD10A
:10EFD00036A140F212400FE0032846D104200AF087
:10EFE000BBFF42E0104600F09BF804463DE00028DD
:10EFF000DED02EA140F2264000F066FED8E70128C0
:10F0000004D02AA140F22C4000F05EFE002005E072
:10F010003548006810F0010F0AD002200AF09CFF6A
:10F02000C6E7022804D221A14FF4886000F04CFE0C
:10F030000120F3E7E878032817D0A87830B18028BA
:10F0400004D01AA140F24E4000F03EFE1549E87887
:10F0500008310A6832B100230B6049689047040008
:10F0600006D000E00E2407F01DFF2046BDE8F08129
:10F070000AF0C8FE28B1A8780028F6D107F0D5FE1E
:10F08000F3E707F011FD48B107F00EFD0028ECD0C2
:10F090004FF08050D0F834010028E6D007F0C2FECF
:10F0A000E3E70000EC0000205C7002402E2E5C2E96
:10F0B0002E5C2E2E5C2E2E5C2E2E5C636F6D706F80
:10F0C0006E656E74735C6C69627261726965735CA3
:10F0D000757362645C6170705F757362645F636FA7
:10F0E00072652E630000000038040040024A0146A9
:10F0F000D2E9000210470000C826002070B50C4677
:10F10000054607F089FEA84201D0102070BD0348D3
:10F11000D4E90012C0E90212002070BDEC0000200A
:10F120007FB5054605208DF8000006240DF101008D
:10F1300007F090FE0AF066FE2949002008609DF85D
:10F14000010010F01F0006D001280FD0022826D0A1
:10F15000032833D106E0694628460AF045F80446FC
:10F1600006282AD16846FFF761FC25E09DF80500D6
:10F1700003A900F027FB050008D06A469DF80C1093
:10F1800000F0DEFA0446062802D016E0102415E04E
:10F190006A469DF80C1028460AF078F90CE09DF8B4
:10F1A0000500010705D0694600F07EF804460628F0
:10F1B00003D168460AF0BAF8044624B107F072FE9B
:10F1C00004B0204670BD0AF01DFE30B107F024FEE9
:10F1D0000028F5D107F029FEF2E707F023FEEFE75C
:10F1E000F4000020FEB5C08814460E46A04201D2AD
:10F1F000054600E01546844207D2802007F086FAD3
:10F20000B4FBF0F100FB114068B100200096CDE99D
:10F210000150002000F0EAFC6946802000F0EAF886
:10F22000040002D006E00120F0E705498020FFF746
:10F2300065FF0446002000F007FD2046FEBD0000EB
:10F24000B8AA0F0008B140210160014870470000D2
:10F250001C27002010B507F0D3FD20B104A140F217
:10F26000AB3000F031FDBDE8104007F051B80000B0
:10F270002E2E5C2E2E5C2E2E5C2E2E5C2E2E5C6393
:10F280006F6D706F6E656E74735C6C6962726172C3
:10F290006965735C757362645C6170705F757362DD
:10F2A000642E630007F070B810B50C46010600F03C
:10F2B0000F02092A08D200F009F8006820B121469F
:10F2C000BDE8104001F006BD102010BD10B50106CC
:10F2D00000F00F0408D5092C04D309A14FF4B9702C
:10F2E00000F0F2FC134808E0092C04D304A14FF409
:10F2F000BC7000F0E9FC0F48483000EBC40010BDC2
:10F300002E2E5C2E2E5C2E2E5C2E2E5C2E2E5C6302
:10F310006F6D706F6E656E74735C6C696272617232
:10F320006965735C757362645C6170705F7573624C
:10F33000642E63008026002007F0E6B810B504466E
:10F3400000F00F00082805D2204607F00DF92046EE
:10F3500007F05EFA2046BDE8104007F029B900002A
:10F3600070B50C46054607F073F918B105480078EA
:10F37000022801D0082070BD21462846BDE8704013
:10F3800007F06EB9C800002010B5FFF79FFF0068B6
:10F3900010BD000070B50D460646FFF797FF044606
:10F3A000056015B16868006808E00EB1802E04D1D0
:10F3B00003A14FF4CE7000F087FC0020606070BDA8
:10F3C0002E2E5C2E2E5C2E2E5C2E2E5C2E2E5C6342
:10F3D0006F6D706F6E656E74735C6C696272617272
:10F3E0006965735C757362645C6170705F7573628C
:10F3F000642E630070B50C46054607F029F918B174
:10F4000005480078022801D0082070BD2146284612
:10F41000BDE8704007F08CBAC800002001780529CB
:10F420000BD107490968064AC9B2121F126812F0C7
:10F43000FF0F02D1052900D1024803490968084796
:10F440008474024046AA0F001027002070B58A4C31
:10F450000546606820B989A140F2FF3000F034FC15
:10F4600001F006FD062804D284A140F2064000F017
:10F470002BFC2878092877D008DC092818D2DFE887
:10F4800000F07493C29CAFCBD017F30082282DD02C
:10F4900008DC0A28EFD00F28EDD0802841D0812841
:10F4A00006D10CE0832847D084284ED085287AD016
:10F4B000BDE8704071A14FF4A06000F005BC7C482D
:10F4C000FFF714FE7A48FFF74BFA0D200BF08AF88D
:10F4D000FFF758FAFFF73AFDA06810B97548007AAF
:10F4E00000B1012007F0E2FC012088E0FFF74AFAB2
:10F4F00007F02AFD00200AF063FA6D48401CFFF770
:10F500002FFA6B48401CFFF7F1FD0E200BF06AF854
:10F51000207800F051FB002844D0BDE8704005F091
:10F5200019B92078052803D0062803D0072839D137
:10F53000022064E0082062E02078032832D107F03E
:10F5400049FD00282ED0042059E02078032805D159
:10F5500007F040FD10B104200AF032FA07F014FE63
:10F5600000281FD006204AE07FE02078032801D041
:10F57000082803D14E48801CFFF768FF00200BF0DD
:10F5800031F8A46840F239260AE02946204601F005
:10F59000A1FB1CB948A1304600F096FB20684468E6
:10F5A000002CF2D170BD37E0FFF7ECF9FFF7D7FC84
:10F5B00002200AF005FA012006E02078082809D088
:10F5C00005200AF0FDF903200BF00CF82846FFF7A0
:10F5D0008DFD4CE002200AF0F3F907F099FBF2E709
:10F5E00003200AF0FFFF3248C01CFFF77FFD3048C0
:10F5F000C01CFFF7B5F92078062899D10720BDE88F
:10F6000070400AF0DDB903200AF0DAF902200AF0AE
:10F61000E9FF2846FFF7A4F92846BDE87040FFF748
:10F6200065BDA878FFF752FE0446006820B913A113
:10F6300040F2DC4000F048FB606820B90FA140F2C6
:10F64000DD4000F041FBD4E9000229469047002844
:10F65000A8D0A8780107A5D000F00F010829A1D2F1
:10F66000BDE8704007F0A2B808200AF0BBFF2846AA
:10F67000BDE87040FFF774B9C80000202E2E5C2E44
:10F680002E5C2E2E5C2E2E5C2E2E5C636F6D706FAA
:10F690006E656E74735C6C69627261726965735CCD
:10F6A000757362645C6170705F757362642E630071
:10F6B00039AA0F00102700202E2E5C2E2E5C2E2E35
:10F6C0005C2E2E5C2E2E5C636F6D706F6E656E749B
:10F6D000735C6C69627261726965735C7573626494
:10F6E0005C6170705F757362642E6800FFF796BE90
:10F6F00010B520B104A140F2552000F0E5FABDE8B4
:10F7000010400E48FFF78ABE2E2E5C2E2E5C2E2E49
:10F710005C2E2E5C2E2E5C636F6D706F6E656E744A
:10F72000735C6C69627261726965735C7573626443
:10F730005C6170705F757362642E630028AA0F00AD
:10F74000114601F0C7BA000070B5044640680D4686
:10F75000C2680AB120469047207AA84204D20CA180
:10F7600040F2F22000F0B0FA29462046FFF74EFBA7
:10F7700005464678002408E021462846FFF7E2FACD
:10F78000007806F0C1FE641CE4B2B442F4D370BD4C
:10F790002E2E5C2E2E5C2E2E5C2E2E5C2E2E5C636E
:10F7A0006F6D706F6E656E74735C6C69627261729E
:10F7B0006965735C757362645C6170705F757362B8
:10F7C000642E63002DE9F04180460F480E464568DF
:10F7D00016E02F7A00240DE021462846FFF716FB9D
:10F7E0000178414504D106B134702846BDE8F08166
:10F7F000641CE4B2BC42EFD32846FFF76BFB05461E
:10F80000002DE6D10020F1E7C800002070B50446C5
:10F81000406815460E4683681BB120469847062867
:10F8200009D1207AB04204D20E4940F2D32000F030
:10F830004BFA0DB1072070BD31462046FFF7E6FABE
:10F8400005464678002408E021462846FFF77AFA64
:10F850000078FFF773FD641CE4B2B442F4D30020D7
:10F8600070BD000090F70E00034600205A68126930
:10F87000002A01D018461047704700002DE9F843D0
:10F88000044605F011F820B92DA140F20B3000F02C
:10F890001BFA384807F042FA00284DD13649087063
:10F8A0004860886048213548FCF7EAFD3348482124
:10F8B0004830FCF7E5FD3148314D80304CB194E8DB
:10F8C0000E00103080E80E002C489030016821B105
:10F8D00005E005F134010EC9F3E72A490160002073
:10F8E00004F0E8FF18B1852801D0FEF7F9FE264E96
:10F8F00000240DE0002703E000783146FFF74AFDC1
:10F900003946781CC7B24046FFF71CFA0028F3D1ED
:10F910002146641CE4B23046FFF778FA5FEA00083B
:10F92000E8D1686800906946304601F0D3F90400D8
:10F9300004D007F0FFFB2046BDE8F8830020FBE77A
:10F940002E2E5C2E2E5C2E2E5C2E2E5C2E2E5C63BC
:10F950006F6D706F6E656E74735C6C6962726172EC
:10F960006965735C757362645C6170705F75736206
:10F97000642E6300EDF60E00C800002080260020F3
:10F9800028AA0F004DF40E00F8AA0F0040B101287C
:10F9900008D0022809D007A14FF40F7000F094B9E5
:10F9A000114804E01048001D01E00F480830FFF73F
:10F9B00035BD00002E2E5C2E2E5C2E2E5C2E2E5C75
:10F9C0002E2E5C636F6D706F6E656E74735C6C6908
:10F9D000627261726965735C757362645C61707098
:10F9E0005F757362642E63004AAA0F0010B507F0BA
:10F9F000FFF910B107F0F2F908B1082010BD044872
:10FA000004F06CFF08B1FEF76BFE002010BD000093
:10FA100058AA0F002DE9F0410D46164901EB800769
:10FA200057F82500017849B10020FFF70BFC57F883
:10FA3000255006460024287848B911E0801CBDE80E
:10FA4000F0811F2C03D30CA1C02000F03DF9641CF1
:10FA5000E4B215F8010B26F8140028780028F0D13C
:10FA6000022000EB4400C0B240F4407030803046C9
:10FA7000E5E70000FC0000202E2E5C2E2E5C2E2ED2
:10FA80005C2E2E5C2E2E5C636F6D706F6E656E74D7
:10FA9000735C6C69627261726965735C75736264D0
:10FAA0005C6170705F757362645F737472696E67B6
:10FAB0005F646573632E630070B54FF0805086B04D
:10FAC000D0F8A810D0F8A40089B241F440430090C7
:10FAD00009A20D2101A8FEF7CFFA01AD0024094EBD
:10FAE00002E0285D3055641C2846FCF7D4FCA04297
:10FAF000F7D806B070BD000025303458253038588E
:10FB0000000000008027002010B507F067F920B939
:10FB100009A140F2B23000F0D7F814480168C1F3EF
:10FB2000400121B1BDE810401148FFF777BC0168E2
:10FB300011F0010FF2D110BD2E2E5C2E2E5C2E2E58
:10FB40005C2E2E5C2E2E5C636F6D706F6E656E7416
:10FB5000735C6C69627261726965735C757362640F
:10FB60005C6170705F757362642E630038040040DE
:10FB70002DAA0F00034808B5806800906846FFF77B
:10FB80004DFC08BD28AA0F004FF0000150B1062817
:10FB90000BD2074A105C002808D0064A52F82020F1
:10FBA0001AB100E00020FFF735BF002070470000C9
:10FBB00056AB0F00FC000020092808D2DFE800F057
:10FBC0000707050707050505050001207047002008
:10FBD0007047092808D2DFE800F007070507070784
:10FBE00007070500012070470020704710B508F096
:10FBF00019FE012803D004A11D2000F065F8BDE81E
:10FC0000104000F04FB800002E2E5C2E2E5C2E2EE1
:10FC10005C2E2E5C2E2E5C636F6D706F6E656E7445
:10FC2000735C6C69627261726965735C7574696C2E
:10FC30005C6170705F7574696C5F706C6174666F25
:10FC4000726D2E630000000010B508F0EBFD012876
:10FC500003D004A12B2000F037F8BDE8104000F0DD
:10FC600029B800002E2E5C2E2E5C2E2E5C2E2E5CD3
:10FC70002E2E5C636F6D706F6E656E74735C6C6955
:10FC8000627261726965735C7574696C5C617070D5
:10FC90005F7574696C5F706C6174666F726D2E63F2
:10FCA0000000000072B602480168491C01607047FC
:10FCB0001401002003490868401E086000D162B6A4
:10FCC00070470000140100201CB56A46ADF8000022
:10FCD0000191002144F20200FEF7D0FC1CBD102867
:10FCE00002D31038C0B2704740F080007047000067
:10FCF000F8B521480146456AC06A8C6CAC2801D031
:10FD000024B106E0486B04442D1A02E003F04AF8DF
:10FD100004461A481A492346401AC708042000EB33
:10FD200007400646174A18A1009505F086FB2A46AB
:10FD300021461448FCF7B6FBD0B130462B4622468C
:10FD40001FA105F072FB00BF05F0FAF90028FBD1F6
:10FD500002F078FD2946204603F006FC040005D099
:10FD6000012000EB074022A105F054FB2046F8BD1E
:10FD70000024304625A1F7E7C01C002078BC0F0006
:10FD8000F8BB0F0000C00E00566572696679696E97
:10FD90006720424C3A20416464723A203078253022
:10FDA00038782C205372633A203078253038782CFC
:10FDB000204C656E3A2030782530387800000000FD
:10FDC000436F7079696E6720626F6F746C6F6164E6
:10FDD00065723A205372633A203078253038782C97
:10FDE000204C656E3A2030782530387800000000CD
:10FDF0005265717565737420746F20636F7079201C
:10FE0000424C206661696C65640000004E6F2062A0
:10FE10006F6F746C6F6164657220636F7079206EB0
:10FE200065656465642C20626F6F746C6F616465D6
:10FE3000722075706461746520636F6D706C657499
:10FE4000652E000013B90378012B01D004F072B8BD
:10FE5000012070470022C32100F5187000F0AEBFEA
:10FE60002DE9F043A3B00446DDE92A9620200F4691
:10FE70002190984615467C2102A8FCF701FB412100
:10FE80002046FCF7FDFAB7F8940005EB051107EBE7
:10FE90008101A84201D991F896602670320033D0D2
:10FEA000012A0DD01B481C4D0123401BC00803EB49
:10FEB0000045022A0CD0032A20D0284617A117E0BB
:10FEC00000224946404600F079FFC4F801001BE0DB
:10FED00021A9601CCDE900014B464246184902A801
:10FEE00002F01CFE80B105F013FD0246284615A164
:10FEF00005F094FA002023B0BDE8F083B1F8982013
:10FF0000601C9A31FCF794FA4A464146204604F0B8
:10FF100011F8F0E718BC0F00F8BB0F00496E7661CE
:10FF20006C696420626F6F742076616C69646174BF
:10FF3000696F6E20747970653A20256400000000B6
:10FF400034A70F006E72665F63727970746F5F68BA
:10FF50006173685F63616C63756C617465282920E7
:10FF60006661696C65642077697468206572726F78
:10FF7000722025730000000010B504460A480B49A2
:10FF8000401AC008042101EB004009A105F042FA23
:10FF90004FF0000034B10C490870BDE810400B4828
:10FFA00003F052BD01F0E2F978BC0F00F8BB0F007E
:10FFB000526573657474696E6720626F6F746C6FDD
:10FFC000616465722E000000080000206D130F00B0
:10FFD0002DE9FC410646C0074FF000050ED0104F3A
:10FFE00000240122385D009500231146019504F09C
:10FFF00051FF641C042CF4D300F064F8B0070DD555
:02000004000FEB
:10000000074E0024361D0022305D03230095114663
:10001000019504F03FFF641C042CF4D3BDE8FC817F
:1000200016A70F0010B50446042803D305A121200C
:10003000FFF74AFE0E480121005DBDE8104004F0C4
:100040009FBF00002E2E5C2E2E5C2E2E5C2E2E5C72
:100050002E2E5C636F6D706F6E656E74735C626F75
:10006000617264735C626F617264732E630000007E
:1000700016A70F0010B50446042803D305A11B20C2
:10008000FFF722FE0E480021005DBDE8104004F09D
:1000900077BF00002E2E5C2E2E5C2E2E5C2E2E5C4A
:1000A0002E2E5C636F6D706F6E656E74735C626F25
:1000B000617264735C626F617264732E630000002E
:1000C00016A70F0010B500242046FFF7ABFF641CF5
:1000D000042CF9D310BD00002DE9F0470546861C1D
:1000E00090460F464FF001090020FFF77FFD1B4CA3
:1000F00020683860D4E90001401AA168081A44F267
:100100001C0167180EE00121384601F037FF01F0AD
:10011000D5FD0146384601F031FFD4E90001401A0F
:10012000A168081A401C8642EDD8B8F1000F03D030
:10013000052065F3891002E0062065F39F50A26850
:100140002168114004EB8101C860206830442060C0
:100150000020FFF779FD4846BDE8F08728290020F8
:1001600010B543689C18446021B905E013F8010BF1
:1001700001F8010B521EF9D2012010BD70B50D46D9
:1001800004460A2902D10D21FFF7F8FFA068226872
:10019000411CA1601554D4E90101814204D32046D9
:1001A000BDE8704004F0EABB70BD0000034803C81E
:1001B000814201D10120704700207047282900208A
:1001C00010B50548012101F0EFFEBFF35F8F08B1C4
:1001D000002010BD012010BD4800002010B5064CC5
:1001E0002068012803D005A16D20FFF76DFDBFF346
:1001F0005F8F0020206010BD480000202E2E5C2E56
:100200002E5C2E2E5C2E2E5C2E2E5C636F6D706F1E
:100210006E656E74735C6C69627261726965735C41
:100220006D757465785C6E72665F6D74782E6800AB
:1002300004490020086004494FF48060C1F880013F
:100240007047000000A5025004E000E003490120CF
:10025000086003498002C1F80001704700A5025000
:1002600004E000E070B500F10805106814460E4681
:10027000202802D248F2145070BDFFF7A1FF90B1C0
:10028000FFF7E4FF31462846FDF756FA0546FFF72B
:10029000CFFFFFF7A3FF284601F00EFB0028EBD1AC
:1002A0002021216070BD48F2045070BD10B50830A7
:1002B000FDF772FABDE8104001F0FEBA2DE9F047F3
:1002C00000F108090E461446FFF77AFFB8B1FFF7B0
:1002D000BDFF4FF480584546AC4200D825462A461B
:1002E00031460E48FCF7A4F82A460C494846FDF76B
:1002F0006DFA0700A4EB05042E4404D005E048F293
:100300000450BDE8F087002CE5D1FFF791FFFFF71F
:1003100065FF3846BDE8F04701F0CEBAC0050020C1
:1003200070B50B4800240460BFF35F8F094D0120B6
:100330002860FDF71BFB01002C604FF0030004D088
:10034000052901D148F2035070BD002070BD0000A6
:100350004800002000A502500149002008607047B5
:1003600000A502504360CA699A420DD38A690260AF
:10037000886918448861086F18440867C869C01AFA
:10038000C86100D00120704701F1280202600020FE
:100390008B67704710B5040003D106493920FFF779
:1003A00093FC206818B903493A20FFF78DFC2068B8
:1003B0000C3010BD50B40F0070B50C46060004D1CF
:1003C000224940F2B720FFF77FFC24B91F494FF4C0
:1003D0002E70FFF779FC207800250F2833D2DFE854
:1003E00000F033083333320C1132320832333333F6
:1003F0003300304600F09FFB26E02146304608F0EF
:10040000DFFF0FE0304600F0CFFC0146A07800256A
:10041000814219D00106E1784FF0030004D531B9CB
:1004200001210CE005460FE021B101290CD0032980
:10043000F8D109E0304600F08FFB05460021304638
:100440000AF0C2F800E00625284670BD50B40F003F
:100450002DE9FF5F05460198DFF8F0931F46017A0A
:1004600089F800101646019800F044FB804625B933
:10047000F74940F2E920FFF727FC29684FF0000A0E
:1004800040F21F325446A1F21F304FF0020B91424E
:1004900056D04CDC40F20132A1F20130914272D0D0
:1004A00029DC40F2F120A1F2F12281426CD015DC6E
:1004B00040F2EE22A1F2EE2391426ED009DC4FF41D
:1004C0003B73E1B3994270D0A1F50071ED395ED173
:1004D0007AE0012B74D0022B59D19BE0092A70D00D
:1004E00004DC012A6ED0022A51D1B7E00A2A6AD070
:1004F0000F2A4CD1DDE00E2871D00EDC07286ED01B
:1005000006DC01286CD005286BD006283FD116E107
:100510000C2867D00D283AD138E11538092836D291
:10052000DFE800F0F535353535F4F3F2F100132846
:100530006FD010DCA0F10300102828D201E02EE0DB
:1005400079E1DFE800F0F0EFEEEDEC2424EBEAE9EE
:10055000E82424E7E6E537280CD00CDC292878D0FD
:1005600004DC142876D0282811D125E22D2872D059
:1005700032280CD150E244286ED006DC3E286CD0E4
:100580003F2804D16FE29FE04CE04928F4D00020DE
:10059000C5F800A004B0BDE8F09F24E005E0082104
:1005A0002971002F01D82B6081E20EB129793170B9
:1005B0000B2101242971012F06D840F2ED2075E2AC
:1005C0001CE059E03AE062E00EB12979315598F823
:1005D0001410641C2971BC4205D32A6067E2BAE09A
:1005E0007FE0A1E0C7E00EB129793155641C85F8A0
:1005F00004B0BC4202D340F2EF2057E20EB1297999
:100600003155641C85F804B0BC4203D34FF43C70F0
:100610004CE2A6E10EB129793155641C85F804B08D
:10062000BC42CCD20EB12879305598F81900641C20
:100630002871BC4202D340F2F22037E20EB1287991
:100640003055641C85F804A0BC4207D340F2F32067
:100650002CE2BCE191E1CDE119E2F9E10EB128799A
:10066000305589F801A0641C37E209202871BC428A
:1006700002D340F2FA2019E20EB128793055042055
:10068000641C2871BC4202D340F2FB200EE20EB182
:100690002879305599F80110641C0198FEF7E8FBA1
:1006A000C9F8040000782871BC4202D34FF44070AE
:1006B000FCE10EB128793055641C85F804A0BC42D9
:1006C00002D340F20130F1E10EB128793055D9F86A
:1006D0000400641CBC424078287102D340F202300E
:1006E000E4E10EB128793055D9F8040098F81410D7
:1006F000641C0078814233D185F804B0BC4213D326
:1007000040F20630D2E18BE07FE073E067E054E036
:100710001BE10FE103E1F7E0EBE0DFE0D3E0C7E04E
:10072000B9E0ADE0A1E095E00EB128793055641C48
:1007300085F804B0BC4202D340F20730B6E10EB1F6
:100740002879305598F81900641C2871BC4202D3EE
:100750004FF44270AAE10EB128793055641C25E0AF
:1007600098F8161081421CD10A202871BC4202D38D
:1007700040F20D309AE10EB128793055641C85F8AD
:1007800004A0BC4202D340F20E308FE10EB12879B2
:100790003055641C85F804A0BC42DCD340F20F3015
:1007A00084E12B4940F21330FFF78EFA85F804A05C
:1007B000BC4202D340F2163078E10EB128793055B0
:1007C000D9F8040098F81410641C007881426ED1A6
:1007D00005202871BC4202D340F21B3066E10EB105
:1007E000287930552420641C2871BC4202D34FF470
:1007F00047705BE10EB128793055641C85F804A080
:10080000BC4202D340F21D3050E10EB12879305580
:100810001020641C2871BC4202D340F21E3045E116
:100820000EB1287930550120641C2871BC4202D3D6
:1008300040F21F303AE10EB1287930550520641C92
:100840002871BC4206D340F222302FE1E0000020A4
:1008500050B40F000EB1287930552420641C287143
:10086000BC4202D340F2233020E10EB1287930554A
:100870000120641C2871BC4202D34FF4497015E179
:100880000EB1287930550320641C2871BC4202D374
:1008900040F225300AE10EB12879305598F816005B
:1008A000641C2871BC4203D340F22630FEE069E0AC
:1008B0000EB1287930550420641C2871BC4202D343
:1008C00040F22930F2E00EB1287930552420641C22
:1008D0002871BC4202D340F22A30E7E00EB12879F9
:1008E0003055641C85F804B0BC4202D340F22B3072
:1008F000DCE00EB128793055641C85F804B0BC42A8
:1009000002D34FF44B70D1E00EB128793055052059
:10091000641C2871BC4202D340F22F30C6E00EB1F5
:10092000287930552420641C2871BC4202D34FF42E
:100930004C70BBE00EB1287930550620641C28713C
:10094000BC4202D340F23130B0E00EB128793055CC
:1009500098F81400641C2871BC4202D340F2323073
:10096000A4E00EB12879305598F81600641C28715F
:10097000BC4202D340F2333098E00EB128793055B2
:10098000641C08E098F81610814204D058494FF4CE
:100990004F70FFF799F9D9F804104846497889F85B
:1009A0000210514689F803A08EE007202871BC424E
:1009B00002D340F2473079E00EB128793055052056
:1009C000641C2871BC4202D34FF452706EE00EB129
:1009D0002879305599F80310641CD9F80400FEF703
:1009E000E3F9C9F8080000782871BC4202D34FF43B
:1009F00053705BE00EB128793055D9F8040098F8AF
:100A00001410641C007881420BD103202871BC4271
:100A100002D340F2513049E00EB128793055641CC0
:100A20000FE098F81610814206D185F804B0BC4258
:100A3000F2D340F2563039E02D4940F25A30FFF7F8
:100A400043F940202871BC4202D340F25D302DE0D2
:100A50000EB128793055641C85F804A0BC4202D33D
:100A600040F25E3022E00EB128793055D9F804000A
:100A700098F81410641C007881420DD1D8F8200039
:100A8000BC420078287102D340F263300EE00EB110
:100A900028793055641C11E098F81610814208D16D
:100AA00085F804A0BC42F2D34FF45A7028600120AC
:100AB00070E50F494FF45B70FFF706F999F80310E2
:100AC0004846491C89F803108278C9B29142FFF464
:100AD0006CAF4178491C89F8011099F8011099F818
:100AE00000008142FFF4C1AD40F27330DEE7000048
:100AF00050B40F0010B5040003D103492C20FFF7B8
:100B0000E3F8204610BD000050B40F0010B508B146
:100B1000032010BD0846FFF73DFC0178202901D0D5
:100B2000062010BDD0F80210C160C1880182017A90
:100B30008174002010BD10B5FFF7DCFFFFF72AFC21
:100B40000021818281610162C1660167416781671D
:100B500000F12801816610BD2DE9FC478146FFF7B1
:100B6000C9FFFFF717FC0446484600F0A2F9074604
:100B70002F4800268068CDE90004E069B0B1D4F8C0
:100B800078804546404500D205462A4604F12801B2
:100B9000A069FBF74DFC206F2844C4E91C60A8EB5A
:100BA0000500E06660192830A06627E0206F6067C6
:100BB0002667E666216A304621B1626AA161C4E90E
:100BC00007202CE0A06130E004F11802616A82E89D
:100BD0004300E26E1AB38A4215D3A36E0A46194641
:100BE000FBF726FCE16EE069091AE166A16E01449B
:100BF000A16660670021484609F0E6FC206A0028EB
:100C0000E2D1A66111E0A16EFBF712FCE06E206755
:100C1000E169091AE161A1690818A06105D0694676
:100C20003846FEF79DFBBDE8FC870020FBE700008F
:100C30007CAA0F004360CA699A4204D38A690260A1
:100C40000B67CB6103E001F1280202608B67002093
:100C50007047000010B599B102291ED101220F4939
:100C60000F48FDF7FBFE02460E480F49BDE8104055
:100C7000401AC008022101EB00400CA104F0CEBBD9
:100C800006490122A1F1590006F09CFF0122034907
:100C90000348FDF7E3FE0028F2D010BDC19200200A
:100CA000FCAC0F0088BC0F00F8BB0F00436F756CE5
:100CB00064206E6F7420726561642066726F6D20AF
:100CC0004344432E204572726F723A203078257863
:100CD0002E00000070B50D46040003D10BA1E920E1
:100CE000FEF7F2FF606818B908A1EA20FEF7ECFFF2
:100CF0006068006818B905A1EB20FEF7E5FF6068A1
:100D0000294602682046BDE8704010472E2E5C2E12
:100D10002E5C2E2E5C2E2E5C2E2E5C636F6D706F03
:100D20006E656E74735C6C69627261726965735C26
:100D3000757362645C6170705F757362642E6300CA
:100D400070B5084C050009D010342168002907D07F
:100D500008682060496828468847F6E70834F4E7C1
:100D600070BD000034240020054A012120B1012873
:100D700005D19170FFF7E4BF51700020FAE770478A
:100D80003424002010B5040003D10549CA20FEF721
:100D90009BFF0448C16B6160006CA06010BD000047
:100DA00020B00F00C01C002010B50021FEF760F835
:100DB0000021FDF7F9FF007810BD0000F0B54FF0FD
:100DC000FF3622B11268D24300230A4D0DE03246AD
:100DD000FAE7C45C62400824D70700D037462F40AA
:100DE00087EA5202641EF7D15B1C8B42F1D3D043D9
:100DF000F0BD00002083B8ED10B504460068401C2B
:100E000007D0204608F054F82168814201D1012022
:100E100010BD002010BD000010B5104C90B06078DF
:100E2000002818D101F0DEFE18B10D49B520FEF7FB
:100E30004BFF20220B49684601F0F4FE40236A462E
:100E400009490A4801F000FE18B10549BF20FEF724
:100E50003BFF0120607010B010BD00006C0000204E
:100E6000BCB30F00D0A60F006C23002028A70F00F2
:100E7000EFF30580C005C00D10D0103840B2002837
:100E800006DA00F00F0000F1E02090F8140D03E006
:100E900000F1E02090F80004400970470F207047EF
:100EA00010B50121FDF7E4FF0021FDF77DFF00787B
:100EB00010BD10B50121FDF7DBFF0121FDF774FF27
:100EC000007810BDF0B5146906468DB0206815464F
:100ED000271DE0B1022920D00A2000906B4609AA04
:100EE000304607F0B3FC00280FD009A901A8009AEA
:100EF00007F042FA01AE96E80F0005AE86E80F0053
:100F0000236869683A4605A898470DB0F0BD0DB052
:100F10003046BDE8F04007F0A3BA6946304607F016
:100F200035FA0028F1D0236869683A466846984740
:100F30000028EAD002980028F5D1019870600120BD
:100F4000E3E753689B7813F0C00303D0402B03D032
:100F50000020704700F002B8FFF7B4BF2DE9FF4151
:100F60000B465168064614468878334D00F00F0250
:100F700010F0300055F8225006D0102806D0202856
:100F800008D0302856D13EE022694DE06169012049
:100F9000087047E0022B28D1042A26D84FF0010818
:100FA00069463046676907F0F1F900281AD009E070
:100FB0000B89226903FB00226846A84770B1388874
:100FC000401C3880029820B1616838884A89904274
