:1000000000000120D1AD0100D1AD0100CFAD010054
:10001000CDAD0100CDAD0100CDAD0100000000006F
:10002000000000000000000000000000CDAD010055
:100030000000000000000000CDAD0100CDAD0100CA
:10004000CDAD0100C9BC0100B9CA01009DAE0100DF
:10005000CDAD0100CDAD0100CDAD0100CDAD0100B4
:10006000CDAD0100CDAD0100CDAD010079AA0100FB
:10007000CDAD01005DAD0100CDAD0100CDAD010004
:10008000CDAD0100CDAD0100CDAD0100CDAD010084
:10009000CDAD0100CDAD0100CDAD0100CDAD010074
:1000A000CDAD01007DC40100CDAD0100CDAD01009D
:1000B000CDAD0100CDAD010000000000000000004A
:1000C000CDAD0100CDAD0100CDAD0100CDAD010044
:1000D000CDAD0100CDAD010000000000000000002A
:1000E0000000000000000000000000000000000010
:1000F0000000000000000000000000000000000000
:1001000000000000000000000000000000000000EF
:1001100000000000000000000000000000000000DF
:1004000000000000704710B51AF018FC00F0B4FBB3
:10041000044600B9FEE715F059F8204619F0F7FF39
:10042000204600F092F820461AF019FCF8E703463F
:10043000C2690846196A104770B592B00C46054665
:10044000002103A83C221CF001FD14B96B69204671
:1004500034E02046694602F00FFB00285CD19DF88D
:100460000030082B58D112AA03AB52F8460D516840
:1004700003C30DF13E01204602F0CEFA63798DF8F8
:100480004230A3798DF843302046E3798DF844302B
:1004900002F0D7FC0646204602F068FC1D2E0BD960
:1004A000028840F6FF739A4206D1837823B9C37855
:1004B00013B90379032B04D06B6903A8A969984782
:1004C0002AE042799DF84530121162F303038DF85A
:1004D0004530427962F345138DF8453043799DF8F4
:1004E0004520C3F3C00363F304128DF8452005AC27
:1004F000821D00F1160310685168264603C60832B3
:100500009A423446F7D1137833701368CDF825300A
:100510005368CDF82930CFE712B070BD38B500234D
:100520000446C36003614361836104F509752430A7
:1005300000F0AAFF284603F0BFFA04F5BA50294696
:100540001C3011F0C7FD204638BD00F5B95004300D
:1005500000F081BF00F50150083001F01AB800F535
:100560000150083001F04EB907B500F513500DF1F8
:10057000070104300CF020FC9DF8070003B05DF883
:1005800004FB00F5135004300CF01DBC00F51350B3
:10059000043008F01FBF00F51350043009F0CABF43
:1005A00000F50150083000F0CABF00F501500830D6
:1005B00001F01BB837B5044600F5015008300D4670
:1005C00001F015F802A9FD2301F8083D2B68CDF8CC
:1005D000013004F513502B798DF8053004300023D9
:1005E0008DF806308DF8073009F029F803B030BDDA
:1005F00021B100F51350043008F0C9BF072070473F
:1006000007B500F51350043008F0E7FE00238DF81D
:100610000430030744BF01238DF80430410742BF73
:100620009DF8043043F002038DF80430820742BF86
:100630009DF8043043F004038DF80430C30742BF33
:100640009DF8043043F008038DF804309DF8040051
:1006500003B05DF804FB0A4612F0010F0CBF002145
:100660000821930744BF41F00403D9B2530748BFA0
:1006700041F0020100F51350130748BF41F001019A
:10068000043009F074BF00F5FD50043005F023BDBF
:1006900000F5FD50043005F04BBD00F5135004305B
:1006A00008F072BF00F51350043008F099BE00F551
:1006B0001350043008F0C3BF10B53AB133B100F5A0
:1006C00051502C300FF05CFD002010BD072010BDF4
:1006D00000F50150083000F05FBF00F50150083010
:1006E00000F05CBF00F50150083000F06EBF38B577
:1006F0004FF6FF73994205460C4605D100F513509D
:10070000043008F0FBFD38B105F5015021460830F2
:10071000BDE8384000F05CBF0E2038BD00F5135036
:1007200004300BF0CFBC00F5135004300BF0D3BCF9
:1007300000F50150083000F01DBF00F513500430E3
:100740000CF0F6BC00F5135004300CF0F4BC4B7CFC
:1007500013F0040F13B514BF202400241A0744BF5C
:1007600044F01004E4B2DA0648BF44F008049A06E4
:1007700048BF44F004045A0648BF44F00204DA09B2
:1007800018BF44F0010400948C7C0A7C04F001043E
:1007900000F55150019443F301032C300FF076FE25
:1007A00002B010BD00F551502C300A7C0FF046BE4F
:1007B00062B15BB119B100F551502C3002E000F587
:1007C0005650043011461A460FF0F9BA0720704708
:1007D00013B54B7C0A7CC3F3800400F551500094A0
:1007E00043F301032C300FF0CBFE02B010BD00F537
:1007F00051502C300A7C0FF09BBE00F551502C302C
:100800000FF096BF00F5FD5004F06EB900F5FD50F5
:1008100004F079B900F5FD5004F083B900F55650A5
:10082000043010F0A7B800F55650043010F0A5B809
:1008300000F5FD50043005F0A0BC00F5FD5004307B
:1008400005F09EBC42F20C03C058704742F20C0304
:10085000C150704700F5135004300BF099BD00F5FE
:10086000135004300BF097BD00F5135004300BF01B
:1008700095BD00F5135004300BF093BD00F51350F7
:1008800004300BF0B7BD00F5015010B508300C4630
:1008900001F0FDFE214602F050FB00280CBF0320B2
:1008A000002010BD70B500F5015408340D462046F7
:1008B000164601F0ECFE294602F03FFB054640B12A
:1008C000204601F0E4FE2946324602F06AFB002091
:1008D00070BD032070BD10B500F501500C46083006
:1008E00001F0D5FE2146BDE8104002F044BB08B53A
:1008F00000F50150083001F0CAFEBDE8084002F0E2
:10090000FABA38B50D46144652B100F50150083018
:1009100001F0BDFE29462246BDE8384002F0CEBABD
:10092000072038BD08B500F50150083001F0AFFED2
:10093000BDE8084002F0BBBA08B500F50150083028
:1009400001F0A5FEBDE8084002F0ADBA08B500F51B
:100950000150083001F09BFEBDE8084002F0ABBA40
:1009600000F51350043008F068BD00F51350043052
:1009700008F085BC00F51350043002210CF0BEBD18
:1009800000F5135004300BF087BD00F51350043010
:100990000BF00ABD00F5135004300BF008BD00F554
:1009A0001350043009F001B800F51350043008F07A
:1009B000FFBF22B100F5135004300CF017BC072024
:1009C00070472AB121B100F5135004300CF01EBC61
:1009D0000720704700F5135008B5043008F08EFC6E
:1009E0000138C0B203289ABF014B185C012008BD32
:1009F00094E3010008B500F51350043008F0C6FF79
:100A0000407A08BD08B500F51350043008F0BEFF69
:100A1000807908BD08B500F51350043008F0B6FF22
:100A2000C07908BD00F5135008B5043008F0AEFFDA
:100A3000D0F8020000BA08BD00F51350043008F0E9
:100A4000D8BC10B50C4661B100F5135004300BF062
:100A500037FA0368236043686360838A2381002038
:100A600010BD072010BD08B500F51350043008F084
:100A70008DFF007A08BD00F50150083001F038B94B
:100A800000F50150083001F004BEF8B500F5BA5584
:100A90001C35282307460B8028460C4604F0E1FA53
:100AA00007F50F56D0F8F030638006F18400211D61
:100AB000A21D00F08CFC06F18C0004F1080104F189
:100AC0000A0200F084FC04F1180104F11A0206F194
:100AD000940000F07CFC284604F0C3FA00F5A8500E
:100AE00004F10C0104F10E02103000F070FC2846F5
:100AF00004F0B7FA04F1100104F11202E83000F03A
:100B000066FC07F5195004F1140104F116023030A7
:100B100000F05DFC07F5C65004F11C0104F11E0253
:100B20000430BDE8F84000F052BC00F5BA501C306B
:100B300004F0D7BA00F5BA501C3004F016BB00F52B
:100B4000BA501C3004F06ABB0346006838B903F59C
:100B5000BA5083E806001C30194604F073BA03202B
:100B6000704700000048704798E3010000F51350FB
:100B700004300CF0E3BA000038B50F4C0F4A0320E4
:100B8000012119F0C7FF23689BB90D4D2846FFF7D7
:100B9000C5FC284625601AF0CFFB206800F5D5502B
:100BA000183006F0FBF8206800F5E8501C3006F01D
:100BB0003BFB206838BD00BF80000020D2E301006D
:100BC0008800002000F5BA501C3011F00FBB00F572
:100BD000BA501C3011F028BB00F5BA501C3011F08F
:100BE0003DBB10B5044600F50150083000F0EDFCA7
:100BF0004FF6FF73984207D004F5135004300121DB
:100C0000BDE8104009F052BC0E2010BD00F5135095
:100C10000430012108F0B2BB00F5135004300BF092
:100C20002CBE00004361009B8361009000F50150E1
:100C30000830014B01F080B93904000000F5015083
:100C4000083000F036BC0000C361009B03620090D6
:100C500000F501500830014B01F07FB92F0400006E
:100C600000F50150083000F030BC00F5097002F0CA
:100C700093BF00F5097002F096BF00F5097002F00D
:100C800096BF37B5044600F5BA501C300D4604F047
:100C9000EAF90022012103460191009204F509704E
:100CA000294603F087FC03B030BD38B50D4600215E
:100CB00000F545700A4600F0B3F8044610B1294625
:100CC00000F0CFFA204638BD00F079B800F0ADB999
:100CD00000F50B7002F0E3BE00F50B7002F0E1BE10
:100CE00038B5051D044600214FF4A05228461CF0DB
:100CF000ADF804F5A0500822083000211CF0A6F839
:100D000041F2044304F5A052E550043204F1840397
:100D100043F8803C80339342FAD141F2843300227D
:100D2000E25028232360204638BD000041F20443EE
:100D300010B5C4582CB903200721064A19F0EAFE61
:100D400006E02268C250002323600368013B036071
:100D5000204610BDE1E3010010B551B100F5A053EC
:100D60000A685C680C6059600368013303601146CF
:100D7000F3E7084610BD8A680AB94B6903B1FEE77C
:100D8000FFF7EABFF8B506460F4604464825BD42C0
:100D90000DD223681BB17C352468ADB2F7E77068CB
:100DA000FFF7C4FF20600028F5D10320F8BD00251F
:100DB000216825607068FFF7CFFF2846F8BD01461F
:100DC0004068FFF7D8BF80697047408C704738B5DE
:100DD000028C438C0D46114489B2134448299BB2BE
:100DE00088BFA1F14902044691BF00227C2092FBFA
:100DF000F0F20132482B81BF493B7C2093FBF0F39A
:100E0000DB4388BFD21863681B689A4201DD032068
:100E100038BD2046FFF7B6FF08B9658438BD38BD38
:100E2000F8B505460F461646FFF780FF0446C0B1E9
:100E3000002180221CF00AF894F83430656067F3D2
:100E40000103DBB243F04003268484F834302046AB
:100E50000021FFF7BCFF20B121462846FFF78BFF9A
:100E600000242046F8BD0368012013B10130C0B250
:100E7000FBE77047808C7047838C428C1944914209
:100E800000DDFEE789B29142818400D9FEE70020AF
:100E90007047438C8B4200D2FEE78184002070476C
:100EA00090F8340000F00300704790F83400C0F36D
:100EB0008200704790F8343061F3840380F8343056
:100EC0007047438C994200D9FEE75B1A4384838CB8
:100ED000028C8B420A4494BF0023591A02848CBFAF
:100EE0008184838400207047F8B51646428C914275
:100EF000074643D288199042A8BF561A3A8C11442B
:100F00008CB2A8BFB6B2472C12D8C4F14805ADB216
:100F1000B54228BF354607F13801184621442A4614
:100F20001BF06EFF761B0346B6B22B44002103E094
:100F3000A4F1480189B200253F687B291AD907B975
:100F4000FEE77C393F6889B2F7E7B7B1C1F17C04AD
:100F5000A4B2B44228BF34463A1D11441846224672
:100F60001BF04EFF361B034625443F68B6B2ADB2B8
:100F700023440021002EE8D101E0FEE700252846A9
:100F8000F8BD2DE9F0411F46438C15468A189A4258
:100F9000064600DDFEE7028CA8BF5D1A114489B247
:100FA000A8BFADB2472910D8C1F14804A4B2AC42E1
:100FB00028BF2C4638300844224639462D1B1BF0EA
:100FC0001FFFADB22744002003E0A1F1480080B22A
:100FD0000024D6F800807B2820D9B8F1000F00D17A
:100FE000FEE77C38D8F8008080B2F4E7B8F1000F53
:100FF00017D0C0F17C06B6B2AE4228BF2E4608F12B
:1010000004033946184432461BF0FAFEAD1B344443
:10101000D8F80080ADB2A4B237440020002DE5D14D
:1010200000E0FEE72046BDE8F0812DE9F041468C66
:101030008846911989B207461446FFF7C8FE05464F
:1010400040B93846314622464346FFF79AFFA04250
:1010500000D0FEE72846BDE8F08170B504460D4695
:101060001646238C9E4217D96068FFF75FFE38B39F
:1010700023680360228C2060472A09D802F13001DE
:101080000844214408300831C2F148021BF0B8FE80
:10109000238C7C332384E4E79B1B2384A18C638C07
:1010A000314433446384204689B2FFF7F2FE2DB108
:1010B0002046002132462B46FFF763FF002070BD1B
:1010C000032070BD2DE9F043814685B00F46904660
:1010D0001C460026CCB10F2C94BF2546102539465E
:1010E0002A466B464846FFF7FFFE2F4441460C98C0
:1010F0002A466B46A844641B2E44FFF742FFBFB24A
:101100001FFA88F8A4B2B6B2E4E7304605B0BDE8ED
:10111000F08373B505460E4690F834102A8C40686B
:1011200001F00301FFF77CFE044650B33146FFF7A0
:101130004EFE014608BB0A46334600942846FFF798
:10114000C1FF2046A98CFFF7A4FE95F8313084F842
:10115000313095F8343094F83420C3F3820363F3CC
:10116000840284F8342095F83430D2B2C3F380136B
:1011700063F3861284F8342003E02046FFF71FFE55
:101180000024204602B070BDC08C7047C1847047F7
:101190003F2900D9FEE700EBD100802390F82820FA
:1011A00001F007010B411A4214BF012000207047D3
:1011B0003F2900D9FEE700EBD100802390F82820DA
:1011C00001F007010B4122EA030380F82830704741
:1011D0003F2900D9FEE700EBD100802390F82820BA
:1011E00001F007010B41134380F82830704700F1EC
:1011F000270200F12F0312F8010F10B99A42FAD119
:10120000704701207047408E70474186704790F8C4
:101210003200704780F83210704790F83000704705
:1012200080F83010704790F93100704780F8311025
:10123000704790F83400C0F34010704790F8343095
:101240006FF3451380F83430704790F8343043F032
:10125000200380F83430704790F83400C0F38010D9
:10126000704790F8343061F3861380F8343070475B
:10127000F8B507461D460846D1187B8C994200DD1B
:10128000FEE73C8C1444A4B2472C0FD8C4F14806A6
:10129000B6B2AE4228BF2E4607F13801214432468D
:1012A000AD1B02F054FCADB2002401E0483CA4B2F6
:1012B0003F687B2C15D907B9FEE77C3C3F68A4B298
:1012C000F7E78FB1C4F17C06B6B2AE4228BF2E4616
:1012D000391D2144324602F03AFCAD1B3F68ADB2E5
:1012E0000024002DEDD100E0FEE7F8BD00220260F1
:1012F0004260704710B500EB400401EB8404E368E2
:101300003BB90C2358430A18083293680BB9A368F9
:1013100003B9FEE71C680CB9196003E05C6820445F
:10132000C16094605960002010BD00EB400201EBE9
:10133000820270B5946804B9FEE72368D5688B42D1
:1013400006D02DB90C2303FB00131B6903B9FEE77C
:101350000C234343CE18366916B13344DD6000E0F8
:101360002560D5680C232DB14343CC182B44246948
:101370001C6103E003FB00131B6963600C2303FB88
:10138000001000F1080100208860D06070BD006886
:1013900070474B6810B503F5A05308338B600C46BB
:1013A00048610020FFF7A6FF21460120FFF7A2FFBA
:1013B000002010BD10B500200C46FFF7B6FF2146F7
:1013C0000120FFF7B2FF0020A060606110BD70B582
:1013D000002304680B800D461646138054B12B88F9
:1013E00001332B802046FFF73EFD3388A469184463
:1013F0003080F3E770BD10B580E80E000023C360B5
:1014000010BD002202604260704710B544688C42F3
:1014100011D0CB687BB954B9016041600868A0F570
:10142000A85003F0FAF9FEF7EDFF204610BDE16089
:101430004160184610BD1A2010BD01460068FFF734
:10144000E4BF03682BB1DA68026002B9426000228F
:10145000DA601846704770B5466805462846FFF7BB
:10146000F0FF044678B16368A0689847B442F5D1AC
:101470002B6843B13068A0F5A85003F0CEF9BDE861
:101480007040FEF7BFBF70BD10B54FF40071044649
:1014900018F09CFD204610BD38B504460D4619F0E5
:1014A0009DFA2561E06021462068BDE8384011F0D2
:1014B000F3BE90F88C30012B05D090F89300431EBA
:1014C0005842584170471846704790F88C30022BAC
:1014D00005D090F89300831E584258417047012070
:1014E000704710B590F88C30022B044614D1006D73
:1014F00010F0B8FE1AF066F87F2807D094F9A830EB
:101500007F2B01D0984201DD84F8A80004F1AC00E3
:10151000BDE81040FFF791BF10BDFFF7E2BFD0F864
:1015200088308B4201D08A6802B1FEE713B9C0F857
:10153000841000E09960C0F8881000207047543093
:10154000704737B5044601F108050DF1FF3315F872
:10155000012D03F8012F8D42F9D1206D10F082FE8C
:10156000694619F0DFFF2868696804F1540303C372
:1015700003B030BDB0F85C00704710B50C46A0F861
:101580005C10006D10F06EFE214619F0CEFF0020B9
:1015900010BD90F8600070476230704738B504465F
:1015A00008460D461BF0F8FF10280CD86234204680
:1015B000002111221BF04AFC2046294611221BF073
:1015C000F3FF002038BD072038BDB0F85E0070473B
:1015D00010B50446A0F85E10006D10F043FEB4F89C
:1015E0005E1019F093FF002010BD733070470B6838
:1015F000C0F873304B68C0F87730002070470000A7
:1016000070B5044608460E4603F02BFD00F5A850C1
:1016100000255C4B636008302060E56025616561F2
:101620003046A46003F01DFD00F5A850564BE36161
:101630000830A0616562A562E5623046246203F06D
:1016400010FD524B636300F5A85006F648030830BE
:10165000A36406F668532063E56325646564E36468
:1016600026653046A46303F0FCFC494A00F5A85106
:10167000234604F1AC00FFF7BEFE04F1BC0004F009
:1016800010FE04F1C80001F000FC04F2092001F092
:101690008EFC0B23FF2284F8943084F860304FF6E0
:1016A000FF73C4F89820A4F85E307F224FF6FE73D3
:1016B00084F88C5084F88F5084F8905084F89150BE
:1016C00084F8925084F89350A4F89C50C4F8A05029
:1016D000C4F8A450E567C4F88050C4F88450C4F836
:1016E000885084F8615084F8A820A4F85C3004F194
:1016F000530504F15B0619F02FFB05F8010FB54205
:10170000F9D194F8543023F0010343F00203682226
:1017100084F8543004F54C7000211BF097FB2046F0
:101720001C49FFF764FF20461B49FFF737FFB4F859
:101730005E102046FFF74CFF204604F15401FFF7EE
:1017400000FF4FF6FE712046FFF717FF19F004FB6C
:1017500084F88D0019F000FB0023C4F8C030C4F8F1
:10176000C43084F88E00206D10F07CFD19F0F8FE76
:10177000206D10F077FD19F021FFC4F82C032046EE
:1017800070BD00BFE52400007D260000BD1C0000E8
:101790001B1500000CE4010001E4010010B590F8F5
:1017A0008C30013B012B044605D8006D10F05AFD2A
:1017B00094F8941013E090F88F305BB9006B04F14B
:1017C000300111F0EEFC28B9206D10F04BFD19F03E
:1017D000FDFE40B1206D10F045FD94F86010BDE8AD
:1017E000104019F0D6BE206D10F03CFDBDE8104051
:1017F00019F0CABE90F88C3080F88F100BB9FFF743
:10180000CDBF704708B590F88C3080F860100BB9E8
:10181000FFF7C4FF002008BD30B5039800240D5D1C
:1018200005550134082CFAD1110E0172110C4172C8
:10183000110A8172C272037330BD00002DE9F043BA
:10184000E1B005460C4608460DF10A0101F0A7F982
:101850009DF80A30082B0BD0102B20D08BBBA86C26
:1018600004F0FDFC8046A86C04F00AFD064613E077
:10187000A86C04F0D3FC8046A86C04F0E4FC064697
:10188000A86C04F0E2FCA86C04F077FC00F07F0187
:101890000131204601F0E2F905F1540912E0364B1E
:1018A000DFF8D8901868079007A9204601F0B0F932
:1018B0002046FF2101F0D2F9DFF8C4804FF0FF3657
:1018C00000E0FEE70DF10901204601F05BF903AFEE
:1018D0003146204601F084F99DF8093000972846EA
:1018E00049463246FFF798FF4146102207A811F0FB
:1018F000C0FD204601F0C4F902388DF80B002046E7
:1019000001F08AFA0546204601F09BFA0D219DF868
:101910000B3001910246294607A8009711F0B0FD4F
:10192000204601F021FA0546204601F075FA2946C5
:10193000024607A811F055FE204601F017FA0646A8
:10194000204601F013FA0546204601F07AFA0122FA
:1019500003463146009207A82A4611F082FE20462F
:1019600001F08AFA0DF10B02014607A811F001FF00
:1019700061B0BDE8F08300BFFDE3010057E6010060
:101980005FE601002DE9F043E7B00D460646084644
:1019900003A91746984601F0F5F804A9284601F076
:1019A0000BF904200721734A049B19F0B3F8284669
:1019B0000DF10D0101F0F3F89DF80D40082C0BD04E
:1019C000102C59D0002C40F0CF80B06C04F047FCB4
:1019D000814600284ED1C7E0B8F1000F00F0C48066
:1019E0000DF10F01284601F027F99DF80F40B06C6A
:1019F000013CE4B28DF80F4004F0BFFB00F07F0023
:101A0000844207D1B06C04F0B8FB0446B06C04F01B
:101A100005FC21E0B06C9DF80F4004F0AEFB0138EE
:101A200000F07F00844204D1B06C04F0A6FB441E99
:101A30000EE0B06C9DF80F4004F09FFB013000F009
:101A40007F00844240F09080B06C04F096FB441C10
:101A5000B06C214604F0E6FBD8F818309C42814671
:101A6000C0F0828006D1049BD8F80C200133934249
:101A70007AD37BD0B91C03E03F49DFF80091002402
:101A800005AF9DF80C30049A00973046FFF7C4FE6E
:101A9000284601F0F5F80238494610228DF80E006C
:101AA0000DA811F0E6FC284601F0B6F9814628465B
:101AB00001F0C7F90D219DF80E3000970246019103
:101AC0000DA8494611F0DCFC284601F04DF9074607
:101AD000284601F0A1F9394602460DA811F081FD12
:101AE000284601F043F98146284601F03FF90746B0
:101AF000284601F0A6F90022034600920DA84946A7
:101B00003A4611F0AEFD09A90DF10E020DA811F033
:101B100030FE284601F0B0F99DF80E20014609A8D4
:101B20001BF05EF900BB9DF80D30082B16D1D8F8DC
:101B30001830A342049B18BFC8F8100003F101033A
:101B4000C8F80C3018BFC8F81840B06C04F015FB8A
:101B5000844203D9B06C214604F012FB2B7A43F087
:101B600001032B72002002E0082000E01F2067B074
:101B7000BDE8F08314E4010057E601005FE60100D0
:101B800010B500220C46084640F6030101F09AF811
:101B900020464FF6FF7100F0D3FE20464FF6FF714E
:101BA00000F0FEFE2046072101F02BF9032007215B
:101BB000024ABDE8104018F0ADBF00BF25E40100A7
:101BC0002DE9F743054600220E4608464FF44041F2
:101BD00001F078F8B5F85E10304600F02BFF05F103
:101BE0005401304600F08AFF304601F0BFF84FF054
:101BF000FF33037000238370C3700323037120231A
:101C00000F22437142700446286D0DF1070100F662
:101C1000440002F086FF9DF80720637912B143F07B
:101C2000010301E023F0010305F162076371384607
:101C300010211BF0CBFC04F1060881460021404630
:101C400010221BF003F94A46394640461BF0D8F8EB
:101C500055F8733FC4F816306B68C4F81A30304634
:101C60001E2101F0FBF803200721034A18F052FF60
:101C700003B0BDE8F08300BF39E4010038B5054684
:101C800008460C4600F02AFE28B128462146BDE849
:101C90003840FFF7D3BD38BD10B5044607210320F7
:101CA000054A18F037FF94F88C3023B92046BDE878
:101CB0001040FFF773BD10BD45E40100FFF7ECBF16
:101CC0002DE9F0410C46097A6FF3000107462172B5
:101CD000204616461D4600F001FE38B13846214622
:101CE00032462B46BDE8F041FFF74CBEBDE8F0811F
:101CF000C0F8C010C0F8C420704708B5006D10F0DF
:101D0000B1FA19F061FCC0F3800008BD38B5044693
:101D1000FFF7F3FF04F1180510B12846002117E082
:101D200094F8912094F8903013440133052B28BF88
:101D300005234FF4A0744FF47A719C40B4FBF1F486
:101D400019F00AF80134B0FBF4F101FB1401284644
:101D5000FFF7A2FB38BDD0F880308B4210B511D010
:101D6000CA687AB9C26F0AB9C16700E0D96090F851
:101D70008C40C0F880103CB9042380F88C30FFF709
:101D8000C5FF01E01A2010BD002010BD90F893306F
:101D9000012B10B5044603D1002280F893200EE0F9
:101DA000022B05D1002380F8933000F018F811E0E1
:101DB00090F8923043B1002380F89230032384F8E6
:101DC0008C30FFF7A3FF05E0C36F0BB10423F6E7E8
:101DD00080F88C302046BDE81040FFF7DFBC0223BE
:101DE00010B580F88C300446006D10F03BFA19F005
:101DF000EBFB830710D47F2384F8A8302046B4F887
:101E00009C10FFF749FB04F1AC00FFF716FB2046DE
:101E1000BDE81040FFF7C2BC206D10F023FA94F823
:101E20009410B4F89C2019F00FFC50B1D4F8A00025
:101E3000D4F8A430002198472046BDE81040FFF7B1
:101E4000A5BF10BD7F2913B504460BD090F8943080
:101E50008DF804308DF80510D0F8A430D0F8A0002B
:101E600001A99847D4F8982094F894300133520887
:101E7000DBB214D1C4F8982084F89430206D10F0AF
:101E8000F1F994F8601019F084FBD4F8A000D4F8AC
:101E9000A430002198472046FFF778FF0AE01A2B6C
:101EA000E8D8D107E2D5C4F8982084F894302046C9
:101EB000FFF795FF02B010BD00F501500830FFF7A5
:101EC000C1BF38B590F88C40651E012D32D990F80D
:101ED00093507DBB002A08BF4FF0FF32002B08BF94
:101EE000C823A0F89C300B23049DC0F8A050DA4012
:101EF00080F89430C0F89820D0F89830DA0708D4E9
:101F00005B08C0F8983090F89430013380F8943032
:101F1000F2E75CB9012904D180F88C10FFF7F6FED6
:101F200006E0022904D1FFF75AFF01E080F8931080
:101F3000002038BD052038BDF7B50F4616461D46B2
:101F4000089B009301213A4633460446FFF7B9FF48
:101F500008B9C4F8A45003B0F0BDF7B50F46164653
:101F60001D46089B009302213A4633460446FFF77C
:101F7000A8FF08B9C4F8A45003B0F0BD13B50446D7
:101F800008460DF1070100F030FF9DF80710042905
:101F900019D007291DD1D4F86C33134A0133C4F882
:101FA0006C33032018F0B6FD012384F8923094F8C6
:101FB0008C30ABB9032284F88C2084F89230204610
:101FC000FFF7A4FE0CE0D4F864330133C4F86433A3
:101FD00004E0D4F870330133C4F87033002000E01B
:101FE000022002B010BD00BF58E401002DE9F0410D
:101FF000D0F85C33013388B004460D46C0F85C333A
:102000001646002A40F02881002900F020810B7A32
:1020100062F300030B72D0F8C0304BB10B7A62F35D
:1020200041030B72D0F8C0300846D4F8C41098476A
:10203000284600F0E5FB0646002840F00D8102A985
:10204000284600F019FDE06C02A90AF082FF9DF815
:102050000830022B074605D0082B1BD0002B40F080
:10206000F88017E004200721A24ABDF80A3018F0D2
:1020700051FD37B9042007219F4A18F04BFD152662
:10208000EAE008238DF808303B68CDF80A307B6819
:10209000CDF80E3004F154080DF10A004146082233
:1020A0001AF09EFE28B904200721944A18F032FD48
:1020B000CFE09DF80830BBB104F1C806304600F00F
:1020C000FAFE88B10DF10A01304600F020FF01460A
:1020D000002800F0C08030460DF1050200F056FFE8
:1020E00010B99DF80530AB719DF808303BB104F292
:1020F0000926304600F067FF002840F0948028460B
:1021000005A900F028FC9DF81460022E02D0082ECC
:102110001FD031E028460DF1060100F003FCBDF8A8
:1021200006304FF6FF72934205D0B4F85E209A4213
:1021300001D0182690E094F88F20BDF816301AB11F
:102140004FF6FF72934217D0B4F85C209342F0D15F
:1021500012E028460DF1060100F0E4FBBDF8062070
:10216000B4F85E309A42E4D10DF116004146324691
:102170001AF036FE0028DCD12046294602AA3B464A
:10218000FFF79EFD0646002866D13FB107F11E000D
:1021900004F1BC0195F9062004F0FEF894F88C30A7
:1021A000012B0FD1284600F094FBB0BBD4F8683364
:1021B000D4F8A0000133C4F868332946D4F8A43019
:1021C000984794E094F88F3063B99DF814304BB180
:1021D000206B04F1300111F00DF8206D10F042F881
:1021E00019F0D2F9284600F074FB01280FD008D36B
:1021F000032812D120462946FFF7C0FE02281CD131
:1022000075E0D4F868330133C4F8683315E0D4F8C6
:1022100060330133C4F860330FE0D4F87033013316
:10222000C4F8703363E030460DF10A0100F0CEFED1
:1022300000283FF464AF1B260EE0D4F88440002C45
:1022400055D02368606829469847A468F7E71426A4
:1022500002E0162600E0172602200721284A083E41
:1022600018F058FC172E3DD8DFE806F00C3C3C3C3B
:102270003C3C3C3C3C3C3C12181E242A303C3C3C40
:102280003C3C3C36D4F88C330133C4F88C332EE01C
:10229000D4F890330133C4F8903328E0D4F8803375
:1022A0000133C4F8803322E0D4F884330133C4F816
:1022B00084331CE0D4F888330133C4F8883316E043
:1022C000D4F874330133C4F8743310E0D4F878339D
:1022D0000133C4F878330AE0D4F87C330133C4F80E
:1022E0007C3304E0D4F894330133C4F8943308B059
:1022F000BDE8F08170E401008FE40100A1E4010079
:10230000BCE4010000F501500830FFF76FBE00008B
:102310000C29F7B504460D46D0F82C631BD001D824
:10232000C9B117E0102902D0112914D012E03046AB
:1023300000F01AFD00950346072104203A4A10F0E8
:102340003FFE2046FFF7D9FC28B994F89130032BC3
:102350005CD900E0FEE7002384F89130304600F0BD
:10236000C2FA58B1D4F834330133C4F8343355B910
:10237000D4F838330133C4F8383304E0D4F83C33AC
:102380000133C4F83C3394F88C30032B0ED0042B6B
:1023900012D0012B39D1D4F84C33B4F89C1001334E
:1023A000C4F84C332046FFF777F83AE0D4F84833C6
:1023B0000133C4F8483322E0206B04F1300110F0FF
:1023C000F0FE28B1D4F844330133C4F8443304E0B8
:1023D000D4F840330133C4F84033E36FDA68E2677E
:1023E0000AB9C4F880200022DA6094F88E20013205
:1023F00084F88E205F68986831462A46B8472046A0
:1024000003B0BDE8F040FFF7C1BCFEE7013384F83C
:1024100091302046FFF77AFCD4F854330133C4F8E6
:10242000543303B0F0BD00BFDBE4010010B590F8F9
:102430008C30022B044635D0042B39D0012B4ED1E1
:10244000D0F8982090F8943001335208DBB21CD1B8
:10245000C4F8982084F89430206D0FF003FF94F8AE
:10246000601019F096F8206D0FF0FCFEB4F85E10C5
:1024700019F04CF8D4F8A000D4F8A4300021984703
:102480002046BDE81040FFF781BC1A2BE0D8D107E9
:10249000DAD5C4F8982084F894302046BDE810407E
:1024A000FFF734BC90F9A810BDE81040FFF7CABC94
:1024B000184607210A4A18F02DFB206D0FF0D2FEB6
:1024C00094F8601019F065F8D4F830330133C4F88B
:1024D000303320461021BDE81040FFF719BFFEE75A
:1024E000E2E40100FFF7A2BF70B504460E460068A3
:1024F0002146154610F07EFED4F830330133C4F87F
:1025000030332046FFF7F9FB88B9112D0FD194F82D
:102510009030032B0BD8013384F890302046FFF71E
:10252000F5FBD4F858330133C4F8583370BD002399
:1025300084F8903094F88C30032B05D1204629463E
:10254000BDE87040FFF7E4BE042B07D1002EF5D0A4
:1025500004F130006421FEF79FFFEFE7012BEDD07F
:10256000FEE7000070B5B0F89060D0F82C53044638
:10257000002E45D190F86130AB7190F88C30032B70
:1025800014D0042B1FD0012B39D1006D0FF06AFE3F
:102590004FF6FF7118F0BAFF94F894306B71204633
:1025A0002946FFF7EDFA2846314619E090F86030E9
:1025B0006B712946FFF704FB94F88D104B1C84F8CF
:1025C0008D3028460CE090F860306B71C36F29465F
:1025D0001A6898689047002846D194F88E102846CB
:1025E00000F095F929462046FFF748FB94F8613042
:1025F00095F906105AB29142C8BFAB7100E0FEE7F0
:10260000206D0FF02FFE697918F0C3FF00B1FEE7CF
:10261000206D0FF027FE294618F0C1FF00B1FEE73C
:10262000284600F060F930B1206D0FF01BFE18F065
:10263000CBFFC3070ED5D4F8C030E3B12B7A43F0FB
:1026400002032B72D4F8C030D4F8C4102846BDE879
:102650007040184720461021FEF71EFF0420072176
:10266000054A18F057FAE6E7204631460C22BDE845
:102670007040FFF739BF70BDF2E40100FFF772BF91
:1026800000F50150114608301A46FFF72DBFC8303B
:10269000704700F54C70704710B5006D0C460FF098
:1026A000E1FD214618F097FF234604200721024A46
:1026B000BDE8104018F02EBA02E5010030B50B78E5
:1026C000022B8BB00C460ED1006D0FF0CBFD618854
:1026D00018F084FF63881C4A0090054607210420F7
:1026E00018F018FA2CE00A34002308AD14F8012D74
:1026F0005A550133082BF8D1006D0FF0B3FD294670
:1027000018F07DFF9DF8262000929DF8252001926B
:102710009DF8242002929DF8232003929DF8222008
:1027200004929DF8212005929DF8202006920546EE
:1027300007909DF82730054A0420072118F0EAF990
:1027400028460BB030BD00BF25E5010057E501006C
:1027500030B50B78022B8BB00C460ED1006D0FF00C
:1027600081FD618818F055FF63881C4A009005467A
:102770000721042018F0CEF92CE00A34002308AD1C
:1027800014F8012D5A550133082BF8D1006D0FF0C4
:1027900069FD294618F04EFF9DF8262000929DF80D
:1027A000252001929DF8242002929DF82320039277
:1027B0009DF8222004929DF8212005929DF820206A
:1027C0000692054607909DF82730054A0420072108
:1027D00018F0A0F928460BB030BD00BFAAE50100F3
:1027E000E2E5010010B50446084602F0BEF80368B1
:1027F000236043686360237883F00203237010BD75
:1028000010B50479022C62D902681378517843EA32
:10281000012101F44063B3F5006F06D0B3F5406FBA
:1028200005D0002B53D1032302E0072300E00D2342
:1028300001F44040B0F5004F05D0B0F5404F08D04E
:10284000002844D10BE048065CBF0233DBB2023300
:1028500004E048065CBF0233DBB20833DBB2080792
:1028600024D5D25C02F01800102806D0182806D013
:10287000082814BF0533063302E00A3300E00E33A4
:1028800002F00702013AD2B2062ADBB20ED80120CA
:1028900000FA02F212F0440F0AD112F0220F09D10D
:1028A00012F0110F14BF0622022204E0022202E0FD
:1028B000122200E00A2201F00701032904BF0133BC
:1028C000DBB21344A342CCBF0620002010BD06207B
:1028D00010BD0368187800F0070070470368187887
:1028E000C0F3C000704703681878C0F34010704709
:1028F00003681878C0F30010704703681A7811B1A4
:1029000042F0100201E022F010021A7070470368D2
:1029100099707047026853781B0213F4406018BF27
:10292000D01C704710B50C46FFF7F4FF30B1427869
:10293000037843EA02232380002010BD062010BD47
:1029400010B50C46FFF7E6FF00B9FEE7047024124D
:102950004470002010BD03685A78120202F44062ED
:10296000B2F5006F09D0B2F5406F15D1082201F819
:10297000012B03F10D02053307E002220A709A7958
:102980005B7943EA02234B8008E012F8010D01F85D
:10299000010F9A42F9D101E000230B70002070472B
:1029A000026853781B0203F44063B3F5006F00D054
:1029B000FEE75171091291710020704703685A783F
:1029C000120202F44062B2F5406F00D0FEE701F15E
:1029D0000802043312F8010D03F8010F8A42F9D1FD
:1029E0000020704702685178137843EA012313F4FA
:1029F0004C4010D0590602F103000CD403F440639C
:102A0000B3F5006F03D0B3F5406F02D07047D01D0F
:102A1000704702F10D00704710B50C46FFF7E2FF5A
:102A200030B14278037843EA02232380002010BDAE
:102A3000062010BD10B50C46FFF7D4FF20B104707E
:102A400024124470002010BD062010BD006842789A
:102A5000037843EA022303F44062B2F5006F04D026
:102A6000B2F5406F03D0033002E0073000E00D30D4
:102A70005B0658BF0230704770B502680C46567846
:102A80001578FFF7E3FF18B345EA062303F4404344
:102A9000B3F5004F09D0B3F5404F16D123460822B5
:102AA00003F8012B1044093407E002232370427815
:102AB000037843EA0223638005E010F8012D03F850
:102AC000012FA342F9D1002070BD0020207070BDFD
:102AD000062070BD10B503685B781B0203F4404309
:102AE000B3F5004F0C4600D0FEE7FFF7AFFF00B98B
:102AF000FEE7047024124470002010BD10B5036876
:102B00005B781B0203F44043B3F5404F0C4600D002
:102B1000FEE7FFF79BFF00B9FEE704F10803013869
:102B200013F8012D00F8012FA342F9D1002010BDA8
:102B300001680B784A7843EA022202F0080398B24F
:102B4000F8B102F44063B3F5006F04D0B3F5406F01
:102B500003D0C81C03E0C81D01E001F10D0002F420
:102B60004043B3F5004F03D0B3F5404F05D0704755
:102B7000520658BF023002307047530658BF023029
:102B80000830704710B50C46FFF7D2FF28B1037824
:102B900003F007032370002010BD062010BD10B500
:102BA0000C46FFF7C5FF28B1037803F01803237024
:102BB000002010BD062010BD10B50C46FFF7B8FF71
:102BC00060B1C37802791B0443EA0263427813437D
:102BD000827843EA02232360002010BD062010BD46
:102BE00010B50C46FFF7A4FF00B9FEE7230A4470B6
:102BF0008370230C240EC3700471002010BD1028B4
:102C000004D018280CBF082000207047042070470B
:102C100038B50D46FFF78CFF00B9FEE7044614F8FF
:102C2000050B00F01800FFF7EAFF29460246204690
:102C3000BDE838401AF0E4B838B50D46FFF778FF24
:102C4000044648B1007800F01800FFF7D8FF204490
:102C500043792B70002038BD062038BD38B50D46AD
:102C6000FFF766FF044600B9FEE7007800F01800A1
:102C7000FFF7C5FF20444571002038BD007970473B
:102C800008B5FFF755FFD0B1037803F00703013B08
:102C9000DBB2062B0ED8012202FA03F313F0440F25
:102CA0000AD113F0220F09D113F0110F14BF042021
:102CB000002004E0002002E0102000E008200230A4
:102CC000C0B208BD38B5036805460812587001F453
:102CD0004060B0F5006F197004D0B0F5406F06D0B9
:102CE00018B101E0072403E0FEE7032400E00D240F
:102CF00001F44040B0F5004F04D0B0F5404F07D08C
:102D000070B10CE048065CBF0234E4B2023404E067
:102D100048065CBF0234E4B20834E4B200E0FEE7E7
:102D2000080713D51A55530718BF053402F01802C7
:102D300018BFE4B2102A05D0182A05D0082A05D1F8
:102D4000013402E0053400E00934E4B201F0070187
:102D5000032908BF0134284608BFE4B2FFF790FFFB
:102D600020442871002038BD006870470068427810
:102D7000037843EA022303F44062B2F5006F05D002
:102D8000B2F5406F04D072BB033002E0073000E0C0
:102D90000D3003F44042B2F5004F04D0B2F5404F7D
:102DA00006D002BB08E05A0658BF0230023003E0EA
:102DB000590658BF023008301A070ED5027802F0C3
:102DC0001802102A06D0182A06D0082A14BF053087
:102DD000063002E00A3000E00E3003F00703032B58
:102DE00002D1013070470020704710B50C46FFF744
:102DF000BDFF20B110F8013C2370002010BD06205B
:102E000010BD10B50C46FFF7B1FF18B100F8014C2A
:102E1000002010BD062010BD10B50446FFF7A6FF28
:102E20002368C01AC0B210BD38B50546FFF7F4FFDD
:102E300004462846FFF724FF2044C0F17F00C0B2BB
:102E400038BD38B50546FFF7E7FF04462846FFF7CB
:102E500017FF2B792044181AC0B238BD70B505464B
:102E60000E46FFF7D9FF04462846FFF709FF204426
:102E700031182971002070BD10B50446FFF700FF1E
:102E80002379181A2368184410BD002380F84031B4
:102E90000A2202FB03020133517A202B6FF3000157
:102EA0005172F5D17047012380F8403170470023FB
:102EB00080F84031704790F8400170471F2918D8BA
:102EC0000A2303FB01000368136043685360017A1F
:102ED000117200F10803517A407A60F300015172D7
:102EE0005B78C9B2C3F3400363F341015172002020
:102EF00070470720704700220A2303FB02030132B8
:102F0000597A202A6FF300015972F5D17047F8B54C
:102F100006460F4600250A2404FB0564637ADB0796
:102F200005D520463946082219F05AFF18B1013557
:102F3000202DF0D100242046F8BD70B506460D4680
:102F4000FFF7E5FFB0B903460A2101FB03614A7AA6
:102F500012F001020BD12B680B606B684B604B7A4F
:102F600043F0010362F341034B72084670BD013325
:102F7000202BE9D170BD08B5FFF7C9FF28B10021AA
:102F80000A22BDE8084019F061BF08BD4B7AD80796
:102F900005D59B0703D50B7A137000207047FF20DF
:102FA00070474B7A0A7243F002034B72704700235A
:102FB00080F8203100F59072034600211972093320
:102FC0009342FAD1704790F820017047F8B50F4648
:102FD000044600F59076237A25462BB120463946E3
:102FE000082219F0FDFE18B10934B442F3D10025CE
:102FF0002846F8BD38B5044608460D4602F031F8BB
:1030000000F1200104F10C0002F04DF90F4B636454
:103010000F4BA364002305F59472236584F85E309A
:103020004FF47A736265A38304F14401E464A565F7
:1030300005F1E0000FF055FF064BA06D84E8180085
:10304000214601F0FFFF204638BD00BF6FE60100BA
:10305000593700008131000013B5806D00F5F15043
:103060000C4608300DF107010DF076FE90B19DF889
:103070000730034498420DD20278092A06D14288CB
:10308000130A43EA02232380002004E0427802323C
:103090001044EFE7192002B010BD90F85E3007B57C
:1030A00013B1B0F85C001CE0806D00F5F150083001
:1030B0000DF107010DF050FE88B19DF80730034473
:1030C00098420CD20278122A05D14088030A43EABA
:1030D000002080B205E0427802321044F0E74FF45D
:1030E0007A7003B05DF804FB30B50446806D87B09C
:1030F00000F668500D4606F070F982073AD5EB05E8
:1031000038D5A06DA18B00F6440001F0FCFCA06D49
:1031100000F5F15008300DF103010DF01DFE04F132
:103120000C0520B30021102201A819F08FFE002306
:103130002046ADF814308DF81630FFF7AEFF22466A
:10314000ADF814000C49284602F0D2F801A928462F
:1031500002F0ABF8A06DBDF8141000F6440001F0C9
:10316000C3FC03200A21054A17F0D4FC02E02846DC
:1031700002F0E4F807B030BD8133000074E60100CE
:10318000034608461946FFF7AFBF00002DE9F0439C
:10319000BBB080460D46164600212C220BA819F024
:1031A00055FE03200A21734A17F0B4FC40460DF186
:1031B0000201FFF751FF8146002840F0D88008F156
:1031C0000C073846494602F0DEF80446002800F0B5
:1031D000CE80022216A810210FF034FC9DF8583042
:1031E0006549ADF85A9023F00F0316A88DF85830B2
:1031F0000FF089FD16A80FF0FDFD204616A99DF8D9
:10320000D820FDF712FF002840F0AE80728C122308
:103210008DF80430C2F3072343EA02234FF002097A
:10322000204601A904228DF80590ADF80630FDF77F
:10323000FCFE002840F09880324613238DF81030B1
:1032400008238DF8113052F8183FCDF8123020467F
:103250005368CDF8163004A90A22FDF7E6FE0028CF
:1032600040F08280D8F858008DF80990142300F6B9
:1032700068508DF8083006F0BCF8030A43EA0020D5
:10328000ADF80A0002A920460422FDF7CEFE002870
:103290006AD1112328468DF80C30FDF796FD0646BD
:1032A0002846FDF7E7FDFF23301A8DF80D30C0F3F7
:1032B000072343EA0020ADF80E0003A920460422AC
:1032C000FDF7B3FE00284FD12846FDF7D3FD064693
:1032D0002846FDF77AFD86421CD22846FDF775FD8B
:1032E00006462846FDF7C6FD301A86B2102E28463F
:1032F00028BF1026FDF7BEFD3246014607AB284623
:10330000FDF7F2FD31462846FDF7B6FD204607A938
:103310003246D5E7D8F8580000F6685006F031F983
:103320000FAD034600F11006186859682A4603C21B
:103330000833B3421546F7D1BDF80220C2F3072384
:1033400043EA0223ADF84A3038464FF2BF03214624
:103350000BAAADF84E3002F01CF828B903200A2160
:10336000064A17F0D7FB02E02046FDF728FD3BB0E8
:10337000BDE8F08389E60100A8E60100ADE60100A2
:10338000FFF704BF2DE9F043C7B080462C220D465D
:1033900017A8002119F05AFD022222A800210FF0DF
:1033A00051FB944922A80FF0AEFC22A80FF022FD99
:1033B000D8F8540022A90EF08BFF0646002800F032
:1033C0000F810421FDF776FDD8F8580005238DF80C
:1033D000203000F64800102300218DF8213002F043
:1033E0007AFE0DF1220300F1100250F8041B43F89D
:1033F000041B9042F9D1304608A91222FDF715FEB0
:103400000446002840F0EE80D8F85800072308272B
:1034100000F668508DF808308DF8097005F0E0FF6F
:103420000368CDF80A304368CDF80E3030460DEB16
:1034300007010A22FDF7F9FD0446002840F0D2807A
:10344000D8F858008DF81570022300F6EC008DF8BE
:103450001430FEF7CAF80368CDF816304368CDF88B
:103460001A30304605A90A22FDF7DFFD0446002880
:1034700040F0B880D8F858000323102400F6EC0080
:103480008DF834308DF83540FEF786F821468146B8
:103490001AF09CF80446224649460DF1360019F010
:1034A000AFFCE2B28DF8352030460DA90232FDF7AF
:1034B000BCFD0446002840F09580D8F858000E2145
:1034C00000F2644002F0C0FF014618B14278304675
:1034D00002320FE00E23214606220DF14A008DF83C
:1034E00048308DF8497019F0B1FCADF850403046C5
:1034F00012A90A22FDF799FD0446002872D1D8F8D6
:103500005800352100F2644002F09EFF014618B1D8
:1035100042783046023207E035238DF849008DF8B5
:103520004830304612A90222FDF77FFD04460028EC
:1035300058D1D8F85800042100F2644002F084FF0A
:10354000014618B142783046023208E004238DF873
:10355000483010238DF84930304612A91222FDF769
:1035600064FD044600283DD1D8F858000C2100F233
:10357000644002F069FF014618B1427830460232D9
:1035800008E00C238DF8483003238DF8493030468D
:1035900012A90522FDF749FD044618BB2C460FCCA5
:1035A00017AF0FC70FCC0FC794E807004FF2BF0348
:1035B00087E80700ADF87E3000230093D8F8540068
:1035C000314617AA0FF0B2F9044658B93046FDF754
:1035D000FCFB0A210346084A032017F09BFA04E08B
:1035E000032402E03046FDF7EAFB204647B0BDE881
:1035F000F08300BFBBE60100C0E601002DE9F04109
:103600000C4698B0074615460DA800212C2219F04B
:103610001DFC237803F03003102B40F09580637875
:10362000022B40F0918003200A21494A17F072FAD8
:1036300028461221042204AB04F084F8002840F04C
:1036400083809DF81130022B7ED1284613210A2257
:1036500005AB04F077F8002876D19DF81530082BDB
:1036600072D12846112103AA0DF10E0304F09AF835
:103670000446002868D107F10C084046214601F0B5
:1036800082FE064600285FD02146FDF7EAFDBDF820
:103690000E40BDF80C10CCB1102C28BF10242246CF
:1036A000284608ABFDF720FC304608A92246FDF766
:1036B000BCFC002845D1BDF80C302344ADF80C30DB
:1036C000BDF80E301C1BADF80E40E0E72246234645
:1036D00000962846FDF7F6FC18AA48F2FE0352F8B9
:1036E0004A0DADF84430516813AB03C3BDF8122046
:1036F000B86DC2F3072343EA0223ADF8563001F058
:10370000B2FC31468DF858000DAA404601F041FE4A
:10371000B8B928461521122208AB04F013F898B95D
:103720000C4A03200A2117F0F5F9B86D0DF12201BA
:1037300000F6480002F095FD38460DA9FFF722FE7D
:1037400002E03046FDF73BFB18B0BDE8F08100BF5A
:10375000EDE60100E0E60100FFF750BF10B50022E2
:103760000124026084808260C2600474416110BDE3
:10377000026813461BB18B4205D09B68FAE78A604A
:103780000160184670471A20704700002DE9F04785
:1037900080468EB00C46924600212C2203A8994602
:1037A00019F054FBD8F81400002100F0C5F90746C1
:1037B00098B33021FDF70BFB0546064678BB082180
:1037C0002822169B3846FDF7DCFB294601AB38461C
:1037D0000822ADF8065002958DF804A08DF80590EA
:1037E000FDF7CFFB234603F1100507AC18685968B5
:1037F000224603C20833AB421446F7D1D8F814006E
:10380000394603AA3A2300F0C4FD064638B903201E
:103810000521064A17F07EF904E0032602E0384647
:10382000FDF7CDFA30460EB0BDE8F08723E7010082
:103830002DE9F04104460D460846082116469846F3
:10384000FDF71AFB24683CB12768606829463246B8
:103850004346B847A468F6E72046BDE8F08100007B
:103860002DE9F043074691B08846164605A8002189
:103870002C2219F0EBFA3B7C002B77D0032005219A
:103880003F4A17F047F90021812378698DF80D1020
:10389000ADF80E1004918DF80C3000F04DF904468F
:1038A00028B904200521374A17F034F95EE0404674
:1038B000FDF78BFA05464046FDF7DCFA281A85B27B
:1038C00029462046FDF783FA8146002851D1494612
:1038D000042203AB2046FDF754FB4046FDF7CAFA2D
:1038E0002B1F011D9BB24046009489B20422FDF7B4
:1038F000E9FB06F1100309AD06F1200E98461868A1
:1039000059682A4603C2083373451546F7D1304635
:1039100000F0B6FF48B9334605AD186859682A4625
:1039200003C2083343451546F7D196F824308DF885
:1039300038307869214605AA3A2300F02AFD8146ED
:10394000B8B92046FDF796FA0822014603AB204697
:10395000FDF7CAFABDF81220C2F3072343EA022397
:1039600003200521084A9BB217F0D4F84FF0000954
:1039700002E02046FDF723FA484611B0BDE8F08387
:1039800035E701004BE7010055E7010008B5037C6E
:103990001BB183680BB1C0689847002008BD2DE9B2
:1039A000F341074608460C461646FDF763FA08221F
:1039B00001466B462046FDF797FA082837D1204686
:1039C000FDF703FA05462046FDF754FA281A85B29A
:1039D00031462A463A2306F1100000F0CCF8804622
:1039E0002046FDF747FA2B46024641462046FDF7A2
:1039F0003FFC4FF6FF73984219D19DF80030802BA1
:103A000009D0812B0DD093B93846214632466B46FA
:103A1000FFF70EFF0CE0384621463246FFF720FF45
:103A200006E0384621463246FFF7B0FF00E00020AE
:103A300002B0BDE8F081F7B508460C461546ADF872
:103A40000620FDF717FA07462046FDF7BEF90646A1
:103A50002046FDF70FFA331A29463A4620469BB214
:103A6000FDF706FC4FF6FF73984218BFC043ADF850
:103A70000600BDF8062002ADC2F3072343EA022385
:103A8000204625F8023DFDF7F5F9811C89B2204654
:103A900002222B46FDF775FA002003B0F0BD007C32
:103AA0007047017470478A1E012303704270002121
:103AB000023019F0CBB9000070B50146044601F0A0
:103AC00059FA214604F10800FFF748FE214604F1A7
:103AD000200001F0FBFB214604F12C0001F04EF820
:103AE00004F5A85604F1F000FDF7FAF83046FDF7AA
:103AF00088FC304608300FF051FB41F20C53002592
:103B00003046E5541030FDF7F1FB30462346314690
:103B1000084A1830FDF76FFC41F228532046E55063
:103B200041F22C53E55041F23053E55441F2345305
:103B3000E55070BD1748000001F13002F03000215F
:103B400092B2FDF76DB941F20C53C154704730B5D4
:103B5000002595420BDA4C5DEB0758BF2402044464
:103B6000A3B2834238BF013398B20135F1E730BDCB
:103B70001022FFF7ECBF38B51344054698B29042C7
:103B800038BF01300C4680B22946FFF7F1FF2146CD
:103B9000BDE83840FFF7ECBF41F22853C15041F275
:103BA0002C53C250704741F23053C05C704741F211
:103BB0003053C154704730B587B093798DF80430D5
:103BC0000D46002314462C3002A908328DF805302A
:103BD00000F0FEFF9DF8093004335B0709D19DF822
:103BE00009200232284602A9D2B2FDF736FA00BBFC
:103BF0000EE004A80221FFF756FF9DF811200232C3
:103C0000284604A9D2B2FDF728FA0028E7D010E030
:103C1000284601A90222FDF720FA50B9A288A07116
:103C2000130A43EA02230833C3F3072242EA0323B9
:103C3000A38007B030BD2DE9F0478EB008460D4691
:103C40002822002104ABFDF74FF99DF81640002C07
:103C500040F09F802821022201AB2846FDF744F95D
:103C60009DF805602846FDF7B0F8F60006F1080754
:103C70003036B042C0F08D80A246A146A0462A242C
:103C800002AB284621460222FDF72EF99DF80830A6
:103C9000012B14D011D36D2B9DF8093015D12A2C8E
:103CA00099466FD19DF80520002A6BD14FF0010A8B
:103CB00002332344A0469CB20CE0013403E09DF89B
:103CC000093002331C44A4B204E002331C44A4B201
:103CD0004FF0000AB442D3D35BD1BAF1000F3ED00B
:103CE0002037BFB2A7F10804A4B208220DEB0203EB
:103CF00021462846FDF7F8F80822394628460DEBFC
:103D00000203FDF73EF9072C2746EBD82846082189
:103D1000FDF7D7F8B8F12A0F04D19DF804308DF8DB
:103D200016300AE09DF80530013B8DF80530284635
:103D30002821022201ABFDF724F9BDF81420C2F3BB
:103D4000072343EA0223083BC3F3072242EA032383
:103D5000ADF8143028460021282204AB0FE0B8F15A
:103D6000000F16D009F1020102A8C9B2FFF79BFEAD
:103D70009DF80920023228464146D2B202ABFDF737
:103D800000F906E004F10802B24208BF4FF0010A50
:103D90008EE700200EB0BDE8F08710B5044600F5B0
:103DA000A8501030FDF7F5FA04F5A8501830BDE81A
:103DB0001040FDF742BB2DE9F743064608460C4686
:103DC00017469846FDF756F8022201466B462046F4
:103DD000FDF78AF8022881464ED12046FDF74AF8C1
:103DE0009DF80150013500EBC50085B22046FCF777
:103DF000ECFF854240D820464946FDF73DF8204675
:103E0000FDF738F8A84235D22046FDF733F80222F4
:103E1000014601AB2046FDF767F802282CD1204669
:103E2000FDF728F89DF8053002331844A84223D83E
:103E30009DF804306D2B0AD106F12C00214607F1C4
:103E4000080298F8003000F0B1FF40B115E003F02F
:103E5000C003802B10D0C02B0ED0402B0CD09DF86F
:103E6000043013B920460121C7E79DF8051020460C
:103E70000231C2E7002000E0022003B0BDE8F08379
:103E800037B508460D46FCF7F5FF082201466B469C
:103E90002846FDF729F8082801460BD1BDF8020095
:103EA000C0F3072343EA002080B2C30802D110F018
:103EB000010401D0022003E02846FCF7DDFF204684
:103EC00003B030BD2DE9F3419DF8247006460C4641
:103ED00090461D463FB32046FCF7CCFF0222014628
:103EE00001AB2046FDF700F8022821D12B782C2BBE
:103EF00009D003D863B12B2B1AD01BE03B2B17D072
:103F00003C2B05D016E030462146FFF7B9FF05E00F
:103F100030462146424608ABFFF74DFF58B99DF8A1
:103F200004302B70D6E72B78002BD4D0384602E033
:103F3000022000E0002002B0BDE8F081112B04D087
:103F40003A2B05D10830FFF72ABD203001F07ABAAC
:103F500000207047F7B51F4641F228530446C35866
:103F60000D461646002B56D041F23053C35C03B3C6
:103F7000104600F0EAFC00284DD106F1100000F0D8
:103F8000E4FC002847D1112F2CD03A2F11D104F195
:103F90000800FFF784FD60B12846FCF76BFF6B4615
:103FA000014608222846FCF79FFF9DF80030802B31
:103FB00031D02846FCF709FF01462846FDF7A9F84D
:103FC000054668B129462046FFF735FE41F22C52DE
:103FD00041F228532846E358A158984700201BE097
:103FE000032019E0304600F03EFC0028E1D02846CE
:103FF000FCF740FF082201466B462846FCF774FF99
:10400000BDF80220C2F3072343EA02239BB244F621
:104010004C529342CCE7042003B0F0BD41F234523D
:1040200083580BB981500BE08B420CD093F91400EC
:1040300091F91420904206D09A6A002AF4D199622C
:104040000020886270471A20704741F2345283582A
:104050008BB18B4203D18B6A835008E013469A6A76
:104060002AB18A42FAD18A6A9A62002000E01920B5
:1040700000238B6270471920704741F23453C058B7
:10408000704738B541F234530D46C45834B1204618
:1040900000F0E9FFA84201D0A46AF7E7204638BD46
:1040A00038B541F234530D46C45820462CB1294648
:1040B00001F019F808B9A46AF7E738BD2DE9F74F00
:1040C00041F23453002691F924B050F803908A4607
:1040D00001F110083446B9F1000F70D0484600F0E5
:1040E000C2FF2546D9F80C400746002C5ED040465A
:1040F00000F0B9FB00285FD1404600F0C1FB00286A
:104100005AD1002D4ED02046414600F085FC0028B3
:1041100050D1204600F03BFC0190284600F037FCCF
:10412000019B834220460BD200F031FC01904046B7
:1041300000F02DFC019B834224BF3E46254633E020
:1041400000F025FC0190284600F021FC019B8342F1
:104150000CD9284600F01BFC0190404600F017FCEB
:10416000019B83423CBF3E4625461DE023690BB1BF
:104170002B69BBB19AF824302BB15BB2BB4202D1A0
:1041800073B2BB420ED12146404600F02EFC2946B8
:104190000190404600F029FC019B834284BF3E46CB
:1041A000254601E03E462546E4699EE7D9F8289079
:1041B0002C4690E73E4602E0BB45F5D1A1E72046FC
:1041C0008AF8246003B0BDE8F08F2DE9F0411D4668
:1041D000074690460E460FCD96B00BAC0FC40FCDE0
:1041E0000FC495E8070084E807000FAC00211022F7
:1041F000204618F02BFE40F2FF33ADF83C304FF470
:104200007C43ADF84A300023B8F8042001936023C2
:104210008DF8043040238DF80B30130A43EA022353
:104220002833C3F3072242EA0323ADF8083094E8A9
:104230000F0007AD85E80F00292338460BA98DF83C
:104240000A30FFF73BFFB8B1034603AC00F110059D
:1042500018685968224603C20833AB421446F7D1A6
:104260003846314601AAFFF7A6FC30B9304601A90D
:104270002822FCF7F2FE00E0FF2016B0BDE8F08136
:104280002DE9F04102F1180588B0804628460C4619
:1042900016461F4600F0F4FA20B1284600F077FBDE
:1042A000022801D8002071E0284600F092FB002887
:1042B00066D020462821FCF704FEB779002F53D1A1
:1042C0003946022203AB2046FCF70EFE9DF80D5046
:1042D000013503AB8DF80D50394602222046ED0022
:1042E000FCF74FFE05F0F805394608222046FCF79A
:1042F000B4FE2B4608213A4600942046FCF7E2FE25
:1043000008F12C0004A906F1080200F061FC9DF8F8
:104310001120023229462046D2B204ABFCF731FE0E
:104320009DF81110023111F0070112D0C1F10801FE
:1043300006A8C9B2FFF7B7FB9DF811109DF8192028
:1043400002310232204655FA81F1D2B206ABFCF7B7
:1043500018FEB288130A43EA02230833C3F3072284
:1043600042EA0323B38005E0404621463246FFF788
:1043700022FC58B9204631462822FCF76EFE05E0A3
:104380004046214632463B46FFF71FFF08B0BDE8D6
:10439000F0812DE9F04706468AB0084614461F46CC
:1043A0000D46FCF712FD0023009360238DF80030CA
:1043B000030A43EA0023ADF8043094F825308DF861
:1043C0000670002B08BF4023804620468DF807303A
:1043D00000F026FAA0B130462146FFF76FFE002814
:1043E00000F0838003460DF1080E00F1100C1868F0
:1043F0005968724603C2083363459646F7D10CE00C
:1044000023460DF1080E04F1100C18685968724625
:1044100003C2083363459646F7D104F1100306AA98
:1044200004F1200C9A469146186859689646AEE801
:104430000300083363457246F6D1484600F013FA8C
:10444000002843D1484600F0B8FA00283ED1504633
:1044500000F0BFFA38B9284669462822FCF7FDFD6E
:10446000002843D107E0304629466A46FFF7A3FB00
:1044700000283BD1EFE7504600F002FA20B1504649
:1044800000F085FA032827D8424602A849463B4651
:10449000FFF771FB112F024607D03A2F0BD106F11F
:1044A00008002946FFF7C7FA04E006F12000294674
:1044B00001F052F8D0B9284694F92410FCF7B6FE62
:1044C00030462946FFF769FC00200FE094F92430BC
:1044D000002BBCD1022009E0304629466A4623461B
:1044E000FFF773FE0028CFD000E0FF200AB0BDE840
:1044F000F08741F2345370B5C4580E468CB1E5686C
:104500006DB12846314600F070FA2B7E834204D804
:104510002046BDE8704000F0A6BDED69F0E7A46A52
:10452000ECE74FF0FF3070BDF7B5054610460E467C
:1045300014461F4600F0A4F918B9204600F093F97C
:1045400010B194F8241023E021462846FFF7D1FF4C
:10455000011E1DDC04F110012846224600F00EFD6C
:10456000011E15DC2846314622463B46FFF7F2FC89
:10457000054648B1042818D11023009306210C4A9F
:1045800023460EF01DFD10E03046FCF718FC0CE051
:10459000284649B2FFF775FD30B103681B68314604
:1045A00003B0BDE8F04018470425284603B0F0BD2D
:1045B00070E701002DE9F04F9BB00FAF0C4681462C
:1045C000002192469B462C229DF894300293384657
:1045D00018F03CFC20460021282205ABFCF784FCA7
:1045E000282837D19DF81430BDF8185003F0F00397
:1045F000602B2FD12B0A204643EA0525FCF7E5FB6B
:10460000ADB22835854225D140F2DC539D4221D8F8
:1046100025E0029A22B9484621463A46FFF79AFC1D
:10462000484621463A469DF81230FFF787FC00289D
:1046300040F0CC80B8F1000F0DD0BAF1000F04D0DB
:104640009DF81B30013B8DF81B309DF81B20002A84
:1046500040F0968002262046FCF7B1FBB8E007AB9D
:104660000FCB13AD0BAE85E80F0096E80F0087E87F
:104670000F009DF81B308DF861303046249B8DF87B
:1046800060B0199300F0FCF8054688B1BAF1000F4C
:1046900000F088803146504600F0E8FC06460028CD
:1046A00040F08E80504600F01AFDB44605468AE080
:1046B00048463146FFF7F4FC80B90390304600F0DD
:1046C000D2F8039B18B900254FF0010804E0BAFAAC
:1046D0008AF81D464FEA5818AC4602E0A8464FF04B
:1046E000010C20465946CDF80CC0FCF79FFD28214F
:1046F0002046FCF7CEFB9DF81A30DDF80CC08DF893
:104700001230CDF804C0CDF800804846214605AAF5
:104710000DF11203FFF7D6FBDDF80CC006460028AA
:1047200099D141F20C5319F8033023B9BAF1000FB3
:1047300018BF4FF00008BCF1000F16D09DF81230E2
:10474000292B7FF466AF2046FCF794FB01462046F8
:10475000FCF7B7FB249B0093029B0193484621463C
:1047600052465B46FFF726FF32E0002D3FF462AF72
:10477000484621463A469DF81230FFF7EBFB59E7D1
:104780001AAB072103F8552D20460122FCF7F9FB4F
:10479000484621463A469DF81230FFF7C5FE0646C8
:1047A000B0B158E7029B002B8DD04846214605AAA0
:1047B0003B46FFF765FD064600287FF44CAF82E7D5
:1047C00000254FF0010C4FF000088AE7064642E74B
:1047D00030461BB0BDE8F08F73B5064606F5A85409
:1047E00010342046FCF7D3FD98B12046FCF7CFFDEE
:1047F000054629462046FCF7DDFD2846FCF713FD5B
:10480000002203460092019230462946FFF7D2FE6D
:10481000E4E702B070BDFFF7DFBFA0F50970704795
:10482000026842B9436843B9826842B9C068B0FAC5
:1048300080F04009704700207047104670471846C6
:10484000704702684AB943684BB982684AB9C06880
:1048500000F17F435842584170470020704710468E
:104860007047184670470378FE2B07D1407800F058
:10487000C000A0F1800358425841704700207047A3
:104880000078A0F1FF03584258417047026840F297
:10489000FF239A4209D143683BB982683AB9C0689C
:1048A00000F17F4358425841704700207047184636
:1048B0007047026840F2FF239A4209D143683BB92E
:1048C00082683AB9C06800F17E4358425841704747
:1048D0000020704718467047026840F2FF339A4242
:1048E00009D143683BB982683AB9C06800F17F4397
:1048F0005842584170470020704718467047026878
:1049000040F2FF339A4209D143683BB982683AB911
:10491000C06800F17E4358425841704700207047FC
:1049200018467047026840F2FF339A4209D1436843
:104930003BB982683AB9C06800F180635842584177
:104940007047002070471846704703894BB9428969
:10495000B2F57F4F07D18089A0F1FE03584258413C
:10496000704700207047184670470830704708307D
:1049700070470B6883604B68C36070470B68836047
:104980004B68C360037A83F002030372704710B56B
:104990000378FF2B044603D1407800F00F0010BDD0
:1049A000FFF761FF38B92046FFF74BFF002814BF1F
:1049B00000200E2010BD022010BD08B50378FF2B8B
:1049C00005D1FFF7E4FF831E5842584108BD00207F
:1049D00008BD08B50378FF2B05D1FFF7D8FFC31E2C
:1049E0005842584108BD002008BD002230B5054698
:1049F00010468B5CAC5C634006D1013200F10803C9
:104A0000102AD8B2F5D130BD1A0604D401305B00AB
:104A1000C0B2DBB2F8E730BD08B5102218F0E0F9FB
:104A2000B0FA80F0400908BD08B5102218F0D8F996
:104A3000003018BF012008BD10B500210446042233
:104A400018F004FA204610BD30B5054693B008466C
:104A50000C46FCF701FC014608B1012042E020466B
:104A6000282208ABFCF740FA282815D10EA8FFF73A
:104A7000FAFE18B90EA8FFF7A0FF68B19DF826301E
:104A8000062B0BD0112B07D120462821082201AB81
:104A9000FCF72AFA082819D0002023E02046282114
:104AA000142203ABFCF720FA1428F5D1BDF80E2030
:104AB000C2F3072343EA02239BB22A880AB19A422F
:104AC000CBD0688870B19842E6D1C6E7BDF8062021
:104AD000C2F3072343EA02239BB244F64C529342AB
:104AE000EBD1BAE713B030BD03888B4207D04288C0
:104AF0008A4204D00BB122B9012320F81310002000
:104B000070470320704703888B42438807D08B424D
:104B100003D1002343801846704719207047038053
:104B2000F7E700230B700B78012B04D830F8132023
:104B30000AB10133F6E7704770B5054608460C46E2
:104B4000FCF743F9A0F109012B46204689B209225E
:104B5000BDE87040FCF7C8B970B5064614460D466E
:104B600016F0FAF8317AB0FBF4F202FB14000D44AF
:104B7000241A55FA80F53472756070BD38B5044654
:104B80000160114B836001F5A851002508310F4BDE
:104B90004160E0600362056145618561C1616062F9
:104BA0008562C562056380F8345080F83550C5864B
:104BB0008563BC30FCF79AFB04F13C002946802257
:104BC00018F044F9204638BD714F0000414F0000F5
:104BD00038B56D230B7004234B7000238B7090F855
:104BE00035300C46591C80F83510E370816B054652
:104BF00019B11046FFF710FF60B9A37803F03F0327
:104C000043F04003A370EA8EC2F3072343EA022372
:104C1000A38038BDA37803F03F03A3706378023B01
:104C2000637038BD70B5002300F13C0400F1BC0591
:104C3000E6781EB9002B08BF234609E026888E427D
:104C400006D12346A478141B64B2002C04DC0EE0C9
:104C50000434AC42ECD153B19A7005221980DA7059
:104C600004304FF47A71FCF717FC002070BD02206D
:104C700070BD2DE9FF4100F1BC0500230646284622
:104C8000ADF804308DF806308DF8073002938DF8BA
:104C90000C300F469046FCF77AFB96F83430044609
:104CA000EBB1E4B12046FCF78EF82146064601A898
:104CB000FFF742FFBDF80430BB420ED19DF806203D
:104CC000C2EB080252B2002A09DD28462146FCF751
:104CD00071FB2046FCF773F801E03446E1E704B0CD
:104CE000BDE8F0812DE9FF478A4691469846054682
:104CF0009DF8307015F072FE002306465046ADF860
:104D000004308DF806308DF8073002938DF80C30A2
:104D1000FCF75BF801465046FCF7FBF90446002817
:104D200041D0A7B90DF10303504607210122FCF73A
:104D3000DBF89DF80330013BDBB28DF803307BB329
:104D40002046072101220DF10303FCF71AF901A8FF
:104D500031464022ADF804908DF806808DF807703A
:104D6000FFF7FAFE204601A90922FCF75EF9B8B95F
:104D7000214605F1BC0005F11C04FCF70AFB2146A5
:104D8000E8690EF00EFA029928B1AA6AEB6A134498
:104D90005B1A002B07DD2046891BFCF77DFB02E038
:104DA0002046FCF70CF804B0BDE8F087F0B50546E6
:104DB00085B008460E4614461F46FCF75BF80622EF
:104DC000014602AB3046FCF78FF8012803D99DF865
:104DD0000A301A0601D5022434E013F0C00F05D1C1
:104DE000A37BE27B43EA0223ADF80C30BDF80C1044
:104DF0009DF80B20C1F3072343EA0121284689B21D
:104E0000FFF737FFBDF80C109DF80B20C1F3072307
:104E100043EA0121284689B2FFF704FF044670B92E
:104E2000BDF80C200097C2F3072343EA022228466C
:104E30009DF80B30314692B2FFF754FF02E0002F8D
:104E400018BF0024204605B0F0BD2DE9F04385B021
:104E5000064615F0C3FD06F1BC0800230746404690
:104E6000ADF804308DF806308DF8073002938DF8D8
:104E70000C30FCF78CFA4FF0FF350446002C55D06F
:104E80002046FBF7A0FF2146814601A8FFF754FE0C
:104E9000029BFA1A002A28DB9DF8073096F8342086
:104EA0000133DBB29A428DF8073023D92046FBF755
:104EB0008CFFA0F1090189B22046FCF72AF90146CE
:104EC00010B13068FEF769FF3946402201A8FFF7AC
:104ED00043FE2046FBF779FFA0F1090101AB204614
:104EE00089B20922FCF74DF8029BDB1B9D4228BFCB
:104EF0001D4619E040462146FCF75CFA9DF8072064
:104F000096F834309A4220460CD1FBF75EFFA0F1B0
:104F1000090189B22046FBF75AFF30682146FEF7A7
:104F20003CFF01E0FBF74BFF4C46A7E76B1C04D0AE
:104F300006F11C002946FCF7AFFA05B0BDE8F08386
:104F4000FFF783BF10B5034600F18004002193F8FA
:104F50003F201AB1013A83F83F2001210433A342D4
:104F6000F5D121B104304FF47A71FCF795FA10BDF8
:104F7000FFF7E8BF00220260416070472DE9F74368
:104F8000FF2405688146884617462646ADB1284667
:104F90003946FFF72AFD2B7C8DF8070098420AD38B
:104FA00088BF8DF807309DF8072073B251B28B424D
:104FB000DCBF6C7C16466D69E8E7D9F80400FFF7A2
:104FC0005CF80546D0B12B682846D3F808C04146A6
:104FD0003A460DF10703E04730B99DF8079073B2E8
:104FE0004FFA89F29A4203DC284600F038F8E8E7E5
:104FF000284600F038F84E460446F5E760B203B0A4
:10500000BDE8F08338B5002504460C4B03604160D1
:105010008560C560056102754575857501F5A85106
:10502000074A23461830FCF7E6F984F8B05084F8B4
:10503000DC50A562E562204638BD00BF88E701006C
:10504000A3520000826813461BB18B4205D09B68B7
:10505000FAE78A608160184670471A207047806AB4
:1050600070474068704790F91400704738B504469F
:1050700008460D46FFF70AFCD0B92846FFF72CFC7E
:10508000B0B92846FFF74EFC90B92846FFF711FC4F
:1050900080B92846FFF733FC60B92469204634B153
:1050A0002946102217F09CFE0028F6D100E038BDFA
:1050B000012038BD607D38BD012343757047002352
:1050C00043757047026913461BB18B4205D01B69BB
:1050D000FAE70A610161184670471A207047807D1F
:1050E0007047C068704738B5C4680D4620462CB17B
:1050F0002946FFF791FC10B9E469F7E738BD0120B4
:1051000038BDC06A003018BF01207047C36A194318
:10511000C1621830FCF791B9C36810B51C461CB1C8
:105120008C4208D0E469FAE7CB61C1600121FFF746
:10513000EDFF204610BD1A2010BD08B5C3688B4294
:1051400002D1DB69C3600BE043B1DA6932B18A4254
:1051500002D1CA69DA6103E01346F6E7192008BDF7
:105160000221FFF7D3FF002008BD2DE9F843D0F856
:105170000C8007460C464546DDB1284621461022E4
:1051800017F02EFE98B907F130039D4240D3B03797
:10519000BD423DD2EB1A43F34713013338D02369A4
:1051A0002B6163696B61237E2B76BDE8F883ED6923
:1051B000E2E797F8B0200F2A2DD06BB242FA03F045
:1051C00010F0010605F10105F7D1032B00DDFEE724
:1051D0004FF0010E0EFA03F10A4387F8B0205D018B
:1051E0000FCC07EB050909F1300CACE80F0094E88F
:1051F0000F008CE80F0005F130033B44C9F84C80E8
:105200003846FB607146FFF781FF3046BDE8F88302
:105210000720BDE8F8830320BDE8F883F8B5C4682B
:1052200005460F460026DCB120463946102217F00D
:10523000D7FD90B905F130039C4213D305F1B002BC
:1052400094420FD2E31A43F347135A1C0AD0E2697F
:105250000EB1F26108E0EA6006E02646E469E2E7A2
:105260001920F8BD0720F8BD012202FA03F395F8D2
:10527000B02022EA0303284685F8B0300221FFF768
:1052800045FF0020F8BD38B500238468C56AC362B5
:1052900034B1236813B1284661689847A468F7E7DA
:1052A00038BDFFF7F0BF0163704730B50B460246CB
:1052B00001F1100518685968144603C40833AB425D
:1052C0002246F7D118682060002030BD4FF44042DC
:1052D00002800022426081607047426813461BB121
:1052E0008B4203D05B6BFAE74A6341600020704752
:1052F000F8B5142504460F46164600212A4617F035
:10530000A5FD601900212A4617F0A0FDA762E662FC
:10531000206B2146BDE8F840FFF7DFBF43688B42B2
:1053200003D14B6B436006E0134623B15A6B8A42AC
:10533000FAD14A6B5A6300204863704738B5054676
:105340002946006BFFF7EAFF044650B921461422B4
:10535000284617F07BFD05F114002146142217F0B2
:1053600075FD204638BD03884FF6FF72934214BF87
:105370005A1C4FF44042028018467047083180683A
:1053800089B2FEF7D9BB006BFFF7F8BF8068FFF763
:1053900000B8F0B58FB0144606462C220F4603A87D
:1053A000002117F053FD0FCC03AD0FC50FCC0FC577
:1053B00094E8070085E8070003A8FFF731FA58B121
:1053C000334603AC06F1100518685968224603C23B
:1053D0000833AB421446F7D1338A1BB9306BFFF761
:1053E000C2FF3082328AC2F3072343EA0223BDF8A8
:1053F0002E20ADF80430C2F3072343EA02233846D7
:10540000ADF80630FBF7E1FC0830C0F3072343EAB0
:105410000020ADF80800002301A938460822ADF8A5
:105420000A30FBF71AFE014648B93846FBF731FD52
:105430003946306B03AA1123FFF7A8FF014608463F
:105440000FB0F0BD2DE9F743804608460D461646DD
:10545000FBF7BBFC04462846FBF70CFD201A84B280
:10546000072C57D906F1100731462246112338463A
:10547000FEF781FB81462846FBF7FCFC23460246EB
:1054800049462846FBF7F4FE4FF6FF73984201D0D9
:1054900000205EE02846FBF7EDFC082201466B4643
:1054A0002846FBF721FD08280146F1D12846FBF7E5
:1054B000E3FCBDF80020D8F80440C2F3072343EA18
:1054C0000223BDF802207384C2F3072343EA0223B8
:1054D0003384002CDCD0BDF80220C2F3072343EA5A
:1054E0000223228A9BB29A4212D1A37C1BB196F866
:1054F000242093420CD13046FFF7C2F960B9204610
:10550000FFF78EF940B920463146FFF78DFA18B102
:10551000646BDEE706201CE0A28CA2B1BDF800108F
:10552000C1F3072343EA01239BB29A42F0D104F16D
:1055300014084046FFF774F928B940463946FFF78A
:1055400073FA0028E4D1A36AE06A294632469847F4
:10555000DEE703B0BDE8F083F7B508460C46154614
:10556000ADF80620FBF786FC07462046FBF72DFC2E
:1055700006462046FBF77EFC331A29463A4620466B
:105580009BB2FBF775FE4FF6FF73984218BFC043FE
:10559000ADF80600BDF8062002ADC2F3072343EACA
:1055A0000223204625F8023DFBF764FC811D89B2E9
:1055B000204602222B46FBF7E4FC002003B0F0BD9E
:1055C00000BA7047F8B5314B03600446304B436076
:1055D000304BA0600361304B436100252F4BC56009
:1055E000A06103622E4B43622E4BC561A062C5626F
:1055F000C0F89831C4F89C01C0F8A05108460E4686
:10560000FFF72FFD284BC4F8A83106F68443C4F8F1
:10561000BC3100F5A85006F5947306F1E007C4F814
:10562000C431083006F66853C4F8C8314FF4B47278
:10563000C4F8A4012946C4F8AC41C4F8B051C4F878
:10564000B451C4F8B851C4F8C071C4F8CC6104F1C5
:10565000300017F0FBFB214638460DF042FC04F108
:105660001001D4F8C0010DF03CFC04F12001D4F885
:10567000C0010DF036FCD4F8CC01FFF7F2FC04F5C4
:10568000CC710830FEF774F82046F8BD94E70100AD
:10569000295D000099E701005D5F00009EE70100C1
:1056A000595B000051600000ED5F000030300021C8
:1056B0004FF4B47217F0CABB00F5B473B0F84C20C5
:1056C000B1EB922F04BF002280F852202430984280
:1056D000F4D17047F0B5B7B004462C220D4607A8A8
:1056E000002117F0B3FB022212A810210DF0AAF935
:1056F0003B4912A80DF007FB12A80DF07BFBD4F874
:10570000C40112A90CF0E4FD0646002849D000238C
:105710008DF8083010238DF8093029460DF10A0361
:1057200005F1100251F8040B43F8040B9142F9D132
:10573000304602A91222FBF778FC054690BB40F2E6
:10574000FF33ADF82C30D4F8C8014FF40073ADF836
:105750003A3003F016FF07AD034600F11007186852
:1057600059682A4603C20833BB421546F7D14FF2A7
:10577000BF03D4F8CC01ADF83E30FFF774FC002332
:105780008DF840000093D4F8C401314607AA0DF00B
:10579000CDF8054630B903200146124A15F0BAF992
:1057A00000E0032504F5D277D4F8A40139460DF0C2
:1057B000F8FC60B915F012F94FF47A73C4F8B0012F
:1057C000C4F8B431D4F8A40139460DF065FD1DB11B
:1057D00016B13046FBF7F3FA284637B0F0BD00BFEC
:1057E00099E70100A3E701002DE9F04707460E46BF
:1057F000914600F1300500F5CC7A4FF0000895F89D
:1058000022302C4633B128463146102217F0E8FAF0
:1058100020B908E0B8F1000F08BFA8462435554567
:10582000EDD1444694B394F82230012B21D005D316
:10583000022B2ED1A38BA9F800302AE0334625464F
:1058400006F1100E186859682A4603C208337345DA
:105850001546F7D14FF6FE73A383032384F8203057
:10586000002384F821300F23E383012384F82230BE
:1058700007E094F820307BB9E38B83B9032384F8E5
:10588000203038463146FFF725FF05E00320BDE80C
:10589000F0870020BDE8F0870920BDE8F0870220EE
:1058A000BDE8F087F0B5154606460F460FCDB1B0FE
:1058B00001AC0FC40FCD0FC495E8070084E80700C2
:1058C000D6F8C00100210DF029FB0446F8B10CA860
:1058D00039460DF0C2FA0CA920469DF8B020FBF71E
:1058E000A4FB014680B9102201A817F0AFFAD6F840
:1058F000C001214601AA0DF013FB28B9032001467F
:10590000044A15F007F902E02046FBF758FA31B0D7
:10591000F0BD00BFB6E701002DE9F041B2B01C4672
:1059200006460D46904600212C2203A817F08EFA59
:10593000002C0CBF1021002102220EA80DF082F8CD
:1059400033490EA80DF0DFF90EA80DF053FAD6F882
:10595000C4010EA90CF0BCFC074600284ED0294615
:105960001222FBF762FB0546002849D13846414622
:105970000A22FBF75AFB0546002841D144B940F200
:10598000FF33ADF81C304FF40073ADF82A300BE054
:10599000234603F1100507AC18685968224603C274
:1059A0000833AB421446F7D1D6F8C80103F0E9FD3D
:1059B00003AC034600F1100518685968224603C27B
:1059C0000833AB421446F7D14FF2BF03D6F8CC01EF
:1059D000ADF82E30FFF747FB00238DF83000009321
:1059E000D6F8C401394603AA0CF0A0FF054638B921
:1059F00003200146074A15F08DF804E0032502E074
:105A00003846FBF7DCF9284632B0BDE8F08100BF2C
:105A100094E70100DFE701002DE9F04788460978A7
:105A200011F030048CB006461746994640F08F803E
:105A300098F80150022D40F08A80DA8B130A032077
:105A400043EA02230146434A9BB215F063F8384605
:105A50002146122207AB0CF009FC002877D19DF8F3
:105A60001D30102B73D1384603210A2204AB0CF0F1
:105A7000FDFB00286BD19DF81130082B67D1042263
:105A8000294638460DEB02030CF0F0FB05460028D2
:105A90005DD19DF80530022B59D1062138460A46C2
:105AA00002AB0CF0E3FB40B99DF80930042B4ED15A
:105AB000DDF80A00FFF784FD054606F1300406F51F
:105AC000CC7A20460DF11E01FEF7AEFF07460028F6
:105AD0003AD194F82230012B13D0022B34D104F1A7
:105AE00010000DF11201082217F07AF930B130469A
:105AF00007A904AA3B46FFF70FFF28E0A3699D42D0
:105B000025D20CAA002752F81E3D23615368636119
:105B1000BDF80620E783C2F3072343EA0223A383E9
:105B20000223304641464A46A56184F8207084F835
:105B3000217084F82230FFF7B5FED6F8BC010DF1D4
:105B40001E013A4601F070FF24345445B9D10CB01F
:105B5000BDE8F087F2E70100FFF75EBFF0B515463C
:105B600006460F460FCDB1B001AC0FC40FCD0FC428
:105B700095E8070084E80700D6F8C00100210DF081
:105B8000CDF90446F8B10CA839460DF066F90CA918
:105B900020469DF8B020FBF748FA014680B9102254
:105BA00001A817F053F9D6F8C001214601AA0DF05B
:105BB000B7F928B903200146044A14F0ABFF02E00C
:105BC0002046FBF7FCF831B0F0BD00BF1AE8010039
:105BD0002DE9F0471F460B7813F0300F90B00646C2
:105BE0000C46154640F09A804B78022B40F0968088
:105BF000032001464B4A14F08DFF3846FEF740FE65
:105C000020B9304621463A46FFF7A8FF2846002132
:105C100012220BAB0CF02AFB00287FD19DF82D300F
:105C2000102B7BD1284603210A2204AB0CF01EFB6B
:105C3000002873D19DF81130082B6FD1D6F8CC0114
:105C4000FFF74FFA0446ACB120460DF12E011022A9
:105C500017F0C6F860B9D6F8C80103F095FCFEF756
:105C600084FE0DF11201082217F0BAF8002850D175
:105C7000E469E8E70DF10701D6F8C80107F09CF8E0
:105C800010AA054652F82E0D9DF80790516802ABF8
:105C900003C39DF8083083F002038DF808304C45AB
:105CA0003CDA2B7F03F00702042A2FD1DB062DD428
:105CB00005F1200705F1600A38460DF12E0110228A
:105CC00017F08EF88046F0B9284602A9082217F08E
:105CD00087F8C0B141463846102217F0B7F8414660
:105CE000102207A817F0B2F848F2FE0307A82946C9
:105CF000ADF81C30FEF742FE30460BA904AA07ABF4
:105D0000FFF70AFE0AE010375745D5D10134703548
:105D1000C5E7D6F8CC012146FFF70FFA10B0BDE871
:105D2000F08700BF49E80100FFF752BF2DE9F041BD
:105D3000B2B005468846174600212C2203A81E460D
:105D400017F084F802220EA800210CF07BFE3749E0
:105D50000EA80CF0D8FF0EA80DF04CF8D5F8C40131
:105D60000EA90CF0B5FA044600285BD04146122279
:105D7000FBF75BF9002852D1204639460A22FBF78F
:105D800054F900284BD10223D5F8C8018DF808300A
:105D90008DF8093003F02DFB030A43EA0020ADF82B
:105DA0000A0002A920460422FBF73FF9002836D159
:105DB00076BB389B07AE03F1100718685968324666
