:100000000000042065C001008DC001008FC0010008
:1000100091C0010093C0010095C0010000000000E4
:1000200000000000000000000000000097C0010078
:1000300099C00100000000009BC001009DC00100AC
:100040009FC0010069B50100B5AD01009FC001006E
:100050009FC001009FC001009FC001009FC0010020
:100060009FC001009FC001009FC00100C1A7010007
:100070009FC0010089AB01009FC001009FC001002B
:100080009FC001009FC001009FC001009FC00100F0
:100090009FC001009FC001009FC001009FC00100E0
:1000A0009FC00100C1BC01009FC001009FC00100B2
:1000B0009FC001009FC00100000000000000000080
:1000C0009FC001009FC001009FC001009FC00100B0
:1000D0009FC001009FC001009FC001009FC00100A0
:1000E0009FC001009FC001009FC001009FC0010090
:1000F000000000009FC001000000000000000000A0
:1001000000000000000000000000000000000000EF
:1001100000000000000000000000000000000000DF
:1001200000000000000000000000000000000000CF
:1001300000000000000000000000000000000000BF
:1004000010B5054C227832B9044B13B10448AFF350
:1004100000800123237010BD900000200000000028
:10042000041C0200074B10B51BB107490748AFF386
:1004300000800748036823B1064B13B1BDE81040A4
:10044000184710BD0000000094000020041C0200AA
:100450008800002000000000134B002B08BF114B48
:100460009D46A3F5803A00218B460F461148124A5B
:10047000121A1CF04BFB0D4B002B00D098470C4B75
:10048000002B00D098470020002104000D000B48ED
:100490001CF09EFA1CF0E2FA2000290000F011F88E
:1004A0001CF0A2FA00000800000004200000000078
:1004B00000000000900000203479002011CA0100E3
:1004C000704710B51AF0D9F900F0DCFB044600B90A
:1004D000FEE714F0C3FE204619F001FE204600F0AE
:1004E0009AF820461AF0DCF9F8E7034608469A6ABB
:1004F000D96A104770B592B00C4605463C220021DF
:1005000003A81CF003FB2CB92B6A696A20469847A4
:1005100012B070BD6946204602F0E0FA0028F7D11B
:100520009DF80030082BF3D112AA03AB52F8460D08
:10053000516803C30DF13E01204602F09FFA637932
:100540008DF84230A3798DF843302046E3798DF859
:10055000443002F08DFC0646204602F01EFC1D2EA3
:100560000BD9028840F6FF739A4206D1837823B9EB
:10057000C37813B90379032B03D02B6A696A03A8E4
:10058000C5E742799DF84530121162F303038DF8F7
:100590004530427962F345138DF8453043799DF833
:1005A0004520C3F3C00363F304128DF8452005AC66
:1005B000821D00F1160310685168264603C60832F2
:1005C0009A423446F7D1137833701368CDF825304A
:1005D0005368CDF82930D0E738B5002304460360CE
:1005E00043608360C360036143618361C3610362ED
:1005F00043628362C36204F5D875303000F0A3FF14
:10060000284603F079FD04F58540294668300BF053
:10061000E3F8204638BD00F58540303000F07ABF61
:1006200000F597405C3001F015B800F597405C305C
:1006300001F044B907B500F5A0400DF1070168309D
:100640000DF0F8FF9DF8070003B05DF804FB00F51E
:10065000A04068300DF0F5BF00F5A040683007F00D
:10066000F5B900F5A040683008F0E0BC00F597400F
:100670005C3000F0C5BF00F597405C3001F016B863
:1006800037B5044600F597405C300D4601F010F890
:1006900002A9FD2301F8083D2B68CDF8013004F5CF
:1006A000A0402B798DF80530683000238DF8063096
:1006B0008DF8073007F03CFD03B030BD1AF0FBB8F1
:1006C00021B100F5A040683007F0DBBC072070477F
:1006D00007B500F5A040683007F0BBF900238DF89E
:1006E0000430030744BF01238DF80430410742BFA3
:1006F0009DF8043043F002038DF80430820742BFB6
:100700009DF8043043F004038DF80430C30742BF62
:100710009DF8043043F008038DF804309DF8040080
:1007200003B05DF804FB11F0010F0CBF0023082398
:100730008A0748BF43F004034A0748BF43F0020357
:100740000A0748BF43F0010300F5A040194668308E
:1007500008F089BC00F59640303005F008BA00F585
:100760009640303005F030BA00F5A040683007F010
:1007700085BC00F5A040683007F088B900F5A040BE
:10078000683007F0D5BC10B53AB133B100F5C040C0
:100790002C300AF0ECF9002010BD072010BD00F548
:1007A00097405C3000F059BF00F597405C3000F096
:1007B00056BF00F597405C3000F068BF38B54FF683
:1007C000FF73994204460D4605D100F5A0406830FC
:1007D00007F0D8F838B104F5974029465C30BDE8F9
:1007E000384000F056BF0E2038BD00F5A0406830FC
:1007F0000CF040BE00F5A04068300CF044BE00F59F
:1008000097405C3000F017BF00F5A04068300EF054
:100810008CB800F5A04068300EF08AB84B7C13F01D
:10082000040F37B514BF202400241D0748BF44F02F
:100830001004DA0648BF44F008049D0648BF44F09F
:1008400004048D7C5A0648BF44F00204DA0918BF3C
:1008500044F0010405F0010500F5C0400A7C8DE874
:10086000300043F301032C3011F099FD03B030BD8B
:1008700000F5C0400A7C2C3011F077BD10B40C4656
:1008800011466AB163B11A4634B100F5C0402C304C
:100890005DF8044B09F0A7BF00F5C2404430F7E70C
:1008A00007205DF8044B704713B54B7C0A7CC3F3FB
:1008B000800400F5C040009443F301032C3011F094
:1008C000CEFD02B010BD00F5C0400A7C2C3011F006
:1008D000ACBD00F5C0402C3011F089BE00F596404B
:1008E0002C3004F0BCBB00F596402C3004F0C6BBA5
:1008F00000F596402C3004F0CEBB00F5C2404430E9
:1009000010F0C8BE00F5C240443010F0C6BE00F57D
:100910009640303005F07DB900F59640303005F056
:100920007BB944F6A033C058704744F6A033C15099
:10093000704700F5A04068300CF021BF00F5A040E2
:1009400068300CF01FBF00F5A04068300CF01DBFF0
:1009500000F5A04068300CF01BBF00F5A0406830E7
:100960000CF03EBF00F5974010B55C300C4601F02E
:10097000D2FE21460BF083F800280CBF0320002094
:1009800010BD70B500F597445C340D462046164600
:1009900001F0C1FE29460BF072F8054640B1204631
:1009A00001F0B9FE324629460BF09CF8002070BDDC
:1009B000032070BD10B500F597400C465C3001F087
:1009C000AAFE2146BDE810400BF077B808B500F547
:1009D00097405C3001F09FFEBDE808400BF027B85F
:1009E00038B50D46144652B100F597405C3001F021
:1009F00092FE22462946BDE838400AF0F5BF07209E
:100A000038BD08B500F597405C3001F084FEBDE8C4
:100A100008400AF0E2BF08B500F597405C3001F0ED
:100A20007AFEBDE808400AF0D4BF08B500F597404B
:100A30005C3001F070FEBDE808400AF0D2BF00F55E
:100A4000A040683007F023B900F5A040683006F0F8
:100A50005ABF00F5A040032168300EF005BA00F53A
:100A6000A04068300CF00ABF00F5A04068300CF0E0
:100A700092BE00F5A04068300CF090BE00F5A0409A
:100A8000683007F032BD00F5A040683007F030BD97
:100A900022B100F5A04068300EF077B8072070470B
:100AA0002AB121B100F5A04068300EF07EB80720D1
:100AB0007047000000F5A04008B5683006F062FFFE
:100AC0000138C0B203289ABF014B185C012008BD51
:100AD00074E2010008B500F5A040683007F0F6FCAC
:100AE000407A08BD08B500F5A040683007F0EEFC7C
:100AF000807908BD08B500F5A040683007F0E6FC35
:100B0000C07908BD00F5A04008B5683007F0DEFCEC
:100B1000D0F80230180E1A0240EA036002F47F0295
:100B20001B0A104303F47F43184308BD00F5A0409F
:100B3000683006F0B4BF10B50C4661B100F5A040B6
:100B4000683009F023FD0368236043686360838A8B
:100B50002381002010BD072010BD08B500F5A0407E
:100B6000683007F0B3FC007A08BD00F597405C30B0
:100B700001F0F7B800F597405C3001F026BEF8B5FB
:100B800000F585456835802307460B8028460C46CE
:100B900004F015FD07F59F46D0F8F0306380A21DE4
:100BA000211D06F1680000F073FC04F10A0204F153
:100BB000080106F1700000F06BFC04F11A0204F168
:100BC000180106F1780000F063FC284604F0F7FCF9
:100BD00000F5824004F10E0204F10C01103000F027
:100BE00057FC284604F0EBFC04F1120204F110015A
:100BF000E83000F04DFC07F5A44004F1160204F1C2
:100C00001401143000F044FC07F5884004F11E0282
:100C100004F11C015030BDE8F84000F039BC00F58B
:100C20008540683004F00CBD00F58540683004F064
:100C300049BD00F58540683004F09CBD036830B4C0
:100C40000D465BB901460C246343C418C55000F53A
:100C500085406260683030BC04F0A2BCC3681BB938
:100C600000F10C010123EEE7032030BC70470000C7
:100C70000048704778E2010000F5A04068300DF0B0
:100C80005ABE000038B5094C23686BB9084D284698
:100C9000FFF7A2FC284625601BF09EFB206800F5AC
:100CA000A040683006F08DFF206838BDE865002060
:100CB000B000002000F5854068300AF019BE00F54C
:100CC000854068300AF032BE00F5854068300AF091
:100CD00047BE10B5044600F597405C3000F0D6FCE6
:100CE0004FF6FF73984207D004F5A0400121683009
:100CF000BDE8104008F055B90E2010BD00F5A04029
:100D00000121683006F076BE00F5A04068300CF096
:100D1000AEBF00000362009B4362009000F5974065
:100D2000014B5C3001F041B9F504000000F597403B
:100D30005C3000F01FBC00008362009BC362009027
:100D400000F59740014B5C3001F03EB9EB04000028
:100D500000F597405C3000F019BC00F5D87003F046
:100D60003BBA00F5D87003F03EBA00F5D87003F036
:100D70003EBA37B5044600F5854068300D4604F0AC
:100D800020FC002201238DE80C002946034604F5CF
:100D9000D87003F0FDFE03B030BD002238B500F579
:100DA00028700D46114600F0A6F8044610B12946F9
:100DB00000F0BFFA204638BD00F06CB800F099B9D9
:100DC00000F5DC7003F083B900F5DC7003F081B945
:100DD00038B5051D04464FF48042002128461BF01B
:100DE00095FE44F20802A1180023A3504B6044F280
:100DF0000403E218E55004F1840343F8803C803397
:100E00009342FAD143F684730022E2508023236098
:100E1000204638BD44F20402835833B1196881502A
:100E200000221A600268013A02601846704710B545
:100E300000F58043043341B11A680C680A60026807
:100E40001960013202602146F5E7084610BD8A6844
:100E50000AB94B6903B1FEE7FFF7E9BFF8B50646EB
:100E60000F4605464824BC4229680CDA19B17C3487
:100E7000A4B22D68F7E77068FFF7CCFF2860002860
:100E8000F5D10320F8BD00242C607068FFF7CFFF78
:100E90002046F8BD01464068FFF7D9BF806970471A
:100EA000408C704738B5038C428C0D46194489B28A
:100EB000482913449BB288BFA1F14902044691BF5F
:100EC00000227C2092FBF0F20132482B05D9493BED
:100ED0007C2093FBF0F30133D21A63681B689A42BB
:100EE00003DD032038BD658438BD2046FFF7B6FF1B
:100EF0000028F8D038BDF8B505460F461646FFF76E
:100F000089FF0446C0B1002180221BF0FFFD94F848
:100F10003430656067F30103DBB243F0400326849D
:100F200084F8343000212046FFF7BCFF20B1214671
:100F30002846FFF78CFF00242046F8BD03680120F7
:100F40001BB10130C0B21B68FAE77047808C704754
:100F5000838C428C1944914200DDFEE789B28A42BB
:100F6000818400DAFEE700207047438C994200DD5F
:100F7000FEE781840020704790F8340000F0030001
:100F8000704790F83400C0F38200704790F8343016
:100F900061F3840380F834307047438C994200DD5C
:100FA000FEE75B1A4384838C028C99420A44ACBFEF
:100FB0000023591A0284B4BF8184838400207047BF
:100FC000F8B51546428C9142064641DA6818348CD1
:100FD0008242D8BF551A21448CB2D8BFADB2472C3B
:100FE00016D8C4F14807BFB2AF42A8BF2F4606F1DA
:100FF0003801214418463A461BF063FDED1B0346B9
:10100000ADB23B4400217B2936681DD92EB9FEE7DD
:10101000A4F1480189B20027F5E77C3989B2F2E7EB
:10102000C1F17C04A4B2AC42A8BF2C46301D0144DF
:10103000224618461BF045FD2D1B03462744366803
:10104000ADB2BFB2234400211DB1002EE8D1FEE7AE
:1010500000273846F8BD2DE9F0411E46438C154661
:101060008A189A42074600DDFEE7048CA8BF5D1A85
:1010700021448CB2A8BFADB2472C16D8C4F14808A1
:101080001FFA88F8A845A8BFA8463830314642461E
:101090002044A5EB08051BF014FDADB2464400202A
:1010A0007B283F681ED937B9FEE7A4F1480080B21B
:1010B0004FF00008F4E77C3880B2F1E7C0F17C041F
:1010C000A4B2AC42A8BF2C463B1D31462246184470
:1010D0001BF0F7FC2D1BA0443F68ADB21FFA88F847
:1010E0002644002015B1002FE8D1FEE74046BDE8B8
:1010F000F0812DE9F041478C8846B91889B206463F
:101100001446FFF7CFFE054640B94346224639460E
:101110003046FFF7A0FFA04200D0FEE72846BDE81A
:10112000F081F8B504460D46164600F13807238CC9
:101130009E4214DD6068FFF76DFE30B323680360E4
:10114000238C2060472B06D83830C3F14802F918A9
:1011500018441BF0B6FC238C7C332384E7E79B1BED
:10116000628C2384A38C3244334492B29BB2934268
:10117000628400DDFEE7A3842DB12B4632460021B8
:101180002046FFF768FF0020F8BD0320F8BD2DE9D9
:10119000F043814685B0884617461D460026CDB1EE
:1011A000102D2C4628BF1024224641466B46484647
:1011B000FFF706FFA044224639462D1B27446B4605
:1011C0000C983444FFF747FF1FFA88F8BFB2ADB25E
:1011D000A6B2E4E7304605B0BDE8F08373B50E462D
:1011E00090F83410028C054601F003014068FFF7C7
:1011F00082FE044638B33146FFF754FE024628BB50
:101200003346014600942846FFF7C1FFAB8C628C41
:10121000934200DDFEE7A38495F9313084F8313044
:1012200095F8343094F83420C3F3820363F38402D6
:1012300084F8342095F83430D2B2C3F3801363F3CA
:10124000861284F83420204602B070BD2046FFF795
:1012500021FE0024F7E7C08C7047C18470473F2906
:1012600000D9FEE700EBD100802390F8282001F0A0
:10127000070143FA01F10A4214BF01200020704720
:101280003F2900D9FEE700EBD100802301F00701E0
:101290000B4190F8281021EA030180F828107047CC
:1012A0003F2900D9FEE700EBD10001F007038021C0
:1012B000194190F82830194380F82810704700F140
:1012C000280200F1300312F8010B10B99A42FAD14A
:1012D000704701207047408E70474186704790F8F4
:1012E0003200704780F83210704790F83000704735
:1012F00080F83010704790F93100704780F8311055
:10130000704790F83400C0F34010704790F83430C4
:101310006FF3451380F83430704790F8343043F061
:10132000200380F83430704790F83400C0F3801008
:10133000704790F8343061F3861380F8343070478A
:10134000F8B507461D460846D1187B8C994200DD4A
:10135000FEE73C8C1444A4B2472C13D8C4F14806D1
:10136000B6B2AE42A8BF2E4607F13801214432463C
:1013700002F00DFFAD1BADB200247B2C3F6815D9E8
:101380001FB9FEE7483CA4B2F7E77C3CFBE7C4F199
:101390007C06B6B2AE42A8BF2E46391D2144324665
:1013A00002F0F5FEAD1B3F68ADB2002415B1002F71
:1013B000EDD1FEE7F8BD002202604260704700EB0D
:1013C000400201EB820210B5D36833B90C235843B5
:1013D0000C1823690BB9936803B9FEE71A681AB9A8
:1013E00019605960002010BD5A681044C160226124
:1013F000F7E700EB400201EB820270B5946804B994
:10140000FEE72368D668994206D02EB90C2303FB69
:1014100000131B6903B9FEE70C2303FB00F54B190E
:101420001B6983B12B44DE60D5680C236DB1434347
:10143000CC182B4424691C610C2303FB00110020F1
:101440000861D06070BD2660EEE703FB00131B69E6
:101450006360F1E7006870474B68486110B503F5B9
:10146000804308338B600020FFF7A9FF0120FFF7BE
:10147000A6FF002010BD10B500200C46FFF7B9FFF5
:1014800021460120FFF7B5FF0020A060606110BD7C
:10149000002310B504680B80138054B10B8801330E
:1014A0000B802046FFF74AFD1388A469184410807A
:1014B000F3E710BD10B580E80E000023C36010BD37
:1014C000002202604260704710B544688C4211D01F
:1014D000CB687BB954B9016041600868A0F58240CF
:1014E00003F073FCFEF7ECFF204610BDE1604160A5
:1014F000184610BD1A2010BD01460068FFF7E4BF72
:1015000003682BB1DA68026002B942600022DA6037
:101510001846704770B5466805462846FFF7F0FF45
:10152000044678B1436880689847A642F5D12B6895
:1015300043B13068A0F5824003F047FCBDE870403D
:10154000FEF7BEBF70BD10B54FF4C071044618F071
:10155000A9FB204610BD00BA704738B504460D46B9
:1015600019F0E8F82561E06021462068BDE83840C0
:1015700011F0B8BF90F88C30012B05D090F8930093
:10158000431E5842584170471846704790F88C30B7
:10159000022B05D090F89300831E584258417047A3
:1015A0000120704710B590F88C30022B044614D1FE
:1015B000006D0AF0D9F919F0EBF97F2807D094F9FA
:1015C000A8307F2B01D0984201DD84F8A80004F1F7
:1015D000AC00BDE81040FFF78FBF10BDFFF7E2BFC2
:1015E000D0F888308B4201D08A6802B1FEE72BB96F
:1015F000C0F88410C0F88810002070479960F9E79F
:101600005430704737B5002304460D46CA1D12F802
:1016100001190DF803100133082BF8D1206D0AF0E1
:10162000A3F9694619F064F92868696804F154035C
:1016300003C303B030BDB0F85C00704710B50C4672
:10164000A0F85C10006D0AF08FF9214619F053F9EB
:10165000002010BD90F8600070476230704738B5C8
:10166000044608460D461BF009FE10280CD86234CB
:101670001122002120461BF049FA1122294620465A
:101680001BF004FE002038BD072038BDB0F85E0016
:10169000704710B50446A0F85E10006D0AF064F9BA
:1016A000B4F85E1019F018F9002010BD73307047BF
:1016B0000B68C0F873304B68C0F877300020704773
:1016C000F8B5044608460E4603F079FF44F20817C1
:1016D00000253844594B20606360E56025616561F1
:1016E0003046A46003F06BFF554BE3613844A061C2
:1016F0006562A562E5623046246203F060FF514BEB
:10170000636306F648033844A36406F55863206310
:10171000E56325646564E36426653046A46303F0ED
:101720004EFF2346484A00F5824104F1AC00FFF722
:10173000C1FE04F1BC0004F01EFB04F1C8000AF075
:1017400039F904F209200AF013F90B23FF2284F877
:10175000943084F860304FF6FF7384F88C5084F82E
:101760008F5084F8905084F8915084F8925084F807
:101770009350C4F89820A4F89C50C4F8A050C4F822
:10178000A4507F22E567C4F88050C4F88450C4F8A0
:10179000885084F86150A4F85E3004F154054FF687
:1017A000FE7384F8A820A4F85C3004F15C072E4690
:1017B00019F0E8F905F8010BBD42F9D194F854305D
:1017C00023F0010343F00203782284F8543000210F
:1017D00004F54C701BF09AF91C492046FFF768FF8E
:1017E0001B492046FFF73BFFB4F85E102046FFF789
:1017F00050FF31462046FFF705FF4FF6FE712046A9
:10180000FFF71CFF19F0BEF984F88D0019F0BAF942
:101810000023C4F8C030C4F8C43084F88E00206DB2
:101820000AF0A2F819F082F8206D0AF09DF819F07C
:10183000ABF8C4F82C032046F8BD00BF63250000B8
:10184000092700002F1D0000DD150000C3E2010084
:10185000B8E2010010B590F88C30013B012B044632
:1018600008D8006D0AF080F894F89410BDE8104094
:1018700019F075B890F88F305BB900F13001006B4A
:1018800011F0B3FD28B9206D0AF06EF819F084F854
:1018900028B1206D0AF068F894F86010E6E7206D32
:1018A0000AF062F8BDE8104019F054B890F88C3096
:1018B00080F88F100BB9FFF7CDBF704708B590F8CF
:1018C0008C3080F860100BB9FFF7C4FF002008BD12
:1018D00070B504984C1E451E073114F8016F05F8C9
:1018E000016F8C42F9D1110E0172110C4172110A73
:1018F0008172C272037370BD2DE9F0430C46E1B0F2
:1019000005460DF10A01204601F073F99DF80A30F1
:10191000082B67D0102B7AD0002B40F08A80A86C5F
:1019200004F007FA8046A86C04F014FA064605F1A4
:1019300054090DF10901204601F04EF903AF31467B
:10194000204601F06FF99DF809300097324649466C
:101950002846FFF7BDFF4146102207A811F0B6FE4A
:10196000204601F0AFF902388DF80B00204601F057
:101970006AFA0546204601F07BFA0D229DF80B30ED
:10198000019229460246009707A811F0A6FE2046BC
:1019900001F001FA0546204601F055FA29460246B3
:1019A00007A811F04AFF204601F0F7F90546204646
:1019B00001F0F3F90646204601F05AFA01233246B7
:1019C00029460093034607A811F07CFF204601F04A
:1019D0006AFA0DF10B02014607A811F0FFFF61B092
:1019E000BDE8F083A86C04F06BF98046A86C04F0A5
:1019F0007CF90646A86C04F07EF9A86C04F009F99D
:101A000000F07F010131204601F04AF98FE7094BD0
:101A1000DFF824901868079007A9204601F01AF90A
:101A2000FF21204601F03CF9DFF810804FF0FF362F
:101A30007FE7FEE7ACE20100B0E20100CBE201008B
:101A40002DE9F0430D46E7B003A9064628461746A0
:101A5000984601F0C1F804A9284601F0D7F80DF125
:101A60000D01284601F0C5F89DF80D40082C0AD05C
:101A7000102C00F0CF8024B9B06C04F05AF98146E4
:101A800060BB0820A0E0B8F1000FFAD00DF10F0103
:101A9000284601F0F3F89DF80F40B06C013CE4B229
:101AA0008DF80F4004F0B5F800F07F00844240F05C
:101AB0008E80B06C04F0ADF80446B06C04F000F910
:101AC000D8F81830A3428146DBD807D1049BD8F858
:101AD0000C2001339342D4D300F0A180B91C05AF90
:101AE0009DF80C30049A00973046FFF7F1FE284627
:101AF00001F0E8F80238494610228DF80E000DA8D2
:101B000011F0E4FD284601F09EF98146284601F0D7
:101B1000AFF90D229DF80E3001924946024600971A
:101B20000DA811F0DAFD284601F035F907462846E0
:101B300001F089F9394602460DA811F07EFE2846CB
:101B400001F02BF90746284601F027F9814628467F
:101B500001F08EF9002300934A46034639460DA84A
:101B600011F0B0FE0DF10E0209A90DA811F036FF1B
:101B7000284601F098F99DF80E20014609A81AF0B0
:101B800091FF00287FF47DAF9DF80D30082B16D112
:101B9000D8F81830A342049B18BFC8F8100003F10E
:101BA0000103C8F80C3018BFC8F81840B06C04F036
:101BB00030F8844203D92146B06C04F02DF82B7A1A
:101BC00043F001032B72002067B0BDE8F083B06CD6
:101BD0009DF80F4004F01DF8013800F07F008442AA
:101BE00008D1B06C04F015F8441E2146B06C04F026
:101BF0006BF865E7B06C9DF80F4004F00AF801300F
:101C000000F07F0084427FF43CAFB06C04F001F838
:101C1000441CEAE70349DFF8109000245FE71F2027
:101C2000D2E700BFB0E20100CBE2010010B50C46E4
:101C3000002240F60301204601F05EF84FF6FF71E6
:101C4000204600F0B1FE4FF6FF71204600F0DAFEAC
:101C500020460721BDE8104001F0EAB82DE9F7431E
:101C60000E46054600224FF44041304601F044F84C
:101C7000B5F85E10304600F00FFF05F15401304614
:101C800000F068FF304601F088F84FF0FF33037032
:101C900000238370C3700323037120230F22437139
:101CA00042700446286D0DF1070100F6440003F070
:101CB000F2F99DF80720637912B343F0010305F1AF
:101CC00062086371102140461BF0F5FAA71D81469A
:101CD0001022002138461AF019FF4A46414638467C
:101CE0001AF0EFFE55F8733FC4F816306B68C4F86D
:101CF0001A301E21304601F0C8F803B0BDE8F08369
:101D000023F00103DBE738B5054608460C4600F032
:101D10001AFE28B121462846BDE83840FFF7ECBD41
:101D200038BD90F88C300BB9FFF794BD7047FFF7C2
:101D3000F8BF2DE9F0410C46097A6FF30001054622
:101D40002172204616461F4600F0FDFD38B13B4685
:101D5000324621462846BDE8F041FFF771BEBDE896
:101D6000F081C0F8C010C0F8C420704708B5006DFD
:101D700009F0FAFD18F00EFEC0F3800008BD70B542
:101D80000546FFF7F3FF05F1180620B100213046A4
:101D9000FFF7E3FB70BD95F8901095F891400C4467
:101DA0000134052C214628BF05214FF4A0748C4036
:101DB0004FF47A71B4FBF1F418F0E4FE0134B0FB97
:101DC000F4F101FB1401E2E7D0F880308B4210B54A
:101DD00012D0CA6882B9C26F62B9C16790F88C40EC
:101DE000C0F8801024B9042380F88C30FFF7C7FFB7
:101DF000002010BDD960F1E71A2010BD90F8933093
:101E0000012B10B5044607D1002280F8932084F8F6
:101E10008C30FFF7B4FF06E0022B09D1002380F8D5
:101E2000933000F014F82046BDE81040FFF712BDD3
:101E300090F8923023B1002380F892300323E6E734
:101E4000C36F0BB10423E2E780F88C30EBE7022389
:101E500010B580F88C300446006D09F085FD18F04F
:101E600099FD830710D47F2384F8A830B4F89C1020
:101E70002046FFF772FB04F1AC00FFF73DFB204664
:101E8000BDE81040FFF7E6BC206D09F06DFDB4F829
:101E90009C2094F8941018F0BDFD50B1D4F8A00027
:101EA000D4F8A430002198472046BDE81040FFF741
:101EB000A5BF10BD7F2913B504460BD090F8943010
:101EC0008DF804308DF80510D0F8A430D0F8A000BB
:101ED00001A99847D4F8982094F894300133520817
:101EE000DBB215D1C4F8982084F89430206D09F045
:101EF0003BFD94F8601018F032FDD4F8A000D4F83F
:101F0000A430002198472046FFF778FF02B010BDAB
:101F10001A2BE7D8D107E1D5C4F8982084F894307B
:101F20002046FFF794FFF1E700F597405C30FFF79C
:101F3000C1BF38B590F88C40651E012D33D990F89B
:101F4000935085BB002A08BF4FF0FF32002B08BF1B
:101F5000C823A0F89C300B23049DC0F8A050DA40A1
:101F600080F89430C0F89820D0F89830DA0708D478
:101F70005B08C0F8983090F89430013380F89430C2
:101F8000F2E764B9012905D180F88C10FFF7F7FE5C
:101F9000204638BD0229FBD1FFF759FFF8E780F84A
:101FA00093100024F4E70524F2E737B51D46069B9D
:101FB000009313460A4601210446FFF7BAFF08B909
:101FC000C4F8A45003B030BD37B51D46069B00933E
:101FD00013460A4602210446FFF7ABFF08B9C4F8CE
:101FE000A45003B030BD13B5044608460DF10701F7
:101FF00000F012FF9DF80730042B16D0072B1CD1E0
:10200000D4F87C330133C4F87C33012384F8923054
:1020100094F88C303BB9032284F88C2084F89230F9
:102020002046FFF7ACFE022005E0D4F874330133FC
:10203000C4F87433002002B010BDD4F880330133EB
:10204000C4F88033F6E700002DE9F041D0F864339E
:1020500001330446C0F8643388B00D461046002AA8
:1020600040F05C81002900F032810B7A62F30003BA
:102070000B72D4F8C0303BB10A7A60F341020A72A5
:10208000D4F8C41028469847284600F0F3FB0028EF
:1020900040F0448102A9284600F020FD02A9E06C2E
:1020A0000CF06AFB9DF80830022B06465FD0082B27
:1020B00002D0002B40F0178104F154080822414659
:1020C0000DF10A001AF0EEFC002800F00C819DF8DA
:1020D00008305BB104F1C807384609F082FC0028DB
:1020E00040F00D819DF80830002B58D105A92846F5
:1020F00000F064FC9DF81470022F64D0082F00F0EB
:102100008480BDF816204FF6FF739A4240F091800C
:10211000D4F86C330133C4F86C33334602AA294631
:102120002046FFF706FE002840F0F8803EB195F902
:10213000062004F1BC0106F11E0003F097FE94F89E
:102140008C30012B7BD1284600F0F8FB002840F0B2
:10215000AC80D4F87833D4F8A0000133C4F87833D5
:102160002946D4F8A430984708B0BDE8F08100288B
:1021700000F0B38008238DF808300368CDF80A30EA
:102180004368CDF80E3097E70DF10502384609F0A7
:102190009DFC0028A6D19DF80530AB71A2E704F2A2
:1021A0000927384609F0EFFB00289FD00DF10A01FE
:1021B000384609F0EBFB002898D0D4F8A43301335B
:1021C000C4F8A433D0E70DF10601284600F0DFFB88
:1021D000BDF806304FF6FF72934203D0B4F85E208C
:1021E0009A420CD194F88F20BDF816301AB14FF6F0
:1021F000FF7293428CD0B4F85C20934281D0D4F823
:1022000088330133C4F88833AEE70DF10601284660
:1022100000F0BDFBB4F85E20BDF806309A42EED166
:102220003A4641460DF116001AF03CFC0028E6D172
:1022300067E7D4F868330133C4F868336DE794F87E
:102240008F3063B99DF814304BB104F13001206B2D
:1022500011F0F3F8206D09F087FB18F07BFB28469E
:1022600000F06CFB01281AD013D303281DD1294696
:102270002046FFF7B8FE02283FF476AFD4F884403A
:10228000002C3FF471AF2368606829469847A46822
:10229000F6E7D4F878330133C4F87833EEE7D4F8AE
:1022A00070330133C4F87033E8E7D4F88033013376
:1022B000C4F8803358E7D4F89C330133C4F89C3316
:1022C00052E7D4F8A0330133C4F8A0334CE7D4F874
:1022D00090330133C4F8903346E7D4F89433013394
:1022E000C4F8943340E7D4F898330133C4F89833F2
:1022F0003AE7D4F88C330133C4F88C3334E70DF16A
:102300000A01384609F0A0FB014600287FF43CAFE3
:10231000D4F884330133C4F8843325E70838172808
:102320003FF64BAF01A353F820F000BFB7220000E7
:10233000BB210000BB210000BB210000BB2100002D
:10234000BB210000BB210000BB210000BB2100001D
:10235000BB210000BB210000C3220000CF220000EF
:10236000DB220000E722000011230000FF21000013
:10237000BB210000BB210000BB210000BB210000ED
:10238000BB210000BB210000F322000000F59740B4
:102390005C30FFF759BE0C29F8B504460D46D0F85D
:1023A0002C630ED001D861B1FEE7102902D01129AB
:1023B00007D0F9E7FFF7DAFC18B994F89130032B4E
:1023C0005BD9002384F8913084F89030304600F0D7
:1023D000BFFAE8B1D4F83C330133C4F83C3325B933
:1023E000D4F840330133C4F8403394F88C30032BD5
:1023F00014D0042B1CD0012B3ED1D4F85433B4F8A4
:102400009C100133C4F854332046FFF7A6F8F8BDFA
:10241000D4F844330133C4F84433E6E7D4F85033F6
:102420000133C4F850332046BDE8F840FFF7E6BC5E
:1024300004F13001206B10F0D8FFB8B1D4F84C3360
:102440000133C4F84C33E36FDA68E2670AB9C4F8C1
:1024500080200022DA6094F88E20013284F88E20E9
:102460005F6898682A463146B847DCE7D4F84833B5
:102470000133C4F84833E6E7FEE7013384F89130CE
:102480002046FFF77CFCD4F85C330133C4F85C339E
:10249000F8BD1FB590F88C30022B044634D0042BC5
:1024A00037D0012B5CD1D0F8982090F894300133CC
:1024B0005208DBB21CD1C4F8982084F89430206D07
:1024C00009F052FA94F8601018F049FA206D09F0FA
:1024D0004BFAB4F85E1018F0FFF9D4F8A000D4F865
:1024E000A430002198472046FFF788FC04B010BDB7
:1024F0001A2BE0D8D107DAD5C4F8982084F89430A4
:102500002046FFF73CFCF1E790F9A810FFF7D2FC5A
:10251000ECE7006D09F028FA94F8601018F01FFA43
:10252000D4F83033D4F82C030133C4F8303301A984
:1025300000F044FABDF806204FF6FF739A420BBF35
:10254000D4F83833D4F83433013301330CBFC4F832
:102550003833C4F8343310212046FFF71CFFC5E799
:10256000FEE7FFF796BFF0B5044685B00F4601467B
:10257000006816461D4610F060FFD4F83033013372
:10258000C4F8303301A9384600F018FABDF8062027
:102590004FF6FF739A420BBFD4F83833D4F8343374
:1025A000013301330CBFC4F83833C4F83433204648
:1025B000FFF7DCFB28B9112D03D194F89030032BE1
:1025C00017D9002384F8903094F88C30032B0AD06C
:1025D000042B02D0012B06D0FEE726B1642104F1C2
:1025E0003000FEF7BAFF29462046FFF7D4FE05B0BB
:1025F000F0BD013384F890302046FFF7C0FBD4F8DB
:1026000060330133C4F86033F1E770B5B0F890601F
:10261000D0F82C5304463EBB90F96130AB7190F872
:102620008C30032B28D0042B32D0012B3CD1006DF1
:1026300009F09AF94FF6FF7118F04EF994F89430BA
:102640006B7129462046FFF7F1FA3146284600F023
:1026500093F929462046FFF756FB94F9613095F926
:1026600006209A42C8BFAB71206D09F07DF96979E7
:1026700018F075F9C8B1FEE790F860306B71294623
:10268000FFF7ECFA94F88D104B1C84F88D30DDE7E1
:1026900090F860306B71C36F29461A68986890474C
:1026A00040BB94F88E10D1E7FEE7206D09F05CF98D
:1026B000294618F05AF900B1FEE7284600F048F91B
:1026C00030B1206D09F050F918F064F9C3070CD54A
:1026D000D4F8C020BAB12B7A43F002032B72D4F89D
:1026E000C4102846BDE87040104710212046FEF770
:1026F00034FFEDE73246D4F82C1320460C23BDE816
:102700007040FFF730BF70BDFFF77FBF00F5974007
:102710005C30FFF728BFC830704738B50446D0F8A2
:1027200080030D46FEF717FFD4F89033C5F802007A
:10273000D4F894030344D4F898030344D4F89C03D6
:102740000344D4F8A0030344D4F8A4031844FEF7C8
:1027500002FFC5F80600D4F86003FEF7FCFEC5F8DA
:102760000A00D4F86803FEF7F6FEC5F80E00D4F8A8
:102770006C03FEF7F0FED4F88833C5F81200D4F8E5
:1027800084031844D4F88C331844FEF7E4FEC5F8EB
:102790001600D4F83403FEF7DEFEC5F81A00D4F8AC
:1027A0003803FEF7D8FE0023C5F81E0085F8223056
:1027B00085F8233085F8243085F8253038BD782217
:1027C000002100F54C701AF0A1B900F54C7070476B
:1027D00010B5006D0C4609F0C7F82146BDE8104061
:1027E00018F0DFB813B50B78022B0C4607D1006D3B
:1027F00009F0BAF8618818F0D7F802B010BD0934B2
:10280000002314F801290DF803200133082BF8D117
:10281000006D09F0A9F8694618F0D7F8EDE713B58F
:102820000B78022B0C4607D1006D09F09DF86188EA
:1028300018F0D5F802B010BD0934002314F80129AE
:102840000DF803200133082BF8D1006D09F08CF846
:10285000694618F0D5F8EDE710B50446084602F0D1
:1028600048FB0368236043686360237883F00203B6
:10287000237010BD10B5017902295DDD0068437831
:10288000027842EA032202F44063B3F5006F06D0F7
:10289000B3F5406F37D0002B4ED1032300E0072360
:1028A00002F44044B4F5004F2FD0B4F5404F33D07C
:1028B000002C41D1140739D5C05C00F01804102C4D
:1028C00030D0182C30D0082C14BF0533063300F05C
:1028D00007040120A04010F0880FDBB228D110F0CF
:1028E000440F27D110F0220F14BF0620022002F05F
:1028F0000702032A04BF0133DBB203449942B4BF89
:102900000620002010BD0D23CAE754065CBF023329
:10291000DBB20233DBB2CDE754065CBF0233DBB27D
:102920000833F7E70A33D2E70E33D0E70220DEE7B9
:102930001220DCE70A20DAE7062010BD03681878C9
:1029400000F00700704703681878C0F3C0007047B4
:1029500003681878C0F34010704703681878C0F314
:102960000010704703681A7819B142F010021A700B
:10297000704722F01002FAE7036899707047036805
:102980005878000210F4406018BFD81C704708B592
:10299000FFF7F5FF30B14278037843EA02230B805A
:1029A000002008BD062008BD08B5FFF7E8FF00B904
:1029B000FEE7017009124170002008BD03685A78D3
:1029C000120202F44062B2F5006F05D0B2F5406F1A
:1029D0000BD000230B7006E002220A709A795B7913
:1029E00043EA02234B8000207047082201F8022BA3
:1029F00003F10D02053312F8010D01F8010B9A42A3
:102A0000F9D1F0E7026853781B0203F44063B3F591
:102A1000006F00D0FEE751710912917100207047DC
:102A200003685A78120202F44062B2F5406F00D097
:102A3000FEE7CA1D0433013912F8010903F8010F3A
:102A40008A42F9D10020704702685178137843EA2E
:102A5000012313F44C4010D0590602F103000CD4AA
:102A600003F44063B3F5006F03D0B3F5406F02D0B9
:102A70007047D01D704702F10D00704710B50C462D
:102A8000FFF7E2FF30B14278037843EA0223238064
:102A9000002010BD062010BD10B50C46FFF7D4FF76
:102AA00020B1047024124470002010BD062010BD17
:102AB00000684278037843EA022303F44062B2F5E7
:102AC000006F07D0B2F5406F06D003305B0658BFE9
:102AD000023070470730F9E70D30F7E710B50446CC
:102AE000FFF7E6FF08B323685B781B0203F440435B
:102AF000B3F5004F05D0B3F5404F0BD00020087060
:102B000010BD02230B704278037843EA02234B8006
:102B1000002010BD082301F8023BC31813F8012D53
:102B200001F8012B8342F9D1F2E7062010BD08B568
:102B300003685B781B0203F44043B3F5004F00D0F9
:102B4000FEE7FFF7B5FF00B9FEE70170091241701B
:102B5000002008BD08B503685B781B0203F44043FE
:102B6000B3F5404F00D0FEE7FFF7A2FF00B9FEE744
:102B7000CB1D0138013913F8012900F8012F8B42D0
:102B8000F9D1002008BD02685178137843EA012387
:102B900013F008001FD003F44061B1F5006F0CD0B2
:102BA000B1F5406F0BD0D01C03F44042B2F5004F9A
:102BB00008D0B2F5404F0AD07047D01DF4E702F1BB
:102BC0000D00F1E75A0658BF0230023070475B062D
:102BD00058BF02300830704710B50C46FFF7D3FFDE
:102BE00028B1037803F007032370002010BD0620EE
:102BF00010BD10B50C46FFF7C6FF28B1037803F0EF
:102C000018032370002010BD062010BD10B50C461F
:102C1000FFF7B9FF20B1D0F801302360002010BDCC
:102C2000062010BD10B50C46FFF7ADFF00B9FEE75A
:102C3000230A44708370230C240EC3700471002097
:102C400010BD102804D018280CBF082000207047A1
:102C50000420704710B50C46FFF795FF00B9FEE75A
:102C6000034613F8050B00F01800FFF7EAFF2146B2
:102C70000246BDE81040184619F023BF10B50C46B7
:102C8000FFF781FF034648B1007800F01800FFF716
:102C9000D8FF184443792370002010BD062010BDD2
:102CA00010B50C46FFF76FFF034600B9FEE700784A
:102CB00000F01800FFF7C5FF18444471002010BD54
:102CC0000079704708B5FFF75EFF78B1037803F02D
:102CD00007020123934013F0880F09D113F0440F2A
:102CE00008D113F0220F0CBF00200420023008BDD1
:102CF0001020FBE70820F9E738B5036805460812FD
:102D0000587001F44060B0F5006F197004D0B0F550
:102D1000406F0ED058B1FEE7072401F44040B0F5F3
:102D2000004F08D0B0F5404F2BD050B1FEE7032440
:102D3000F3E70D24F1E748065CBF0234E4B2023445
:102D4000E4B208070FD51A55530718BF053402F02F
:102D5000180218BFE4B2102A19D0182A19D0082A6C
:102D600001D10134E4B201F00701032908BF0134A5
:102D7000284608BFE4B2FFF7A5FF204428710020D1
:102D800038BD48065CBF0234E4B20834D8E70534E5
:102D9000E8E70934E6E7006870470068427803789E
:102DA00043EA022303F44062B2F5006F20D0B2F58B
:102DB000406F1FD072BB033003F44042B2F5004FA6
:102DC0001AD0B2F5404F1CD022BB1A070AD50278A0
:102DD00002F01802102A19D0182A19D0082A14BF94
:102DE0000530063003F00703032B14D10130704780
:102DF0000730E1E70D30DFE75A0658BF02300230F6
:102E0000E3E7590658BF02300830DEE70A30E9E749
:102E10000E30E7E70020704710B50C46FFF7BDFF06
:102E200020B110F8013C2370002010BD062010BD19
:102E300010B50C46FFF7B1FF18B100F8014C0020A7
:102E400010BD062010BD10B50446FFF7A6FF23688D
:102E5000C01AC0B210BD38B50546FFF7F4FF0446EE
:102E60002846FFF72FFF2044C0F17F00C0B238BDD5
:102E700038B50546FFF7E7FF04462846FFF722FF6F
:102E80002B792044181AC0B238BD70B506460C46DE
:102E9000FFF7D9FF05463046FFF714FF28440444E6
:102EA0003471002070BD10B50446FFF70BFF237985
:102EB000181A2368184410BD0023036083808371AF
:102EC000C371704702700022A0F80221C0F80411FB
:102ED00070470023A0F8023151B10378D0F8040103
:102EE0000E2B4FF0FF320CBF0121022119F01CBB49
:102EF0007047431CB0F802011844834206D21A7886
:102F00008A4204D05A7802321344F6E70023184666
:102F10007047FFF7EEBF08B50178FFF7EAFF00B191
:102F2000023008BD38B50D46FFF7F5FF04462846C8
:102F3000FFF7F1FF014620B9201C18BF01204042D5
:102F400038BD24B12046BDE8384000F097BE0120CE
:102F500038BD07B50246134602F5817213F8011B0E
:102F6000D0F8040100920E294FF000020CBF01219D
:102F7000022119F073FA03B05DF804FB03780E2BFD
:102F800000F10102B0F80231D0F804010CBF0121B8
:102F9000022119F0AFBA38B504461D460846631C35
:102FA00011462A46FEF70CF8A4F80251002038BD5D
:102FB0002DE9F3410378B0F802610E2B0CBF182302
:102FC00019230F468DF804300546A6F10A030222A4
:102FD00001A938468DF80530FEF78BF88046A0B978
:102FE0006C1C2644B44210D22A7823789A4203D12A
:102FF000637802331C44F5E7627821460232384692
:10300000FEF777F80028F3D08046404602B0BDE8CE
:10301000F08138B50446631C1546CB1AB4F802217A
:1030200055FA83F30846D21A294419F055FDB4F82D
:103030000221521BA4F8022138BD70B50E46097852
:10304000B0F802410546FFF754FFC4F58074A4B2FE
:10305000014618B1437802331C44A4B2737802339A
:10306000A34218D829B14A780232D2B22846FFF7D3
:10307000D0FFB5F802317278681C0232314618442C
:1030800019F01FFD7378B5F8022102331344A5F837
:103090000231002070BD032070BD30B5027885B0CC
:1030A0000C460E2A18BF3322054608230DF10600F0
:1030B0008DF804208DF80530FFF7FEFE2368CDF86B
:1030C000063001A96368CDF80A302846FFF7B5FF3E
:1030D00005B030BD10B50446FFF70BFF014638B10F
:1030E000427802322046D2B2BDE81040FFF791BFCD
:1030F00010BD38B50D460446B1F80221013001314A
:1031000019F0DFFCB5F80231A4F8023123780E2B58
:1031100007D133212046FFF7DDFF34212046FFF79A
:10312000D9FF002038BD0000F8B5044608460D461A
:103130001F46164608F018FC324601462046FFF7A7
:10314000C1FE284608F010FC3246014604F58470A2
:10315000FFF7B8FE05F1E00305F5F252C4F81032AE
:103160001C3205F55863C4F81432C4F81852C4F878
:103170001C22284602F023FA0D4BC4F8243200F535
:1031800082400022083005F59475069BC4F82002A1
:10319000C4F82842C4F82C22C4F83022C4F83422DF
:1031A000C4F83852C4F83C72C4F840322046F8BD26
:1031B0004137000070B5054686B0D0F8140204F01F
:1031C000D9FB98B105F58473B3F802615C1C264401
:1031D000B4425DD223780C2B14D8DFE803F0091732
:1031E0002129133B1344131313134A002B46EBE717
:1031F000B4F80310D5F8180249BAC9B200F6F400C1
:10320000FEF75CFB637802331C44E1E76188D5F884
:10321000180249BA89B200F6F400FEF73AFAF1E76B
:10322000D5F81802A11C00F6F400FEF741FAE9E710
:103230001122002101A819F069FCA11C627801A8E3
:1032400019F03FFCD5F8180201A900F6F400FEF7CA
:1032500006FAD7E7D5F818026278A11C00F64800F4
:1032600002F0B2FCCEE7A11CD5F8140204F060FF16
:10327000C8E76188D5F8180249BA89B200F6480053
:1032800002F06BFDD5F81832227983F8EC28B9E703
:10329000002006B070BD38B504460D4600F58470B8
:1032A000FFF727FF29462046FFF73CFE30B12946AD
:1032B0002046FFF71EFF2046FFF760FE002038BDC6
:1032C00070B500F584760D4631460446FFF72AFEB8
:1032D000022300282B700DDD4FF484723146204606
:1032E00019F0EFFB2046FFF749FE2B7843F001036E
:1032F0002B7070BD05D04FF47A7104F50870FEF79D
:103300002CF970BD70B504460E4600F584753AB9C7
:103310002946FFF707FE18B901212046FFF7D9FD1E
:1033200028460021FFF7D5FD20463146FFF7C8FFAC
:10333000002070BDF8B500F5847605460F4630468E
:1033400011461A469DF81830FFF725FE044638B995
:1033500039463046FFF7A1FE07992846FFF7B0FF30
:103360002046F8BD2DE9F0410546A6B08846D0F8C4
:103370001002002116461F460FF0E0FF044628B356
:10338000414602A80FF078FF02A80FF03FFF9DF81A
:10339000882002A92046FDF7ACFEA0B910238DF8C5
:1033A00004300322012301A920468DF805308DF851
:1033B0000670FDF79EFE30B932462146D5F8100260
:1033C0000FF0BEFF10B12046FDF764FD26B0BDE84A
:1033D000F0812DE9F047A4B005460C46D0F8100264
:1033E0009DF8B0800021174699460FF0A7FF0646CA
:1033F00000283ED0214668460FF03EFF68460FF099
:1034000005FF9DF8802069463046FDF772FE0028D2
:1034100048D1B8F1000F11D0044605F5847AE3B223
:1034200043451FDA19F8031005292ED1D5F81832B3
:1034300093F9EC38002B28DB0134F0E7B5F80A8269
:1034400005F20914A04444450CD22378052B13D16E
:10345000D5F8183293F9EC38002B0DDB6378023382
:103460001C44F0E73A463146D5F810020FF068FFE9
:10347000C0B924B0BDE8F0876278214602323046F8
:10348000FDF737FE0028E9D00CE05046FFF741FD7C
:1034900001460028D0D04A7830460232FDF729FE96
:1034A0000028C9D03046FDF7F5FCE2E72DE9F043EE
:1034B0000646C5B010460F4615469846FDF746FD30
:1034C00081462846FDF7ECFC814522DA03AB022257
:1034D00049462846FDF774FD9DF80C309DF80D40D7
:1034E0000D2B11D109F1020104AB224689B2284605
:1034F000FDF766FD009404AB424639463046FFF7BF
:1035000068FF45B0BDE8F08302344C441FFA84F9EB
:10351000D7E70024EEE7000013B5054B00930E2219
:10352000044B0446FFF700FE204602B010BD00BF6A
:10353000E0E20100DBE2010010B50446FFF709FDFF
:1035400020B92046BDE81040FFF734BE10BD07B5D6
:103550000A460DF10701FFF7D5FE03B05DF804FB45
:1035600038B50446FFF797FE054680B92046FFF7B9
:1035700021FED4F8140204F005FA042807D1D4F887
:103580001C020EF063F8D4F81C020EF075F8284601
:1035900038BD30B585B00DF10F0401949DF8204081
:1035A00000940546FFF7C6FE044610B92846FFF70B
:1035B00001FE204605B030BD37B5114B00930D46D6
:1035C000104B33220446FFF7AFFD284601F0F7FF0A
:1035D00000F5824008300C4BC4F84402C4F848326D
:1035E00020460023C4F84C42C4F85032C4F8543288
:1035F000C4F85832C4F85C32C4F8603203B030BD4D
:10360000EAE20100E5E2010055380000F8B50C4699
:10361000164617F08FF8342107462046FFF779FC4D
:10362000054670B130683C1AD5F80200FDF793FFEB
:10363000844234BF001B0020FDF78DFFC5F8020057
:103640003760F8BD10B500F5177204460146FFF764
:10365000DDFF04F5187204F584712046BDE81040C2
:10366000FFF7D4BF2DE9F041B6B004462C2200216B
:1036700007A819F04BFA0222002112A80FF0E6FB6E
:10368000022112A80FF0CFFDD4F83C1212A80FF0BF
:1036900045FD12A80FF0BAFD1C49D4F83C0219F000
:1036A000DBFD10B92046FFF7CDFF12A9D4F8380290
:1036B0000EF0E6FF804618B3B4F80221611CFDF756
:1036C00018FD0546C0B903AE3146D4F8140204F023
:1036D000FAFC96E80F000BAF87E80F004FF2BF032C
:1036E000ADF83E3000952B4607AA4146D4F8380283
:1036F0000FF012FB054620B14046FDF7CBFB00E082
:103700000325284636B0BDE8F08100BFE5E20100A0
:1037100010B50446D0F8140204F02CF978B104F581
:1037200084712046FFF7FEFB002808DA2046FFF7E9
:1037300099FF4FF47A7104F50870FDF70EFF10BD84
:10374000FFF7E6BF70B5044604F58476FFF77AFF0D
:1037500034213046FFF7DDFB28B1D0F80200FDF739
:10376000FAFE054600B1FEE7D4F81802314600F52E
:103770005770FFF7F5FE29462046BDE8704000F07F
:1037800037B8CA0738B504460D4603D516F0D2FF40
:10379000C4F85C02AB071ED516F0CCFF04F511751A
:1037A000C4F860022946D4F844020FF046FE3421E2
:1037B00004F58470FFF7ADFB68B1D0F80200FDF7A7
:1037C000CAFE014620B92046BDE83840FFF7BABF1F
:1037D0002846FDF7C2FE38BD38B50546FFF7B9FBF0
:1037E000044618B901212846FFF7CBFF204638BD13
:1037F00037B50A460DF107010546FFF783FD04467C
:1038000020B99DF807102846FFF7BBFF204603B0FC
:1038100030BD38B50546FFF73EFD044618B9032113
:103820002846FFF7AEFF204638BD30B585B00DF114
:103830000F0401949DF8204000940546FFF77AFD9F
:10384000044620B99DF80F102846FFF79AFF20463E
:1038500005B030BDFFF776BF2DE9F041054686B0D3
:10386000104688461646FDF771FB0446D5F814024B
:1038700004F080F800283DD005F584773046FDF748
:103880000FFB844218DA214601AB02223046FDF7D5
:1038900097FBA11C0DF106039DF8052089B2304667
:1038A000FDF78EFB01A93846FFF7C7FB9DF80530F1
:1038B00002331C44A4B2E1E734238DF8043004231E
:1038C0008DF805304BF20173ADF8063001A9742371
:1038D0003846ADF80830FFF7B0FB41463846FFF7F1
:1038E000DCFB0DF103012846FFF7EAFC0221284624
:1038F000FFF747FF06B0BDE8F08100002DE9F04773
:10390000044698B010460F4616469846FDF71EFB33
:1039100000230546D4F814028DF815308DF82130B7
:103920008DF80D308DF839308DF82D308DF8093047
:103930008DF8053004F026F8042814D04FF0FF3538
:10394000D4F8140204F01EF8042805D12B46424690
:1039500039462046FFF706FD012D0CBF002002204E
:1039600018B0BDE8F0873046FDF79AFA85420DDAC7
:103970006B46022229463046FDF722FB9DF80100E6
:103980001028DBDC02300544ADB2ECE73046FDF731
:10399000DDFA281AB0F5807FD0DCB749D4F83C02B4
:1039A00019F05AFC05AB00284FF00A024FF00E0147
:1039B00030460CBF4FF00E094FF0330900F09DF96F
:1039C0000028BBD108AB0A223321304600F095F91C
:1039D000B9F10E0F204614BF0DF122050DF11605A9
:1039E000FFF799FA38B12046FFF795FA294600F01B
:1039F00045F90028A2DD03AB05220021304600F086
:103A00007CF908B1002517E0BDF80FA09AFA9AFAE0
:103A10001FFA8AFAAAF10B030F2B8FD8B9F10E0FF8
:103A2000F0D1D4F8180200F6F400FDF713FE80B2CE
:103A3000B0EB0A0518BF012502AB04220121304674
:103A400000F05BF988B9B9F10E0F0ED1D4F8180265
:103A5000BDF80AA000F6F400FDF718FE9AFA9AFAEB
:103A60001FFA8AFA504518BF01250BAB0A2207211D
:103A7000304600F042F990B9B9F10E0F0FD1D4F8E9
:103A8000180200F5586004F001F89DF82D20014659
:103A90000DF12E0019F006F8002818BF01250521A8
:103AA0000EAB1222304600F028F9014600283FD123
:103AB000B9F10E0F3CD1D4F8180200F6480002F01C
:103AC00056F89DF8392001460DF13A0018F0EAFF4A
:103AD000002818BF012501AB04220B21304600F05D
:103AE0000CF9002849D10B21D4F81C0207F084FB03
:103AF00000283FF423AF4288BDF8063052BA5BBAC3
:103B000092B29BB29A427FF419AF002D7FF416AFA8
:103B1000B9F1330F0AD101212046FFF7DAF9D4F8C1
:103B20001812204601F26441FFF7E3FA012526E06E
:103B3000B9F1330FCFD19DF839307BB1D4F81802E9
:103B4000002100F6480002F012F89DF839200146E5
:103B50000DF13A0018F0A6FF0028BCD1D4F81802E5
:103B600000F26440FFF7D7F90028B4D00DF1160138
:103B700000F084F80028AEDCE0E6002D71D130467C
:103B8000FDF7E4F981463046FDF78AF981451EDAF2
:103B900013AB022249463046FDF712FA09F1020141
:103BA0000DF14E039DF84D2089B23046FDF708FA1D
:103BB0009DF84C300B2B03D013A92046FFF73DFA9C
:103BC0009DF84D30023399441FFA89F9DBE720460E
:103BD000FFF7D4F94FF484722146A01818F071FF52
:103BE000D4F81C020DF032FDD4F81C020DF044FD97
:103BF000ADBB0921D4F81C0207F0FEFA054670B3EC
:103C00001022002113A818F081FFD4F8180200F543
:103C1000586004F030FA13AE034600F1100E186835
:103C20005968324603C2083373451646F7D100235C
:103C3000ADF854304FF47F43ADF85630FE23ADF865
:103C40005830D4F81802AB78EA7800F5025043EA0D
:103C5000022313A91C30ADF85A3008F0C3FD01252A
:103C60006EE6D4F8180232460DF1160100F5B86080
:103C7000FFF7F2FDBDE700BFDBE20100F0B500F1A8
:103C8000050C00F1FF3E002200231D0245EA1265EB
:103C900014021EF8012F0023E64542EA040243EA1B
:103CA0000503F2D101F1FF3E01F1050C00240025CE
:103CB0002F0247EA146726021EF8014F0025E64549
:103CC00044EA060445EA0705F2D1AB4208BFA24226
:103CD000C088C9880FD39D4208BF944208D34B10B7
:103CE000B3EB500F07DCB4BF4FF0FF300020F0BD46
:103CF0004FF0FF30F0BD0120F0BD2DE9F743054640
:103D00000F4690469946FDF721F904462846FDF7EF
:103D1000C7F80646B4421BDA01AB02222146284608
:103D2000FDF74EF99DF804209DF80530BA4203F1E5
:103D3000020311D19AB2A1188E420DDB42454B46C7
:103D4000A8BF424621462846FDF73AF9002000E088
:103D5000062003B0BDE8F0831C44A4B2DAE72DE9E5
:103D6000F74304460E4617469846FDF7EFF881469E
:103D70002046FDF795F80546A9452DDA01AB4946E1
:103D800002222046FDF71CF99DF80530ADF80630FB
:103D900009F10201FF2B89B20DD10DF106030222B8
:103DA0002046FDF70DF9BDF8063009F104015BBAB4
:103DB00089B2ADF806309DF80430B342BDF8063044
:103DC00006D139800020A8F8003003B0BDE8F083A8
:103DD00019441FFA81F9CFE70620F6E710B5002253
:103DE0000124026084808260C2600474416110BD5D
:103DF000026813461BB18B4205D09B68FAE78A60C4
:103E00000160184670471A2070472DE9F047804638
:103E10008EB00C46924600212C2203A8994618F039
:103E200075FE0021D8F8140000F0A6F9074688B303
:103E30003021FDF737F80546064638BB169B282289
:103E400008213846FDF707F901AB29460822384614
:103E5000ADF8065002958DF804A08DF80590FDF799
:103E6000FAF8234603F1100507AC18685968224692
:103E700003C20833AB421446F7D13A2303AA3946AA
:103E8000D8F8140000F07FFD064620B13846FDF753
:103E900001F800E0032630460EB0BDE8F0872DE9BA
:103EA000F04104460D462846082117469846FDF77E
:103EB0004FF824683CB12668606843463A46294674
:103EC000B047A468F6E72046BDE8F0812DE9F0434D
:103ED000074691B08846164600212C2205A818F006
:103EE00015FE3B7C2BB94FF00009484611B0BDE8E8
:103EF000F0830021812378698DF80D10ADF80E1044
:103F000004918DF80C3000F037F904460028EAD00F
:103F10004046FCF7C5FF05464046FDF717F82D1A49
:103F2000ADB229462046FCF7BDFF8146002843D1AB
:103F3000014603AB04222046FDF78DF84046FDF70D
:103F400005F82B1F011D9BB240460094042289B244
:103F5000FDF71DF906F1100309AD06F1200E984694
:103F6000186859682A4603C2083373451546F7D1C5
:103F7000304600F055FF48B9334605AD186859681A
:103F80002A4603C2083343451546F7D196F8243034
:103F90008DF8383005AA3A232146786900F0F3FC01
:103FA000814648B92046FCF7D1FF03AB0146082201
:103FB0002046FDF705F898E72046FCF76BFF94E7ED
:103FC00008B5037C1BB183680BB1C068984700201B
:103FD00008BD2DE9F341074608460C461646FCF796
:103FE000B5FF6B46014608222046FCF7E9FF08288A
:103FF00001D0002031E02046FCF752FF0546204664
:10400000FCF7A4FF2D1AADB23A232A46314606F139
:10401000100000F0D1F880462046FCF797FF2B46B1
:10402000024641462046FDF78BF94FF6FF73984252
:10403000DFD19DF80030802B0AD0812B10D0002BCF
:10404000D7D16B46324621463846FFF728FF04E0B9
:10405000324621463846FFF739FF02B0BDE8F0810D
:10406000324621463846FFF7ABFFF6E7F7B508467C
:104070000C461546ADF80620FCF768FF07462046BB
:10408000FCF70EFF06462046FCF760FF331A3A465F
:1040900029469BB22046FDF753F94FF6FF7398422D
:1040A00018BFC043ADF80600BDF8063002AD5BBADC
:1040B000204625F8023DFCF749FF811C2B460222D1
:1040C00089B22046FCF7C7FF002003B0F0BD007C9A
:1040D000704701747047437EDA0601D400F01BBFBD
:1040E00003F00F0070478A1E012303704270002105
:1040F000023018F00BBD000070B50146044601F017
:10410000ECF9214604F10800FFF768FE214604F1AE
:10411000200001F085FB214604F12C0000F0E8FFAF
:1041200004F5824604F1F000FCF752FE3046FDF73C
:10413000C7F9304608300FF055F944F20C1300254A
:104140003046E5541030FDF736F930462346094A2B
:1041500031461830FDF7AEF944F228132046E550F9
:1041600044F22C13E55044F23013E55444F2341376
:10417000E55070BDC74D000001F1300292B2002140
:10418000F030FCF7B8BE44F20C13C154704710B5C0
:10419000002494420CDA0B5D14F0010F08BF1B02DF
:1041A00003449BB28342B8BF013398B20134F0E7B5
:1041B00010BD1022FFF7EBBF10B513449BB29A421B
:1041C000C8BF01330C46014698B2FFF7F2FF214603
:1041D000BDE81040FFF7EDBF44F22813C15044F290
:1041E0002C13C250704744F23013C05C704744F245
:1041F0003013C154704730B587B093798DF80430CF
:104200000D460023144602A908322C308DF80530E3
:1042100000F098FF9DF8093004335B0715D19DF835
:1042200009200232D2B202A92846FCF77AFFD0B99F
:10423000022201A92846FCF774FFA0B9A388A07147
:104240005BBA08335BBAA3800DE0022104A8FFF734
:104250004AFF9DF811200232D2B204A92846FCF789
:1042600060FF0028DBD007B030BD2DE9F0470E46D7
:104270008EB004AB282200213046FCF7A1FE9DF849
:104280001650002D71D101AB022228213046FCF7D7
:1042900097FE9DF805703046FCF702FEFF0007F11F
:1042A00008083037B84260DBA946AA462A24A7424C
:1042B00029DD02AB022221463046FCF781FE9DF843
:1042C0000830012B15D011D36D2B9DF8093015D175
:1042D0002A2C994669D19DF80520002A65D101252F
:1042E000023323449BB2A2461C46E0E7631C9BB208
:1042F000FAE79DF8093002332344F8E702332344F8
:104300009BB20025F0E7BC422FD1002D3DD008F133
:1043100020081FFA88F8A8F10804A4B202AB08220A
:1043200021463046FCF74CFE414602AB082230469F
:10433000FCF791FE072CA046EDD808213046FCF78B
:104340002CFEBAF12A0F14D19DF804308DF81630E6
:10435000BDF814305BBA083B5BBAADF814302822C4
:1043600004AB00213046FCF776FE00200EB0BDE81D
:10437000F0879DF80530013B8DF80530022201AB36
:1043800028213046FCF767FEE2E7BAF1000FECD0D7
:1043900009F10201C9B202A8FFF7A5FE9DF80920A4
:1043A000023202ABD2B25146DCE704F10802974276
:1043B00008BF012594E710B5044600F5824010308F
:1043C000FDF74AF804F582401830BDE81040FDF7CB
:1043D00093B82DE9F743074608460C46164698461B
:1043E000FCF7B4FD6B46014602222046FCF7E8FDCF
:1043F0000228814651D12046FCF7A8FD9DF80150C6
:10440000013500EBC5052046FCF74AFDADB28542FB
:1044100043DC49462046FCF79BFD08362046FCF766
:1044200095FD854237DD2046FCF790FD01AB014646
:1044300002222046FCF7C4FD02282ED12046FCF7BC
:1044400085FD9DF8053002331844A84225D89DF813
:1044500004306D2B0BD198F800303246214607F11D
:104460002C0000F05EFF50B103B0BDE8F08303F014
:10447000C003802B11D0C02B0FD0402B0DD09DF846
:10448000043023B901212046FCF762FDC6E79DF800
:1044900005100231F7E70020E6E70220E4E737B530
:1044A00008460D46FCF752FD6B4601460822284699
:1044B000FCF786FD0828014608D1BDF802305BBA3A
:1044C0009BB2DA0802D113F0010402D0022003B03B
:1044D00030BD2846FCF73CFD2046F8E72DE9F341C6
:1044E0009DF8247006460C4690461D460FB92B7861
:1044F0008BB92046FCF72AFD01AB0146022220467B
:10450000FCF75EFD02281CD12B782C2B10D004D890
:104510003BB12B2B15D0002014E03B2B11D03C2BB2
:10452000F9D108AB424621463046FFF752FF03E07F
:1045300021463046FFF7B3FF20B99DF804302B70B9
:10454000D4E7022002B0BDE8F081112B03D03A2B52
:1045500004D000207047203001F00EBA0830FFF779
:1045600038BDF7B51F4644F228130446C3580D461C
:10457000164613B9042003B0F0BD44F23013C35CF7
:1045800003B3104600F0A7FC0028F3D106F1100099
:1045900000F0A1FC0028EDD1112F2AD03A2F11D123
:1045A00004F10800FFF793FD60B12846FCF7CEFC4C
:1045B0006B46014608222846FCF702FD9DF80030B4
:1045C000802BD7D02846FCF76BFC01462846FCF729
:1045D00005FE054618B301462046FFF746FE44F2A5
:1045E0002C1244F228132846E358A158984700207B
:1045F000C1E7304600F007FC0028E3D02846FCF76E
:10460000A5FC6B46082201462846FCF7D9FCBDF8FC
:1046100002305BBA9BB244F64C529342D1E703207E
:10462000A9E744F2341283581BB9815000208862F4
:1046300070478B420AD093F9140091F914209042EC
:1046400004D09A6A002AF4D19962EFE71A207047E1
:1046500044F2341283588BB18B4204D18B6A83505D
:10466000192008E013469A6A002AF9D09142F9D13C
:104670008A6A9A62002000238B6270471920704773
:1046800044F23413C058704738B544F234130D4621
:10469000C45834B1204600F094FFA84201D0A46A67
:1046A000F7E7204638BD38B544F234130D46C458F8
:1046B00034B12946204600F0C5FF10B9A46AF7E7D7
:1046C000204638BD2DE9F74F44F23413002691F906
:1046D00024B050F803908A4601F110083446B9F12D
:1046E000000F69D0484600F06CFFD9F80C5007461F
:1046F000002D5CD0404600F086FB002862D1404689
:1047000000F08EFB00285DD1002C4DD0414628469C
:1047100000F047FC00284DD12846FFF7DCFC019053
:104720002046FFF7D8FC019B834228460CDAFFF7AE
:10473000D2FC0190404600F0EEFB019B8342A4BFF7
:104740003E462C46ED69D3E7FFF7C5FC01902046B5
:10475000FFF7C1FC019B83420CDD2046FFF7BBFC49
:104760000190404600F0D7FB019B8342BCBF3E4610
:104770002C46E7E72B690BB12369ABB19AF92430DA
:104780001BB19F4201D1BE420ED12946404600F0E6
:10479000F0FB21460190404600F0EBFB019B834279
:1047A000C4BF3E462C46CDE73E462C46CAE7D9F864
:1047B000289094E73E462C4620468AF8246003B0B1
:1047C000BDE8F08FBB45BDD19EE72DE9F0411D4608
:1047D000074690460E460FCD96B00BAC0FC40FCDDA
:1047E0000FC495E8070084E807000FAC10220021F1
:1047F000204618F08BF940F2FF33ADF83C304FF40F
:104800007C43ADF84A300023019360238DF80430D7
:1048100040238DF80B30B8F804305BBA28335BBA0C
:10482000ADF8083094E80F0007AD85E80F002923A4
:104830000BA938468DF80A30FFF744FFC8B103468C
:1048400003AC00F1100518685968224603C208330A
:10485000AB421446F7D101AA31463846FFF7CBFCEC
:1048600020B9282201A93046FCF75BFC16B0BDE850
:10487000F081FF20FAE72DE9F04102F1180588B038
:10488000074628460C461646984600F0C9FA18B95D
:10489000002008B0BDE8F081284600F03CFB02286B
:1048A000F6DD284600F059FB30B943463246214632
:1048B0003846FFF78AFFECE728212046FCF76DFB1E
:1048C00096F80680B8F1000F55D103AB022241469D
:1048D0002046FCF775FB9DF80D500222414601353C
:1048E00003AB20468DF80D50FCF7B5FB082241467E
:1048F0002046FCF716FC0028CBD1ED0005F0F805AA
:104900002B460246082100942046FCF740FC06F1A5
:10491000080204A907F12C0000F014FC9DF81120F6
:104920000232294604ABD2B22046FCF794FB9DF834
:104930001110023111F0070112D0C1F10801C9B202
:1049400006A8FFF7D0FB9DF819209DF81110023240
:10495000023106ABD2B255FA81F12046FCF77BFB5F
:10496000B3885BBA08335BBAB3802822314620464D
:10497000FCF7D7FB8DE7324621463846FFF73BFC74
:10498000002886D1F1E72DE9F04F07468BB00846A5
:10499000144698460E46FCF783FA002300936023E2
:1049A0008DF8003043BAADF8043094F825308DF816
:1049B0000680002B08BF4023814620468DF8073033
:1049C00000F006FA002850D021463846FFF77AFE5C
:1049D00000287FD0034602AD00F1100E1868596818
:1049E0002A4603C2083373451546F7D104F1100374
:1049F00006AA04F1200E9B4692461868596815468F
:104A000003C5083373452A46F7D1504600F0FBF939
:104A1000002861D1504600F094FA00285CD1584635
:104A200000F09BFA70BB282269463046FCF779FB00
:104A3000054678BB584600F0F3F978BB4A46434632
:104A4000514602A8FFF7B8FBB8F1110F024632D069
:104A5000B8F13A0F38D094F924103046FCF74EFCE8
:104A600031463846FFF7A7FC14E0234602AD04F1B7
:104A7000100E186859682A4603C208337345154654
:104A8000F7D1B3E76A4631463846FFF7B4FB05462F
:104A90000028C8D028460BB0BDE8F08F584600F07B
:104AA0003AFA0328CADD23466A4631463846FFF7FC
:104AB0008CFE38B9C2E7314607F1200000F0DDFF77
:104AC0000028C8D00546E5E7314607F10800FFF7A2
:104AD000CDFAF5E7FF25DDE794F92430002B9ED1D0
:104AE0000225D7E744F2341370B5C4580E468CB192
:104AF000E5686DB13146284600F03BFA2B7E9842BE
:104B000004DB2046BDE8704000F05BBDED69F0E7D6
:104B1000A46AECE74FF0FF3070BD2DE9F041054687
:104B200010460E4614461F4600F07AF958B194F923
:104B300024102846FFF7A8FD40B3036831461B68E0
:104B4000BDE8F0411847204600F05DF90028EED19D
:104B500021462846FFF7C6FF00280146E9DC04F19C
:104B600010012246284600F0BCFC00280146E0DC8B
:104B700022463B4631462846FFF7F3FC044610B96F
:104B80003046FCF787F92046BDE8F0810424FAE7B7
:104B90002DE9F04F9BB00FAE0C46029300219DF81B
:104BA000943003930746914630462C2217F0AEFF0F
:104BB00005AB282200212046FCF702FA282805D060
:104BC0004FF002082046FCF765F982E09DF81430AA
:104BD00003F0F003602BF3D1BDF8185020466DBAF6
:104BE000FCF75EF9ADB228358542E9D1B5F5A06F85
:104BF000E6D807AB0FCB13AD85E80F000BAD95E8FA
:104C00000F0086E80F009DF808308DF860309DF8A1
:104C10001B308DF861302846249B199300F000F971
:104C200080B929463846FFF73EFD8246A8B9284696
:104C300000F0E9F8002800F0A180B9FA89F56D09C3
:104C4000D3460FE0B9F1000F00F08C8029464846AA
:104C500000F0BAFC054600283FD04FF0000B5D463F
:104C60004FF0010A02992046FCF748FB2821204614
:104C7000FCF77BF91AAB9DF81A2003F8562D214654
:104C80008DE8200405AA3846FFF728FC8046002856
:104C900098D144F20C13FB5C1BB9B9F1000F18BF9B
:104CA0000025BAF1000F50D09DF81230292B1AD1EF
:104CB0002046FCF74BF901462046FCF76EF9039BB2
:104CC0000193249B00934A46029B21463846FFF7F6
:104CD0005FFF40461BB0BDE8F08F484600F0AEFCD9
:104CE000AA468346BEE7039A22B932462146384691
:104CF000FFF737FC9DF81230324621463846FFF761
:104D000024FC68BB002D3FF45DAFB9F1000F04D067
:104D10009DF81B30013B8DF81B309DF81B20002AAD
:104D20003FF44EAF1AAB072103F8552D2046012260
:104D3000FCF791F99DF81230324621463846FFF7CC
:104D4000ECFE80460028C4D03CE7BBF1000FD9D070
:104D50009DF81230324621463846FFF702FCD1E773
:104D600080462FE7039B4BB1334605AA21463846C0
:104D7000FFF781FD804600287FF424AF4FF0000B41
:104D80000125DA466EE7F7B500F582440646103491
:104D900000272046FCF75EFB98B12046FCF75AFB43
:104DA000054601462046FCF766FB2846FCF7A3FAB9
:104DB000019703460097002229463046FFF7E8FE98
:104DC000E7E703B0F0BDFFF7DEBFA0F5D87070478E
:104DD000026842B9436833B9826822B9C068B0FA40
:104DE00080F0400970470020704702684AB9436864
:104DF0003BB982682AB9C06800F17F4358425841E4
:104E00007047002070470378FE2B07D1407800F0F0
:104E1000C000A0F1800358425841704700207047FD
:104E20000078A0F1FF03584258417047026840F2F1
:104E3000FF239A4209D143683BB982682AB9C06806
:104E400000F17F4358425841704700207047026884
:104E500040F2FF239A4209D143683BB982682AB9DC
:104E6000C06800F17E4358425841704700207047A7
:104E7000026840F2FF339A4209D143683BB9826825
:104E80002AB9C06800F17F4358425841704700205A
:104E90007047026840F2FF339A4209D143683BB938
:104EA00082682AB9C06800F17E4358425841704771
:104EB00000207047026840F2FF339A4209D14368EC
:104EC0003BB982682AB9C06800F1806358425841F2
:104ED00070470020704703894BB94289B2F57F4F74
:104EE00005D18089A0F1FE03584258417047002047
:104EF000704708307047083070470B6883604B6814
:104F0000C36070470B6883604B68C360037A83F0AB
:104F100002030372704708B50378FF2B024603D1E2
:104F2000407800F00F0008BDFFF76DFF38B910465C
:104F3000FFF75BFF002814BF00200E2008BD0220F1
:104F400008BD08B50378FF2B05D1FFF7E4FF831EEA
:104F50005842584108BD002008BD08B50378FF2B12
:104F600005D1FFF7D8FFC31E5842584108BD0020A5
:104F700008BD10B50139441E002014F8013F11F896
:104F8000012F934204D10830C0B28028F5D110BD62
:104F900053401A0604D401305B00C0B2DBB2F8E71C
:104FA00010BD08B5102217F07DFDB0FA80F0400961
:104FB00008BD08B5102217F075FD003018BF01209C
:104FC00008BD00230360704770B5064692B00846DE
:104FD0000D46FCF7A9F9044618B10124204612B089
:104FE00070BD014608AB28222846FBF7E9FF2828B8
:104FF000F4D10EA8FFF707FF20B90EA8FFF7A1FF15
:105000000028EBD09DF82630062B1BD0112BE5D1C4
:1050100001AB082228212846FBF7D2FF0828DDD162
:10502000BDF806305BBA9BB244F64C529342D4D0E2
:1050300032880AB19342D0D07288002ACED09342EF
:10504000CCD1CAE703AB142228212846FBF7B8FFCE
:105050001428C3D1BDF80E305BBA9BB2E8E70388D1
:10506000994207D04288914204D00BB122B9012362
:1050700020F81310002070470320704703888B42EC
:10508000438803D08B4202D019207047038000234D
:1050900043801846704700230B700B78012B04DC0B
:1050A00030F813200AB10133F6E7704770B50546B2
:1050B00008460C46FBF7F4FEA0F109012B462046FA
:1050C000092289B2BDE87040FBF77ABF70B505468A
:1050D00014460E4615F056FD2B7AB0FBF4F202FB97
:1050E00014009919241A01442C72696070BD0000E3
:1050F00038B504460160114B836001F582410025FB
:1051000008310F4B4160E0600362056145618561D4
:10511000C16160628562C562056380F8345080F8C1
:105120003550C5868563BC30FCF745F98022294699
:1051300004F13C0017F0EAFC204638BDD7540000CB
:10514000A754000038B56D230B7004234B70002367
:105150008B7090F835300C46591C80F83510E37090
:10516000816B054619B11046FFF71BFF48B9A378BC
:1051700003F03F0343F04003A370EB8E5BBAA380C0
:1051800038BDA37803F03F03A3706378023B6370DC
:1051900038BD70B5002300F13C0400F1BC05E67891
:1051A00046B9002B08BF23460434AC42F7D153B9AB
:1051B000022070BD26888E42F6D1A378D31A5BB246
:1051C000002BF5DD23469A7005221980DA704FF422
:1051D0007A710430FCF7C1F9002070BD2DE9FF4160
:1051E00000F1BC06002307463046ADF804308DF8C8
:1051F00006308DF8073002938DF80C30884615463E
:10520000FCF728F997F834300446CBB1C4B12046F6
:10521000FBF744FE2146074601A8FFF747FFBDF80C
:10522000043043450FD19DF80630ED1A6DB2002DC4
:1052300006DD21463046FCF71EF92046FBF72AFE24
:1052400004B0BDE8F0813C46E0E72DE9FF470446A5
:1052500099460F4692469DF8308015F06BFA002370
:10526000ADF804308DF806308DF8073002938DF8D4
:105270000C308DF8033094F834300646002B49D0BA
:105280003846FBF70DFE01463846FBF7A7FF0546FB
:1052900000283FD0B8F1000F14D10DF10303012213
:1052A00007213846FBF78CFE9DF803305A1E012B70
:1052B0008DF8032031DD0DF103030122072128467B
:1052C000FBF7C9FE4022314601A8ADF804A08DF8D5
:1052D00006908DF80780FFF7F9FE092201A92846FC
:1052E000FBF707FFC8B9294604F1BC0004F11C050F
:1052F000FCF7B2F82946E0690EF077F8029928B178
:10530000A36AE26A13445B1A002B03DD891B28465B
:10531000FCF723F904B0BDE8F0872846FBF7BAFD97
:10532000F8E7F0B5054685B008460E4614461F4618
:10533000FBF70CFE02AB014606223046FBF740FEAF
:10534000012832DD9DF80A301A062ED413F0C00F62
:1053500005D1A37BE27B43EA0223ADF80C30BDF814
:105360000C109DF80B2049BA89B22846FFF736FF8A
:10537000BDF80C109DF80B2049BA89B22846FFF7FA
:1053800008FF044668B9BDF80C209DF80B30009763
:1053900052BA92B231462846FFF757FF204605B071
:1053A000F0BD002F18BF0024F8E70224F6E72DE92E
:1053B000F04385B0054615F0BDF905F1BC080023A2
:1053C00007464046ADF804308DF806308DF80730BA
:1053D00002938DF80C30FCF73DF84FF0FF36044691
:1053E000002C56D02046FBF759FD2146814601A8E6
:1053F000FFF75CFE029BFA1A002A05DADB1B9E42CD
:1054000028BF1E464C46EBE79DF8073095F8342040
:105410000133DBB293428DF807301FDA2046FBF7E9
:105420003FFDA0F1090189B22046FBF7D7FE0146F6
:1054300010B12868FEF7BFFF4022394601A8FFF7E8
:1054400045FE2046FBF72CFDA0F1090101AB092226
:1054500089B22046FBF7FFFD029BCFE7214640467D
:10546000FCF709F89DF8072095F834309A42204659
:105470000CD1FBF715FDA0F1090189B22046FBF71D
:1054800011FD21462868FEF796FFBBE7FBF702FDFA
:10549000B8E7731C04D0314605F11C00FCF75DF839
:1054A00005B0BDE8F083FFF782BF10B5034600F1F9
:1054B0008004002193F83F201AB1013A83F83F207D
:1054C00001210433A342F5D121B14FF47A710430A4
:1054D000FCF743F810BDFFF7E8BF0022026041600F
:1054E00070472DE9F7434FF0FF35046807468946BA
:1054F00090462E46A4B141462046FFF73AFD237C54
:105500008DF80700984209DBC8BF8DF807309DF978
:1055100007309E42DCBF94F911501E466469E9E7EA
:105520007868FFF7ADF80446A8B1036842469F6863
:1055300049460DF10703B84718B99DF90770BE42F7
:1055400003DB204600F039F8EDE7204600F039F89B
:105550003E460546F5E7284603B0BDE8F083000067
:1055600038B5002504460C4B036041608560C5607A
:1055700005610275457585750346084A01F5824146
:105580001830FBF797FF84F8B05084F8DC50A56220
:10559000E562204638BD00BFF8E20100F757000081
:1055A000826813461BB18B4205D09B68FAE78A607C
:1055B0008160184670471A207047806A70474068BB
:1055C000704790F91400704770B5064608460C46BF
:1055D000FFF72CFCE8B92046FFF74AFCC8B9204683
:1055E000FFF768FCA8B92046FFF731FC20B9204638
:1055F000FFF74FFC054640B1757D284670BD10226F
:105600002146304617F04EFA18B13669002EF6D111
:10561000F3E70125F1E70123437570470023437544
:105620007047026913461BB18B4205D01B69FAE72C
:105630000A610161184670471A207047807D7047E3
:10564000C068704738B5C4680D4634B12946204655
:10565000FFF7A7FC10B9E469F7E7204638BDC06A38
:10566000003018BF01207047C36A1943C162183067
:10567000FBF742BFC36810B51C461CB18C4208D072
:10568000E469FAE7CB61C1600121FFF7EDFF204635
:1056900010BD1A2010BD08B5C3688B4206D1DB6966
:1056A000C3600221FFF7E0FF002008BD13B91920F5
:1056B00008BD1346DA69002AF9D09142F9D1CA69C6
:1056C000DA61EEE72DE9F843D0F80C8007460C4686
:1056D0004546DDB110222146284617F0E3F998B976
:1056E00007F130039D423FD3B037BD423CD2EB1AA5
:1056F00043F34713013337D023692B6163696B612F
:10570000237E2B76BDE8F883ED69E2E797F8B020B9
:105710000F2A2CD04FFA85FE42FA0EF010F0010647
:1057200005F10105F6D1BEF1030F00DDFEE74FF0F4
:10573000010C0CFA0EF3134387F8B0300FCC07EBD3
:105740004E1909F130050FC594E80F0085E80F00E8
:1057500009F13003C9F84C803846FB606146FFF719
:1057600083FF3046BDE8F8830720BDE8F8830320B7
:10577000BDE8F883F8B5C46805460F46002644B373
:1057800010223946204617F08DF9F8B905F130039B
:105790009C4220D305F1B00294421CD2E31A43F399
:1057A00047135A1C17D0E26976B1F26101229A4080
:1057B00095F8B03023EA0203284685F8B03002217C
:1057C000FFF752FF0020F8BDEA60EFE72646E469E4
:1057D000D5E71920F8BD0720F8BD38B50023846847
:1057E000C56AC36234B1236813B16168284698471B
:1057F000A468F7E738BDFFF7F0BF0163704730B525
:105800000B46024601F1100518685968144603C496
:105810000833AB422246F7D118682060002030BD23
:105820004FF440420280002242608160704742682B
:1058300013461BB18B4203D05B6BFAE74A634160AE
:1058400000207047F8B5142504460F46164600217F
:105850002A4617F05BF92A460021601917F056F91D
:10586000A762E6622146206BBDE8F840FFF7DFBF84
:1058700043688B4205D14B6B4360002048637047FF
:105880001346002BF9D05A6B9142F9D14A6B5A63F7
:10589000F3E738B501460546006BFFF7E9FF04461C
:1058A00048B901461422284617F030F9142221463F
:1058B000A81817F02BF9204638BD03884FF6FF7261
:1058C000934214BF5A1C4FF440420280184670475E
:1058D000083189B28068FEF74FBC006BFFF7F8BF54
:1058E0008068FFF750B8F0B5154606460F460FCD55
:1058F0008FB003AC0FC40FCD0FC495E8070084E848
:10590000070003A8FFF764FA58B1334603AC06F169
:10591000100518685968224603C20833AB42144682
:10592000F7D1338A1BB9306BFFF7C7FF3082338A58
:105930005BBAADF80430BDF82E3038465BBAADF82E
:105940000630FBF7ADFA083040BAADF80800002386
:10595000082201A93846ADF80A30FBF7E2FB48B946
:1059600001463846FBF701FB112303AA3946306B89
:10597000FFF7B6FF0FB0F0BD2DE9F74380460846AC
:105980000D461646FBF78CFA04462846FBF7DEFA6E
:10599000241AA4B2072C6ED906F11007112322464F
:1059A00031463846FEF708FC81462846FBF7CEFA1A
:1059B0002346024649462846FBF7C2FC4FF6FF73D2
:1059C000984203D0002003B0BDE8F0832846FBF7DF
:1059D000BDFA6B46014608222846FBF7F1FA082873
:1059E0000146EFD12846FBF7B3FABDF80030D8F8EE
:1059F00004405BBA7384BDF802305BBA3384002C78
:105A0000E0D0BDF80230228A5BBA9BB29A421CD128
:105A100094F912301BB196F924209A4215D13046E0
:105A2000FFF7FEF918B92046FFF7D2F938B1A28C7A
:105A30006AB9A36AE06A32462946984705E03146CA
:105A40002046FFF7B6FA0028F1D0646BD7E7BDF81F
:105A500000305BBA9BB29342F7D104F11408404680
:105A6000FFF7B6F90028E4D139464046FFF7A1FA1E
:105A70000028DED0E9E70620A5E7F7B508460C4682
:105A80001546ADF80620FBF761FA07462046FBF7FE
:105A900007FA06462046FBF759FA331A3A462946D2
:105AA0009BB22046FBF74CFC4FF6FF73984218BFA1
:105AB000C043ADF80600BDF8063002AD5BBA204623
:105AC00025F8023DFBF742FA811D2B46022289B2DE
:105AD0002046FBF7C0FA002003B0F0BD38B54FF404
:105AE00028730025C3664FF41C73044601600575D6
:105AF0008561C565056645668566036780F87450EF
:105B00000846FFF75CFD0A4BE36700F58240FF2380
:105B1000083084F8A430A067C4F88040C4F88450EA
:105B2000C4F88850C4F88C50C4F8A050204638BD42
:105B3000735D000038B5002380F87430084DC36EE3
:105B400004465D4314F0F6FDC4F88850C4F88400A0
:105B500004F17801A06FBDE838400DF0C3BC00BF70
:105B600080EE360000F17801806F0DF066BC09B15F
:105B7000037D0B700430704730B585B00C46154678
:105B8000011D027D01A80DF063FF230E8DF800308A
:105B90000422230C0DEB02008DF801306946230A24
:105BA0008DF802308DF803400DF067FF062201A842
:105BB00004490DF062FF01A829460DF060FF0020A6
:105BC00005B030BD04E30100102AF8B505460F46C4
:105BD00014461CD8037D934200F1040603D13046DD
:105BE00016F060FFA0B122463946304616F069FF34
:105BF0002C75002405F11C022146AC612846FFF7F4
:105C0000BBFF28682021FFF72FFD2046F8BD0720A5
:105C1000F8BD80697047000083698B4270B5044607
:105C20000D464AD00133994200F1780624D0294626
:105C3000A56104F11C022046FFF79EFF0023E365E7
:105C400023663146A06F0DF0D0FB78B1012384F8B4
:105C500074301A4DE36E5D4314F06CFDC4F8885047
:105C6000C4F884003146A06F0DF03CFC2068202170
:105C7000BDE87040FFF7F8BC036F002BD7D031466A
:105C8000806F0DF0B2FB0028D1D094F87430002B57
:105C9000CDD014F04FFDD4F88420236F074901FBC9
:105CA0000323934204D38242C1D28342BFD970BD41
:105CB000824202D38342BAD970BD70BD80EE3600F5
:105CC0002C3070471C30704710B500F13C02044680
:105CD000FFF752FF04F14C0010BD10B500F13C0479
:105CE0002246FFF749FF204610BDC06D7047C165D1
:105CF000704741667047C36D426E01339342C3657E
:105D000004D3006800F5586001F0CCBE7047006E07
:105D100070470166704781667047036E826E01337B
:105D20009342036604D3006800F5586001F0BABEE0
:105D300070479030704710B500F1900301F11002E8
:105D400051F8044B43F8044B9142F9D10023C0F8B9
:105D5000A03010BDD0F8A00070474B1EB3F5956F72
:105D60009ABFC16600200720704781690131FFF7A3
:105D700053BFFFF7FABF03886FF30A0303801B0AC0
:105D800003F0C7036FF387134370704703886FF303
:105D90000A0303801B0A03F0C7036FF387134370E2
