:1000000000000420952C0000BD2C0000BF2C000037
:10001000C12C0000C32C0000C52C00000000000013
:10002000000000000000000000000000C72C0000DD
:10003000C92C000000000000CB2C0000CD2C0000DB
:1000400051170000691B0200A10C0200CF2C000018
:10005000CF2C0000CF2C0000A11B0000CF2C0000F3
:10006000CF2C0000CF2C0000CF2C0000CF2C0000A4
:10007000CF2C0000750A0200CF2C0000CF2C00000E
:10008000CF2C0000190C0000CF2C0000CF2C00005A
:10009000B90C0000CF2C0000CF2C0000CF2C0000AA
:1000A000CF2C0000CF2C0000CF2C0000CF2C000064
:1000B000CF2C0000CF2C000000000000000000004A
:1000C000CF2C0000CF2C0000CF2C0000CF2C000044
:1000D000BD030200CF2C0000CF2C0000CF2C00006D
:1000E000CF2C0000CF2C0000CF2C0000CF2C000024
:1000F00000000000CF2C0000000000000000000005
:1001000000000000000000000000000000000000EF
:1001100000000000000000000000000000000000DF
:1001200000000000000000000000000000000000CF
:1001300000000000000000000000000000000000BF
:1001400000000000000000000000000000000000AF
:10015000000000000000000000000000000000009F
:10016000000000000000000000000000000000008F
:10017000000000000000000000000000000000007F
:10018000000000000000000000000000000000006F
:10019000000000000000000000000000000000005F
:1001A000000000000000000000000000000000004F
:1001B000000000000000000000000000000000003F
:1001C000000000000000000000000000000000002F
:1001D000000000000000000000000000000000001F
:1001E000000000000000000000000000000000000F
:1001F00000000000000000000000000000000000FF
:1002000010B5054C237833B9044B13B10448AFF350
:1002100000800123237010BD600900200000000051
:10022000B49E0300084B10B51BB108480849AFF352
:1002300000800848036803B910BD074B002BFBD0B2
:10024000BDE81040184700BF00000000B49E030046
:10025000640900205C09002000000000154B002B01
:1002600008BF134B9D46A3F5803A00218B460F46ED
:100270001348144A121A00F065F80F4B002B00D0F7
:1002800098470E4B002B00D0984700200021040017
:100290000D000D48002802D00C48AFF3008000F09C
:1002A0002BF82000290002F04DFB00F011F800BFF0
:1002B0000000080000000420000000000000000012
:1002C0006009002060E40020000000000000000041
:1002D00008B5074B044613B10021AFF30080054B6E
:1002E0001868836A03B19847204600F033F800BFCE
:1002F00000000000F836030070B50E4B0E4CE41AF7
:10030000A41000251E46A54204D056F82530984773
:100310000135F8E733F0E4F9084C094BE41AA4106E
:1003200000251E46A54204D056F8253098470135D1
:10033000F8E770BD54090020540900205809002036
:100340005409002002440346934202D003F8011BE3
:10035000FAE77047FEE700BF2DE9F04F1546C7B03A
:100360001C46002900F01C81002B00F0EF800A23BE
:1003700001930023194606AE519B539A519F03EBFC
:10038000020B019B013B059320258C4601980CEB49
:10039000000304933133F318029306EB0C03002897
:1003A0005FD05A4202F00302824228BF024606286A
:1003B00000F2EC80019A06F80C50012A03F10101C9
:1003C00000F0E280022A5D7003F1020100F0DC809F
:1003D000032A9D7003F1030100F0D680042ADD702A
:1003E00003F1040100F0D080062A1D7103F105011C
:1003F00040F0D3805D71991D9646019890422ED0B1
:10040000C2EB0009A9F104008008013003900598AF
:10041000C2EB000A0398BAF1020F4FEA800812D922
:10042000624401284FF0203C06EB020A46F802C065
:1004300005D00228CAF804C001D0CAF808C0C845CF
:100440004144C6440BD001980D700EF10102904258
:1004500005D90EF1020E70454D7000D98D70019ACC
:100460001344534A0299D2F80080DDF84891DA1C0F
:10047000481C03F1330C0CE002F8035C02F8025C48
:1004800002F8015C0332624500F8015C00F10100F2
:1004900033D0A345F0D9A74295BFE11B509919F875
:1004A0000110095D02F8015C4FEA211E5FFA8EFA25
:1004B000BEF1090F01F00F0ED4BF0AF1300A0AF1A4
:1004C000370ABEF1090F02F803AC94BF0EF1300EEB
:1004D0000EF1370E08EB010A02F802EC9AF801E07F
:1004E00003321EF0970F08BF2E21624500F8011C51
:1004F00004F1010400F10100CBD1029804990D220E
:100500004FF00A0801F14309027480F8118083F862
:10051000305023464FF0000A4C46994606EB0A013C
:100520002246002002F042FA8244241A10B9B8F19F
:10053000010801D0002CF1D1CB454C464FF0000C06
:100540003FF624AF204647B0BDE8F08F06AE0B68FB
:10055000184A30464FF4807132F0A2F90028F1DBDE
:100560000A2307460193284632F001FAC22828BF21
:10057000C220804629460246F01931F0FFFD08EB03
:10058000070300241946F7E6964636E7002A7FF46B
:1005900012AF19469646019832E74FF0050E2CE748
:1005A00013B1019106AEE7E60194274606AEDAE7FD
:1005B00050090020FC3603002DE9F0419046C6B0FA
:1005C0001F46C1B106AE0B68564A30464FF48071E3
:1005D00032F066F900280ADB4C9B0546062B00F238
:1005E0009F80DFE803F042525D6A798A14000020A0
:1005F00046B0BDE8F0814C9B062B00F28F80DFE80F
:1006000003F033424D5A697A0400002506AE07F123
:100610000C017A683B68D7F808C092C9701900923B
:10062000029103944246CDF804C00497C5F5807149
:1006300032F036F90446002CD9DB2C44B4F5807F27
:10064000D5D80A27002506AE71192246002002F0EF
:10065000ADF90544241A08B9013F01D0002CF3D1AB
:10066000012046B0BDE8F0810025404632F07FF918
:100670004319FF2B0446DED806AE414670192246C8
:1006800031F07CFDD7E7002506AE701942463B6885
:10069000C5F5807132F004F90446CCE7002506AEBA
:1006A0007A683B68009270194246C5F5807132F055
:1006B000F7F80446BFE7002506AE7A68B9683B68DC
:1006C0000092019170194246C5F5807132F0E8F848
:1006D0000446B0E7002506AE7A68BC68F9683B6856
:1006E00000920194029170194246C5F5807132F072
:1006F000D7F804469FE7002506AE07F108017A689F
:100700003B6892C970190092019102944246039786
:10071000C5F5807132F0C4F804468CE7002490E7F8
:1007200000248AE7FC36030070B5074C074D237898
:10073000064613B12B78834204D002F077FA0123E6
:100740002E702370002070BD7D0900207C090020E0
:1007500000487047B9050000004870475903000081
:1007600038B50120FFF7E0FF044638B9FFF7F0FF86
:100770000546FFF7F1FF024B5D619861204638BDE9
:100780008009002010B5054C82B00A46002164693A
:1007900000910B46A04702B010BD00BF80090020A9
:1007A000084B1B5C1F2B8ABF074A4FF0A04203F087
:1007B0001F03D2F80405D84000F0010080F00100CA
:1007C000704700BF0437030000030050074B1B5C59
:1007D0001F2B86BF03F01F0305494FF0A0410122E4
:1007E00002FA03F3C1F80C35704700BF0437030069
:1007F00000030050064B1A5C1F2A86BF02F01F023E
:1008000004494FF0A04101239340C1F808357047D7
:1008100004370300000300504FF0A04310B44FF41E
:1008200080404FF400544FF400414FF48032C3F83D
:100830000845C3F80805C3F80815C3F808255DF88E
:10084000044B70474FF0A04310B44FF480404FF476
:1008500000544FF400414FF48032C3F80C45C3F804
:100860000C05C3F80C15C3F80C255DF8044B704754
:100870000A4B195C1F298ABF09484FF0A04001F0BC
:100880001F01D0F8043501228A4022EA03011340F7
:10089000C0F80815C0F80C35704700BF04370300D6
:1008A0000003005030B44FF0A04303224FF4005532
:1008B0004FF480444FF400404FF48031C3F83427A4
:1008C000C3F83827C3F83C27C3F84027C3F80855B6
:1008D000C3F80845C3F80805C3F8081530BC7047CD
:1008E0000B2809D00C2809D0182809D0192814BFC2
:1008F0004FF0FF3003207047002070470120704701
:10090000022070474B4B1978002900F091802DE9A7
:10091000F04F87B0DFF828C104910024012504E0DE
:100920000134049BE4B29C4265D227B2DCF800603B
:1009300016F83700A0F1200305FA03F93E4BC0F189
:10094000200ED3E9002325FA0EFE49EA0E0905FA26
:1009500000F808EA020A09EA030B06EBC7015AEAA3
:100960000B0E0591DCD03449CDF810C022EA080204
:1009700023EA0903C1E9002301F002F916F8376000
:10098000DDF810C0A6F1200205FA02F201920199E9
:10099000C6F120035FFA80FA25FA03F3A6F12002DC
:1009A00019430AFA02F30393019105FA06F1009143
:1009B000C6F120070399214B2AFA07F7394303911F
:1009C0000AFA06F1D3E900230291DDE900011040A3
:1009D000194002460B46DDE902018B4208BF824204
:1009E0004FF0000B0AD0134B1B7804930134049B87
:1009F000E4B29C4299D307B0BDE8F08F059A5768DE
:100A000052780023A2F10102B2FA82F25209002FB9
:100A1000E9D05B4506BF5245012100213046CDF8A3
:100A200014C0B847034BDDF814C01B78049377E774
:100A3000704700BFA4090020D0090020C809002089
:100A4000A00900202DE9F8430746204800F06CFD7E
:100A5000D0B91F4E0123A7F1200103FA01F5C7F118
:100A60002002D6E9000123FA02F2154303FA07F443
:100A700004EA000205EA0103134307D020EA040454
:100A800021EA0505C6E90045BDE8F883384601F0CE
:100A900077F8104FD7E9002398B144EA020845EAF5
:100AA0000309D6E9002314431D43C7E90089C6E9B9
:100AB00000450949054809680022BDE8F84300F0EF
:100AC000DFBC22EA040823EA0509EAE7A8090020B6
:100AD000D0090020C80900209C090020F0B5042A94
:100AE00083B0164602D8072003B0F0BD05460F4676
:100AF00000F0E6FE002836D01D4BDFF88CC0DFF892
:100B00008CE01C481C491D60002200237C1E8CF8D0
:100B10000070CEF80060C0E90023C1E90023E4B210
:100B2000DFB10327002600E01C4623B205EBC30219
:100B300015F833009378114A8DF8053001A98DF826
:100B400004708DF806608DF8076000F0C3FE631E28
:100B50000028C9D1DBB2002CE6D1094A094800219E
:100B600000F07CFCC0E700F065FE0028C4D0BBE7C5
:100B7000A0090020C8090020D0090020450A000073
:100B80000509000008370300A40900209C09002083
:100B900070B5084D2B785BB1074E002433680121F6
:100BA00013F8340000F070FF2B780134A342F5D81D
:100BB000002070BDA4090020A009002000B585B068
:100BC00000230390194644F2010001AAADF8043055
:100BD000029300F003F805B05DF804FB08B50120AE
:100BE0000949FFF7CFFD03200849FFF7CBFDBFF30D
:100BF0004F8F0749074BCA6802F4E0621343CB608A
:100C0000BFF34F8F00BFFDE70C3703001C37030015
:100C100000ED00E00400FA05F8B5204A204B00255D
:100C2000C2F84051C2F84451C2F84851C2F84C5180
:100C3000C2F80051C2F804511B6813B31949D2F825
:100C400004250C68141B1A6824F07F44A2422F4626
:100C500009D8197CDE69A41A154499B91EB1334626
:100C60001A68A242F5D9104B10491A780B789A42AB
:100C70000DD00F490F4A41F823504FF48013C2F8AA
:100C80000031F8BD1F745A6998699047E6E7531C14
:100C9000DBB2022B08BF00230B70EAE70010014013
:100CA000DC090020D8090020E0090020E10900202B
:100CB000F00A002000E100E02DE9F04F7D4A7E4976
:100CC000137809787D48994287B0066800F0E8817A
:100CD0000133DBB2022B08BF002379491370794A34
:100CE0000291084652F82310036874488A190025B7
:100CF00022F07F420260AE462846A3B11A688A42BB
:100D000000F2D681DC68C3F800E0891A1044DA6981
:100D100034B1871927F07F47DD619C605F601D4615
:100D20001346002BEAD1029A04931360049C01231A
:100D30000593654BDFF894811B7801935F4BDFF8D7
:100D400090C1D3F800A0029B1F680023BB462F462A
:100D50000093C1461E464FF0010E37B37A68B9685A
:100D60003D46FF69CAEB020323F07F4363453CD84D
:100D70000B442B606E60AE6085F810E0EE61002CD5
:100D800067D021688B4242D9204603E0116899421E
:100D900044D21046C2695B1A002AF7D12B60EA617F
:100DA0002346C5611C46002FD8D198F8003098F82A
:100DB00001209A4200F08E805A1C03EB430308EB9B
:100DC000C30399F802109D68D2B2914289F80020BD
:100DD0001A7908BF89F80070022A48D0032A3CD04B
:100DE000012A22D023461C46DDE7C2EB0A0222F08C
:100DF0007F428A4202D28B1A2B60BBE72E606E6064
:100E0000AE6085F810E0EE611CB321680023CB1AB8
:100E100023602B46EC61AB461C46C4E7C91A11603F
:100E20002B60EA612346C561BCE72A7C0392002A55
:100E3000D8D1DA686A601969A9605869E860103326
:100E40009B68AB61019B002B8CD0039B6B601A46A7
:100E500088E72B46AB461C46A5E70CB9C2E71C4603
:100E6000E3692674002BFAD19B461C469BE754B1DC
:100E7000A54200F00881234602E0954207D01346C0
:100E8000DA69002AF9D123462E741C468BE7AB425F
:100E900000F0FA80E9692868D9610029F3D0234677
:100EA0000A6802440A60009A2E749C4218BF01220C
:100EB0000092EAE7E0090020E1090020D8090020BB
:100EC000DC090020F00A0020E2090020E4090020EB
:100ED000FEFF7F00029B9DF80420C3F800B0764B14
:100EE000C3F800A0754B1A70009B1BB9049BA3426A
:100EF00000F0D081002C00F03C81714D6E4BD5F894
:100F000004051B686F4ED4F800C03178C21A22F075
:100F10007F420332002952D16B4FDFF8B091DFF8E6
:100F2000B0814FF480314FF4003E0124C5F84413E2
:100F3000C5F80413C7F880E1C7F800E02C602F2142
:100F4000D9F8005000BF00BF00BF00BF00BF00BF06
:100F500000BF00BF45452FD000BF00BF00BF00BF8E
:100F600000BF00BF00BF00BF00BF00BF00BF00BF89
:100F700000BF00BF00BF00BF00BF00BF00BF00BF79
:100F800000BF00BF00BF00BF00BF00BF00BF00BF69
:100F900000BF00BF00BF00BF00BF00BF00BF00BF59
:100FA00000BF00BF00BF00BF00BF00BF00BF00BF49
:100FB00000BF00BF00BF00BF0139C3D1347062451C
:100FC0002CBF9A1803EB0C023D4922F07F43C1F875
:100FD0004035D1F80425121A1B1A22F07F4223F063
:100FE0007F4303329A4248D9D1F80435374AC1F8D1
:100FF0004035126836492F2300BF00BF00BF00BF35
:1010000000BF00BF00BF00BF8A422FD000BF00BF9B
:1010100000BF00BF00BF00BF00BF00BF00BF00BFD8
:1010200000BF00BF00BF00BF00BF00BF00BF00BFC8
:1010300000BF00BF00BF00BF00BF00BF00BF00BFB8
:1010400000BF00BF00BF00BF00BF00BF00BF00BFA8
:1010500000BF00BF00BF00BF00BF00BF00BF00BF98
:1010600000BF00BF00BF00BF00BF00BF013BC3D136
:10107000154B4FF40032C3F80021104A00231370BF
:1010800007B0BDE8F08F2246D4F81CB0BBF1000FCA
:1010900022D0D16910685B4600297FF401AF02E7D6
:1010A0000C4B02931B680493002505951C4640E6F3
:1010B000521A1A6037E600BFD8090020E209002062
:1010C00000100140F80A002000E100E0FC080020C8
:1010D0000024F400DC0900207549764BC1F808E0D3
:1010E00075492F20096800BF00BF00BF00BF00BFC7
:1010F00000BF00BF00BF99422FD000BF00BF00BF9C
:1011000000BF00BF00BF00BF00BF00BF00BF00BFE7
:1011100000BF00BF00BF00BF00BF00BF00BF00BFD7
:1011200000BF00BF00BF00BF00BF00BF00BF00BFC7
:1011300000BF00BF00BF00BF00BF00BF00BF00BFB7
:1011400000BF00BF00BF00BF00BF00BF00BF00BFA7
:1011500000BF00BF00BF00BF00BF0138C3D1D169CD
:101160001068002900F09B800122DA465B4601925C
:1011700096E64F4A514B504E4E484FF480314FF453
:1011800000370125C3F88070C2F848132F23C2F836
:101190000813556031681E4600BF00BF00BF00BF86
:1011A00000BF00BF00BF00BF81422FD000BF00BF03
:1011B00000BF00BF00BF00BF00BF00BF00BF00BF37
:1011C00000BF00BF00BF00BF00BF00BF00BF00BF27
:1011D00000BF00BF00BF00BF00BF00BF00BF00BF17
:1011E00000BF00BF00BF00BF00BF00BF00BF00BF07
:1011F00000BF00BF00BF00BF00BF00BF00BF00BFF7
:1012000000BF00BF00BF00BF00BF00BF013EC3D191
:1012100095602B4A146000BF00BF00BF00BF00BF35
:1012200000BF00BF00BF81422FD000BF00BF00BF82
:1012300000BF00BF00BF00BF00BF00BF00BF00BFB6
:1012400000BF00BF00BF00BF00BF00BF00BF00BFA6
:1012500000BF00BF00BF00BF00BF00BF00BF00BF96
:1012600000BF00BF00BF00BF00BF00BF00BF00BF86
:1012700000BF00BF00BF00BF00BF00BF00BF00BF76
:1012800000BF00BF00BF00BF00BF013BC3D10D4B7B
:101290001C70F2E6059B002B3FF4EFAE2AE601231B
:1012A0001A4601938A468B460B4600922E74ECE553
:1012B000001001400024F400FC08002000E100E0E0
:1012C000D8090020F80A00202DE9F041594B5A4A6C
:1012D0005A4D5B4E4FF480344FF400310120C2F878
:1012E0008010C3F848432F21C3F8084358602D6885
:1012F0000C4600BF00BF00BF00BF00BF00BF00BF63
:1013000000BFB5422FD000BF00BF00BF00BF00BF6D
:1013100000BF00BF00BF00BF00BF00BF00BF00BFD5
:1013200000BF00BF00BF00BF00BF00BF00BF00BFC5
:1013300000BF00BF00BF00BF00BF00BF00BF00BFB5
:1013400000BF00BF00BF00BF00BF00BF00BF00BFA5
:1013500000BF00BF00BF00BF00BF00BF00BF00BF95
:1013600000BF00BF00BF013CC3D1364C98600020D5
:10137000206000BF00BF00BF00BF00BF00BF00BFB4
:1013800000BFB5422FD000BF00BF00BF00BF00BFED
:1013900000BF00BF00BF00BF00BF00BF00BF00BF55
:1013A00000BF00BF00BF00BF00BF00BF00BF00BF45
:1013B00000BF00BF00BF00BF00BF00BF00BF00BF35
:1013C00000BF00BF00BF00BF00BF00BF00BF00BF25
:1013D00000BF00BF00BF00BF00BF00BF00BF00BF15
:1013E00000BF00BF00BF0139C3D1174D1749DFF857
:1013F0006080DFF860C0DFF860E028704FF480168E
:10140000E0250B27C8F800008CF800008EF80000DB
:10141000087048708F70C2F8806182F814531660AB
:10142000C3F8080582F81153D3F804352360BDE8EA
:10143000F08100BF0010014000E100E0FC08002046
:101440000024F400D8090020F80A0020E409002054
:10145000DC090020E0090020E1090020074B9B780F
:101460000BB9082070473AB130B10368187C0028E6
:10147000F7D159745A61704707207047E40900207A
:101480002DE9F041254CA37813B90820BDE8F0817F
:101490000028FAD0042902D80720BDE8F08143696A
:1014A000002BF2D0437C0546012B4FF000000CBF0F
:1014B0008846804617460E4600F06CF86378A078A0
:1014C00021785A1CD2B2904208BF002291421ED00D
:1014D00003EB430304EBC30319464FF0010E41F83D
:1014E000085F0F4883F804E0D0F8040548608E6078
:1014F0000020C3F814809F61627000F053F8094B1C
:101500004FF48012C3F800210020BDE8F0810020D4
:1015100000F048F80420BDE8F08100BFE409002095
:101520000010014000E100E070B5184CA3780BB941
:10153000082070BD0028FBD04369002BF8D000259F
:1015400005740646284600F025F86278A0782178D0
:10155000531CDBB2984208BF2B46994211D002EBD4
:10156000420204EBC20202212846966011716370A8
:1015700000F018F8064B4FF48012C3F800212846FB
:1015800070BD284600F00EF8042070BDE40900206C
:1015900000E100E072B6024A13680133136070473D
:1015A000FC0A0020034A1368013B136003B962B6CA
:1015B000704700BFFC0A002010B50C4C23780BB11B
:1015C000852010BD0A4A6360E3601068A36010F0D4
:1015D0000100236102D1072100F004F94FF080429D
:1015E0000123C2F818352370002010BD000B002025
:1015F00000E100E030B51B4DAB78044683B003F04A
:10160000FF0073B114B16368012098470020FFF711
:10161000C1FFEB6800200133EB60FFF7C3FF03B0AD
:1016200030BDFFF7B7FF64B12A6942B1944208D0D8
:10163000134601E09C4204D01B68002BFAD12260C3
:101640002C61EB68002BE4D1074A0849136013684A
:1016500001934FF0804202200123019CC2F8040351
:101660000B60D6E7000B002004010040080000409A
:101670004FF08043D3F81804C0F30040704700BF18
:1016800030B51A4D6B78044683B003F0FF0073B198
:1016900014B16368002098470020FFF77BFF6B6858
:1016A000002001336B60FFF77DFF03B030BDFFF713
:1016B00071FF64B1AA6842B1944208D0134601E0B8
:1016C0009C4204D01B68002BFAD12260AC606B688E
:1016D000002BE4D1064A1360136801934FF0804356
:1016E00001220199C3F804231A60D8E7000B0020F7
:1016F0000001004008B50020FFF74CFF0C494B6883
:10170000013B4B604B686BB90A4B01221A604FF0EA
:101710008042D2F80C3403F00113B3F1011FF8D06A
:1017200000234B700020BDE80840FFF73BBF00BF1F
:10173000000B0020040000404FF08043D3F80C045D
:1017400000F00110A0F10110B0FA80F040097047DC
:1017500010B5214B1A6882B082B100221A601B6852
:1017600000934FF0804301220099C3F80823D3F877
:101770000C3403F00113B3F1011F1ED0174B1A688C
:101780000AB902B010BD00221A601B6801934FF025
:1017900080430222124C0199C3F8082323690122D5
:1017A000A270002BEDD01A6822615B680120984777
:1017B0002369002BF7D102B010BD094CA3686270F9
:1017C000002BDBD01A68A2605B6800209847A368F2
:1017D000002BF7D1D2E700BF000100400401004018
:1017E000000B0020002810B418DB00F1604303F563
:1017F00061434901C9B283F80013C3B240098000B4
:1018000000F1604000F5614003F01F0201239340A6
:10181000C0F8803103605DF8044B7047C3B2044ADE
:1018200003F00F0449012244C9B21176E6E700BF74
:10183000FCEC00E030B51F4C94F8645083B015B157
:10184000082003B030BD4FF0FF33FF2206200721F0
:1018500023636363A363E36323646364A364E36454
:1018600023656365A365E36523606360A360E3604C
:1018700023616361A361E361236284F86030636282
:10188000A36284F86230E36284F8633084F86120F4
:10189000FFF7A8FF084B094A1D601B6801930198D8
:1018A0004FF000430121284684F86410C2F8043345
:1018B00003B030BD140B00207C610040006000408C
:1018C000034B93F86400003018BF0120704700BF3D
:1018D000140B0020F0B56A4C251895F93030002B18
:1018E00001DB0820F0BD91F803E09446BEF1000F43
:1018F00056D02368013300F0BB80082600256B1CFE
:101900005F4F54F82320013251D0AB1C9E4245D981
:1019100057F8232001324AD0EB1C9E423ED957F89B
:101920002320013243D02B1D9E4237D957F8232064
:1019300001323CD06B1D9E4230D957F823700137DD
:1019400035D0AB1D9E4229D954F823204C4F01328B
:101950002DD0EB1D9E4221D957F82320013226D0ED
:1019600005F108039E4219D957F8232001321ED0F1
:1019700005F109039E4211D957F82320013216D0F0
:1019800005F10A039E4209D957F8237001370ED09A
:101990000B35AE4202D9E36A013307D00420F0BD13
:1019A000236A01335CD00C260825A8E70B232618F0
:1019B000DDB244F823C0324686F83050BEF1000F45
:1019C00002D1234483F858008B78DBB91F284A786A
:1019D00087BF2C4E00F01F0303464FF0A04603F5CF
:1019E000E073920046F82320CB78E3B96AB2083A54
:1019F0001444097894F8602042EA811284F8602047
:101A00001846F0BD1F2887BF1E4B00F01F0202467C
:101A10004FF0A04303EB8203D3F8002722F0020229
:101A2000C3F80027E0E76BB29B0003F1804303F5A6
:101A3000C0430A78D3F8101521F44F3121F44071D6
:101A4000C3F810151204000202F44031D3F8104517
:101A500000F47C520A432243C3F810250020F0BD55
:101A6000082685F830603346C4F820C03546A8E71C
:101A7000002385F83030C4F800C01D46A4E700BF3D
:101A8000140B002000030050F0B43A4D2E1882B021
:101A900096F8302053B2072B20DD2B4493F85830B2
:101AA0009B09032B44D0012B0CBF4FF400324FF4A1
:101AB00040321F2849D900F01F002F4B03EB800054
:101AC000D0F8003723F44033C0F80037D0F800379F
:101AD0001A43C0F8002702B0F0BC7047072AFAD8B2
:101AE000980000F1804000F5C04003F140029200F0
:101AF000D0F8104592B202F18042002744F0010470
:101B000002F5C042C0F810450197019817600029FE
:101B1000E1D096F9302055F82220002ADBD00122AE
:101B2000164902FA03F3C1F8043302B0F0BC70475F
:101B30001F280DD9104BD3F8103500F01F00C340FB
:101B4000DB0713D54FF44032B7E74FF0A043B5E7BA
:101B50004FF0A0421346D2F81025C24012F0010FF8
:101B60000CBF4FF400324FF44032A7E74FF400327D
:101B7000A3E700BF140B00200003005000600040EA
:101B80001F288ABF054B4FF0A04300F01F00D3F879
:101B9000103523FA00F000F00100704700030050F8
:101BA0002DE9F04F89B00025B24B029503951A68D4
:101BB000012A00F05081B04B1A68012A00F03D81E3
:101BC000AE4B1A68012A00F02A81AD4B1A68012A2F
:101BD00000F01781AB4B1A68012A00F00481AA4B70
:101BE0001A68012A00F0F180A84B1A68012A00F057
:101BF000DE80A74B1A68012A00F0CB80A54B1A683B
:101C0000012A00F0B58015F0FF0F1AD0A24F01266F
:101C10000024A30003F180432E4203F5C0434FEAA2
:101C200046060BD0D3F8100557F82420D3F810152A
:101C3000C0F30520C1F3014102B190470134082CE3
:101C4000E7D1002D02DB09B0BDE8F08F934F0022F1
:101C50004FF0FF33A7F163090492059206930793AF
:101C60008F4C4FF0000A4FF0010814F8013FFF2B92
:101C700030D0DBB223F0C00008AAC608951903F0E3
:101C8000070215F8081C08FA02F2114222D009EBEB
:101C9000000E99099EF930E059F82EC0BCF1000FF2
:101CA00056D0032956D01F288ABF03F01F060646C8
:101CB000DFF8F0E115F818BC98BF4FF0A04E06F51C
:101CC000E0761BEA020F5EF82650C5F301451AD1F3
:101CD000032D48D0BC42C8D1BAF1000FB3D04FF0A9
:101CE000A0430299D3F810356E4A9942D2F81025D4
:101CF00002D103999142A6D00498059902930392C8
:101D000006900791ACE7022DE4D1032904D0BCF181
:101D1000000FDFD0E047DDE74FF440321F288BBFD4
:101D2000604D4FF0A04503F01F03034605EB83030E
:101D30000AF1010AD3F8005725F44035C3F80057DB
:101D4000D3F800572A435FFA8AFAC3F80027DEE780
:101D50000329BFD10DF1100B1BF806E04EEA020E6D
:101D60000BF806E09FE70329D1D14FF40032D5E705
:101D700000221A601B6801934FF0A042019BD2F829
:101D80001025484B0292D3F81035039345F00045D7
:101D900039E7454AD2F8042312067FF52FAF002217
:101DA0001A601B680093009B45F0800526E73E4AB9
:101DB000D2F8042351067FF51CAF00221A601B687D
:101DC0000093009B45F0400513E7374AD2F80423FF
:101DD00090067FF509AF00221A601B680093009BF4
:101DE00045F0200500E7304AD2F80423D4067FF5F9
:101DF000F6AE00221A601B680093009B45F01005A8
:101E0000EDE6294AD2F8042316077FF5E3AE002257
:101E10001A601B680093009B45F00805DAE6224A29
:101E2000D2F8042357077FF5D0AE00221A601B6852
:101E30000093009B45F00405C7E61B4AD2F8042333
:101E400092077FF5BDAE00221A601B680093009BCD
:101E500045F00205B4E61449D1F8041311F001016C
:101E600005D01D601B680093009B1546A3E60D4638
:101E7000A1E600BF0061004004610040086100402D
:101E80000C61004010610040146100401861004086
:101E90001C6100407C610040140B0020770B002087
:101EA000730B002000030050006000400220FEF78A
:101EB000DFBC00BF2DE9F0470D460646FEF710FDDA
:101EC000032804461DD8012D1FD00ED3022D1AD190
:101ED0001C4B00EB40041C44657895B11A4B1B6801
:101EE0007BB12846BDE8F04718471848FFF71CFBB0
:101EF0001449174A04EB44030B44155D9B789D423B
:101F0000EBD0BDE8F087BDE8F087DFF83880470008
:101F10003B1808EB030218F8035053782BB92744F9
:101F200047440B4BBA781A55D7E7DFF82890074893
:101F30004A464FF40041FFF7A3FA0028EFD189F891
:101F40000060ECE7F80B0020AC0B0020B00B002089
:101F5000A40B0020F40B002010B50078FEF7C0FCA5
:101F600003280BD8064B00EB40001844407828B1FA
:101F7000044B1B6813B1BDE81040184710BD00BFEB
:101F8000F80B0020AC0B0020B34B1B68DB0700D420
:101F9000704770B5B14EB24D33782C78FBB9172C21
:101FA0001CD8DFE814F0F10014011401630076007E
:101FB000830096005D0039002C0039002C00A3003E
:101FC000A800A800A800A800A800CE00DE0001011B
:101FD000460018001800FEF735FC2C7070BDA14BB0
:101FE0001B7800203070002B00F00581FEF702FC0A
:101FF0000120FEF7FFFB0320FEF7FCFBCFE70123E8
:1020000018463370FEF734FC97484FF480410022A5
:10201000BDE87040FFF734BA012318463370FEF76D
:1020200027FC914840F6CD410022BDE87040FFF703
:1020300027BA8C4B1B78002B00F0FE800020FEF7A7
:10204000D9FB0120FEF7D6FB0320FEF7D3FB0020CF
:10205000FEF7BCFB0120FEF7B9FB15232B7070BD0A
:102060000020FEF7B3FB07232B7070BD0020FEF7A6
:1020700097FB002800F0D3800020FEF7BBFB46F260
:10208000666103232B7078480022BDE87040FFF79B
:10209000F7B90020FEF784FB002800F0C58000207F
:1020A000FEF7A8FB4FF400310423EBE70020FEF716
:1020B00077FB002800F0BD800020FEF79BFB052386
:1020C0002B70694841F69A110022BDE87040FFF775
:1020D000D7B90020FEF7CCFB06232B70624840F6F0
:1020E000CD410022BDE87040FFF7CAB9FEF7AAFB58
:1020F0000C232B7070BD5D48FFF716FAD4F1110464
:1021000005467BD0002879D1012C13D0C82303FBCE
:1021100004F44FF4FA704FF400430021C3FB0401B0
:102120004FF47A7200232FF00FFD2A4601464F48E4
:10213000FFF7A6F90220FEF749FB4A4B01221A706D
:1021400070BD484B1B78002B79D00020FEF752FB66
:102150000120FEF74FFB0320FEF74CFB12232B70F0
:1021600070BD404B1B78002B6FD00020FEF742FB68
:102170000120FEF73FFB0320FEF73CFB0020FEF7AB
:1021800025FB13232B7070BD364B1B78002B59D0C9
:102190000020FEF72FFB0120FEF72CFB0320FEF7AB
:1021A00029FB00232B7070BD2E4B1B78002B4FD0CA
:1021B0000020FEF71FFB0120FEF71CFB0320FEF7AB
:1021C00019FB0120FEF702FB14232B7070BD0020C9
:1021D000FEF7E6FAC8B10020FEF70CFB022C4EF227
:1021E000666118BF4FF400312C701F480022BDE813
:1021F0007040FFF745B9FEF70FFBD0E60220FEF76F
:10220000F9FA184B00221A7070BDFEF7DFFA41F69A
:102210009A1343F23331022C08BF1946E4E7FEF764
:10222000D5FA41F69A112CE7FEF7D0FA43F2333192
:102230003AE7FEF7CBFA42E7FEF7EEFA07E7FEF7DA
:10224000EBFA8BE7FEF7E8FAABE7FEF7E5FA95E77E
:10225000FEF7E2FAB5E700BFA00B0020A80B0020B4
:10226000D00B00209C0B00207C0B0020D40B002006
:1022700038B5C44B1B6813F0010401D1204638BDAA
:10228000C14C23780546E3B9172D00F27881DFE8C9
:1022900015F00B013101310169007D009100A500AD
:1022A0005B003500280035002800B300BA00BA00F2
:1022B000BA00BA00BA00E300F6001C014200630055
:1022C0006300B24B1B7800202070002B00F02781A8
:1022D000FEF790FA0120FEF78DFA0320FEF78AFA46
:1022E000D2E7012318462370FEF7C2FAA8484FF43C
:1022F00080410022BDE83840FFF7C2B801231846EC
:102300002370FEF7B5FAA24840F6CD410022BDE8A1
:102310003840FFF7B5B89D4B1B78002B00F02081AB
:102320000020FEF767FA0120FEF764FA0320FEF7AB
:1023300061FA0020FEF74AFA0120FEF747FA954BB2
:1023400015221A70002499E70020FEF73FFA914BFE
:1023500007221A70002491E7FEF774FA8D4B0024CF
:102360001D708BE70020FEF71BFA002800F0E180CB
:102370000020FEF73FFA46F26661864B844803244C
:102380001C700022BDE83840FFF77AB80020FEF745
:1023900007FA002800F0DC800020FEF72BFA4FF44B
:1023A00000317C4B7A4804241C700022BDE8384080
:1023B000FFF766B80020FEF7F3F9002800F0CD80A3
:1023C0000020FEF717FA734B714805241C7041F684
:1023D0009A110022BDE83840FFF752B80020FEF7FE
:1023E00047FA6C4B6A4806241C7040F6CD41002227
:1023F000BDE83840FFF744B8FEF724FA654B0C22DD
:102400001A7000243AE76448FFF78EF8D5F11105F9
:10241000044600F08780002840F08480012D14D00D
:10242000C82303FB05F54FF4FA704FF40043002175
:10243000C3FB05014FF47A7200232FF085FB22467F
:1024400001465548FFF71CF804460220FEF7BEF986
:102450004E4B01221A7011E74C4B1B78002B00F0F9
:1024600082800020FEF7C6F90120FEF7C3F90320A1
:10247000FEF7C0F9474B12221A700024FEE6434BC8
:102480001B78002B75D00020FEF7B4F90120FEF771
:10249000B1F90320FEF7AEF90020FEF797F93D4BA6
:1024A00013221A700024E9E6384B1B78002B5DD00C
:1024B0000020FEF79FF90120FEF79CF90320FEF7AC
:1024C00099F9344B00241C70D8E6304B1B78002B54
:1024D00052D00020FEF78EF90120FEF78BF9032081
:1024E000FEF788F90120FEF771F92A4B14221A70C1
:1024F0000024C3E60020FEF753F9F8B10020FEF7F0
:1025000079F9022D4EF2666118BF4FF40031214B6C
:102510001F481D700022BDE83840FEF7B1BFFEF72E
:102520007BF9B1E60220FEF765F9184B00221A701C
:10253000A4E6FEF74BF941F69A111EE7FEF746F9BD
:1025400041F69A1343F23331022D08BF1946DEE7F4
:10255000FEF73CF943F2333123E7FEF737F932E770
:10256000FEF75AF9E5E6FEF757F983E7FEF754F967
:10257000A7E7FEF751F98FE7FEF74EF9B2E700241F
:102580007CE600BFA00B0020A80B00209C0B0020C5
:102590007C0B0020D00B0020D40B0020F0B5214A8A
:1025A000214B1060044610F0020083B0196015D072
:1025B0001E4B1F484FF00E0E0F2710261125042129
:1025C00040F2666283F800E0DF709E715D72FEF794
:1025D00085FAA0B1E3071DD403B0F0BDE20719D41A
:1025E0001448154A0021FEF739FF0028F4D113489A
:1025F000134A012103B0BDE8F040FEF72FBFFEF7FC
:10260000C7FA0028E6D101460E4A0F48FEF726FF1A
:10261000E10703D50190FEF745F901980028DFD0C6
:1026200003B0F0BDA00B0020AC0B0020F80B002085
:10263000403703003C370300891F00006037030068
:10264000AD1E0000591F000038370300020700D4F8
:10265000704708B5084605F097FE0E4A052812D8BF
:10266000DFE800F00A0A110303030723137018467A
:10267000BDE80840FFF7FCBD002313701846BDE815
:102680000840FFF7F5BD062313701846BDE8084063
:10269000FFF7EEBD120C002008B51C4B1B78032B76
:1026A00027D8DFE803F0211207020120BDE8084027
:1026B000FEF78CB80120FEF7DBF8154840F6CD4157
:1026C0000022BDE80840FEF7DBBE0120FEF768F8F7
:1026D00080B90120FEF77AF841F69A110C480022E1
:1026E000BDE80840FEF7CCBE0120BDE80840FEF77B
:1026F00081B808BD0120FEF77DF846F26661044806
:102700000022BDE80840FEF7BBBE00BF110C002050
:10271000340C002008B51B78802B00D008BD0D4B71
:10272000072201201A70FEF73BF868B10020FEF77F
:1027300061F80120FEF75EF8074841F69A11002281
:10274000BDE80840FEF79CBEFEF740F80120FEF70A
:102750003DF8F1E7100C0020140C002008B52C4ABD
:102760001378013BDBB2137083B10120FEF718F838
:10277000A0B9FEF72BF80120FEF728F8254841F60E
:102780009A110022BDE80840FEF77ABE224B1B7862
:10279000032B0DD8DFE803F0121B2B090020FEF7F6
:1027A00029F80120FEF726F8E8E70120FEF70EF8E9
:1027B0001A4B1878BDE80840FFF75ABD0120FEF714
:1027C00019F8164B1878BDE80840FFF751BD0120F5
:1027D000FDF7E6FFA8B10120FEF70CF846F26661AE
:1027E0000F480022FEF74CFE0028E1D008BD012072
:1027F000FEF73EF840F6CD4100220948FEF740FEC4
:10280000F2E70120FDF7E2FF41F69A11E8E700BF89
:10281000100C0020140C0020110C0020120C0020C1
:10282000340C0020F8B51A4E1A4B1B4F00242146D9
:102830000C22054630461C703C70FDF783FD214696
:10284000164B1748174A3360FEF708FE044660B17E
:10285000284615492A4604F0FBFF98B928460C493A
:1028600004F07EFF40B92046F8BD01460F4A1048EB
:10287000FEF7F4FD0446EBE70E480F4A0F4BE72145
:102880002FF038FC0B480C4A0D4BE6212FF032FCA0
:10289000040C0020110C0020120C00201527000051
:1028A00064370300992600004D2600005D270000D4
:1028B000683703006C3703006038030014380300E6
:1028C000B4370300704700BF08B5FEF7FDFC00B940
:1028D00008BDBDE80840FEF771B900BF30B4002361
:1028E0004FF4F0304FF0A045032403E0D20748BF77
:1028F00045F821400133202B40FA03F203F5E07143
:10290000F4D14FF0A0434FF4F0310022C3F8081582
:10291000C3F80C2530BC704708B501200021FFF733
:102920003DFE48B9064B1868FFF77CFF00B908BDAB
:10293000BDE80840FEF742B9FEF740F9F2E700BFF4
:10294000540C002008B505460C460020FDF708FF92
:10295000284621461DF0F5FD00201FF0F3FE04F08F
:1029600065FFA8B105460D4C00F0CCFA28460521BC
:1029700005F0F4FC2560FFF7A7FFFFF7CDFFFFF799
:10298000ADFF206805F079FB20681DF0EDFDF8E74C
:102990000348044A044B3F212FF0ACFB540C0020A9
:1029A000703803008C380300803803002DE9F84F9D
:1029B00043001F18DFF880B1FF000BEB07048846C7
:1029C000E16A0129164644D034D302293CD10130B2
:1029D00000EB4000656A0BEBC0094FF0000A1DE0F8
:1029E000126A641BB4422346A2EB050428BF334697
:1029F0009C42D9F8040028BF1C4622462844414680
:102A00002FF0BCFB0BEB070325441A6A954208BF65
:102A10000025361BA244A0445D6217D00BEB0702D1
:102A2000936AAB4203F1FF34DAD8126A1344013BD4
:102A30005C1BD7E7A16A626A91429CBF246A0919AC
:102A400001398A1A964238D94FF0000A5046BDE83B
:102A5000F88FA16A656AA94229D90139226AC5EBB2
:102A6000010A03440BEBC30B0BF1200BDBF8045002
:102A7000314BB24528BFB246561B0130B24500EB80
:102A800040003FD303EBC00441466068324628440F
:102A9000C6EB0A052FF072FB606808EB06012A46B8
:102AA0002FF06CFBCBF804505046BDE8F88F226A3B
:102AB0008C18013CC5EB040AD3E703440BEBC30BB2
:102AC0000BF12007DBF82040D7F804901A4BC9EB34
:102AD00004040130A64200EB40001FD303EBC00505
:102AE0004146686822464844C4EB06092FF046FB7D
:102AF000686808EB04014A462FF040FBB246C7F86D
:102B00000490A3E703EBC0034146586852462844AB
:102B100055442FF033FBCBF8045097E703EBC00389
:102B200041465868324648442FF028FB06EB09031B
:102B30007B60B2468AE700BF10CB00202DE9F04F42
:102B4000344C94F800E083B00546884617461E468C
:102B5000BEF1000F2ED02369DFF8B8A0AB4256D9E2
:102B60004FF000094846CDF80490FEF713FD6DB90B
:102B700029460D4404EBC5040C9BE3620020019B35
:102B8000FEF710FD002003B0BDE8F08F6B1C69005C
:102B900003EB4303DB004A190AEBC2020AEB030E04
:102BA000C2F828904AF80380CEF804701662C2F882
:102BB0002490DEE7184BDFF86CB0DFF86C90C4F8B7
:102BC00028E04FF0100C4FF4007A0222C4F824E001
:102BD000A361C4F858E0A3641049C4F82CE0C4F819
:102BE0005CE0C4F854E0C4F850C0E01DC4F81CB068
:102BF000C4F820A0C4F84C90226162612FF09AFEC4
:102C0000204607492FF096FE2023A371A3E74FF03B
:102C1000FF30B8E710CB0020A0380300AC38030029
:102C2000B0380300680C0020580C0020F8B5134C95
:102C300023780BBB124ADFF858C0124FA3624FF43F
:102C4000007E10266362E362A365E3656365022587
:102C50000D49A261A264C4F81CC0C4F820E0E01DC4
:102C6000E7642665256165612FF064FE204607490B
:102C70002FF060FE2023A371F8BD00BF10CB002011
:102C8000A0380300580C0020AC380300B038030013
:102C9000680C00200649074A074B9B1A03DD043BDA
:102CA000C858D050FBDC00F013F8FDF7D7FA00004D
:102CB000E89E03009808002060090020FEE7FEE778
:102CC000FEE7FEE7FEE7FEE7FEE7FEE7FEE7FEE7DC
:102CD00070B45E4B1B68082B19D05D4AD2F888305F
:102CE00043F47003C2F88830BFF34F8FBFF36F8F88
:102CF0004FF01023D3F80022002A75DBD3F80432FA
:102D0000002B71DB534B544A1A6070BC7047534B15
:102D100019680029E1D14FF080404FF08052C0F88F
:102D20000C114F4BC0F81011C0F83815D2F804142C
:102D3000C3F82015D2F80814C3F82415D2F80C14DF
:102D4000C3F82815D2F81014C3F82C15D2F81414AF
:102D5000C3F83015D2F81814C3F83415D2F81C147F
:102D6000C3F84015D2F82014C3F84415D2F824143F
:102D7000C3F84815D2F82814C3F84C15D2F82C140F
:102D8000C3F85015D2F83014C3F85415D2F83414DF
:102D9000C3F86015D2F83814C3F86415D2F83C149F
:102DA000C3F86815D2F84014C3F86C15D2F844641F
:102DB0002C4C2D49C3F870652C4D2560FB23C1F8C0
:102DC0001835D0F8E43ED2F8581204F50F3423F049
:102DD0000F0204F56D7401F00F0313434FF40072FA
:102DE000C0F8E43E226078E7214B0122C3F80425B5
:102DF000D3F80024002AFBD04FF0102312221C49E4
:102E0000C3F80022D1F80034002BFBD04FF0102380
:102E100012221749C3F80422D1F80024144B002AC7
:102E2000FAD00022C3F80425D3F80024002AFBD0EE
:102E3000BFF34F8F06490F4BCA6802F4E062134399
:102E4000CB60BFF34F8F00BFFDE700BF3001001024
:102E500000ED00E0FC0800200090D00334010010D9
:102E600000C000408C56004000F000404881030044
:102E700000E001400400FA0500F0D4BB10B50446A0
:102E800004F047FBA31D23608023A380204610BDD0
:102E900073B504460E4600F05FF904F52E7004F099
:102EA00049FB144B009304F26231134B019440F23E
:102EB000145204F52F7004F095FB04F53670FFF7FB
:102EC000DDFF002506F50141234684F8605384F8B0
:102ED00061530A4A383104F6780006F09EF9234619
:102EE000074A2946201D03F0F7FD1DF0A5FE2046E8
:102EF00002B070BDA1300000792E0000D52F000077
:102F0000372F000010B5054C01462046FFF7C0FFE3
:102F100000F09CF9844200D0FEE710BD680E00204E
:102F2000D0F8D82200F2DE239A4203D100F67800CE
:102F300006F096B97047FFF7F3BFF8B50446051DD4
:102F400000F5367600F52E77284603F0ABFE50BB31
:102F500094F86033012B1ED009D3022BF4D13146F3
:102F6000384604F01DFBF0B984F86003ECE7314605
:102F7000384604F0E2FAB0B9284603F00AFF01230C
:102F800084F86033284603F00BFFC0B9284603F0ED
:102F90000DFF84F86103324694F86113384604F05B
:102FA000D5FA0028EED0D4F8D81204F2DE20091A9F
:102FB0008BB273B119461DF051FE50B1FEE72846A1
:102FC00003F01AFF204601F0C1FD022384F86033AC
:102FD000C5E7F8BDFFF7B1BF00F2DE23C0F8D83275
:102FE0008023A0F8DC3200F6780006F039B908B585
:102FF00000F02CF918B1BDE80840FFF7EDBF08BD9F
:1030000038B504460D4600F021F938B12A4621466C
:1030100000F52F70BDE8384004F0F2BA38BD00006A
:10302000F0B50C46A1B016461F4600F021F9234624
:10303000184A194D802168462FF032FC68462FF05F
:1030400096FC69460246002003F0DAFC0024BC42EC
:103050004FEA44000CDA292C0AD0A4EB8401204466
:10306000335D2A46803168442FF01AFC0134EEE7C4
:103070002044C0F18001094A68442FF011FC6846E1
:103080002FF075FC0DF10101421E002003F0B8FC89
:1030900021B0F0BDB8380300CC380300D2380300AB
:1030A000FFF7BEBF1A2827D8DFE800F0290E10125C
:1030B0002614161826262626261A1C261E20262604
:1030C0002626262626242200012070470E2070473F
:1030D0000B2070470C207047092070470320704771
:1030E000022070470420704711207047122070475B
:1030F000132070471420704700F58040704700206F
:103100007047437C13F0040F14BF202000201907E0
:1031100048BF40F01000DA0648BF40F008005906EA
:1031200048BF40F002009A0648BF40F00400DA09A8
:1031300018BF40F0010043F3010340EA8310C0B21E
:103140007047FEE7D1F880301843C1F8800001F1E4
:10315000700006F085B80000F8B50F460146044639
:1031600041F8897B4FF40072043003F09FFC314B2F
:1031700063660025A36604F17006C82307F50141C4
:10318000A4F86C30256623462B4A3831304606F0C9
:1031900044F84FF00043C4F88030206884F884502D
:1031A0000B2384F88E32FF2384F88550A4F88650D0
:1031B00084F8885084F8895284F88A5284F88B52B3
:1031C00084F88C5284F88D5284F88F32C4F890526F
:1031D000C4F89452C4F89852C4F89C52C4F8A0524F
:1031E000C4F8A452C4F8A852C4F8AC52C4F8B052FF
:1031F000C4F8B45200B9FEE7104B11491C602246D6
:1032000004F026FB224620680E4904F077FB206874
:10321000012104F07CFB224620680B4904F065FC88
:103220002946206804F098FA304606F019F820463E
:10323000F8BD00BF00F8FF07593C0000F016002061
:1032400045310000A95800002D330000014B1868DB
:10325000704700BFF016002010B50446043003F09C
:10326000FAFC20B9D4F89C320133C4F89C3210BD6A
:10327000D0F890320133C0F89032704710B598B052
:10328000134604460A466846602104F02BF9431EA3
:103290005F2B06D882B26946201D03F0B2FC18B03D
:1032A00010BD0320FBE70EB403B503AA52F8041BBC
:1032B0000192FFF7E3FF02B05DF804EB03B0704743
:1032C00090F88B32F7B504460D4643B3071D3846D8
:1032D00003F092FC18BB2B796E7A01937123009353
:1032E000802206230F492046C6F34006FFF7DBFF86
:1032F000A8B92A792968384603F083FC78B995F98A
:10330000062000966FF07F0307492046FFF7CBFFAA
:1033100028B9204603B0BDE8F040FFF79DBF03B0D9
:10332000F0BD00BFE9380300EE3803000B4601464C
:103330001846FFF7C5BF00002DE9FF4100F1040862
:10334000054640460C46174603F056FC58BB667AC5
:10335000C6F3400607B920790190712300938022BB
:10336000062312492846FFF79EFFE0B9A7B1E3798B
:1033700002936379019394F90620039700966FF006
:103380007F030B492846FFF78EFF60B9284604B03B
:10339000BDE8F041FFF760BF22792168404603F0A5
:1033A00030FC0028E3D004B0BDE8F081E938030028
:1033B000F8380300014B1868FFF7BEBFF016002075
:1033C0002DE9FF4104460AA80E4650F8045B03901D
:1033D000201D1746984603F00FFC88B9CDF80080F1
:1033E0003B46324608492046FFF75DFF40B9039A45
:1033F00029462046FFF742FF10B92046FFF72CFF71
:1034000004B0BDE8F08100BF0539030013B5002307
:103410000193074B00930622302380210446FFF7D7
:10342000CFFF10B1012384F8843002B010BD00BF7B
:103430002742030010B504468CB0002931D091F822
:103440003920130103F0F003900648BF43F0010355
:10345000D2064FF008020B9248BF43F0080301F177
:1034600019020A92089301F10802032309920793B3
:1034700091F8383006934B8E05934FF6FF73039106
:10348000049391F93730029391F836300193074B4A
:1034900000930722332380212046FFF791FF0CB0D1
:1034A00010BD0CB0BDE81040FFF7B0BF7839030085
:1034B0000B4601461846FFF7BDBF00001FB571B1AE
:1034C00091F9013002930B780193074B0093072287
:1034D00039238021FFF774FF05B05DF804FB05B0C8
:1034E0005DF804EBFFF792BF154203000B4601465F
:1034F0001846FFF7E3BF00001FB590F88D12044691
:1035000081B11846FFF7CEFD074B02920190009360
:103510000622002341F080012046FFF751FF0023DF
:1035200084F88D3204B010BD0939030001480068E9
:10353000FFF7E2BFF01600201FB5029190F98F321D
:1035400001930E4B00930446392306228021FFF796
:1035500037FFFF2384F88F3294F88E12084A2068D0
:1035600004F094FB00230193064B009306223023C2
:1035700080212046FFF724FF04B010BD1542030050
:10358000B533000027420300014B1868FFF7D4BF92
:10359000F016002007B511F0300F064B08BF026689
:1035A0000192009306220023FFF70AFF03B05DF8A3
:1035B00004FB00BF07390300F0B50C0606460D46B4
:1035C000BDF814702AD5C1F3011484B914482146FA
:1035D0004FF00C0C0CFB01FE5EF80040A2420BD039
:1035E00001310929F6D105222946304600E006229C
:1035F000BDE8F040FFF7CEBF00EB0E0188684C68D5
:1036000010F0010F4FEA600001D031580C590597B6
:1036100029463044A446BDE8F04060470720F0BD8D
:103620000C39030070B588B000238DF81330059372
:103630000693079307AB029306AB1646019305ABBF
:10364000009304460DF1130308461F4A314603F068
:103650006BFC9DF81310B04201F00F052ED1BDF8A0
:103660001C300093059A069B2046FFF7A5FF94F8AF
:10367000883033B19D421EBFD4F898320133C4F86C
:1036800098320F2D14BF6B1C012384F88830032857
:103690000DD165B194F885300BB984F885500123BC
:1036A00003FA05F5B4F886301D43A4F88650D4F823
:1036B00094320133C4F8943208B070BD0922204618
:1036C000FFF768FFE3E700BFE5380300F0B5124CF1
:1036D000BDF81470964600254FF00C0C0CFB05F657
:1036E0003259724507D00135082DF7D10D22BDE8BA
:1036F000F040FFF74FBF3444A568646815F0010F30
:103700004FEA650501D04659345905972844A44627
:10371000BDE8F040604700BFB44103000022FFF75E
:1037200039BF38B50446006804F0B1F800212068BC
:1037300004F0AFFE0021206804F0BCF87222802162
:103740002046FFF727FF054648B1D4F8803043F004
:103750000043C4F8803004F1700005F081FD284674
:1037600038BD000070B586B00446184606AB00228E
:1037700043F80C2DBDF8286005AA019204AA009216
:103780000D460B4A314603F0CFFBB0420AD1BDF8DB
:1037900014300093039A049B29462046FFF796FFB6
:1037A00006B070BD092229462046FFF7F3FEF7E771
:1037B000E638030038B5044600680D4604F069F8A1
:1037C000FFF770FC294602462046BDE83840FFF767
:1037D000E1BE0222FFF7DEBE0222FFF7DBBE0000E1
:1037E000F0B5054687B000680E461F4604F0B4F9F0
:1037F000002832D0002328680493059304F0C3F90D
:10380000831D0293431D019305AB0093044604AB53
:10381000144ABDF83010384603F086FB00281EDD40
:10382000059A7F2A1BD806F00F0385F88D3204997C
:10383000227120682EF0A2FC042323720A4A286811
:10384000214604F0A6FA30B1FFF72CFC31460246BF
:103850002846FFF79FFE07B0F0BD0E20F4E70620D4
:10386000F2E700BF144203002D350000F0B589B027
:1038700005460F46006800211C46049105910691FB
:10388000079104F058F8064670B307AB029306ABF5
:10389000019305AB00931C4ABDF8381004AB2046D9
:1038A00003F042FBBDF814200499304604F0EBFA13
:1038B000044620BB0121304604F0DAFA314628687C
:1038C00004F029F8044680B9D5F8A4320133C5F8CC
:1038D000A4323B0705D0024639462846FFF75AFE78
:1038E0000446204609B0F0BD0324D5F8B4320133B4
:1038F000C5F8B4322046FFF7D5FB0246ECE7304668
:1039000004F0AEFAF1E700BF66420300F0B589B0FB
:1039100005460F461C4601210023006804930593C9
:103920000693079304F007F8064650B307AB0293DB
:1039300006AB019305AB0093194ABDF8381004ABF0
:10394000204603F0F1FABDF814200499304604F043
:103950009AFA044600BB3146286803F0DCFF0446AF
:1039600080B9D5F8A0320133C5F8A0323B0705D0A5
:10397000024639462846FFF70DFE0446204609B0A8
:10398000F0BD0324D5F8B4320133C5F8B432204673
:10399000FFF788FB0246ECE7304604F061FAF1E7F6
:1039A0006642030037B50446184602AB002203F80E
:1039B000012D0D460B4ABDF8181003F0B5FA00288A
:1039C0000EDD9DF80730012B0CBF0D200720FFF7FF
:1039D00069FB294602462046FFF7DCFD03B030BDF7
:1039E0000620F4E72742030037B50446184602AB29
:1039F000002203F8012D0D460D4ABDF8181003F002
:103A000093FA002811DD9DF80730206853B903F0C0
:103A100074FEFFF747FB294602462046FFF7BAFD32
:103A200003B030BD03F064FEF3E70620F1E700BF0A
:103A3000524803000222FFF7ADBD0222FFF7AABDE4
:103A40000222FFF7A7BD0222FFF7A4BD0222FFF763
:103A5000A1BD0222FFF79EBD0E4BF0B41646002416
:103A60000C2707FB04F5EA58B24206D00134752C46
:103A7000F7D10D22F0BCFFF78DBD2B449C685B682D
:103A800014F0010F4FEA640401D00559EB582044AB
:103A9000F0BC18478C39030070B56E4D0446D4F85D
:103AA0008030002B68D013DA20681CF02FFD082826
:103AB00094BF2A5C772280212046FFF76BFD002807
:103AC0005AD1D4F8803023F00043C4F88030E6E7C0
:103AD00098050BD5602280212046FFF7BDFF002806
:103AE0004AD1D4F8803023F40073EEE713F48066F3
:103AF0000BD0612280212046FFF7AEFF00283BD18A
:103B0000D4F8803023F48063DFE7190742D594F8B6
:103B10008A323BB9432280212046FFF79DFF0028CF
:103B200033D070BD206804F02FFC0138012888BF15
:103B300084F88A62206804F027FC052807D049220F
:103B400080212046FFF788FF0028E3D070BD206861
:103B500004F0D0FC0028F2D0D4F88030206823F0A4
:103B600010030021C4F8803004F093FC6822802107
:103B70002046FFF70FFD00B170BD42228021204694
:103B8000FFF76AFF0028DAD070BDD4F8803023F048
:103B900008039AE7DA060BD5482280212046FFF772
:103BA0005BFF0028E8D1D4F8803023F010038CE7C5
:103BB0009E060BD5472280212046FFF74DFF0028A7
:103BC000DAD1D4F8803023F020037EE798070BD0B9
:103BD000632280212046FFF73FFF0028CCD1D4F894
:103BE000803023F0030370E713F0C00F0BD0522294
:103BF00080212046FFF730FF0028BDD1D4F8803067
:103C000023F0C00361E7D9050ED541F20D528021A2
:103C10002046FFF721FF0028AED1D4F8803023F4EE
:103C2000807343F0804350E75A000BD55A2280211D
:103C30002046FFF711FF00289ED1D4F8803023F0F2
:103C4000804342E713F4C05F3FF429AF23F4C0532D
:103C50003BE700BFD5380300FFF71EBF37B504466A
:103C6000184602AB002243F8042D0D46094ABDF860
:103C7000181003F059F9002806DD019A294620465C
:103C8000FFF7EAFE03B030BD092229462046FFF7C0
:103C900081FCF7E70739030073B50446184602AB09
:103CA0001646002203F8012D0D461B4ABDF81810D8
:103CB00003F03AF900282CDD9DF8073093B994F809
:103CC0008B3213B1206803F056FF0021206803F007
:103CD00038FF80B1FFF7E6F9294602462046FFF794
:103CE00059FC0DE00121206803F02BFF0028F1D1E1
:103CF00094F88B3233B9324629462046FFF7ACFEA2
:103D000002B070BD054A94F88E12206803F0BEFF21
:103D1000DFE70620DEE700BF52480300B5330000AE
:103D200073B50446184602AB1646002203F8012D6F
:103D30000D460C4ABDF8181003F0F6F800280BDD0C
:103D40009DF90710206803F070FE32462946204690
:103D5000FFF782FE02B070BD092229462046FFF718
:103D600019FCF7E75C4F030073B50446184602AB35
:103D70001646002243F8042D0D46184ABDF81810C7
:103D800003F0D2F8002827DD9DF80410206803F026
:103D90000FFEC8B9019B84F88E32206803F0DCFE68
:103DA00030B9324629462046FFF756FE02B070BDB4
:103DB00094F88B32002BF4D0094A94F88E122068C4
:103DC00003F064FF0028ECD0FFF76CF902462946A7
:103DD0002046FFF7DFFBE9E70922F8E70739030090
:103DE000B533000073B50446184602AB16460022F0
:103DF00003F8012D0D46114ABDF8181003F094F890
:103E000000280FDD9DF8071011B1022910D80121FB
:103E100020681CF075FC324629462046FFF71CFE40
:103E200002B070BD092229462046FFF7B3FBF7E731
:103E30000720FFF737F90246F5E700BF27420300E6
:103E4000F8B50546BDF81800013B00264FF0010EFD
:103E500060B113F8014F1F2C0EDC6F6E0EFA04F4E4
:103E60003C4209D00138264380B2F1E7AE662846CD
:103E7000BDE8F840FFF7F0BD0720FFF713F9024651
:103E80002846BDE8F840FFF785BB000073B504463F
:103E9000184602AB1646B4F86C2023F8022D0D46E6
:103EA0000B4ABDF8181003F03FF800280ADDBDF8F2
:103EB0000630A4F86C30324629462046FFF7CCFD88
:103EC00002B070BD092229462046FFF763FBF7E7E1
:103ED0001942030073B50446184602AB164694F81F
:103EE0008A2203F8012D0D460B4ABDF8181003F085
:103EF0001BF800280ADD9DF8073084F88A32324624
:103F000029462046FFF7A8FD02B070BD09222946C8
:103F10002046FFF73FFBF7E75248030073B504461E
:103F20000D461846164601AB0E4ABDF8181002F0B1
:103F3000FBFF002813DD0199206803F059FD30B91B
:103F4000324629462046FFF787FD02B070BDFFF7D5
:103F5000A9F8024629462046FFF71CFBF5E709228F
:103F6000F8E700BF984C030073B50446184602AB4F
:103F70001646002203F8012D0D46174ABDF8181009
:103F800002F0D2FF002825DD206803F0E5FD50B9DE
:103F90009DF8073084F88B32324629462046FFF7D9
:103FA0005BFD02B070BD9DF807307BB10B4A94F801
:103FB0008E12206803F06AFE0028E9D0FFF772F83D
:103FC000294602462046FFF7E5FAEAE7206803F0B3
:103FD000D2FDF1E70620F1E752480300B5330000B7
:103FE00073B50446184602AB1646002203F8012DAD
:103FF0000D460E4ABDF8181002F096FF00280CDDA1
:104000009DF80710206803F055FC38B93246294660
:104010002046FFF721FD02B070BD0620FFF742F8F1
:10402000294602462046FFF7B5FAF4E75248030056
:10403000F7B50446184602AB1646002203F8012DD8
:104040000D46164ABDF8201002F06EFF002822DD52
:1040500020689DF8077004F097F910F1FF3018BF41
:104060000120B84206D1324629462046FFF7F4FC2B
:1040700003B0F0BD9DF8071001B10121206804F0E4
:1040800008FA0028EFD0FFF70DF82946024620462F
:10409000FFF780FAECE70620F5E700BF524803007F
:1040A00073B50446184602AB1646002243F8042DA9
:1040B0000D46184ABDF8181002F036FF002826DD1C
:1040C000019B032B07D8DFE803F002150D112068D0
:1040D00004F017F998B9324629462046FFF7BCFC90
:1040E00002B070BD206804F016F9F3E7206804F010
:1040F00024F9EFE70021206804F008F9EAE7FEF769
:10410000D1FF024629462046FFF744FAE8E7092294
:10411000F8E700BF0739030073B50446184602AB41
:104120001646002243F8042D0D460F4ABDF818101C
:1041300002F0FAFE002814DD019991B1206804F024
:1041400082F830B9324629462046FFF785FC02B096
:1041500070BDFEF7A7FF024629462046FFF71AFA70
:10416000F5E70922F8E700BF2E4203007FB50446B9
:10417000184604AB1646002243F8082D03AA009205
:104180000D460D4ABDF8201002F0CEFE00280DDDD0
:10419000039B082B0AD10299206803F092FF324654
:1041A00029462046FFF758FC04B070BD0922294675
:1041B0002046FFF7EFF9F7E7406303007FB50446B9
:1041C000184604AB1646002243F8082D03AA0092B5
:1041D0000D46104ABDF8201002F0A6FE002817DD9B
:1041E000039A632A14D8D2B20299206803F0E5FF3B
:1041F00030B9324629462046FFF72EFC04B070BD88
:10420000FEF750FF024629462046FFF7C3F9F5E7BF
:104210000922F8E74063030073B50446184602AB71
:104220001646002243F8042D0D460C4ABDF818101E
:1042300002F07AFE00280ADD0199206804F03FF8B8
:10424000324629462046FFF707FC02B070BD09221E
:1042500029462046FFF79EF9F7E700BF7A420300A0
:1042600073B50446184602AB1646002243F8042DE7
:104270000D460C4ABDF8181002F056FE00280ADD63
:104280000199206804F024F8324629462046FFF7B9
:10429000E3FB02B070BD092229462046FFF77AF9F8
:1042A000F7E700BF7A42030073B50446184602AB35
:1042B0001646002203F8012D0D460E4ABDF81810CF
:1042C00002F032FE00280BDD9DF80710206803F095
:1042D000E4FF324629462046FFF7BEFB02B070BD20
:1042E0000620FEF7DFFE294602462046FFF752F978
:1042F000F4E700BF27420300F8B51746BDF81820C1
:10430000072A05460E4611DD1946006803F07BFFBB
:104310003A46044631462846FFF79EFB3CB93A46EA
:1043200031462846BDE8F840FFF796BB06242046F4
:10433000FEF7B8FE314602462846BDE8F840FFF7D2
:1043400029B9000073B50446184602AB1646002290
:1043500003F8012D0D460C4ABDF8181002F0E4FDDB
:1043600000280BDD9DF80710206803F0F5F93246B0
:1043700029462046FFF770FB02B070BD092229468E
:104380002046FFF707F9F7E75248030073B50446E4
:10439000184602AB1646002203F8012D0D460D4AC1
:1043A000BDF8181002F0C0FD00280DDD9DF80710C3
:1043B000206881F0010103F0AAFA3246294620461E
:1043C000FFF74AFB02B070BD092229462046FFF7DD
:1043D000E1F8F7E7524803002DE9F74F884602A9B4
:1043E0000024054601F8034D0068BDF83060914691
:1043F0001F4603F0BBFA82469DF80500A0B9DFF81E
:1044000088A0F8B1FEF74EFE414602462846FFF767
:10441000C1F8064624B14A4680212846FFF71CFB16
:10442000304603B0BDE8F08F3AF81410286803F066
:1044300098FA0028E3D19DF80530013B01348DF84E
:104440000530D9E7012E18DD0DF10603524631463D
:10445000384602F069FDB0F1000B0CDDBDF8061026
:10446000286803F079FA0028CCD1A6EB0B065F444C
:10447000B6B20134E6E70620C4E74A46414628467C
:10448000FFF7EAFA0646CBE719420300F7B5044600
:10449000184602AB1746002203F8012D0E46134AB8
:1044A000BDF8201002F040FD002815DD94F8895277
:1044B0009DF807300DB183F00105314684F889324B
:1044C0003A462046FFF7C8FA064615B1206803F0C1
:1044D000BFFD304603B0F0BD0620FEF7E3FD3146D8
:1044E00002462046FFF756F80646F2E75248030018
:1044F00073B504460D46184616460DF107030C4ADF
:10450000BDF8181002F010FD00280BDD9DF8071013
:10451000206803F0B9FE324629462046FFF79CFA90
:1045200002B070BD092229462046FFF733F8F7E7AD
:10453000524803002DE9F04F85B004460068BDF8ED
:104540003850DFF8A4B0884617461E4603F0B8FA84
:10455000002D3DD0002303930DF10B0300934FF08A
:104560007F0903AB1F4A8DF80B902946304602F0B5
:10457000DBFCB0F1000A19DC03AB5A462946304691
:104580008DF80B9002F0D0FCB0F1000A0EDC062092
:10459000FEF788FD414602462046FEF7FBFF3A46FD
:1045A000054680212046FFF757FA17E09DF90B20BA
:1045B000039920687F2A08D103F060FAA5EB0A0569
:1045C0005644ADB20028C3D0E2E703F062FAF5E743
:1045D0003A4641462046FFF73FFA0546284605B0D1
:1045E000BDE8F08F1B4203002142030073B504466F
:1045F0000D46184616460DF107030C4ABDF8181073
:1046000002F092FC00280BDD9DF80710206803F0F3
:1046100064FA324629462046FFF71EFA02B070BD02
:10462000092229462046FEF7B5FFF7E75248030066
:1046300073B504460D46184616460DF107030F4A9A
:10464000BDF8181002F070FC002814DD9DF807106A
:10465000206803F0A0FA30B9324629462046FFF719
:10466000FBF902B070BDFEF71DFD0246294620464B
:10467000FEF790FFF5E70922F8E700BF5248030074
:1046800073B50446184602AB1646002203F8012D06
:104690000D46174ABDF8181002F046FC002824DD2C
:1046A0009DF807302068C3F3C0024FF0000162F3A9
:1046B0000001C3F3800262F34101C3F3400262F3DD
:1046C000820163F3C30103F05CFD30B93246294631
:1046D0002046FFF7C1F902B070BDFEF7E3FC0246C9
:1046E00029462046FEF756FFF5E70922F8E700BF06
:1046F0002742030073B50446184602AB1646002253
:1047000003F8012D0D460C4ABDF8181002F00CFC00
:1047100000280BDD9DF80710206803F0C0FC32462E
:1047200029462046FFF798F902B070BD09222946B4
:104730002046FEF72FFFF7E72742030073B5044634
:10474000184602AB1646002243F8042D0D460C4ACB
:10475000BDF8181002F0E8FB00280ADD0199206876
:1047600003F0A6FC324629462046FFF775F902B051
:1047700070BD092229462046FEF70CFFF7E700BF6F
:104780007A42030073B50446184602AB164600226F
:1047900003F8012D0D460C4ABDF8181002F0C4FBB9
:1047A00000280BDD9DF80710206803F0A1FD3246BC
:1047B00029462046FFF750F902B070BD092229466C
:1047C0002046FEF7E7FEF7E72742030073B50446ED
:1047D000184602AB1646002203F8012D0D460C4A7E
:1047E000BDF8181002F0A0FB00280BDD9DF80710A3
:1047F000206803F0ABFD324629462046FFF72CF92E
:1048000002B070BD092229462046FEF7C3FEF7E735
:104810002742030073B50446184602AB1646002231
:1048200003F8012D0D460C4ABDF8181002F07CFB70
:1048300000280BDD9DF80710206803F08FFD32463D
:1048400029462046FFF708F902B070BD0922294623
:104850002046FEF79FFEF7E72742030073B50446A4
:10486000184602AB1646002203F8012D0D461A4ADF
:10487000BDF8181002F058FB002827DD9DF807301E
:10488000072B1ED8DFE803F0242404262612121476
:104890000121206803F00CF8034658B11D2B11D1FB
:1048A000152229462046FEF775FE08E00321F0E7B1
:1048B0000421EEE7324629462046FFF7CDF802B044
:1048C00070BD0720FEF7EEFB0246EAE70922E8E7A3
:1048D0000021DEE70221DCE72742030073B504462E
:1048E000184602AB1646002243F8042D0D460C4A2A
:1048F000BDF8181002F018FB00280ADD01992068A5
:1049000003F0D4FC324629462046FFF7A5F802B052
:1049100070BD092229462046FEF73CFEF7E700BF9E
:104920007A42030073B50446184602AB16460022CD
:1049300003F8012D0D460C4ABDF8181002F0F4FAE8
:1049400000280BDD9DF80710206803F0C9FC3246F3
:1049500029462046FFF780F802B070BD092229469B
:104960002046FEF717FEF7E727420300F0B5124C8A
:10497000BDF81470964600254FF00C0C0CFB05F6A4
:104980003259724507D00135302DF7D10D22BDE8DF
:10499000F040FEF7FFBD3444A568646815F0010FD0
:1049A0004FEA650501D04659345905972844A44675
:1049B000BDE8F040604700BF083F030070B586B017
:1049C0000446184606AB002243F80C2DBDF82860BB
:1049D00005AA019204AA00920D460B4A314602F044
:1049E000A3FAB0420AD1BDF814300093039A049B95
:1049F00029462046FFF7BAFF06B070BD09222946B6
:104A00002046FEF7C7FDF7E7E6380300F0B5124C85
:104A1000BDF81470964600254FF00C0C0CFB05F603
:104A20003259724507D00135092DF7D10D22BDE865
:104A3000F040FEF7AFBD3444A568646815F0010F7F
:104A40004FEA650501D04659345905972844A446D4
:104A5000BDE8F040604700BF4841030070B586B034
:104A60000446184606AB002243F80C2DBDF828601A
:104A700005AA019204AA00920D460B4A314602F0A3
:104A800053FAB0420AD1BDF814300093039A049B44
:104A900029462046FFF7BAFF06B070BD0922294615
:104AA0002046FEF777FDF7E7E638030073B50446C6
:104AB0000D46184616460DF106030F4ABDF81810AC
:104AC00002F032FA002814DDBDF80610206803F069
:104AD00047F830B9324629462046FEF7BDFF02B0FE
:104AE00070BDFEF7DFFA024629462046FEF752FD6A
:104AF000F5E70922F8E700BF1942030073B5044641
:104B00000D46184616460DF106030F4ABDF818105B
:104B100002F00AFA002814DDBDF80610206802F041
:104B20008DFF30B9324629462046FEF795FF02B088
:104B300070BDFEF7B7FA024629462046FEF72AFD69
:104B4000F5E70922F8E700BF1942030037B504462C
:104B5000012594F8851099B10B2241F0800120467F
:104B6000FEF718FD70BB94F88530B4F8862005FA7E
:104B700003F122EA0102A4F88620BAB984F885205C
:104B800094F8843063B1002301930F4B0093062205
:104B9000302380212046FEF713FC98B984F8840066
:104BA000204603B0BDE83040FEF776BF0E2BDABFDB
:104BB0000133DBB2012342FA03F1C907F6D584F8C9
:104BC0008530C6E703B030BD2742030007B5036E4A
:104BD0000193044B009313460622FEF7F1FB03B04A
:104BE0005DF804FB073903001FB503230293042378
:104BF0000193044B009313460622FEF7E1FB05B038
:104C00005DF804FB0639030007B503230193044B49
:104C1000009313460622FEF7D3FB03B05DF804FBB6
:104C20000739030007B500230193044B0093134693
:104C30000622FEF7C5FB03B05DF804FB073903004D
:104C400073B5164604460D4603F01AFC054B019059
:104C500000930622334629462046FEF7B1FB02B0F8
:104C600070BD00BF2E42030007B501230193044B22
:104C7000009313460622FEF7A3FB03B05DF804FB86
:104C80002742030007B504230193044B0093134606
:104C90000622FEF795FB03B05DF804FB27420300F4
:104CA000F0B585B002AD04460E46006829461746A9
:104CB00002F0B5FE054B009301953B4606223146B6
:104CC0002046FEF77DFB05B0F0BD00BF984C030009
:104CD00073B50446006816460D4602F03DFF054BCD
:104CE000019000930622334629462046FEF768FBD2
:104CF00002B070BD52480300F7B5054600680E4685
:104D0000174602F051FED8B10A2811DC4FF4FA64BC
:104D1000604300F55C2000F534600B4B019000937C
:104D200006223B4631462846FEF74AFB03B0F0BD5B
:104D3000192807DC054B41F2883202FB0030ECE712
:104D40000348EAE70020E8E77A420300B0DB2300EB
:104D5000CC3F0D0073B50446006816460D4602F0C0
:104D600023FE054B01900093062233462946204638
:104D7000FEF726FB02B070BD2742030073B5044660
:104D8000006816460D461BF0B5FC054B01900093DC
:104D90000622334629462046FEF712FB02B070BDBC
:104DA0005C4F030073B50446006816460D4602F0DA
:104DB00038FE054B019000930622334629462046D3
:104DC000FEF7FEFA02B070BD5C4F0300F7B5044673
:104DD0000068124F0D46164602F0BEFE78B194F9F7
:104DE0008F325A1C0CBF00230223019300973346D5
:104DF000062229462046FEF7E3FA03B0F0BD2068FC
:104E000002F088FE08B10123EFE7206802F094FE6B
:104E100008B10223E9E70190E8E700BF2742030059
:104E200007B5B0F86C300193044B0093134606228B
:104E3000FEF7C6FA03B05DF804FB00BF1942030099
:104E400073B50446006816460D4602F0F3FD054BA7
:104E5000019000930622334629462046FEF7B0FA19
:104E600002B070BD1942030073B5044600681646CF
:104E70000D461BF043FC002814BF022300230193BE
:104E8000044B00930622334629462046FEF798FA43
:104E900002B070BD5C4F030073B50446006816464F
:104EA0000D4602F0E7FD054B0190009306223346C4
:104EB00029462046FEF784FA02B070BD194203006D
:104EC00073B50446006816460D4602F08DFD054B8D
:104ED000019000930622334629462046FEF770FAD9
:104EE00002B070BD984C0300FFF7EABF07B590F819
:104EF0008B320193044B009313460622FEF760FAAF
:104F000003B05DF804FB00BF5248030073B50446CC
:104F1000006816460D4602F0FFFB054B019000931A
:104F20000622334629462046FEF74AFA02B070BDF3
:104F30005248030073B50446006816460D4602F059
:104F4000CBFC054B019000930622334629462046B0
:104F5000FEF736FA02B070BD5248030073B504463E
:104F6000006816460D4603F00FFA10F1FF3018BF27
:104F70000120054B01900093062233462946204626
:104F8000FEF71EFA02B070BD5248030073B5044626
:104F9000006816460D4603F0F7F90338C0B2022840
:104FA00096BF074B0020185C064B01900093062229
:104FB000334629462046FEF703FA02B070BD00BF13
:104FC000DE3803002742030073B504460068164626
:104FD0000D4603F034F9054B019000930622334649
:104FE00029462046FEF7ECF902B070BD2E420300C0
:104FF0007FB50446006816460D4603F05EF80823A8
:105000000293054B01900093062233462946204621
:10501000FEF7D6F904B070BD4063030070B586B0EA
:105020000D4606A90023044601F8013D0068164616
:1050300003F0BEF89DF817300293054B01900093E2
:105040000622334629462046FEF7BAF906B070BD5F
:105050004063030073B50446006816460D4603F02E
:105060002AF9054B01900093062233462946204633
:10507000FEF7A6F902B070BD7A42030073B504468C
:10508000006816460D4603F09DF9054B019000930C
:105090000622334629462046FEF792F902B070BD3B
:1050A0007A42030073B50446006816460D4603F0C5
:1050B0000BF9054B01900093062233462946204602
:1050C000FEF77EF902B070BD7A42030073B5044664
:1050D000006816460D4602F0C0FF054B0190009394
:1050E0000622334629462046FEF76AF902B070BD13
:1050F0002742030073B50446006816460D4602F0C9
:10510000B4FF054B01900093062233462946204602
:10511000FEF756F902B070BD2742030073B504468E
:10512000006816460D4603F03DF9054B01900093CB
:105130000622334629462046FEF742F902B070BDEA
:105140002742030073B50446006816460D4603F077
:10515000A0F8054B019000930622334629462046CD
:10516000FEF72EF902B070BD2742030073B5044666
:10517000006816460D4603F01DF9054B019000939B
:105180000622334629462046FEF71AF902B070BDC2
:1051900027420300F0B587B002AE04460D46006812
:1051A0003146174602F0BDFF50B9094B00930196F6
:1051B0003B46062229462046FEF702F907B0F0BD1D
:1051C000FDF770FF294602462046FEF7E3F9F5E7B2
:1051D00089530300F0B58BB005AE04460D46006858
:1051E0003146174603F007F968B9BDF81C30029341
:1051F000094B009301963B46062229462046FEF7BE
:10520000DFF80BB0F0BDFDF74DFF29460246204602
:10521000FEF7C0F9F5E700BF1842030007B590F8A4
:1052200089320193044B009313460622FEF7C8F817
:1052300003B05DF804FB00BF5248030073B5044699
:10524000006816460D4603F01AF8054B01900093CE
:105250000622334629462046FEF7B2F802B070BD5A
:1052600052480300F0B5054689B000680E4617465F
:1052700002F0C4FF0146A0B10068496804AB0022F7
:105280001C4603C40792069201934022094B0292E6
:10529000009306223B4631462846FEF791F809B0B6
:1052A000F0BD054B009306223B4631462846FEF7EB
:1052B00087F8F4E7264203002942030073B5044649
:1052C000006816460D4602F043FA054B0190009324
:1052D0000622334629462046FEF772F802B070BD1A
:1052E0005248030073B50446006816460D4602F0A6
:1052F0000AFB80F00100C0B2054B0190009306222A
:10530000334629462046FEF75BF802B070BD00BF69
:105310005248030073B5054600680E46144602F075
:10532000E9FB00B9FEE740F265539C4200F08E8035
:1053300037D8B4F5A16F7DD01CD840F204539C42FD
:1053400072D010D840F202539C4269D06AD840F221
:1053500001539C4258D007223146284602B0BDE88E
:105360007040FEF717B940F206539C4260D05DD9F9
:10537000006A4AE040F20C539C4261D006D840F2E9
:105380000A539C425AD057D9006B3EE040F20E536C
:105390009C4259D056D340F264539C42DBD1806B7F
:1053A00033E040F26D539C4260D014D840F2695310
:1053B0009C4251D008D840F267539C424AD0B4F581
:1053C000AD6F45D3006D20E040F26B539C4247D057
:1053D00044D9406E19E040F271539C424CD008D839
:1053E00040F26F539C4245D0B4F5AE6F40D3406F4E
:1053F0000BE040F273539C4236D033D340F27453E7
:105400009C42A8D1006C00E000681C4B0190009306
:105410000622234631462846FDF7D2FF02B070BD72
:10542000C068F2E70069F0E74069EEE78069ECE701
:10543000C069EAE7406AE8E7806AE6E7C06AE4E74D
:105440004068E2E78068E0E7406BDEE7406CDCE75D
:10545000806CDAE7C06CD8E7406DD6E7806DD4E7A2
:10546000C06DD2E7006ED0E7C06BCEE7806ECCE7B0
:10547000C06ECAE7006FC8E7806FC6E77A420300D4
:10548000134607B540F2CC52934245D018D840F2AB
:10549000C95293423AD008D8B3F5B96F2BD007223E
:1054A00003B05DF804EBFEF775B840F2CA529342C0
:1054B0002FD040F2CB529342F1D1D0F8A8221CE079
:1054C00040F22D6293422DD00AD840F2CD52934241
:1054D00025D040F22C629342E1D1D0F89C220CE01E
:1054E00040F22E62934220D040F22F629342D6D1F6
:1054F000D0F8982201E0D0F8A02201920C4A009244
:105500000622FDF75DFF03B05DF804FBD0F8A4228E
:10551000F3E7D0F8B422F0E7D0F8AC22EDE7D0F80A
:10552000B022EAE7D0F89422E7E7D0F89022E4E747
:105530007A42030073B50446006816460D4602F031
:10554000B5F90138C0B2032896BF074B0020185C9C
:10555000064B019000930622334629462046FDF76C
:105560002FFF02B070BD00BFE138030027420300E7
:1055700073B50446006816460D4602F0B2FA054BB4
:10558000019000930622334629462046FDF718FF76
:1055900002B070BD52480300F7B5054600681746D3
:1055A0000E4602F0C6FD10F0010F0CBF00240824C7
:1055B000810748BF44F00404420748BF44F0020496
:1055C000030748BF44F00104054B009301943B4698
:1055D000062231462846FDF7F3FE03B0F0BD00BFBA
:1055E0002742030073B50446006816460D4602F0D4
:1055F00049FD054B0190009306223346294620467B
:10560000FDF7DEFE02B070BD2742030073B504460D
:10561000006816460D4602F047FD054B01900093C9
:105620000622334629462046FDF7CAFE02B070BD69
:105630007A42030073B50446006816460D4602F030
:10564000D5FE054B0190009306223346294620469D
:10565000FDF7B6FE02B070BD1942030073B50446F3
:10566000006816460D4602F03FFE054B0190009380
:105670000622334629462046FDF7A2FE02B070BD41
:105680002742030073B50446006816460D4602F033
:1056900059FE054B019000930622334629462046C9
:1056A000FDF78EFE02B070BD2742030073B50446BD
:1056B000006816460D4602F04DFE054B0190009322
:1056C0000622334629462046FDF77AFE02B070BD19
:1056D0002742030073B50446006816460D4602F0E3
:1056E000E0FD054B019000930622334629462046F3
:1056F000FDF766FE02B070BD7A42030073B5044642
:10570000006816460D4602F0E7FD054B0190009338
:105710000622334629462046FDF752FE02B070BDF0
:105720002742030073B50446006816460D4601F093
:10573000EEFF831E58425841054B0190009306220C
:10574000334629462046FDF73BFE02B070BD00BF40
:105750005248030007B590F88A320193044B009336
:1057600013460622FDF72CFE03B05DF804FB00BFD4
:1057700052480300F0B585B00446154E184604ABF8
:105780001746002203F8012D0D463246BDF82810B9
:1057900001F0CAFB002819DD9DF80F10206802F007
:1057A00073FE58B99DF80F30019300963B460622D0
:1057B00029462046FDF704FE05B0F0BDFDF772FC5A
:1057C000024629462046FDF7E5FEF5E70922F8E7FF
:1057D0002742030073B5044600680D46164602F0E2
:1057E00008FD50B1094B019000930622334629462B
:1057F0002046FDF7E5FD02B070BD054B0093062283
:10580000334629462046FDF7DBFDF4E789530300C4
:10581000294203002DE9F341044608460D4602F0F3
:1058200023FB0646284602F01DFB271D804638460E
:1058300001F0E2F978BB002E14BF722373238DE8C8
:1058400008018022062317492046FDF72CFD10BBD6
:105850002946384601F0EAF9E8B92046FDF7FCFC94
:1058600060B10E2280212046FDF794FED4F8B032BC
:105870000133C4F8B03202B0BDE8F0812EB1D4F8E3
:10588000A8320133C4F8A832F5E7D4F8AC320133BA
:10589000C4F8AC32EFE7002DE3D0284602F0E0FA7E
:1058A000DFE700BFE93803000B4601461846FFF763
:1058B000B1BF00002DE9F347051D04462846884680
:1058C00091469A460A9EBDF82C7001F095F9A0B950
:1058D000CDF800A04B46424609492046FDF7E3FCBF
:1058E00058B93A463146284601F08BF928B9204686
:1058F00002B0BDE8F047FDF7AFBC02B0BDE8F087ED
:10590000053903002DE9F04F85B004460068BDF865
:1059100038900F469246984602F068F90146C8B999
:10592000DFF860B04D464646012D1ED90DF10E033D
:105930005A462946304601F0F7FA002813DD2D1AA1
:10594000BDF80E100644206802F030F9ADB20146F1
:105950000028E9D0FDF7A6FB80B102463946204673
:10596000FDF718FE09E00920F7E78DE8000353462C
:10597000062239462046FFF79DFF0146084605B03E
:10598000BDE8F08F194203002DE9F04F85B00446C1
:105990000068BDF838900F469246984602F031F9FB
:1059A0000146B8B9DFF85CB04D464646072D1CD914
:1059B00003AB5A462946304601F0B6FA002812DDFC
:1059C0002D1A03990644206802F0F8F8ADB201469A
:1059D0000028EBD0FDF766FB80B102463946204631
:1059E000FDF7D8FD09E00920F7E78DE800035346ED
:1059F000062239462046FFF75DFF0146084605B0FE
:105A0000BDE8F08F984C0300F0B585B00446184609
:105A100004AB1646002243F8042D0D460F4ABDF88C
:105A2000281001F081FA002812DD039880B11CF0E3
:105A30005FFF07462CF09BFF013080B2019000977A
:105A40003346062229462046FFF734FF05B0F0BD55
:105A5000092229462046FDF79DFDF7E72E42030067
:105A60002DE9FF41BDF828701E4604460D469046BC
:105A70000DF10E03124A3946304601F055FA00285E
:105A80001CDDBDF80E10206802F090F8014640B110
:105A9000FDF708FB024668B129462046FDF77AFD6E
:105AA00007E08DE8C0004346072229462046FFF75D
:105AB00001FF0146084604B0BDE8F0810922EBE78A
:105AC000194203002DE9FF411E46BDF8287004ABC2
:105AD0009046002243F8042D04460D46124A3946EA
